{
  "abi": [
    {
      "inputs": [
        {
          "internalType": "contract AKX",
          "name": "_AKXToken",
          "type": "address"
        },
        {
          "internalType": "contract Akapz",
          "name": "_akapzGovernanceToken",
          "type": "address"
        },
        {
          "internalType": "contract IUniswapV2Factory",
          "name": "_uniswapV2Factory",
          "type": "address"
        },
        {
          "internalType": "contract IUniswapV2Router02",
          "name": "_uniswapV2Router02",
          "type": "address"
        }
      ],
      "stateMutability": "nonpayable",
      "type": "constructor"
    },
    {
      "inputs": [],
      "name": "AKXToken",
      "outputs": [
        {
          "internalType": "contract AKX",
          "name": "",
          "type": "address"
        }
      ],
      "stateMutability": "view",
      "type": "function"
    },
    {
      "inputs": [],
      "name": "AkapzGovernanceToken",
      "outputs": [
        {
          "internalType": "contract Akapz",
          "name": "",
          "type": "address"
        }
      ],
      "stateMutability": "view",
      "type": "function"
    },
    {
      "inputs": [
        {
          "internalType": "contract IUniswapV2Pair",
          "name": "pair",
          "type": "address"
        },
        {
          "internalType": "uint256",
          "name": "AKXTokenAmountDesired",
          "type": "uint256"
        },
        {
          "internalType": "uint256",
          "name": "ERC20AmountDesired",
          "type": "uint256"
        }
      ],
      "name": "addLiquidityWithERC20",
      "outputs": [],
      "stateMutability": "nonpayable",
      "type": "function"
    },
    {
      "inputs": [
        {
          "internalType": "contract IUniswapV2Pair",
          "name": "pair",
          "type": "address"
        },
        {
          "internalType": "uint256",
          "name": "AKXTokenAmountDesired",
          "type": "uint256"
        }
      ],
      "name": "addLiquidityWithETH",
      "outputs": [],
      "stateMutability": "payable",
      "type": "function"
    },
    {
      "inputs": [],
      "name": "akapzFarmingLPToken",
      "outputs": [
        {
          "internalType": "contract AkapzFarmingLPToken",
          "name": "",
          "type": "address"
        }
      ],
      "stateMutability": "view",
      "type": "function"
    },
    {
      "inputs": [
        {
          "internalType": "contract IUniswapV2Pair",
          "name": "pair",
          "type": "address"
        }
      ],
      "name": "claimEarnedReward",
      "outputs": [],
      "stateMutability": "nonpayable",
      "type": "function"
    },
    {
      "inputs": [
        {
          "internalType": "contract IERC20",
          "name": "erc20",
          "type": "address"
        }
      ],
      "name": "createPairWithERC20",
      "outputs": [
        {
          "internalType": "contract IUniswapV2Pair",
          "name": "pair",
          "type": "address"
        }
      ],
      "stateMutability": "nonpayable",
      "type": "function"
    },
    {
      "inputs": [],
      "name": "createPairWithETH",
      "outputs": [
        {
          "internalType": "contract IUniswapV2Pair",
          "name": "pair",
          "type": "address"
        }
      ],
      "stateMutability": "nonpayable",
      "type": "function"
    },
    {
      "inputs": [],
      "name": "currentStakeId",
      "outputs": [
        {
          "internalType": "uint8",
          "name": "",
          "type": "uint8"
        }
      ],
      "stateMutability": "view",
      "type": "function"
    },
    {
      "inputs": [
        {
          "internalType": "uint8",
          "name": "stakeId",
          "type": "uint8"
        }
      ],
      "name": "getTotalIndividualStakedLPTokenAmount",
      "outputs": [
        {
          "internalType": "uint256",
          "name": "_totalIndividualStakedLPTokenAmount",
          "type": "uint256"
        }
      ],
      "stateMutability": "view",
      "type": "function"
    },
    {
      "inputs": [],
      "name": "getTotalStakedLPTokenAmount",
      "outputs": [
        {
          "internalType": "uint256",
          "name": "_totalStakedLPTokenAmount",
          "type": "uint256"
        }
      ],
      "stateMutability": "view",
      "type": "function"
    },
    {
      "inputs": [],
      "name": "lastBlock",
      "outputs": [
        {
          "internalType": "uint256",
          "name": "",
          "type": "uint256"
        }
      ],
      "stateMutability": "view",
      "type": "function"
    },
    {
      "inputs": [],
      "name": "nextBlock",
      "outputs": [
        {
          "internalType": "uint256",
          "name": "",
          "type": "uint256"
        }
      ],
      "stateMutability": "view",
      "type": "function"
    },
    {
      "inputs": [
        {
          "internalType": "address",
          "name": "",
          "type": "address"
        }
      ],
      "name": "pools",
      "outputs": [
        {
          "internalType": "contract IUniswapV2Pair",
          "name": "lpToken",
          "type": "address"
        },
        {
          "internalType": "uint256",
          "name": "allocPoint",
          "type": "uint256"
        },
        {
          "internalType": "uint256",
          "name": "lastRewardBlock",
          "type": "uint256"
        },
        {
          "internalType": "uint256",
          "name": "accPerShare",
          "type": "uint256"
        }
      ],
      "stateMutability": "view",
      "type": "function"
    },
    {
      "inputs": [
        {
          "internalType": "address payable",
          "name": "staker",
          "type": "address"
        },
        {
          "internalType": "contract IUniswapV2Pair",
          "name": "pair",
          "type": "address"
        },
        {
          "internalType": "uint256",
          "name": "lpTokenAmountUnStaked",
          "type": "uint256"
        }
      ],
      "name": "removeLiquidityWithETH",
      "outputs": [],
      "stateMutability": "nonpayable",
      "type": "function"
    },
    {
      "inputs": [
        {
          "internalType": "uint8",
          "name": "",
          "type": "uint8"
        }
      ],
      "name": "stakeDatas",
      "outputs": [
        {
          "internalType": "address",
          "name": "staker",
          "type": "address"
        },
        {
          "internalType": "contract IUniswapV2Pair",
          "name": "lpToken",
          "type": "address"
        },
        {
          "internalType": "uint256",
          "name": "stakedLPTokenAmount",
          "type": "uint256"
        },
        {
          "internalType": "uint256",
          "name": "startBlock",
          "type": "uint256"
        },
        {
          "internalType": "uint256",
          "name": "shareOfPool",
          "type": "uint256"
        },
        {
          "internalType": "uint256",
          "name": "allocPoint",
          "type": "uint256"
        },
        {
          "internalType": "uint256",
          "name": "lastRewardBlock",
          "type": "uint256"
        },
        {
          "internalType": "uint256",
          "name": "accPerShare",
          "type": "uint256"
        }
      ],
      "stateMutability": "view",
      "type": "function"
    },
    {
      "inputs": [
        {
          "internalType": "contract IUniswapV2Pair",
          "name": "pair",
          "type": "address"
        },
        {
          "internalType": "uint256",
          "name": "lpTokenAmount",
          "type": "uint256"
        }
      ],
      "name": "stakeLPToken",
      "outputs": [],
      "stateMutability": "nonpayable",
      "type": "function"
    },
    {
      "inputs": [
        {
          "internalType": "address",
          "name": "",
          "type": "address"
        }
      ],
      "name": "stakers",
      "outputs": [
        {
          "internalType": "uint256",
          "name": "amount",
          "type": "uint256"
        },
        {
          "internalType": "uint256",
          "name": "rewardDebt",
          "type": "uint256"
        },
        {
          "internalType": "uint256",
          "name": "blockTs",
          "type": "uint256"
        }
      ],
      "stateMutability": "view",
      "type": "function"
    },
    {
      "inputs": [],
      "name": "startBlock",
      "outputs": [
        {
          "internalType": "uint256",
          "name": "",
          "type": "uint256"
        }
      ],
      "stateMutability": "view",
      "type": "function"
    },
    {
      "inputs": [
        {
          "internalType": "contract IUniswapV2Pair",
          "name": "pair",
          "type": "address"
        },
        {
          "internalType": "uint256",
          "name": "unStakedLpTokenAmount",
          "type": "uint256"
        }
      ],
      "name": "unStakeLPToken",
      "outputs": [],
      "stateMutability": "nonpayable",
      "type": "function"
    },
    {
      "inputs": [],
      "name": "uniswapV2Factory",
      "outputs": [
        {
          "internalType": "contract IUniswapV2Factory",
          "name": "",
          "type": "address"
        }
      ],
      "stateMutability": "view",
      "type": "function"
    },
    {
      "inputs": [],
      "name": "uniswapV2Router02",
      "outputs": [
        {
          "internalType": "contract IUniswapV2Router02",
          "name": "",
          "type": "address"
        }
      ],
      "stateMutability": "view",
      "type": "function"
    },
    {
      "inputs": [],
      "name": "wETH",
      "outputs": [
        {
          "internalType": "contract IWETH",
          "name": "",
          "type": "address"
        }
      ],
      "stateMutability": "view",
      "type": "function"
    },
    {
      "inputs": [],
      "name": "weeklyPoolStatusUpdate",
      "outputs": [],
      "stateMutability": "nonpayable",
      "type": "function"
    }
  ],
  "bytecode": {
    "object": "0x6080604052600f6015553480156200001657600080fd5b50604051620021bf380380620021bf833981016040819052620000399162000207565b600480546001600160a01b038087166001600160a01b0319928316178355600680548783169084161790556008805486831690841617905560098054918516919092168117909155604080516315ab88c960e31b81529051919263ad5c4648928282019260209290829003018186803b158015620000b657600080fd5b505afa158015620000cb573d6000803e3d6000fd5b505050506040513d601f19601f82011682018060405250810190620000f191906200026f565b600780546001600160a01b03199081166001600160a01b0393841617909155600a80548216878416179055600b80548216868416179055600d80548216858416179055600e8054909116838316179055600954604080516315ab88c960e31b81529051919092169163ad5c4648916004808301926020929190829003018186803b1580156200017f57600080fd5b505afa15801562000194573d6000803e3d6000fd5b505050506040513d601f19601f82011682018060405250810190620001ba91906200026f565b600c80546001600160a01b0319166001600160a01b0392909216919091179055505043601281905560135550620002969050565b6001600160a01b03811681146200020457600080fd5b50565b600080600080608085870312156200021e57600080fd5b84516200022b81620001ee565b60208601519094506200023e81620001ee565b60408601519093506200025181620001ee565b60608601519092506200026481620001ee565b939692955090935050565b6000602082840312156200028257600080fd5b81516200028f81620001ee565b9392505050565b611f1980620002a66000396000f3fe60806040526004361061014b5760003560e01c80635d22ac1b116100b6578063a313d91f1161006f578063a313d91f146104ca578063a4063dbc146104df578063a7c6402c14610557578063b97e1f7814610577578063d4258bf6146105aa578063f2428621146105bf57600080fd5b80635d22ac1b14610351578063787a466a146103715780637c33cc2314610391578063806b984f1461044457806383788fce1461045a5780639168ae721461047057600080fd5b80634081f501116101085780634081f5011461022457806348cd4cb1146102c85780634d121125146102de5780634d17e8c9146102fe57806359d0f7131461031e5780635c4f127c1461033e57600080fd5b80630e9841b214610150578063111533b414610172578063121b05b8146101af5780631b2903ff146101cf5780631baeaabe146101e4578063398dfad114610204575b600080fd5b34801561015c57600080fd5b5061017061016b366004611bbd565b6105df565b005b34801561017e57600080fd5b50600654610192906001600160a01b031681565b6040516001600160a01b0390911681526020015b60405180910390f35b3480156101bb57600080fd5b506101926101ca366004611be9565b6107e2565b3480156101db57600080fd5b50610192610876565b3480156101f057600080fd5b50600454610192906001600160a01b031681565b34801561021057600080fd5b5061017061021f366004611c06565b61090c565b34801561023057600080fd5b506102ba61023f366004611c3b565b60ff1660009081526002602081815260409283902083516101008101855281546001600160a01b03908116825260018301541692810192909252918201549281018390526003820154606082015260048201546080820152600582015460a0820152600682015460c082015260079091015460e09091015290565b6040519081526020016101a6565b3480156102d457600080fd5b506102ba60125481565b3480156102ea57600080fd5b506101706102f9366004611be9565b610c98565b34801561030a57600080fd5b50600554610192906001600160a01b031681565b34801561032a57600080fd5b50600854610192906001600160a01b031681565b61017061034c366004611bbd565b610d0c565b34801561035d57600080fd5b5061017061036c366004611c5e565b610eaa565b34801561037d57600080fd5b5061017061038c366004611bbd565b611074565b34801561039d57600080fd5b506103fe6103ac366004611c3b565b6002602081905260009182526040909120805460018201549282015460038301546004840154600585015460068601546007909601546001600160a01b03958616979095169593949293919290919088565b604080516001600160a01b03998a168152989097166020890152958701949094526060860192909252608085015260a084015260c083015260e0820152610100016101a6565b34801561045057600080fd5b506102ba60135481565b34801561046657600080fd5b506102ba60145481565b34801561047c57600080fd5b506104af61048b366004611be9565b60006020819052908152604090206001810154600282015460039092015490919083565b604080519384526020840192909252908201526060016101a6565b3480156104d657600080fd5b50600f546102ba565b3480156104eb57600080fd5b5061052d6104fa366004611be9565b600360208190526000918252604090912080546001820154600283015492909301546001600160a01b0390911692919084565b604080516001600160a01b03909516855260208501939093529183015260608201526080016101a6565b34801561056357600080fd5b50600954610192906001600160a01b031681565b34801561058357600080fd5b50600e5461059890600160a01b900460ff1681565b60405160ff90911681526020016101a6565b3480156105b657600080fd5b5061017061108e565b3480156105cb57600080fd5b50600754610192906001600160a01b031681565b6040516323b872dd60e01b8152336004820152306024820152604481018290526001600160a01b038316906323b872dd90606401602060405180830381600087803b15801561062d57600080fd5b505af1158015610641573d6000803e3d6000fd5b505050506040513d601f19601f820116820180604052508101906106659190611c9f565b506005546040516340c10f1960e01b81526001600160a01b03909116906340c10f19906106989033908590600401611cc1565b600060405180830381600087803b1580156106b257600080fd5b505af11580156106c6573d6000803e3d6000fd5b5050505080600f60008282546106dc9190611cf0565b90915550600090506106ec61111f565b600e8054919250600160a01b90910460ff1690601461070a83611d08565b825460ff91821661010093840a9081029083021990911617909255928116600081815260026020818152604080842080546001600160a01b0319908116339081178355600183810180546001600160a01b039f909f169e84169e909e17909d559482019a909a55436003909101558954808b018b557fb10e2d527612073b26eecdfd717e6a320cf44b4afac2b0732d9fcbe2b7fa0cf601805490991683179098559082528181529581208054978801815581528590209486049094018054601f90961690930a93840293021990931691909117905550565b600854600a546040516364e329cb60e11b81526001600160a01b03918216600482015283821660248201526000928392169063c9c6539690604401602060405180830381600087803b15801561083757600080fd5b505af115801561084b573d6000803e3d6000fd5b505050506040513d601f19601f8201168201806040525081019061086f9190611d28565b9392505050565b600854600a54600c546040516364e329cb60e11b81526001600160a01b03928316600482015290821660248201526000928392169063c9c6539690604401602060405180830381600087803b1580156108ce57600080fd5b505af11580156108e2573d6000803e3d6000fd5b505050506040513d601f19601f820116820180604052508101906109069190611d28565b92915050565b6000836001600160a01b031663d21220a76040518163ffffffff1660e01b815260040160206040518083038186803b15801561094757600080fd5b505afa15801561095b573d6000803e3d6000fd5b505050506040513d601f19601f8201168201806040525081019061097f9190611d28565b600454909150610999906001600160a01b0316338561113f565b6109ad6001600160a01b038216338461113f565b600854600a5460405163e6a4390560e01b81526001600160a01b0391821660048201528382166024820152600092919091169063e6a439059060440160206040518083038186803b158015610a0157600080fd5b505afa158015610a15573d6000803e3d6000fd5b505050506040513d601f19601f82011682018060405250810190610a399190611d28565b90506001600160a01b038116610aa55760405162461bcd60e51b815260206004820152602660248201527f54686973207061697220636f6e747261637420686173206e6f742065786973746044820152651959081e595d60d21b60648201526084015b60405180910390fd5b600d54600a54600091610ac5916001600160a01b03918216911685611195565b90506000816001600160a01b03166318160ddd6040518163ffffffff1660e01b815260040160206040518083038186803b158015610b0257600080fd5b505afa158015610b16573d6000803e3d6000fd5b505050506040513d601f19601f82011682018060405250810190610b3a9190611d45565b905060008111610bbc5760405162461bcd60e51b815260206004820152604160248201527f546869732070616972277320746f74616c537570706c79206973207374696c6c60448201527f20302e20506c6561736520616464206c697175696469747920617420666972736064820152601d60fa1b608482015260a401610a9c565b600e54600454610bd9916001600160a01b03918216911688611270565b600e54610bf3906001600160a01b03868116911687611270565b6000806000610c03878a8a611383565b60405163a9059cbb60e01b815292955090935091506001600160a01b0386169063a9059cbb90610c399033908590600401611cc1565b602060405180830381600087803b158015610c5357600080fd5b505af1158015610c67573d6000803e3d6000fd5b505050506040513d601f19601f82011682018060405250810190610c8b9190611c9f565b5050505050505050505050565b6000610ca3826114ab565b6006546040516340c10f1960e01b81529192506001600160a01b0316906340c10f1990610cd69033908590600401611cc1565b600060405180830381600087803b158015610cf057600080fd5b505af1158015610d04573d6000803e3d6000fd5b505050505050565b600454610d23906001600160a01b0316338361113f565b60075460408051630d0e30db60e41b8152905134926001600160a01b03169163d0e30db091600480830192600092919082900301818387803b158015610d6857600080fd5b505af1158015610d7c573d6000803e3d6000fd5b505060048054600e5460405163095ea7b360e01b81526001600160a01b03928316955063095ea7b39450610db7939190921691879101611cc1565b602060405180830381600087803b158015610dd157600080fd5b505af1158015610de5573d6000803e3d6000fd5b505050506040513d601f19601f82011682018060405250810190610e099190611c9f565b506000806000610e198585611675565b60405163a9059cbb60e01b815292955090935091506001600160a01b0387169063a9059cbb90610e4f9033908590600401611cc1565b602060405180830381600087803b158015610e6957600080fd5b505af1158015610e7d573d6000803e3d6000fd5b505050506040513d601f19601f82011682018060405250810190610ea19190611c9f565b50505050505050565b60008080808681610ebc42600f611753565b600954600a54604051629d473b60e21b81529293506001600160a01b03918216926302751cec92610efb9216908b908990899089908990600401611d5e565b6040805180830381600087803b158015610f1457600080fd5b505af1158015610f28573d6000803e3d6000fd5b505050506040513d601f19601f82011682018060405250810190610f4c9190611d99565b600754604051632e1a7d4d60e01b8152600481018390529298509096506001600160a01b031690632e1a7d4d90602401600060405180830381600087803b158015610f9657600080fd5b505af1158015610faa573d6000803e3d6000fd5b50506004805460405163a9059cbb60e01b81526001600160a01b03909116935063a9059cbb9250610fdf918d918b9101611cc1565b602060405180830381600087803b158015610ff957600080fd5b505af115801561100d573d6000803e3d6000fd5b505050506040513d601f19601f820116820180604052508101906110319190611c9f565b506040516001600160a01b038a169086156108fc029087906000818181858888f19350505050158015611068573d6000803e3d6000fd5b50505050505050505050565b8161108033828461175f565b61108983610c98565b505050565b601454439081111561111c5760135481116110fc5760405162461bcd60e51b815260206004820152602860248201527f426c6f636b206e756d626572206973207374696c6c20696e20746865206c61736044820152671d081c195c9a5bd960c21b6064820152608401610a9c565b601381905561110e8162093a80611753565b60145561111c600f54601055565b50565b600e5460009061113a90600160a01b900460ff166001611dbd565b905090565b6110898363a9059cbb60e01b848460405160240161115e929190611cc1565b60408051601f198184030181529190526020810180516001600160e01b03166001600160e01b031990931692909217909152611849565b60008060006111a4858561191b565b6040516bffffffffffffffffffffffff19606084811b8216602084015283901b166034820152919350915086906048016040516020818303038152906040528051906020012060405160200161124c9291906001600160f81b0319815260609290921b6bffffffffffffffffffffffff1916600183015260158201527f96e8ac4277198ff8b6f785478aa9a39f403cb768dd02cbee326c3e7da348845f603582015260550190565b6040516020818303038152906040528051906020012060601c925050509392505050565b8015806112f95750604051636eb1769f60e11b81523060048201526001600160a01b03838116602483015284169063dd62ed3e9060440160206040518083038186803b1580156112bf57600080fd5b505afa1580156112d3573d6000803e3d6000fd5b505050506040513d601f19601f820116820180604052508101906112f79190611d45565b155b6113645760405162461bcd60e51b815260206004820152603660248201527f5361666545524332303a20617070726f76652066726f6d206e6f6e2d7a65726f60448201527520746f206e6f6e2d7a65726f20616c6c6f77616e636560501b6064820152608401610a9c565b6110898363095ea7b360e01b848460405160240161115e929190611cc1565b600080808080808080338161139942600f611753565b9050600960009054906101000a90046001600160a01b03166001600160a01b031663e8e33700600a60009054906101000a90046001600160a01b03168f8f8f898989896040518963ffffffff1660e01b81526004016114439897969594939291906001600160a01b039889168152968816602088015260408701959095526060860193909352608085019190915260a084015290921660c082015260e08101919091526101000190565b606060405180830381600087803b15801561145d57600080fd5b505af1158015611471573d6000803e3d6000fd5b505050506040513d601f19601f820116820180604052508101906114959190611de2565b919f909e50909c509a5050505050505050505050565b336000908152602081815260408083208151815460a0948102820185019093526080810183815285949193849284919084018282801561152857602002820191906000526020600020906000905b825461010083900a900460ff168152602060019283018181049485019490930390920291018084116114f95790505b505050918352505060018281015460208301526002830154604083015260039092015460609091015281519192506000905b82518160ff1610156116005760ff811660009081526002602081815260409283902083516101008101855281546001600160a01b039081168252600183015416928101839052928101549383018490526003810154606084015260048101546080840152600581015460a0840152600681015460c08401526007015460e083015283926115e78187611cf0565b95505050505080806115f890611d08565b91505061155a565b506000611618600f5483611a1390919063ffffffff16565b9050611631601054600f54611a1f90919063ffffffff16565b601181905550600061166a606461165e84611664606461165e601554601154611a2b90919063ffffffff16565b90611a13565b90611a2b565b979650505050505050565b6000808080808087338261168b4261012c611753565b9050600960009054906101000a90046001600160a01b03166001600160a01b031663f305d719600a60009054906101000a90046001600160a01b03168d868e87876040518763ffffffff1660e01b81526004016116ed96959493929190611d5e565b606060405180830381600087803b15801561170757600080fd5b505af115801561171b573d6000803e3d6000fd5b505050506040513d601f19601f8201168201806040525081019061173f9190611de2565b919a50985096505050505050509250925092565b600061086f8284611cf0565b600554604051632770a7eb60e21b81526001600160a01b0390911690639dc29fac906117919086908590600401611cc1565b600060405180830381600087803b1580156117ab57600080fd5b505af11580156117bf573d6000803e3d6000fd5b505060405163a9059cbb60e01b81526001600160a01b038516925063a9059cbb91506117f19086908590600401611cc1565b602060405180830381600087803b15801561180b57600080fd5b505af115801561181f573d6000803e3d6000fd5b505050506040513d601f19601f820116820180604052508101906118439190611c9f565b50505050565b600061189e826040518060400160405280602081526020017f5361666545524332303a206c6f772d6c6576656c2063616c6c206661696c6564815250856001600160a01b0316611a379092919063ffffffff16565b80519091501561108957808060200190518101906118bc9190611c9f565b6110895760405162461bcd60e51b815260206004820152602a60248201527f5361666545524332303a204552433230206f7065726174696f6e20646964206e6044820152691bdd081cdd58d8d9595960b21b6064820152608401610a9c565b600080826001600160a01b0316846001600160a01b0316141561198e5760405162461bcd60e51b815260206004820152602560248201527f556e697377617056324c6962726172793a204944454e544943414c5f41444452604482015264455353455360d81b6064820152608401610a9c565b826001600160a01b0316846001600160a01b0316106119ae5782846119b1565b83835b90925090506001600160a01b038216611a0c5760405162461bcd60e51b815260206004820152601e60248201527f556e697377617056324c6962726172793a205a45524f5f4144445245535300006044820152606401610a9c565b9250929050565b600061086f8284611e10565b600061086f8284611e32565b600061086f8284611e49565b6060611a468484600085611a4e565b949350505050565b606082471015611aaf5760405162461bcd60e51b815260206004820152602660248201527f416464726573733a20696e73756666696369656e742062616c616e636520666f6044820152651c8818d85b1b60d21b6064820152608401610a9c565b6001600160a01b0385163b611b065760405162461bcd60e51b815260206004820152601d60248201527f416464726573733a2063616c6c20746f206e6f6e2d636f6e74726163740000006044820152606401610a9c565b600080866001600160a01b03168587604051611b229190611e94565b60006040518083038185875af1925050503d8060008114611b5f576040519150601f19603f3d011682016040523d82523d6000602084013e611b64565b606091505b509150915061166a82828660608315611b7e57508161086f565b825115611b8e5782518084602001fd5b8160405162461bcd60e51b8152600401610a9c9190611eb0565b6001600160a01b038116811461111c57600080fd5b60008060408385031215611bd057600080fd5b8235611bdb81611ba8565b946020939093013593505050565b600060208284031215611bfb57600080fd5b813561086f81611ba8565b600080600060608486031215611c1b57600080fd5b8335611c2681611ba8565b95602085013595506040909401359392505050565b600060208284031215611c4d57600080fd5b813560ff8116811461086f57600080fd5b600080600060608486031215611c7357600080fd5b8335611c7e81611ba8565b92506020840135611c8e81611ba8565b929592945050506040919091013590565b600060208284031215611cb157600080fd5b8151801515811461086f57600080fd5b6001600160a01b03929092168252602082015260400190565b634e487b7160e01b600052601160045260246000fd5b60008219821115611d0357611d03611cda565b500190565b600060ff821660ff811415611d1f57611d1f611cda565b60010192915050565b600060208284031215611d3a57600080fd5b815161086f81611ba8565b600060208284031215611d5757600080fd5b5051919050565b6001600160a01b039687168152602081019590955260408501939093526060840191909152909216608082015260a081019190915260c00190565b60008060408385031215611dac57600080fd5b505080516020909101519092909150565b600060ff821660ff84168060ff03821115611dda57611dda611cda565b019392505050565b600080600060608486031215611df757600080fd5b8351925060208401519150604084015190509250925092565b600082611e2d57634e487b7160e01b600052601260045260246000fd5b500490565b600082821015611e4457611e44611cda565b500390565b6000816000190483118215151615611e6357611e63611cda565b500290565b60005b83811015611e83578181015183820152602001611e6b565b838111156118435750506000910152565b60008251611ea6818460208701611e68565b9190910192915050565b6020815260008251806020840152611ecf816040850160208701611e68565b601f01601f1916919091016040019291505056fea2646970667358221220b7417a867054409a650c1c968867ea6968186e20d07b18a3f6231cc3862b284264736f6c63430008090033",
    "linkReferences": {}
  }
}