{
  "abi": [
    {
      "anonymous": false,
      "inputs": [
        {
          "indexed": true,
          "internalType": "address",
          "name": "previousOwner",
          "type": "address"
        },
        {
          "indexed": true,
          "internalType": "address",
          "name": "newOwner",
          "type": "address"
        }
      ],
      "name": "OwnershipTransferred",
      "type": "event"
    },
    {
      "inputs": [],
      "name": "create",
      "outputs": [],
      "stateMutability": "nonpayable",
      "type": "function"
    },
    {
      "inputs": [],
      "name": "owner",
      "outputs": [
        {
          "internalType": "address",
          "name": "",
          "type": "address"
        }
      ],
      "stateMutability": "view",
      "type": "function"
    },
    {
      "inputs": [],
      "name": "renounceOwnership",
      "outputs": [],
      "stateMutability": "nonpayable",
      "type": "function"
    },
    {
      "inputs": [
        {
          "internalType": "address",
          "name": "_token",
          "type": "address"
        }
      ],
      "name": "setAKXT",
      "outputs": [],
      "stateMutability": "nonpayable",
      "type": "function"
    },
    {
      "inputs": [],
      "name": "token",
      "outputs": [
        {
          "internalType": "contract AKX",
          "name": "",
          "type": "address"
        }
      ],
      "stateMutability": "view",
      "type": "function"
    },
    {
      "inputs": [
        {
          "internalType": "address",
          "name": "newOwner",
          "type": "address"
        }
      ],
      "name": "transferOwnership",
      "outputs": [],
      "stateMutability": "nonpayable",
      "type": "function"
    }
  ],
  "bytecode": {
    "object": "0x608060405234801561001057600080fd5b5061001a3361001f565b61006f565b600080546001600160a01b038381166001600160a01b0319831681178455604051919092169283917f8be0079c531659141344cd1fd0a4f28419497f9722a3daafe3b4186f6b6457e09190a35050565b61072b8061007e6000396000f3fe608060405234801561001057600080fd5b50600436106100625760003560e01c80636b31881314610067578063715018a61461007c5780638da5cb5b14610084578063efc81a8c146100ad578063f2fde38b146100b5578063fc0c546a146100c8575b600080fd5b61007a61007536600461052d565b6100db565b005b61007a6101e9565b6000546001600160a01b03165b6040516001600160a01b03909116815260200160405180910390f35b61007a61021f565b61007a6100c336600461052d565b610442565b600154610091906001600160a01b031681565b6000546001600160a01b0316331461010e5760405162461bcd60e51b81526004016101059061055d565b60405180910390fd5b6001546001600160a01b0316156101715760405162461bcd60e51b815260206004820152602160248201527f46756e6374696f6e2063616e20626520696e766f6b6564206f6e6c79206f6e636044820152606560f81b6064820152608401610105565b6001600160a01b0381166101c75760405162461bcd60e51b815260206004820152601e60248201527f496e76616c696420746f6b656e20636f6e7472616374206164647265737300006044820152606401610105565b600180546001600160a01b0319166001600160a01b0392909216919091179055565b6000546001600160a01b031633146102135760405162461bcd60e51b81526004016101059061055d565b61021d60006104dd565b565b6001546001600160a01b03166102775760405162461bcd60e51b815260206004820152601f60248201527f546f6b656e20636f6e747261637420686173206e6f74206265656e20736574006044820152606401610105565b6001546040805163313ce56760e01b815290516000926001600160a01b03169163313ce567916004808301926020929190829003018186803b1580156102bc57600080fd5b505afa1580156102d0573d6000803e3d6000fd5b505050506040513d601f19601f820116820180604052508101906102f49190610592565b6103029060ff16600a6106b1565b61030e906103e86106bd565b6001546040516370a0823160e01b815233600482015291925082916001600160a01b03909116906370a082319060240160206040518083038186803b15801561035657600080fd5b505afa15801561036a573d6000803e3d6000fd5b505050506040513d601f19601f8201168201806040525081019061038e91906106dc565b106103db5760405162461bcd60e51b815260206004820152601960248201527f43616e6e6f742061637175697265206d6f72652066756e6473000000000000006044820152606401610105565b6001546040516340c10f1960e01b8152336004820152602481018390526001600160a01b03909116906340c10f1990604401600060405180830381600087803b15801561042757600080fd5b505af115801561043b573d6000803e3d6000fd5b5050505050565b6000546001600160a01b0316331461046c5760405162461bcd60e51b81526004016101059061055d565b6001600160a01b0381166104d15760405162461bcd60e51b815260206004820152602660248201527f4f776e61626c653a206e6577206f776e657220697320746865207a65726f206160448201526564647265737360d01b6064820152608401610105565b6104da816104dd565b50565b600080546001600160a01b038381166001600160a01b0319831681178455604051919092169283917f8be0079c531659141344cd1fd0a4f28419497f9722a3daafe3b4186f6b6457e09190a35050565b60006020828403121561053f57600080fd5b81356001600160a01b038116811461055657600080fd5b9392505050565b6020808252818101527f4f776e61626c653a2063616c6c6572206973206e6f7420746865206f776e6572604082015260600190565b6000602082840312156105a457600080fd5b815160ff8116811461055657600080fd5b634e487b7160e01b600052601160045260246000fd5b600181815b808511156106065781600019048211156105ec576105ec6105b5565b808516156105f957918102915b93841c93908002906105d0565b509250929050565b60008261061d575060016106ab565b8161062a575060006106ab565b8160018114610640576002811461064a57610666565b60019150506106ab565b60ff84111561065b5761065b6105b5565b50506001821b6106ab565b5060208310610133831016604e8410600b8410161715610689575081810a6106ab565b61069383836105cb565b80600019048211156106a7576106a76105b5565b0290505b92915050565b6000610556838361060e565b60008160001904831182151516156106d7576106d76105b5565b500290565b6000602082840312156106ee57600080fd5b505191905056fea2646970667358221220f71df9240b250aa9a6516c6b55d949b39a5bcbee4151f2cf389944eee050ee6864736f6c63430008090033",
    "linkReferences": {}
  }
}