{
  "abi": [
    {
      "inputs": [],
      "name": "MEDIA_TYPE_FREEBIE_IMAGE",
      "outputs": [
        {
          "internalType": "bytes32",
          "name": "",
          "type": "bytes32"
        }
      ],
      "stateMutability": "view",
      "type": "function"
    },
    {
      "inputs": [],
      "name": "MEDIA_TYPE_FREEBIE_STREAM",
      "outputs": [
        {
          "internalType": "bytes32",
          "name": "",
          "type": "bytes32"
        }
      ],
      "stateMutability": "view",
      "type": "function"
    },
    {
      "inputs": [],
      "name": "MEDIA_TYPE_FREEBIE_VIDEO",
      "outputs": [
        {
          "internalType": "bytes32",
          "name": "",
          "type": "bytes32"
        }
      ],
      "stateMutability": "view",
      "type": "function"
    },
    {
      "inputs": [],
      "name": "MEDIA_TYPE_IMAGE",
      "outputs": [
        {
          "internalType": "bytes32",
          "name": "",
          "type": "bytes32"
        }
      ],
      "stateMutability": "view",
      "type": "function"
    },
    {
      "inputs": [],
      "name": "MEDIA_TYPE_PPMS",
      "outputs": [
        {
          "internalType": "bytes32",
          "name": "",
          "type": "bytes32"
        }
      ],
      "stateMutability": "view",
      "type": "function"
    },
    {
      "inputs": [],
      "name": "MEDIA_TYPE_PPVS",
      "outputs": [
        {
          "internalType": "bytes32",
          "name": "",
          "type": "bytes32"
        }
      ],
      "stateMutability": "view",
      "type": "function"
    },
    {
      "inputs": [],
      "name": "MEDIA_TYPE_VIDEO",
      "outputs": [
        {
          "internalType": "bytes32",
          "name": "",
          "type": "bytes32"
        }
      ],
      "stateMutability": "view",
      "type": "function"
    },
    {
      "inputs": [
        {
          "components": [
            {
              "internalType": "string",
              "name": "mimeType",
              "type": "string"
            },
            {
              "internalType": "uint256",
              "name": "size",
              "type": "uint256"
            },
            {
              "internalType": "uint256",
              "name": "heightPx",
              "type": "uint256"
            },
            {
              "internalType": "uint256",
              "name": "widthPx",
              "type": "uint256"
            },
            {
              "internalType": "bool",
              "name": "_censoredIfNotPurchased",
              "type": "bool"
            },
            {
              "internalType": "bool",
              "name": "_isNSFW",
              "type": "bool"
            },
            {
              "internalType": "string",
              "name": "title",
              "type": "string"
            },
            {
              "internalType": "string",
              "name": "_description",
              "type": "string"
            },
            {
              "internalType": "uint256",
              "name": "_timestamp",
              "type": "uint256"
            },
            {
              "internalType": "uint256",
              "name": "_expiry",
              "type": "uint256"
            }
          ],
          "internalType": "struct Media.ImageDetails",
          "name": "_image",
          "type": "tuple"
        }
      ],
      "name": "newImage",
      "outputs": [
        {
          "components": [
            {
              "internalType": "string",
              "name": "mimeType",
              "type": "string"
            },
            {
              "internalType": "uint256",
              "name": "size",
              "type": "uint256"
            },
            {
              "internalType": "uint256",
              "name": "heightPx",
              "type": "uint256"
            },
            {
              "internalType": "uint256",
              "name": "widthPx",
              "type": "uint256"
            },
            {
              "internalType": "bool",
              "name": "_censoredIfNotPurchased",
              "type": "bool"
            },
            {
              "internalType": "bool",
              "name": "_isNSFW",
              "type": "bool"
            },
            {
              "internalType": "string",
              "name": "title",
              "type": "string"
            },
            {
              "internalType": "string",
              "name": "_description",
              "type": "string"
            },
            {
              "internalType": "uint256",
              "name": "_timestamp",
              "type": "uint256"
            },
            {
              "internalType": "uint256",
              "name": "_expiry",
              "type": "uint256"
            }
          ],
          "internalType": "struct Media.ImageDetails",
          "name": "",
          "type": "tuple"
        }
      ],
      "stateMutability": "pure",
      "type": "function"
    }
  ],
  "bytecode": {
    "object": "0x6105be61003a600b82828239805160001a60731461002d57634e487b7160e01b600052600060045260246000fd5b30600052607381538281f3fe73000000000000000000000000000000000000000030146080604052600436106100925760003560e01c80636748031c116100655780636748031c146100e657806381aebef8146100ee578063c840950e146100c0578063f7af1423146100f657600080fd5b8063098d8f811461009757806310169a2b146100c057806314e1ec4c146100d65780631a462ed9146100de575b600080fd5b6100aa6100a53660046103c9565b6100fe565b6040516100b79190610459565b60405180910390f35b6100c86102a2565b6040519081526020016100b7565b6100c86102e3565b6100c861030c565b6100c861033d565b6100c861036f565b6100c8610398565b61015860405180610140016040528060608152602001600081526020016000815260200160008152602001600015158152602001600015158152602001606081526020016060815260200160008152602001600081525090565b6040805161014081019091528061016f8480610518565b8080601f0160208091040260200160405190810160405280939291908181526020018383808284376000920191909152505050908252506020848101359082015260408085013590820152606080850135908201526080908101906101da9060a08601908601610566565b151581526020016101f160c0850160a08601610566565b1515815260200161020560c0850185610518565b8080601f01602080910402602001604051908101604052809392919081815260200183838082843760009201919091525050509082525060200161024c60e0850185610518565b8080601f0160208091040260200160405190810160405280939291908181526020018383808284376000920191909152505050908252506101008401356020820152610120909301356040909301929092525090565b6040516020016102ca9060208082526004908201526350504d5360e01b604082015260600190565b6040516020818303038152906040528051906020012081565b6040516020016102ca90602080825260059082015264494d41474560d81b604082015260600190565b6040516020016102ca906020808252600d908201526c465245454249455f494d41474560981b604082015260600190565b6040516020016102ca906020808252600e908201526d465245454249455f53545245414d60901b604082015260600190565b6040516020016102ca90602080825260059082015264564944454f60d81b604082015260600190565b6040516020016102ca906020808252600d908201526c465245454249455f564944454f60981b604082015260600190565b6000602082840312156103db57600080fd5b813567ffffffffffffffff8111156103f257600080fd5b8201610140818503121561040557600080fd5b9392505050565b6000815180845260005b8181101561043257602081850181015186830182015201610416565b81811115610444576000602083870101525b50601f01601f19169290920160200192915050565b602081526000825161014080602085015261047861016085018361040c565b915060208501516040850152604085015160608501526060850151608085015260808501516104ab60a086018215159052565b5060a085015180151560c08601525060c0850151601f19808685030160e08701526104d6848361040c565b935060e087015191506101008187860301818801526104f5858461040c565b908801516101208881019190915290970151929095019190915250929392505050565b6000808335601e1984360301811261052f57600080fd5b83018035915067ffffffffffffffff82111561054a57600080fd5b60200191503681900382131561055f57600080fd5b9250929050565b60006020828403121561057857600080fd5b8135801515811461040557600080fdfea264697066735822122020f6cb85fa7f928bbefe7f57aef88698609d6aa274cc392059b0fb57a1708e2864736f6c63430008090033",
    "linkReferences": {}
  }
}