{
  "contractName": "AkapzPoolStorage",
  "abi": [
    {
      "inputs": [
        {
          "internalType": "address",
          "name": "",
          "type": "address"
        }
      ],
      "name": "pools",
      "outputs": [
        {
          "internalType": "contract IUniswapV2Pair",
          "name": "lpToken",
          "type": "address"
        },
        {
          "internalType": "uint256",
          "name": "allocPoint",
          "type": "uint256"
        },
        {
          "internalType": "uint256",
          "name": "lastRewardBlock",
          "type": "uint256"
        },
        {
          "internalType": "uint256",
          "name": "accPerShare",
          "type": "uint256"
        }
      ],
      "stateMutability": "view",
      "type": "function"
    },
    {
      "inputs": [
        {
          "internalType": "uint8",
          "name": "",
          "type": "uint8"
        }
      ],
      "name": "stakeDatas",
      "outputs": [
        {
          "internalType": "address",
          "name": "staker",
          "type": "address"
        },
        {
          "internalType": "contract IUniswapV2Pair",
          "name": "lpToken",
          "type": "address"
        },
        {
          "internalType": "uint256",
          "name": "stakedLPTokenAmount",
          "type": "uint256"
        },
        {
          "internalType": "uint256",
          "name": "startBlock",
          "type": "uint256"
        },
        {
          "internalType": "uint256",
          "name": "shareOfPool",
          "type": "uint256"
        },
        {
          "internalType": "uint256",
          "name": "allocPoint",
          "type": "uint256"
        },
        {
          "internalType": "uint256",
          "name": "lastRewardBlock",
          "type": "uint256"
        },
        {
          "internalType": "uint256",
          "name": "accPerShare",
          "type": "uint256"
        }
      ],
      "stateMutability": "view",
      "type": "function"
    },
    {
      "inputs": [
        {
          "internalType": "address",
          "name": "",
          "type": "address"
        }
      ],
      "name": "stakers",
      "outputs": [
        {
          "internalType": "uint256",
          "name": "amount",
          "type": "uint256"
        },
        {
          "internalType": "uint256",
          "name": "rewardDebt",
          "type": "uint256"
        },
        {
          "internalType": "uint256",
          "name": "blockTs",
          "type": "uint256"
        }
      ],
      "stateMutability": "view",
      "type": "function"
    }
  ],
  "bytecode": "0x608060405234801561001057600080fd5b50610491806100206000396000f3fe608060405234801561001057600080fd5b50600436106100415760003560e01c80637c33cc23146100465780639168ae721461007d578063a4063dbc146100af575b600080fd5b610060600480360381019061005b9190610222565b6100e2565b604051610074989796959493929190610308565b60405180910390f35b610097600480360381019061009291906103b2565b61016a565b6040516100a6939291906103df565b60405180910390f35b6100c960048036038101906100c491906103b2565b610194565b6040516100d99493929190610416565b60405180910390f35b60026020528060005260406000206000915090508060000160009054906101000a900473ffffffffffffffffffffffffffffffffffffffff16908060010160009054906101000a900473ffffffffffffffffffffffffffffffffffffffff16908060020154908060030154908060040154908060050154908060060154908060070154905088565b60006020528060005260406000206000915090508060010154908060020154908060030154905083565b60036020528060005260406000206000915090508060000160009054906101000a900473ffffffffffffffffffffffffffffffffffffffff16908060010154908060020154908060030154905084565b600080fd5b600060ff82169050919050565b6101ff816101e9565b811461020a57600080fd5b50565b60008135905061021c816101f6565b92915050565b600060208284031215610238576102376101e4565b5b60006102468482850161020d565b91505092915050565b600073ffffffffffffffffffffffffffffffffffffffff82169050919050565b600061027a8261024f565b9050919050565b61028a8161026f565b82525050565b6000819050919050565b60006102b56102b06102ab8461024f565b610290565b61024f565b9050919050565b60006102c78261029a565b9050919050565b60006102d9826102bc565b9050919050565b6102e9816102ce565b82525050565b6000819050919050565b610302816102ef565b82525050565b60006101008201905061031e600083018b610281565b61032b602083018a6102e0565b61033860408301896102f9565b61034560608301886102f9565b61035260808301876102f9565b61035f60a08301866102f9565b61036c60c08301856102f9565b61037960e08301846102f9565b9998505050505050505050565b61038f8161026f565b811461039a57600080fd5b50565b6000813590506103ac81610386565b92915050565b6000602082840312156103c8576103c76101e4565b5b60006103d68482850161039d565b91505092915050565b60006060820190506103f460008301866102f9565b61040160208301856102f9565b61040e60408301846102f9565b949350505050565b600060808201905061042b60008301876102e0565b61043860208301866102f9565b61044560408301856102f9565b61045260608301846102f9565b9594505050505056fea26469706673582212201d10a76ce2181d49639be8b2f6ee77d23a91bc1c3b3fa375bd60645f5b98217864736f6c63430008090033",
  "immutableReferences": {},
  "source": "// SPDX-License-Identifier: MIT\npragma solidity 0.8.9;\n\nimport \"./AkapzPoolObjects.sol\";\n\ncontract AkapzPoolStorage is AkapzPoolObjects {\n    mapping (address => Staker) public stakers; // Key: Stake Address\n    address[] stakersList;\n\n    mapping(uint8 => StakeData) public stakeDatas; // Key: StakeID\n\n    mapping(address => Pool) public pools; // Key: LP Token Address\n}",
  "sourcePath": "/Users/nicolascloutier/Documents/GitHub/akapz-dao/chain/contracts/Pools/AkapzPoolStorage.sol",
  "compiler": {
    "name": "solc",
    "version": "0.8.9+commit.e5eed63a.Emscripten.clang"
  },
  "schemaVersion": "3.4.3",
  "updatedAt": "2022-05-16T18:00:38.055Z",
  "devdoc": {
    "kind": "dev",
    "methods": {},
    "version": 1
  },
  "userdoc": {
    "kind": "user",
    "methods": {},
    "version": 1
  }
}