{
  "contractName": "Akapz",
  "abi": [
    {
      "inputs": [
        {
          "internalType": "string",
          "name": "name",
          "type": "string"
        },
        {
          "internalType": "string",
          "name": "symbol",
          "type": "string"
        },
        {
          "internalType": "address",
          "name": "owner_",
          "type": "address"
        }
      ],
      "stateMutability": "nonpayable",
      "type": "constructor"
    },
    {
      "anonymous": false,
      "inputs": [
        {
          "indexed": true,
          "internalType": "address",
          "name": "owner",
          "type": "address"
        },
        {
          "indexed": true,
          "internalType": "address",
          "name": "spender",
          "type": "address"
        },
        {
          "indexed": false,
          "internalType": "uint256",
          "name": "value",
          "type": "uint256"
        }
      ],
      "name": "Approval",
      "type": "event"
    },
    {
      "anonymous": false,
      "inputs": [
        {
          "indexed": true,
          "internalType": "address",
          "name": "delegator",
          "type": "address"
        },
        {
          "indexed": true,
          "internalType": "address",
          "name": "fromDelegate",
          "type": "address"
        },
        {
          "indexed": true,
          "internalType": "address",
          "name": "toDelegate",
          "type": "address"
        }
      ],
      "name": "DelegateChanged",
      "type": "event"
    },
    {
      "anonymous": false,
      "inputs": [
        {
          "indexed": true,
          "internalType": "address",
          "name": "delegate",
          "type": "address"
        },
        {
          "indexed": false,
          "internalType": "uint256",
          "name": "previousBalance",
          "type": "uint256"
        },
        {
          "indexed": false,
          "internalType": "uint256",
          "name": "newBalance",
          "type": "uint256"
        }
      ],
      "name": "DelegateVotesChanged",
      "type": "event"
    },
    {
      "anonymous": false,
      "inputs": [
        {
          "indexed": true,
          "internalType": "address",
          "name": "_from",
          "type": "address"
        },
        {
          "indexed": false,
          "internalType": "uint256",
          "name": "_amount",
          "type": "uint256"
        }
      ],
      "name": "Deposited",
      "type": "event"
    },
    {
      "anonymous": false,
      "inputs": [
        {
          "indexed": true,
          "internalType": "address",
          "name": "_holder",
          "type": "address"
        },
        {
          "indexed": false,
          "internalType": "uint256",
          "name": "atBlock",
          "type": "uint256"
        }
      ],
      "name": "HolderRegistered",
      "type": "event"
    },
    {
      "anonymous": false,
      "inputs": [
        {
          "indexed": false,
          "internalType": "uint8",
          "name": "version",
          "type": "uint8"
        }
      ],
      "name": "Initialized",
      "type": "event"
    },
    {
      "anonymous": false,
      "inputs": [
        {
          "indexed": true,
          "internalType": "bytes32",
          "name": "role",
          "type": "bytes32"
        },
        {
          "indexed": true,
          "internalType": "bytes32",
          "name": "previousAdminRole",
          "type": "bytes32"
        },
        {
          "indexed": true,
          "internalType": "bytes32",
          "name": "newAdminRole",
          "type": "bytes32"
        }
      ],
      "name": "RoleAdminChanged",
      "type": "event"
    },
    {
      "anonymous": false,
      "inputs": [
        {
          "indexed": true,
          "internalType": "bytes32",
          "name": "role",
          "type": "bytes32"
        },
        {
          "indexed": true,
          "internalType": "address",
          "name": "account",
          "type": "address"
        },
        {
          "indexed": true,
          "internalType": "address",
          "name": "sender",
          "type": "address"
        }
      ],
      "name": "RoleGranted",
      "type": "event"
    },
    {
      "anonymous": false,
      "inputs": [
        {
          "indexed": true,
          "internalType": "bytes32",
          "name": "role",
          "type": "bytes32"
        },
        {
          "indexed": true,
          "internalType": "address",
          "name": "account",
          "type": "address"
        },
        {
          "indexed": true,
          "internalType": "address",
          "name": "sender",
          "type": "address"
        }
      ],
      "name": "RoleRevoked",
      "type": "event"
    },
    {
      "anonymous": false,
      "inputs": [
        {
          "indexed": true,
          "internalType": "address",
          "name": "from",
          "type": "address"
        },
        {
          "indexed": true,
          "internalType": "address",
          "name": "to",
          "type": "address"
        },
        {
          "indexed": false,
          "internalType": "uint256",
          "name": "value",
          "type": "uint256"
        }
      ],
      "name": "Transfer",
      "type": "event"
    },
    {
      "inputs": [],
      "name": "DEFAULT_ADMIN_ROLE",
      "outputs": [
        {
          "internalType": "bytes32",
          "name": "",
          "type": "bytes32"
        }
      ],
      "stateMutability": "view",
      "type": "function",
      "constant": true
    },
    {
      "inputs": [],
      "name": "DOMAIN_SEPARATOR",
      "outputs": [
        {
          "internalType": "bytes32",
          "name": "",
          "type": "bytes32"
        }
      ],
      "stateMutability": "view",
      "type": "function",
      "constant": true
    },
    {
      "inputs": [
        {
          "internalType": "address",
          "name": "",
          "type": "address"
        }
      ],
      "name": "_holders",
      "outputs": [
        {
          "internalType": "bool",
          "name": "",
          "type": "bool"
        }
      ],
      "stateMutability": "view",
      "type": "function",
      "constant": true
    },
    {
      "inputs": [],
      "name": "_initialSupply",
      "outputs": [
        {
          "internalType": "uint256",
          "name": "",
          "type": "uint256"
        }
      ],
      "stateMutability": "view",
      "type": "function",
      "constant": true
    },
    {
      "inputs": [
        {
          "internalType": "address",
          "name": "owner",
          "type": "address"
        },
        {
          "internalType": "address",
          "name": "spender",
          "type": "address"
        }
      ],
      "name": "allowance",
      "outputs": [
        {
          "internalType": "uint256",
          "name": "",
          "type": "uint256"
        }
      ],
      "stateMutability": "view",
      "type": "function",
      "constant": true
    },
    {
      "inputs": [
        {
          "internalType": "address",
          "name": "spender",
          "type": "address"
        },
        {
          "internalType": "uint256",
          "name": "amount",
          "type": "uint256"
        }
      ],
      "name": "approve",
      "outputs": [
        {
          "internalType": "bool",
          "name": "",
          "type": "bool"
        }
      ],
      "stateMutability": "nonpayable",
      "type": "function"
    },
    {
      "inputs": [
        {
          "internalType": "address",
          "name": "account",
          "type": "address"
        }
      ],
      "name": "balanceOf",
      "outputs": [
        {
          "internalType": "uint256",
          "name": "",
          "type": "uint256"
        }
      ],
      "stateMutability": "view",
      "type": "function",
      "constant": true
    },
    {
      "inputs": [
        {
          "internalType": "address",
          "name": "account",
          "type": "address"
        },
        {
          "internalType": "uint32",
          "name": "pos",
          "type": "uint32"
        }
      ],
      "name": "checkpoints",
      "outputs": [
        {
          "components": [
            {
              "internalType": "uint32",
              "name": "fromBlock",
              "type": "uint32"
            },
            {
              "internalType": "uint224",
              "name": "votes",
              "type": "uint224"
            }
          ],
          "internalType": "struct ERC20Votes.Checkpoint",
          "name": "",
          "type": "tuple"
        }
      ],
      "stateMutability": "view",
      "type": "function",
      "constant": true
    },
    {
      "inputs": [],
      "name": "decimals",
      "outputs": [
        {
          "internalType": "uint8",
          "name": "",
          "type": "uint8"
        }
      ],
      "stateMutability": "view",
      "type": "function",
      "constant": true
    },
    {
      "inputs": [
        {
          "internalType": "address",
          "name": "spender",
          "type": "address"
        },
        {
          "internalType": "uint256",
          "name": "subtractedValue",
          "type": "uint256"
        }
      ],
      "name": "decreaseAllowance",
      "outputs": [
        {
          "internalType": "bool",
          "name": "",
          "type": "bool"
        }
      ],
      "stateMutability": "nonpayable",
      "type": "function"
    },
    {
      "inputs": [
        {
          "internalType": "address",
          "name": "delegatee",
          "type": "address"
        }
      ],
      "name": "delegate",
      "outputs": [],
      "stateMutability": "nonpayable",
      "type": "function"
    },
    {
      "inputs": [
        {
          "internalType": "address",
          "name": "delegatee",
          "type": "address"
        },
        {
          "internalType": "uint256",
          "name": "nonce",
          "type": "uint256"
        },
        {
          "internalType": "uint256",
          "name": "expiry",
          "type": "uint256"
        },
        {
          "internalType": "uint8",
          "name": "v",
          "type": "uint8"
        },
        {
          "internalType": "bytes32",
          "name": "r",
          "type": "bytes32"
        },
        {
          "internalType": "bytes32",
          "name": "s",
          "type": "bytes32"
        }
      ],
      "name": "delegateBySig",
      "outputs": [],
      "stateMutability": "nonpayable",
      "type": "function"
    },
    {
      "inputs": [
        {
          "internalType": "address",
          "name": "account",
          "type": "address"
        }
      ],
      "name": "delegates",
      "outputs": [
        {
          "internalType": "address",
          "name": "",
          "type": "address"
        }
      ],
      "stateMutability": "view",
      "type": "function",
      "constant": true
    },
    {
      "inputs": [
        {
          "internalType": "uint256",
          "name": "blockNumber",
          "type": "uint256"
        }
      ],
      "name": "getPastTotalSupply",
      "outputs": [
        {
          "internalType": "uint256",
          "name": "",
          "type": "uint256"
        }
      ],
      "stateMutability": "view",
      "type": "function",
      "constant": true
    },
    {
      "inputs": [
        {
          "internalType": "address",
          "name": "account",
          "type": "address"
        },
        {
          "internalType": "uint256",
          "name": "blockNumber",
          "type": "uint256"
        }
      ],
      "name": "getPastVotes",
      "outputs": [
        {
          "internalType": "uint256",
          "name": "",
          "type": "uint256"
        }
      ],
      "stateMutability": "view",
      "type": "function",
      "constant": true
    },
    {
      "inputs": [
        {
          "internalType": "bytes32",
          "name": "role",
          "type": "bytes32"
        }
      ],
      "name": "getRoleAdmin",
      "outputs": [
        {
          "internalType": "bytes32",
          "name": "",
          "type": "bytes32"
        }
      ],
      "stateMutability": "view",
      "type": "function",
      "constant": true
    },
    {
      "inputs": [
        {
          "internalType": "bytes32",
          "name": "role",
          "type": "bytes32"
        },
        {
          "internalType": "uint256",
          "name": "index",
          "type": "uint256"
        }
      ],
      "name": "getRoleMember",
      "outputs": [
        {
          "internalType": "address",
          "name": "",
          "type": "address"
        }
      ],
      "stateMutability": "view",
      "type": "function",
      "constant": true
    },
    {
      "inputs": [
        {
          "internalType": "bytes32",
          "name": "role",
          "type": "bytes32"
        }
      ],
      "name": "getRoleMemberCount",
      "outputs": [
        {
          "internalType": "uint256",
          "name": "",
          "type": "uint256"
        }
      ],
      "stateMutability": "view",
      "type": "function",
      "constant": true
    },
    {
      "inputs": [
        {
          "internalType": "address",
          "name": "account",
          "type": "address"
        }
      ],
      "name": "getVotes",
      "outputs": [
        {
          "internalType": "uint256",
          "name": "",
          "type": "uint256"
        }
      ],
      "stateMutability": "view",
      "type": "function",
      "constant": true
    },
    {
      "inputs": [
        {
          "internalType": "bytes32",
          "name": "role",
          "type": "bytes32"
        },
        {
          "internalType": "address",
          "name": "account",
          "type": "address"
        }
      ],
      "name": "grantRole",
      "outputs": [],
      "stateMutability": "nonpayable",
      "type": "function"
    },
    {
      "inputs": [
        {
          "internalType": "bytes32",
          "name": "role",
          "type": "bytes32"
        },
        {
          "internalType": "address",
          "name": "account",
          "type": "address"
        }
      ],
      "name": "hasRole",
      "outputs": [
        {
          "internalType": "bool",
          "name": "",
          "type": "bool"
        }
      ],
      "stateMutability": "view",
      "type": "function",
      "constant": true
    },
    {
      "inputs": [
        {
          "internalType": "address",
          "name": "spender",
          "type": "address"
        },
        {
          "internalType": "uint256",
          "name": "addedValue",
          "type": "uint256"
        }
      ],
      "name": "increaseAllowance",
      "outputs": [
        {
          "internalType": "bool",
          "name": "",
          "type": "bool"
        }
      ],
      "stateMutability": "nonpayable",
      "type": "function"
    },
    {
      "inputs": [],
      "name": "name",
      "outputs": [
        {
          "internalType": "string",
          "name": "",
          "type": "string"
        }
      ],
      "stateMutability": "view",
      "type": "function",
      "constant": true
    },
    {
      "inputs": [
        {
          "internalType": "address",
          "name": "owner",
          "type": "address"
        }
      ],
      "name": "nonces",
      "outputs": [
        {
          "internalType": "uint256",
          "name": "",
          "type": "uint256"
        }
      ],
      "stateMutability": "view",
      "type": "function",
      "constant": true
    },
    {
      "inputs": [
        {
          "internalType": "address",
          "name": "account",
          "type": "address"
        }
      ],
      "name": "numCheckpoints",
      "outputs": [
        {
          "internalType": "uint32",
          "name": "",
          "type": "uint32"
        }
      ],
      "stateMutability": "view",
      "type": "function",
      "constant": true
    },
    {
      "inputs": [
        {
          "internalType": "address",
          "name": "owner",
          "type": "address"
        },
        {
          "internalType": "address",
          "name": "spender",
          "type": "address"
        },
        {
          "internalType": "uint256",
          "name": "value",
          "type": "uint256"
        },
        {
          "internalType": "uint256",
          "name": "deadline",
          "type": "uint256"
        },
        {
          "internalType": "uint8",
          "name": "v",
          "type": "uint8"
        },
        {
          "internalType": "bytes32",
          "name": "r",
          "type": "bytes32"
        },
        {
          "internalType": "bytes32",
          "name": "s",
          "type": "bytes32"
        }
      ],
      "name": "permit",
      "outputs": [],
      "stateMutability": "nonpayable",
      "type": "function"
    },
    {
      "inputs": [
        {
          "internalType": "bytes32",
          "name": "role",
          "type": "bytes32"
        },
        {
          "internalType": "address",
          "name": "account",
          "type": "address"
        }
      ],
      "name": "renounceRole",
      "outputs": [],
      "stateMutability": "nonpayable",
      "type": "function"
    },
    {
      "inputs": [
        {
          "internalType": "bytes32",
          "name": "role",
          "type": "bytes32"
        },
        {
          "internalType": "address",
          "name": "account",
          "type": "address"
        }
      ],
      "name": "revokeRole",
      "outputs": [],
      "stateMutability": "nonpayable",
      "type": "function"
    },
    {
      "inputs": [],
      "name": "s_maxSupply",
      "outputs": [
        {
          "internalType": "uint256",
          "name": "",
          "type": "uint256"
        }
      ],
      "stateMutability": "view",
      "type": "function",
      "constant": true
    },
    {
      "inputs": [
        {
          "internalType": "bytes4",
          "name": "interfaceId",
          "type": "bytes4"
        }
      ],
      "name": "supportsInterface",
      "outputs": [
        {
          "internalType": "bool",
          "name": "",
          "type": "bool"
        }
      ],
      "stateMutability": "view",
      "type": "function",
      "constant": true
    },
    {
      "inputs": [],
      "name": "symbol",
      "outputs": [
        {
          "internalType": "string",
          "name": "",
          "type": "string"
        }
      ],
      "stateMutability": "view",
      "type": "function",
      "constant": true
    },
    {
      "inputs": [],
      "name": "totalSupply",
      "outputs": [
        {
          "internalType": "uint256",
          "name": "",
          "type": "uint256"
        }
      ],
      "stateMutability": "view",
      "type": "function",
      "constant": true
    },
    {
      "inputs": [
        {
          "internalType": "address",
          "name": "to",
          "type": "address"
        },
        {
          "internalType": "uint256",
          "name": "amount",
          "type": "uint256"
        }
      ],
      "name": "transfer",
      "outputs": [
        {
          "internalType": "bool",
          "name": "",
          "type": "bool"
        }
      ],
      "stateMutability": "nonpayable",
      "type": "function"
    },
    {
      "inputs": [
        {
          "internalType": "address",
          "name": "from",
          "type": "address"
        },
        {
          "internalType": "address",
          "name": "to",
          "type": "address"
        },
        {
          "internalType": "uint256",
          "name": "amount",
          "type": "uint256"
        }
      ],
      "name": "transferFrom",
      "outputs": [
        {
          "internalType": "bool",
          "name": "",
          "type": "bool"
        }
      ],
      "stateMutability": "nonpayable",
      "type": "function"
    },
    {
      "stateMutability": "payable",
      "type": "receive",
      "payable": true
    },
    {
      "inputs": [
        {
          "internalType": "string",
          "name": "name",
          "type": "string"
        },
        {
          "internalType": "string",
          "name": "symbol",
          "type": "string"
        },
        {
          "internalType": "address",
          "name": "owner_",
          "type": "address"
        }
      ],
      "name": "initialize",
      "outputs": [],
      "stateMutability": "nonpayable",
      "type": "function"
    },
    {
      "inputs": [
        {
          "internalType": "address",
          "name": "to",
          "type": "address"
        },
        {
          "internalType": "uint256",
          "name": "amount",
          "type": "uint256"
        }
      ],
      "name": "mint",
      "outputs": [],
      "stateMutability": "nonpayable",
      "type": "function"
    }
  ],
  "bytecode": "0x6101406040526000600e553480156200001757600080fd5b50604051620069613803806200696183398181016040528101906200003d919062001230565b82806040518060400160405280600181526020017f3100000000000000000000000000000000000000000000000000000000000000815250858581600690805190602001906200008f92919062000f7e565b508060079080519060200190620000a892919062000f7e565b50505060008280519060200120905060008280519060200120905060007f8b73c3c69bb8fe3d512ecc4cf759cc79239f7b179b0ffacaa9a75d522b39400f90508260e081815250508161010081815250504660a08181525050620001148184846200017a60201b60201c565b608081815250503073ffffffffffffffffffffffffffffffffffffffff1660c08173ffffffffffffffffffffffffffffffffffffffff168152505080610120818152505050505050505062000171838383620001b660201b60201c565b505050620018a9565b600083838346306040516020016200019795949392919062001311565b6040516020818303038152906040528051906020012090509392505050565b620001c781620001cc60201b60201c565b505050565b620001dd816200025560201b60201c565b62000215604051602001620001f290620013cf565b60405160208183030381529060405280519060200120826200030c60201b60201c565b6a52b7d2dcc80cd2e4000000600f819055506005600f546200023891906200144f565b60108190555062000252816010546200032260201b60201c565b50565b600073ffffffffffffffffffffffffffffffffffffffff168173ffffffffffffffffffffffffffffffffffffffff161415620002c8576040517f08c379a0000000000000000000000000000000000000000000000000000000008152600401620002bf90620014d7565b60405180910390fd5b80600d60006101000a81548173ffffffffffffffffffffffffffffffffffffffff021916908373ffffffffffffffffffffffffffffffffffffffff16021790555050565b6200031e82826200033d60201b60201c565b5050565b6200033982826200038560201b620016661760201c565b5050565b6200035482826200044360201b620016f31760201c565b6200038081600260008581526020019081526020016000206200053460201b620017d31790919060201c565b505050565b6200039c82826200056c60201b620018031760201c565b620003ac620006e660201b60201c565b7bffffffffffffffffffffffffffffffffffffffffffffffffffffffff16620003da6200070a60201b60201c565b11156200041e576040517f08c379a000000000000000000000000000000000000000000000000000000000815260040162000415906200156f565b60405180910390fd5b6200043d600c6200071460201b6200196417836200072c60201b60201c565b50505050565b620004558282620009dd60201b60201c565b6200053057600180600084815260200190815260200160002060000160008373ffffffffffffffffffffffffffffffffffffffff1673ffffffffffffffffffffffffffffffffffffffff16815260200190815260200160002060006101000a81548160ff021916908315150217905550620004d562000a4860201b60201c565b73ffffffffffffffffffffffffffffffffffffffff168173ffffffffffffffffffffffffffffffffffffffff16837f2f8788117e7eff1d82e926ec794901d17c78024a50270940304540a733656f0d60405160405180910390a45b5050565b600062000564836000018373ffffffffffffffffffffffffffffffffffffffff1660001b62000a5060201b60201c565b905092915050565b600073ffffffffffffffffffffffffffffffffffffffff168273ffffffffffffffffffffffffffffffffffffffff161415620005df576040517f08c379a0000000000000000000000000000000000000000000000000000000008152600401620005d690620015e1565b60405180910390fd5b620005f36000838362000aca60201b60201c565b806005600082825462000607919062001603565b9250508190555080600360008473ffffffffffffffffffffffffffffffffffffffff1673ffffffffffffffffffffffffffffffffffffffff16815260200190815260200160002060008282546200065f919062001603565b925050819055508173ffffffffffffffffffffffffffffffffffffffff16600073ffffffffffffffffffffffffffffffffffffffff167fddf252ad1be2c89b69c2b068fc378daa952ba7f163c4a11628f55a4df523b3ef83604051620006c6919062001660565b60405180910390a3620006e26000838362000acf60201b60201c565b5050565b60007bffffffffffffffffffffffffffffffffffffffffffffffffffffffff905090565b6000600554905090565b6000818362000724919062001603565b905092915050565b60008060008580549050905060008114620007a157856001826200075191906200167d565b81548110620007655762000764620016b8565b5b9060005260206000200160000160049054906101000a90047bffffffffffffffffffffffffffffffffffffffffffffffffffffffff16620007a4565b60005b7bffffffffffffffffffffffffffffffffffffffffffffffffffffffff169250620007d083858760201c565b91506000811180156200082957504386600183620007ef91906200167d565b81548110620008035762000802620016b8565b5b9060005260206000200160000160009054906101000a900463ffffffff1663ffffffff16145b15620008ca57620008458262000b9e60201b6200197a1760201c565b866001836200085591906200167d565b81548110620008695762000868620016b8565b5b9060005260206000200160000160046101000a8154817bffffffffffffffffffffffffffffffffffffffffffffffffffffffff02191690837bffffffffffffffffffffffffffffffffffffffffffffffffffffffff160217905550620009d4565b856040518060400160405280620008ec4362000c0c60201b620019e51760201c565b63ffffffff1681526020016200090d8562000b9e60201b6200197a1760201c565b7bffffffffffffffffffffffffffffffffffffffffffffffffffffffff168152509080600181540180825580915050600190039060005260206000200160009091909190915060008201518160000160006101000a81548163ffffffff021916908363ffffffff16021790555060208201518160000160046101000a8154817bffffffffffffffffffffffffffffffffffffffffffffffffffffffff02191690837bffffffffffffffffffffffffffffffffffffffffffffffffffffffff16021790555050505b50935093915050565b60006001600084815260200190815260200160002060000160008373ffffffffffffffffffffffffffffffffffffffff1673ffffffffffffffffffffffffffffffffffffffff16815260200190815260200160002060009054906101000a900460ff16905092915050565b600033905090565b600062000a64838362000c6260201b60201c565b62000abf57826000018290806001815401808255809150506001900390600052602060002001600090919091909150558260000180549050836001016000848152602001908152602001600020819055506001905062000ac4565b600090505b92915050565b505050565b6001811062000b31576001601160008473ffffffffffffffffffffffffffffffffffffffff1673ffffffffffffffffffffffffffffffffffffffff16815260200190815260200160002060006101000a81548160ff0219169083151502179055505b8173ffffffffffffffffffffffffffffffffffffffff167fec424a4215497770d9b19d9daef77e786684523569c438d84494da2e0e00848e4360405162000b79919062001660565b60405180910390a262000b9983838362000c8560201b62001a381760201c565b505050565b60007bffffffffffffffffffffffffffffffffffffffffffffffffffffffff801682111562000c04576040517f08c379a000000000000000000000000000000000000000000000000000000000815260040162000bfb906200175d565b60405180910390fd5b819050919050565b600063ffffffff801682111562000c5a576040517f08c379a000000000000000000000000000000000000000000000000000000000815260040162000c5190620017f5565b60405180910390fd5b819050919050565b600080836001016000848152602001908152602001600020541415905092915050565b62000c9d83838362000cd560201b62001a631760201c565b62000cd062000cb28462000cda60201b60201c565b62000cc38462000cda60201b60201c565b8362000d4360201b60201c565b505050565b505050565b6000600a60008373ffffffffffffffffffffffffffffffffffffffff1673ffffffffffffffffffffffffffffffffffffffff16815260200190815260200160002060009054906101000a900473ffffffffffffffffffffffffffffffffffffffff169050919050565b8173ffffffffffffffffffffffffffffffffffffffff168373ffffffffffffffffffffffffffffffffffffffff161415801562000d805750600081115b1562000f6157600073ffffffffffffffffffffffffffffffffffffffff168373ffffffffffffffffffffffffffffffffffffffff161462000e735760008062000e1a600b60008773ffffffffffffffffffffffffffffffffffffffff1673ffffffffffffffffffffffffffffffffffffffff16815260200190815260200160002062000f6660201b62001a6817856200072c60201b60201c565b915091508473ffffffffffffffffffffffffffffffffffffffff167fdec2bacdd2f05b59de34da9b523dff8be42e5e38e818c82fdb0bae774387a724838360405162000e6892919062001817565b60405180910390a250505b600073ffffffffffffffffffffffffffffffffffffffff168273ffffffffffffffffffffffffffffffffffffffff161462000f605760008062000f07600b60008673ffffffffffffffffffffffffffffffffffffffff1673ffffffffffffffffffffffffffffffffffffffff1681526020019081526020016000206200071460201b6200196417856200072c60201b60201c565b915091508373ffffffffffffffffffffffffffffffffffffffff167fdec2bacdd2f05b59de34da9b523dff8be42e5e38e818c82fdb0bae774387a724838360405162000f5592919062001817565b60405180910390a250505b5b505050565b6000818362000f7691906200167d565b905092915050565b82805462000f8c9062001873565b90600052602060002090601f01602090048101928262000fb0576000855562000ffc565b82601f1062000fcb57805160ff191683800117855562000ffc565b8280016001018555821562000ffc579182015b8281111562000ffb57825182559160200191906001019062000fde565b5b5090506200100b91906200100f565b5090565b5b808211156200102a57600081600090555060010162001010565b5090565b6000604051905090565b600080fd5b600080fd5b600080fd5b600080fd5b6000601f19601f8301169050919050565b7f4e487b7100000000000000000000000000000000000000000000000000000000600052604160045260246000fd5b62001097826200104c565b810181811067ffffffffffffffff82111715620010b957620010b86200105d565b5b80604052505050565b6000620010ce6200102e565b9050620010dc82826200108c565b919050565b600067ffffffffffffffff821115620010ff57620010fe6200105d565b5b6200110a826200104c565b9050602081019050919050565b60005b83811015620011375780820151818401526020810190506200111a565b8381111562001147576000848401525b50505050565b6000620011646200115e84620010e1565b620010c2565b90508281526020810184848401111562001183576200118262001047565b5b6200119084828562001117565b509392505050565b600082601f830112620011b057620011af62001042565b5b8151620011c28482602086016200114d565b91505092915050565b600073ffffffffffffffffffffffffffffffffffffffff82169050919050565b6000620011f882620011cb565b9050919050565b6200120a81620011eb565b81146200121657600080fd5b50565b6000815190506200122a81620011ff565b92915050565b6000806000606084860312156200124c576200124b62001038565b5b600084015167ffffffffffffffff8111156200126d576200126c6200103d565b5b6200127b8682870162001198565b935050602084015167ffffffffffffffff8111156200129f576200129e6200103d565b5b620012ad8682870162001198565b9250506040620012c08682870162001219565b9150509250925092565b6000819050919050565b620012df81620012ca565b82525050565b6000819050919050565b620012fa81620012e5565b82525050565b6200130b81620011eb565b82525050565b600060a082019050620013286000830188620012d4565b620013376020830187620012d4565b620013466040830186620012d4565b620013556060830185620012ef565b62001364608083018462001300565b9695505050505050565b600082825260208201905092915050565b7f55504752414445525f524f4c4500000000000000000000000000000000000000600082015250565b6000620013b7600d836200136e565b9150620013c4826200137f565b602082019050919050565b60006020820190508181036000830152620013ea81620013a8565b9050919050565b7f4e487b7100000000000000000000000000000000000000000000000000000000600052601260045260246000fd5b7f4e487b7100000000000000000000000000000000000000000000000000000000600052601160045260246000fd5b60006200145c82620012e5565b91506200146983620012e5565b9250826200147c576200147b620013f1565b5b828204905092915050565b7f6f776e65722063616e6e6f742062652061646472657373207a65726f00000000600082015250565b6000620014bf601c836200136e565b9150620014cc8262001487565b602082019050919050565b60006020820190508181036000830152620014f281620014b0565b9050919050565b7f4552433230566f7465733a20746f74616c20737570706c79207269736b73206f60008201527f766572666c6f77696e6720766f74657300000000000000000000000000000000602082015250565b6000620015576030836200136e565b91506200156482620014f9565b604082019050919050565b600060208201905081810360008301526200158a8162001548565b9050919050565b7f45524332303a206d696e7420746f20746865207a65726f206164647265737300600082015250565b6000620015c9601f836200136e565b9150620015d68262001591565b602082019050919050565b60006020820190508181036000830152620015fc81620015ba565b9050919050565b60006200161082620012e5565b91506200161d83620012e5565b9250827fffffffffffffffffffffffffffffffffffffffffffffffffffffffffffffffff0382111562001655576200165462001420565b5b828201905092915050565b6000602082019050620016776000830184620012ef565b92915050565b60006200168a82620012e5565b91506200169783620012e5565b925082821015620016ad57620016ac62001420565b5b828203905092915050565b7f4e487b7100000000000000000000000000000000000000000000000000000000600052603260045260246000fd5b7f53616665436173743a2076616c756520646f65736e27742066697420696e203260008201527f3234206269747300000000000000000000000000000000000000000000000000602082015250565b6000620017456027836200136e565b91506200175282620016e7565b604082019050919050565b60006020820190508181036000830152620017788162001736565b9050919050565b7f53616665436173743a2076616c756520646f65736e27742066697420696e203360008201527f3220626974730000000000000000000000000000000000000000000000000000602082015250565b6000620017dd6026836200136e565b9150620017ea826200177f565b604082019050919050565b600060208201905081810360008301526200181081620017ce565b9050919050565b60006040820190506200182e6000830185620012ef565b6200183d6020830184620012ef565b9392505050565b7f4e487b7100000000000000000000000000000000000000000000000000000000600052602260045260246000fd5b600060028204905060018216806200188c57607f821691505b60208210811415620018a357620018a262001844565b5b50919050565b60805160a05160c05160e0516101005161012051615068620018f9600039600061213601526000612178015260006121570152600061208c015260006120e20152600061210b01526150686000f3fe6080604052600436106102135760003560e01c806370a0823111610118578063a9059cbb116100a0578063d505accf1161006f578063d505accf146108cf578063d547741f146108f8578063dd62ed3e14610921578063eb1d81521461095e578063f1127ed81461099b5761026f565b8063a9059cbb14610801578063c3b2d3371461083e578063c3cda52014610869578063ca15c873146108925761026f565b806391d14854116100e757806391d14854146106f457806395d89b41146107315780639ab24eb01461075c578063a217fddf14610799578063a457c2d7146107c45761026f565b806370a08231146106005780637ecebe001461063d5780638e539e8c1461067a5780639010d07c146106b75761026f565b80633644e5151161019b57806340c10f191161016a57806340c10f1914610509578063587cde1e146105325780635c19a95c1461056f5780635d641847146105985780636fcfff45146105c35761026f565b80633644e5151461043b57806336568abe14610466578063395093511461048f5780633a46b1a8146104cc5761026f565b806318160ddd116101e257806318160ddd1461034257806323b872dd1461036d578063248a9ca3146103aa5780632f2ff15d146103e7578063313ce567146104105761026f565b806301ffc9a71461027457806306fdde03146102b1578063077f224a146102dc578063095ea7b3146103055761026f565b3661026f576102206109d8565b73ffffffffffffffffffffffffffffffffffffffff167f2da466a7b24304f47e87fa2e1e5a81b9831ce54fec19055ce277ca2f39ba42c434604051610265919061351f565b60405180910390a2005b600080fd5b34801561028057600080fd5b5061029b600480360381019061029691906135a6565b6109e0565b6040516102a891906135ee565b60405180910390f35b3480156102bd57600080fd5b506102c6610a5a565b6040516102d391906136a2565b60405180910390f35b3480156102e857600080fd5b5061030360048036038101906102fe9190613857565b610aec565b005b34801561031157600080fd5b5061032c6004803603810190610327919061390e565b610afa565b60405161033991906135ee565b60405180910390f35b34801561034e57600080fd5b50610357610b1d565b604051610364919061351f565b60405180910390f35b34801561037957600080fd5b50610394600480360381019061038f919061394e565b610b27565b6040516103a191906135ee565b60405180910390f35b3480156103b657600080fd5b506103d160048036038101906103cc91906139d7565b610b56565b6040516103de9190613a13565b60405180910390f35b3480156103f357600080fd5b5061040e60048036038101906104099190613a2e565b610b76565b005b34801561041c57600080fd5b50610425610b97565b6040516104329190613a8a565b60405180910390f35b34801561044757600080fd5b50610450610ba0565b60405161045d9190613a13565b60405180910390f35b34801561047257600080fd5b5061048d60048036038101906104889190613a2e565b610baf565b005b34801561049b57600080fd5b506104b660048036038101906104b1919061390e565b610c32565b6040516104c391906135ee565b60405180910390f35b3480156104d857600080fd5b506104f360048036038101906104ee919061390e565b610c69565b604051610500919061351f565b60405180910390f35b34801561051557600080fd5b50610530600480360381019061052b919061390e565b610cfd565b005b34801561053e57600080fd5b5061055960048036038101906105549190613aa5565b610d7a565b6040516105669190613ae1565b60405180910390f35b34801561057b57600080fd5b5061059660048036038101906105919190613aa5565b610de3565b005b3480156105a457600080fd5b506105ad610df7565b6040516105ba919061351f565b60405180910390f35b3480156105cf57600080fd5b506105ea60048036038101906105e59190613aa5565b610dfd565b6040516105f79190613b1b565b60405180910390f35b34801561060c57600080fd5b5061062760048036038101906106229190613aa5565b610e51565b604051610634919061351f565b60405180910390f35b34801561064957600080fd5b50610664600480360381019061065f9190613aa5565b610e9a565b604051610671919061351f565b60405180910390f35b34801561068657600080fd5b506106a1600480360381019061069c9190613b36565b610eea565b6040516106ae919061351f565b60405180910390f35b3480156106c357600080fd5b506106de60048036038101906106d99190613b63565b610f40565b6040516106eb9190613ae1565b60405180910390f35b34801561070057600080fd5b5061071b60048036038101906107169190613a2e565b610f6f565b60405161072891906135ee565b60405180910390f35b34801561073d57600080fd5b50610746610fda565b60405161075391906136a2565b60405180910390f35b34801561076857600080fd5b50610783600480360381019061077e9190613aa5565b61106c565b604051610790919061351f565b60405180910390f35b3480156107a557600080fd5b506107ae61117d565b6040516107bb9190613a13565b60405180910390f35b3480156107d057600080fd5b506107eb60048036038101906107e6919061390e565b611184565b6040516107f891906135ee565b60405180910390f35b34801561080d57600080fd5b506108286004803603810190610823919061390e565b6111fb565b60405161083591906135ee565b60405180910390f35b34801561084a57600080fd5b5061085361121e565b604051610860919061351f565b60405180910390f35b34801561087557600080fd5b50610890600480360381019061088b9190613bcf565b611224565b005b34801561089e57600080fd5b506108b960048036038101906108b491906139d7565b611328565b6040516108c6919061351f565b60405180910390f35b3480156108db57600080fd5b506108f660048036038101906108f19190613c5c565b61134c565b005b34801561090457600080fd5b5061091f600480360381019061091a9190613a2e565b61148e565b005b34801561092d57600080fd5b5061094860048036038101906109439190613cfe565b6114af565b604051610955919061351f565b60405180910390f35b34801561096a57600080fd5b5061098560048036038101906109809190613aa5565b611536565b60405161099291906135ee565b60405180910390f35b3480156109a757600080fd5b506109c260048036038101906109bd9190613d6a565b611556565b6040516109cf9190613e1f565b60405180910390f35b600033905090565b60007f5a05180f000000000000000000000000000000000000000000000000000000007bffffffffffffffffffffffffffffffffffffffffffffffffffffffff1916827bffffffffffffffffffffffffffffffffffffffffffffffffffffffff19161480610a535750610a5282611a7e565b5b9050919050565b606060068054610a6990613e69565b80601f0160208091040260200160405190810160405280929190818152602001828054610a9590613e69565b8015610ae25780601f10610ab757610100808354040283529160200191610ae2565b820191906000526020600020905b815481529060010190602001808311610ac557829003601f168201915b5050505050905090565b610af581611af8565b505050565b600080610b056109d8565b9050610b12818585611b65565b600191505092915050565b6000600554905090565b600080610b326109d8565b9050610b3f858285611d30565b610b4a858585611dbc565b60019150509392505050565b600060016000838152602001908152602001600020600101549050919050565b610b7f82610b56565b610b8881612040565b610b928383612054565b505050565b60006012905090565b6000610baa612088565b905090565b610bb76109d8565b73ffffffffffffffffffffffffffffffffffffffff168173ffffffffffffffffffffffffffffffffffffffff1614610c24576040517f08c379a0000000000000000000000000000000000000000000000000000000008152600401610c1b90613f0d565b60405180910390fd5b610c2e82826121a2565b5050565b600080610c3d6109d8565b9050610c5e818585610c4f85896114af565b610c599190613f5c565b611b65565b600191505092915050565b6000438210610cad576040517f08c379a0000000000000000000000000000000000000000000000000000000008152600401610ca490613ffe565b60405180910390fd5b610cf5600b60008573ffffffffffffffffffffffffffffffffffffffff1673ffffffffffffffffffffffffffffffffffffffff168152602001908152602001600020836121d6565b905092915050565b33610d2c604051602001610d109061406a565b6040516020818303038152906040528051906020012082610f6f565b610d6b576040517f08c379a0000000000000000000000000000000000000000000000000000000008152600401610d62906140d6565b60405180910390fd5b610d7583836122e2565b505050565b6000600a60008373ffffffffffffffffffffffffffffffffffffffff1673ffffffffffffffffffffffffffffffffffffffff16815260200190815260200160002060009054906101000a900473ffffffffffffffffffffffffffffffffffffffff169050919050565b610df4610dee6109d8565b826122f0565b50565b600f5481565b6000610e4a600b60008473ffffffffffffffffffffffffffffffffffffffff1673ffffffffffffffffffffffffffffffffffffffff168152602001908152602001600020805490506119e5565b9050919050565b6000600360008373ffffffffffffffffffffffffffffffffffffffff1673ffffffffffffffffffffffffffffffffffffffff168152602001908152602001600020549050919050565b6000610ee3600860008473ffffffffffffffffffffffffffffffffffffffff1673ffffffffffffffffffffffffffffffffffffffff16815260200190815260200160002061240a565b9050919050565b6000438210610f2e576040517f08c379a0000000000000000000000000000000000000000000000000000000008152600401610f2590613ffe565b60405180910390fd5b610f39600c836121d6565b9050919050565b6000610f67826002600086815260200190815260200160002061241890919063ffffffff16565b905092915050565b60006001600084815260200190815260200160002060000160008373ffffffffffffffffffffffffffffffffffffffff1673ffffffffffffffffffffffffffffffffffffffff16815260200190815260200160002060009054906101000a900460ff16905092915050565b606060078054610fe990613e69565b80601f016020809104026020016040519081016040528092919081815260200182805461101590613e69565b80156110625780601f1061103757610100808354040283529160200191611062565b820191906000526020600020905b81548152906001019060200180831161104557829003601f168201915b5050505050905090565b600080600b60008473ffffffffffffffffffffffffffffffffffffffff1673ffffffffffffffffffffffffffffffffffffffff1681526020019081526020016000208054905090506000811461115457600b60008473ffffffffffffffffffffffffffffffffffffffff1673ffffffffffffffffffffffffffffffffffffffff16815260200190815260200160002060018261110891906140f6565b815481106111195761111861412a565b5b9060005260206000200160000160049054906101000a90047bffffffffffffffffffffffffffffffffffffffffffffffffffffffff16611157565b60005b7bffffffffffffffffffffffffffffffffffffffffffffffffffffffff16915050919050565b6000801b81565b60008061118f6109d8565b9050600061119d82866114af565b9050838110156111e2576040517f08c379a00000000000000000000000000000000000000000000000000000000081526004016111d9906141cb565b60405180910390fd5b6111ef8286868403611b65565b60019250505092915050565b6000806112066109d8565b9050611213818585611dbc565b600191505092915050565b60105481565b83421115611267576040517f08c379a000000000000000000000000000000000000000000000000000000000815260040161125e90614237565b60405180910390fd5b60006112c96112c17fe48329057bfd03d55e49b547132e39cffd9c1820ad7b9d4c5307691425d15adf8989896040516020016112a69493929190614257565b60405160208183030381529060405280519060200120612432565b85858561244c565b90506112d481612477565b8614611315576040517f08c379a000000000000000000000000000000000000000000000000000000000815260040161130c906142e8565b60405180910390fd5b61131f81886122f0565b50505050505050565b6000611345600260008481526020019081526020016000206124d5565b9050919050565b8342111561138f576040517f08c379a000000000000000000000000000000000000000000000000000000000815260040161138690614354565b60405180910390fd5b60007f6e71edae12b1b97f4d1f60370fef10105fa2faae0126114a169c64845d6126c98888886113be8c612477565b896040516020016113d496959493929190614374565b60405160208183030381529060405280519060200120905060006113f782612432565b905060006114078287878761244c565b90508973ffffffffffffffffffffffffffffffffffffffff168173ffffffffffffffffffffffffffffffffffffffff1614611477576040517f08c379a000000000000000000000000000000000000000000000000000000000815260040161146e90614421565b60405180910390fd5b6114828a8a8a611b65565b50505050505050505050565b61149782610b56565b6114a081612040565b6114aa83836121a2565b505050565b6000600460008473ffffffffffffffffffffffffffffffffffffffff1673ffffffffffffffffffffffffffffffffffffffff16815260200190815260200160002060008373ffffffffffffffffffffffffffffffffffffffff1673ffffffffffffffffffffffffffffffffffffffff16815260200190815260200160002054905092915050565b60116020528060005260406000206000915054906101000a900460ff1681565b61155e6134c8565b600b60008473ffffffffffffffffffffffffffffffffffffffff1673ffffffffffffffffffffffffffffffffffffffff1681526020019081526020016000208263ffffffff16815481106115b5576115b461412a565b5b906000526020600020016040518060400160405290816000820160009054906101000a900463ffffffff1663ffffffff1663ffffffff1681526020016000820160049054906101000a90047bffffffffffffffffffffffffffffffffffffffffffffffffffffffff167bffffffffffffffffffffffffffffffffffffffffffffffffffffffff167bffffffffffffffffffffffffffffffffffffffffffffffffffffffff1681525050905092915050565b6116708282611803565b6116786124ea565b7bffffffffffffffffffffffffffffffffffffffffffffffffffffffff1661169e610b1d565b11156116df576040517f08c379a00000000000000000000000000000000000000000000000000000000081526004016116d6906144b3565b60405180910390fd5b6116ed600c6119648361250e565b50505050565b6116fd8282610f6f565b6117cf57600180600084815260200190815260200160002060000160008373ffffffffffffffffffffffffffffffffffffffff1673ffffffffffffffffffffffffffffffffffffffff16815260200190815260200160002060006101000a81548160ff0219169083151502179055506117746109d8565b73ffffffffffffffffffffffffffffffffffffffff168173ffffffffffffffffffffffffffffffffffffffff16837f2f8788117e7eff1d82e926ec794901d17c78024a50270940304540a733656f0d60405160405180910390a45b5050565b60006117fb836000018373ffffffffffffffffffffffffffffffffffffffff1660001b612786565b905092915050565b600073ffffffffffffffffffffffffffffffffffffffff168273ffffffffffffffffffffffffffffffffffffffff161415611873576040517f08c379a000000000000000000000000000000000000000000000000000000000815260040161186a9061451f565b60405180910390fd5b61187f600083836127f6565b80600560008282546118919190613f5c565b9250508190555080600360008473ffffffffffffffffffffffffffffffffffffffff1673ffffffffffffffffffffffffffffffffffffffff16815260200190815260200160002060008282546118e79190613f5c565b925050819055508173ffffffffffffffffffffffffffffffffffffffff16600073ffffffffffffffffffffffffffffffffffffffff167fddf252ad1be2c89b69c2b068fc378daa952ba7f163c4a11628f55a4df523b3ef8360405161194c919061351f565b60405180910390a3611960600083836127fb565b5050565b600081836119729190613f5c565b905092915050565b60007bffffffffffffffffffffffffffffffffffffffffffffffffffffffff80168211156119dd576040517f08c379a00000000000000000000000000000000000000000000000000000000081526004016119d4906145b1565b60405180910390fd5b819050919050565b600063ffffffff8016821115611a30576040517f08c379a0000000000000000000000000000000000000000000000000000000008152600401611a2790614643565b60405180910390fd5b819050919050565b611a43838383611a63565b611a5e611a4f84610d7a565b611a5884610d7a565b836128ba565b505050565b505050565b60008183611a7691906140f6565b905092915050565b60007f7965db0b000000000000000000000000000000000000000000000000000000007bffffffffffffffffffffffffffffffffffffffffffffffffffffffff1916827bffffffffffffffffffffffffffffffffffffffffffffffffffffffff19161480611af15750611af082612ab3565b5b9050919050565b611b0181612b1d565b611b2f604051602001611b139061406a565b6040516020818303038152906040528051906020012082612bd1565b6a52b7d2dcc80cd2e4000000600f819055506005600f54611b509190614692565b601081905550611b62816010546122e2565b50565b600073ffffffffffffffffffffffffffffffffffffffff168373ffffffffffffffffffffffffffffffffffffffff161415611bd5576040517f08c379a0000000000000000000000000000000000000000000000000000000008152600401611bcc90614735565b60405180910390fd5b600073ffffffffffffffffffffffffffffffffffffffff168273ffffffffffffffffffffffffffffffffffffffff161415611c45576040517f08c379a0000000000000000000000000000000000000000000000000000000008152600401611c3c906147c7565b60405180910390fd5b80600460008573ffffffffffffffffffffffffffffffffffffffff1673ffffffffffffffffffffffffffffffffffffffff16815260200190815260200160002060008473ffffffffffffffffffffffffffffffffffffffff1673ffffffffffffffffffffffffffffffffffffffff168152602001908152602001600020819055508173ffffffffffffffffffffffffffffffffffffffff168373ffffffffffffffffffffffffffffffffffffffff167f8c5be1e5ebec7d5bd14f71427d1e84f3dd0314c0f7b2291e5b200ac8c7c3b92583604051611d23919061351f565b60405180910390a3505050565b6000611d3c84846114af565b90507fffffffffffffffffffffffffffffffffffffffffffffffffffffffffffffffff8114611db65781811015611da8576040517f08c379a0000000000000000000000000000000000000000000000000000000008152600401611d9f90614833565b60405180910390fd5b611db58484848403611b65565b5b50505050565b600073ffffffffffffffffffffffffffffffffffffffff168373ffffffffffffffffffffffffffffffffffffffff161415611e2c576040517f08c379a0000000000000000000000000000000000000000000000000000000008152600401611e23906148c5565b60405180910390fd5b600073ffffffffffffffffffffffffffffffffffffffff168273ffffffffffffffffffffffffffffffffffffffff161415611e9c576040517f08c379a0000000000000000000000000000000000000000000000000000000008152600401611e9390614957565b60405180910390fd5b611ea78383836127f6565b6000600360008573ffffffffffffffffffffffffffffffffffffffff1673ffffffffffffffffffffffffffffffffffffffff16815260200190815260200160002054905081811015611f2e576040517f08c379a0000000000000000000000000000000000000000000000000000000008152600401611f25906149e9565b60405180910390fd5b818103600360008673ffffffffffffffffffffffffffffffffffffffff1673ffffffffffffffffffffffffffffffffffffffff1681526020019081526020016000208190555081600360008573ffffffffffffffffffffffffffffffffffffffff1673ffffffffffffffffffffffffffffffffffffffff1681526020019081526020016000206000828254611fc39190613f5c565b925050819055508273ffffffffffffffffffffffffffffffffffffffff168473ffffffffffffffffffffffffffffffffffffffff167fddf252ad1be2c89b69c2b068fc378daa952ba7f163c4a11628f55a4df523b3ef84604051612027919061351f565b60405180910390a361203a8484846127fb565b50505050565b6120518161204c6109d8565b612bdf565b50565b61205e82826116f3565b61208381600260008581526020019081526020016000206117d390919063ffffffff16565b505050565b60007f000000000000000000000000000000000000000000000000000000000000000073ffffffffffffffffffffffffffffffffffffffff163073ffffffffffffffffffffffffffffffffffffffff1614801561210457507f000000000000000000000000000000000000000000000000000000000000000046145b15612131577f0000000000000000000000000000000000000000000000000000000000000000905061219f565b61219c7f00000000000000000000000000000000000000000000000000000000000000007f00000000000000000000000000000000000000000000000000000000000000007f0000000000000000000000000000000000000000000000000000000000000000612c7c565b90505b90565b6121ac8282612cb6565b6121d18160026000858152602001908152602001600020612d9890919063ffffffff16565b505050565b6000808380549050905060005b818110156122555760006121f78284612dc8565b90508486828154811061220d5761220c61412a565b5b9060005260206000200160000160009054906101000a900463ffffffff1663ffffffff16111561223f5780925061224f565b60018161224c9190613f5c565b91505b506121e3565b600082146122b7578460018361226b91906140f6565b8154811061227c5761227b61412a565b5b9060005260206000200160000160049054906101000a90047bffffffffffffffffffffffffffffffffffffffffffffffffffffffff166122ba565b60005b7bffffffffffffffffffffffffffffffffffffffffffffffffffffffff169250505092915050565b6122ec8282611666565b5050565b60006122fb83610d7a565b9050600061230884610e51565b905082600a60008673ffffffffffffffffffffffffffffffffffffffff1673ffffffffffffffffffffffffffffffffffffffff16815260200190815260200160002060006101000a81548173ffffffffffffffffffffffffffffffffffffffff021916908373ffffffffffffffffffffffffffffffffffffffff1602179055508273ffffffffffffffffffffffffffffffffffffffff168273ffffffffffffffffffffffffffffffffffffffff168573ffffffffffffffffffffffffffffffffffffffff167f3134e8a2e6d97e929a7e54011ea5485d7d196dd5f0ba4d4ef95803e8e3fc257f60405160405180910390a46124048284836128ba565b50505050565b600081600001549050919050565b60006124278360000183612dee565b60001c905092915050565b600061244561243f612088565b83612e19565b9050919050565b600080600061245d87878787612e4c565b9150915061246a81612f59565b8192505050949350505050565b600080600860008473ffffffffffffffffffffffffffffffffffffffff1673ffffffffffffffffffffffffffffffffffffffff16815260200190815260200160002090506124c48161240a565b91506124cf8161312e565b50919050565b60006124e382600001613144565b9050919050565b60007bffffffffffffffffffffffffffffffffffffffffffffffffffffffff905090565b6000806000858054905090506000811461257c578560018261253091906140f6565b815481106125415761254061412a565b5b9060005260206000200160000160049054906101000a90047bffffffffffffffffffffffffffffffffffffffffffffffffffffffff1661257f565b60005b7bffffffffffffffffffffffffffffffffffffffffffffffffffffffff1692506125ad83858763ffffffff16565b9150600081118015612600575043866001836125c991906140f6565b815481106125da576125d961412a565b5b9060005260206000200160000160009054906101000a900463ffffffff1663ffffffff16145b1561268d5761260e8261197a565b8660018361261c91906140f6565b8154811061262d5761262c61412a565b5b9060005260206000200160000160046101000a8154817bffffffffffffffffffffffffffffffffffffffffffffffffffffffff02191690837bffffffffffffffffffffffffffffffffffffffffffffffffffffffff16021790555061277d565b8560405180604001604052806126a2436119e5565b63ffffffff1681526020016126b68561197a565b7bffffffffffffffffffffffffffffffffffffffffffffffffffffffff168152509080600181540180825580915050600190039060005260206000200160009091909190915060008201518160000160006101000a81548163ffffffff021916908363ffffffff16021790555060208201518160000160046101000a8154817bffffffffffffffffffffffffffffffffffffffffffffffffffffffff02191690837bffffffffffffffffffffffffffffffffffffffffffffffffffffffff16021790555050505b50935093915050565b60006127928383613155565b6127eb5782600001829080600181540180825580915050600190039060005260206000200160009091909190915055826000018054905083600101600084815260200190815260200160002081905550600190506127f0565b600090505b92915050565b505050565b6001811061285c576001601160008473ffffffffffffffffffffffffffffffffffffffff1673ffffffffffffffffffffffffffffffffffffffff16815260200190815260200160002060006101000a81548160ff0219169083151502179055505b8173ffffffffffffffffffffffffffffffffffffffff167fec424a4215497770d9b19d9daef77e786684523569c438d84494da2e0e00848e436040516128a2919061351f565b60405180910390a26128b5838383611a38565b505050565b8173ffffffffffffffffffffffffffffffffffffffff168373ffffffffffffffffffffffffffffffffffffffff16141580156128f65750600081115b15612aae57600073ffffffffffffffffffffffffffffffffffffffff168373ffffffffffffffffffffffffffffffffffffffff16146129d45760008061297d600b60008773ffffffffffffffffffffffffffffffffffffffff1673ffffffffffffffffffffffffffffffffffffffff168152602001908152602001600020611a688561250e565b915091508473ffffffffffffffffffffffffffffffffffffffff167fdec2bacdd2f05b59de34da9b523dff8be42e5e38e818c82fdb0bae774387a72483836040516129c9929190614a09565b60405180910390a250505b600073ffffffffffffffffffffffffffffffffffffffff168273ffffffffffffffffffffffffffffffffffffffff1614612aad57600080612a56600b60008673ffffffffffffffffffffffffffffffffffffffff1673ffffffffffffffffffffffffffffffffffffffff1681526020019081526020016000206119648561250e565b915091508373ffffffffffffffffffffffffffffffffffffffff167fdec2bacdd2f05b59de34da9b523dff8be42e5e38e818c82fdb0bae774387a7248383604051612aa2929190614a09565b60405180910390a250505b5b505050565b60007f01ffc9a7000000000000000000000000000000000000000000000000000000007bffffffffffffffffffffffffffffffffffffffffffffffffffffffff1916827bffffffffffffffffffffffffffffffffffffffffffffffffffffffff1916149050919050565b600073ffffffffffffffffffffffffffffffffffffffff168173ffffffffffffffffffffffffffffffffffffffff161415612b8d576040517f08c379a0000000000000000000000000000000000000000000000000000000008152600401612b8490614a7e565b60405180910390fd5b80600d60006101000a81548173ffffffffffffffffffffffffffffffffffffffff021916908373ffffffffffffffffffffffffffffffffffffffff16021790555050565b612bdb8282612054565b5050565b612be98282610f6f565b612c7857612c0e8173ffffffffffffffffffffffffffffffffffffffff166014613178565b612c1c8360001c6020613178565b604051602001612c2d929190614b72565b6040516020818303038152906040526040517f08c379a0000000000000000000000000000000000000000000000000000000008152600401612c6f91906136a2565b60405180910390fd5b5050565b60008383834630604051602001612c97959493929190614bac565b6040516020818303038152906040528051906020012090509392505050565b612cc08282610f6f565b15612d945760006001600084815260200190815260200160002060000160008373ffffffffffffffffffffffffffffffffffffffff1673ffffffffffffffffffffffffffffffffffffffff16815260200190815260200160002060006101000a81548160ff021916908315150217905550612d396109d8565b73ffffffffffffffffffffffffffffffffffffffff168173ffffffffffffffffffffffffffffffffffffffff16837ff6391f5c32d9c69d2a47ea670b442974b53935d1edc7fd64eb21e047a839171b60405160405180910390a45b5050565b6000612dc0836000018373ffffffffffffffffffffffffffffffffffffffff1660001b6133b4565b905092915050565b60006002828418612dd99190614692565b828416612de69190613f5c565b905092915050565b6000826000018281548110612e0657612e0561412a565b5b9060005260206000200154905092915050565b60008282604051602001612e2e929190614c6c565b60405160208183030381529060405280519060200120905092915050565b6000807f7fffffffffffffffffffffffffffffff5d576e7357a4501ddfe92f46681b20a08360001c1115612e87576000600391509150612f50565b601b8560ff1614158015612e9f5750601c8560ff1614155b15612eb1576000600491509150612f50565b600060018787878760405160008152602001604052604051612ed69493929190614ca3565b6020604051602081039080840390855afa158015612ef8573d6000803e3d6000fd5b505050602060405103519050600073ffffffffffffffffffffffffffffffffffffffff168173ffffffffffffffffffffffffffffffffffffffff161415612f4757600060019250925050612f50565b80600092509250505b94509492505050565b60006004811115612f6d57612f6c614ce8565b5b816004811115612f8057612f7f614ce8565b5b1415612f8b5761312b565b60016004811115612f9f57612f9e614ce8565b5b816004811115612fb257612fb1614ce8565b5b1415612ff3576040517f08c379a0000000000000000000000000000000000000000000000000000000008152600401612fea90614d63565b60405180910390fd5b6002600481111561300757613006614ce8565b5b81600481111561301a57613019614ce8565b5b141561305b576040517f08c379a000000000000000000000000000000000000000000000000000000000815260040161305290614dcf565b60405180910390fd5b6003600481111561306f5761306e614ce8565b5b81600481111561308257613081614ce8565b5b14156130c3576040517f08c379a00000000000000000000000000000000000000000000000000000000081526004016130ba90614e61565b60405180910390fd5b6004808111156130d6576130d5614ce8565b5b8160048111156130e9576130e8614ce8565b5b141561312a576040517f08c379a000000000000000000000000000000000000000000000000000000000815260040161312190614ef3565b60405180910390fd5b5b50565b6001816000016000828254019250508190555050565b600081600001805490509050919050565b600080836001016000848152602001908152602001600020541415905092915050565b60606000600283600261318b9190614f13565b6131959190613f5c565b67ffffffffffffffff8111156131ae576131ad6136ce565b5b6040519080825280601f01601f1916602001820160405280156131e05781602001600182028036833780820191505090505b5090507f3000000000000000000000000000000000000000000000000000000000000000816000815181106132185761321761412a565b5b60200101907effffffffffffffffffffffffffffffffffffffffffffffffffffffffffffff1916908160001a9053507f78000000000000000000000000000000000000000000000000000000000000008160018151811061327c5761327b61412a565b5b60200101907effffffffffffffffffffffffffffffffffffffffffffffffffffffffffffff1916908160001a905350600060018460026132bc9190614f13565b6132c69190613f5c565b90505b6001811115613366577f3031323334353637383961626364656600000000000000000000000000000000600f8616601081106133085761330761412a565b5b1a60f81b82828151811061331f5761331e61412a565b5b60200101907effffffffffffffffffffffffffffffffffffffffffffffffffffffffffffff1916908160001a905350600485901c94508061335f90614f6d565b90506132c9565b50600084146133aa576040517f08c379a00000000000000000000000000000000000000000000000000000000081526004016133a190614fe3565b60405180910390fd5b8091505092915050565b600080836001016000848152602001908152602001600020549050600081146134bc5760006001826133e691906140f6565b90506000600186600001805490506133fe91906140f6565b905081811461346d57600086600001828154811061341f5761341e61412a565b5b90600052602060002001549050808760000184815481106134435761344261412a565b5b90600052602060002001819055508387600101600083815260200190815260200160002081905550505b8560000180548061348157613480615003565b5b6001900381819060005260206000200160009055905585600101600086815260200190815260200160002060009055600193505050506134c2565b60009150505b92915050565b6040518060400160405280600063ffffffff16815260200160007bffffffffffffffffffffffffffffffffffffffffffffffffffffffff1681525090565b6000819050919050565b61351981613506565b82525050565b60006020820190506135346000830184613510565b92915050565b6000604051905090565b600080fd5b600080fd5b60007fffffffff0000000000000000000000000000000000000000000000000000000082169050919050565b6135838161354e565b811461358e57600080fd5b50565b6000813590506135a08161357a565b92915050565b6000602082840312156135bc576135bb613544565b5b60006135ca84828501613591565b91505092915050565b60008115159050919050565b6135e8816135d3565b82525050565b600060208201905061360360008301846135df565b92915050565b600081519050919050565b600082825260208201905092915050565b60005b83811015613643578082015181840152602081019050613628565b83811115613652576000848401525b50505050565b6000601f19601f8301169050919050565b600061367482613609565b61367e8185613614565b935061368e818560208601613625565b61369781613658565b840191505092915050565b600060208201905081810360008301526136bc8184613669565b905092915050565b600080fd5b600080fd5b7f4e487b7100000000000000000000000000000000000000000000000000000000600052604160045260246000fd5b61370682613658565b810181811067ffffffffffffffff82111715613725576137246136ce565b5b80604052505050565b600061373861353a565b905061374482826136fd565b919050565b600067ffffffffffffffff821115613764576137636136ce565b5b61376d82613658565b9050602081019050919050565b82818337600083830152505050565b600061379c61379784613749565b61372e565b9050828152602081018484840111156137b8576137b76136c9565b5b6137c384828561377a565b509392505050565b600082601f8301126137e0576137df6136c4565b5b81356137f0848260208601613789565b91505092915050565b600073ffffffffffffffffffffffffffffffffffffffff82169050919050565b6000613824826137f9565b9050919050565b61383481613819565b811461383f57600080fd5b50565b6000813590506138518161382b565b92915050565b6000806000606084860312156138705761386f613544565b5b600084013567ffffffffffffffff81111561388e5761388d613549565b5b61389a868287016137cb565b935050602084013567ffffffffffffffff8111156138bb576138ba613549565b5b6138c7868287016137cb565b92505060406138d886828701613842565b9150509250925092565b6138eb81613506565b81146138f657600080fd5b50565b600081359050613908816138e2565b92915050565b6000806040838503121561392557613924613544565b5b600061393385828601613842565b9250506020613944858286016138f9565b9150509250929050565b60008060006060848603121561396757613966613544565b5b600061397586828701613842565b935050602061398686828701613842565b9250506040613997868287016138f9565b9150509250925092565b6000819050919050565b6139b4816139a1565b81146139bf57600080fd5b50565b6000813590506139d1816139ab565b92915050565b6000602082840312156139ed576139ec613544565b5b60006139fb848285016139c2565b91505092915050565b613a0d816139a1565b82525050565b6000602082019050613a286000830184613a04565b92915050565b60008060408385031215613a4557613a44613544565b5b6000613a53858286016139c2565b9250506020613a6485828601613842565b9150509250929050565b600060ff82169050919050565b613a8481613a6e565b82525050565b6000602082019050613a9f6000830184613a7b565b92915050565b600060208284031215613abb57613aba613544565b5b6000613ac984828501613842565b91505092915050565b613adb81613819565b82525050565b6000602082019050613af66000830184613ad2565b92915050565b600063ffffffff82169050919050565b613b1581613afc565b82525050565b6000602082019050613b306000830184613b0c565b92915050565b600060208284031215613b4c57613b4b613544565b5b6000613b5a848285016138f9565b91505092915050565b60008060408385031215613b7a57613b79613544565b5b6000613b88858286016139c2565b9250506020613b99858286016138f9565b9150509250929050565b613bac81613a6e565b8114613bb757600080fd5b50565b600081359050613bc981613ba3565b92915050565b60008060008060008060c08789031215613bec57613beb613544565b5b6000613bfa89828a01613842565b9650506020613c0b89828a016138f9565b9550506040613c1c89828a016138f9565b9450506060613c2d89828a01613bba565b9350506080613c3e89828a016139c2565b92505060a0613c4f89828a016139c2565b9150509295509295509295565b600080600080600080600060e0888a031215613c7b57613c7a613544565b5b6000613c898a828b01613842565b9750506020613c9a8a828b01613842565b9650506040613cab8a828b016138f9565b9550506060613cbc8a828b016138f9565b9450506080613ccd8a828b01613bba565b93505060a0613cde8a828b016139c2565b92505060c0613cef8a828b016139c2565b91505092959891949750929550565b60008060408385031215613d1557613d14613544565b5b6000613d2385828601613842565b9250506020613d3485828601613842565b9150509250929050565b613d4781613afc565b8114613d5257600080fd5b50565b600081359050613d6481613d3e565b92915050565b60008060408385031215613d8157613d80613544565b5b6000613d8f85828601613842565b9250506020613da085828601613d55565b9150509250929050565b613db381613afc565b82525050565b60007bffffffffffffffffffffffffffffffffffffffffffffffffffffffff82169050919050565b613dea81613db9565b82525050565b604082016000820151613e066000850182613daa565b506020820151613e196020850182613de1565b50505050565b6000604082019050613e346000830184613df0565b92915050565b7f4e487b7100000000000000000000000000000000000000000000000000000000600052602260045260246000fd5b60006002820490506001821680613e8157607f821691505b60208210811415613e9557613e94613e3a565b5b50919050565b7f416363657373436f6e74726f6c3a2063616e206f6e6c792072656e6f756e636560008201527f20726f6c657320666f722073656c660000000000000000000000000000000000602082015250565b6000613ef7602f83613614565b9150613f0282613e9b565b604082019050919050565b60006020820190508181036000830152613f2681613eea565b9050919050565b7f4e487b7100000000000000000000000000000000000000000000000000000000600052601160045260246000fd5b6000613f6782613506565b9150613f7283613506565b9250827fffffffffffffffffffffffffffffffffffffffffffffffffffffffffffffffff03821115613fa757613fa6613f2d565b5b828201905092915050565b7f4552433230566f7465733a20626c6f636b206e6f7420796574206d696e656400600082015250565b6000613fe8601f83613614565b9150613ff382613fb2565b602082019050919050565b6000602082019050818103600083015261401781613fdb565b9050919050565b7f55504752414445525f524f4c4500000000000000000000000000000000000000600082015250565b6000614054600d83613614565b915061405f8261401e565b602082019050919050565b6000602082019050818103600083015261408381614047565b9050919050565b7f6e6f7420617574686f72697a656420666f722075706772616465730000000000600082015250565b60006140c0601b83613614565b91506140cb8261408a565b602082019050919050565b600060208201905081810360008301526140ef816140b3565b9050919050565b600061410182613506565b915061410c83613506565b92508282101561411f5761411e613f2d565b5b828203905092915050565b7f4e487b7100000000000000000000000000000000000000000000000000000000600052603260045260246000fd5b7f45524332303a2064656372656173656420616c6c6f77616e63652062656c6f7760008201527f207a65726f000000000000000000000000000000000000000000000000000000602082015250565b60006141b5602583613614565b91506141c082614159565b604082019050919050565b600060208201905081810360008301526141e4816141a8565b9050919050565b7f4552433230566f7465733a207369676e61747572652065787069726564000000600082015250565b6000614221601d83613614565b915061422c826141eb565b602082019050919050565b6000602082019050818103600083015261425081614214565b9050919050565b600060808201905061426c6000830187613a04565b6142796020830186613ad2565b6142866040830185613510565b6142936060830184613510565b95945050505050565b7f4552433230566f7465733a20696e76616c6964206e6f6e636500000000000000600082015250565b60006142d2601983613614565b91506142dd8261429c565b602082019050919050565b60006020820190508181036000830152614301816142c5565b9050919050565b7f45524332305065726d69743a206578706972656420646561646c696e65000000600082015250565b600061433e601d83613614565b915061434982614308565b602082019050919050565b6000602082019050818103600083015261436d81614331565b9050919050565b600060c0820190506143896000830189613a04565b6143966020830188613ad2565b6143a36040830187613ad2565b6143b06060830186613510565b6143bd6080830185613510565b6143ca60a0830184613510565b979650505050505050565b7f45524332305065726d69743a20696e76616c6964207369676e61747572650000600082015250565b600061440b601e83613614565b9150614416826143d5565b602082019050919050565b6000602082019050818103600083015261443a816143fe565b9050919050565b7f4552433230566f7465733a20746f74616c20737570706c79207269736b73206f60008201527f766572666c6f77696e6720766f74657300000000000000000000000000000000602082015250565b600061449d603083613614565b91506144a882614441565b604082019050919050565b600060208201905081810360008301526144cc81614490565b9050919050565b7f45524332303a206d696e7420746f20746865207a65726f206164647265737300600082015250565b6000614509601f83613614565b9150614514826144d3565b602082019050919050565b60006020820190508181036000830152614538816144fc565b9050919050565b7f53616665436173743a2076616c756520646f65736e27742066697420696e203260008201527f3234206269747300000000000000000000000000000000000000000000000000602082015250565b600061459b602783613614565b91506145a68261453f565b604082019050919050565b600060208201905081810360008301526145ca8161458e565b9050919050565b7f53616665436173743a2076616c756520646f65736e27742066697420696e203360008201527f3220626974730000000000000000000000000000000000000000000000000000602082015250565b600061462d602683613614565b9150614638826145d1565b604082019050919050565b6000602082019050818103600083015261465c81614620565b9050919050565b7f4e487b7100000000000000000000000000000000000000000000000000000000600052601260045260246000fd5b600061469d82613506565b91506146a883613506565b9250826146b8576146b7614663565b5b828204905092915050565b7f45524332303a20617070726f76652066726f6d20746865207a65726f2061646460008201527f7265737300000000000000000000000000000000000000000000000000000000602082015250565b600061471f602483613614565b915061472a826146c3565b604082019050919050565b6000602082019050818103600083015261474e81614712565b9050919050565b7f45524332303a20617070726f766520746f20746865207a65726f20616464726560008201527f7373000000000000000000000000000000000000000000000000000000000000602082015250565b60006147b1602283613614565b91506147bc82614755565b604082019050919050565b600060208201905081810360008301526147e0816147a4565b9050919050565b7f45524332303a20696e73756666696369656e7420616c6c6f77616e6365000000600082015250565b600061481d601d83613614565b9150614828826147e7565b602082019050919050565b6000602082019050818103600083015261484c81614810565b9050919050565b7f45524332303a207472616e736665722066726f6d20746865207a65726f20616460008201527f6472657373000000000000000000000000000000000000000000000000000000602082015250565b60006148af602583613614565b91506148ba82614853565b604082019050919050565b600060208201905081810360008301526148de816148a2565b9050919050565b7f45524332303a207472616e7366657220746f20746865207a65726f206164647260008201527f6573730000000000000000000000000000000000000000000000000000000000602082015250565b6000614941602383613614565b915061494c826148e5565b604082019050919050565b6000602082019050818103600083015261497081614934565b9050919050565b7f45524332303a207472616e7366657220616d6f756e742065786365656473206260008201527f616c616e63650000000000000000000000000000000000000000000000000000602082015250565b60006149d3602683613614565b91506149de82614977565b604082019050919050565b60006020820190508181036000830152614a02816149c6565b9050919050565b6000604082019050614a1e6000830185613510565b614a2b6020830184613510565b9392505050565b7f6f776e65722063616e6e6f742062652061646472657373207a65726f00000000600082015250565b6000614a68601c83613614565b9150614a7382614a32565b602082019050919050565b60006020820190508181036000830152614a9781614a5b565b9050919050565b600081905092915050565b7f416363657373436f6e74726f6c3a206163636f756e7420000000000000000000600082015250565b6000614adf601783614a9e565b9150614aea82614aa9565b601782019050919050565b6000614b0082613609565b614b0a8185614a9e565b9350614b1a818560208601613625565b80840191505092915050565b7f206973206d697373696e6720726f6c6520000000000000000000000000000000600082015250565b6000614b5c601183614a9e565b9150614b6782614b26565b601182019050919050565b6000614b7d82614ad2565b9150614b898285614af5565b9150614b9482614b4f565b9150614ba08284614af5565b91508190509392505050565b600060a082019050614bc16000830188613a04565b614bce6020830187613a04565b614bdb6040830186613a04565b614be86060830185613510565b614bf56080830184613ad2565b9695505050505050565b7f1901000000000000000000000000000000000000000000000000000000000000600082015250565b6000614c35600283614a9e565b9150614c4082614bff565b600282019050919050565b6000819050919050565b614c66614c61826139a1565b614c4b565b82525050565b6000614c7782614c28565b9150614c838285614c55565b602082019150614c938284614c55565b6020820191508190509392505050565b6000608082019050614cb86000830187613a04565b614cc56020830186613a7b565b614cd26040830185613a04565b614cdf6060830184613a04565b95945050505050565b7f4e487b7100000000000000000000000000000000000000000000000000000000600052602160045260246000fd5b7f45434453413a20696e76616c6964207369676e61747572650000000000000000600082015250565b6000614d4d601883613614565b9150614d5882614d17565b602082019050919050565b60006020820190508181036000830152614d7c81614d40565b9050919050565b7f45434453413a20696e76616c6964207369676e6174757265206c656e67746800600082015250565b6000614db9601f83613614565b9150614dc482614d83565b602082019050919050565b60006020820190508181036000830152614de881614dac565b9050919050565b7f45434453413a20696e76616c6964207369676e6174757265202773272076616c60008201527f7565000000000000000000000000000000000000000000000000000000000000602082015250565b6000614e4b602283613614565b9150614e5682614def565b604082019050919050565b60006020820190508181036000830152614e7a81614e3e565b9050919050565b7f45434453413a20696e76616c6964207369676e6174757265202776272076616c60008201527f7565000000000000000000000000000000000000000000000000000000000000602082015250565b6000614edd602283613614565b9150614ee882614e81565b604082019050919050565b60006020820190508181036000830152614f0c81614ed0565b9050919050565b6000614f1e82613506565b9150614f2983613506565b9250817fffffffffffffffffffffffffffffffffffffffffffffffffffffffffffffffff0483118215151615614f6257614f61613f2d565b5b828202905092915050565b6000614f7882613506565b91506000821415614f8c57614f8b613f2d565b5b600182039050919050565b7f537472696e67733a20686578206c656e67746820696e73756666696369656e74600082015250565b6000614fcd602083613614565b9150614fd882614f97565b602082019050919050565b60006020820190508181036000830152614ffc81614fc0565b9050919050565b7f4e487b7100000000000000000000000000000000000000000000000000000000600052603160045260246000fdfea26469706673582212205f35a0f3fac006fe4aa1655cc381638ead133c1a7df3f9125c49fd4690de8fa064736f6c63430008090033",
  "immutableReferences": {
    "4384": [
      {
        "length": 32,
        "start": 8459
      }
    ],
    "4386": [
      {
        "length": 32,
        "start": 8418
      }
    ],
    "4388": [
      {
        "length": 32,
        "start": 8332
      }
    ],
    "4390": [
      {
        "length": 32,
        "start": 8535
      }
    ],
    "4392": [
      {
        "length": 32,
        "start": 8568
      }
    ],
    "4394": [
      {
        "length": 32,
        "start": 8502
      }
    ]
  },
  "source": "//SPDX-License-Identifier: MIT\npragma solidity 0.8.9;\n\n\nimport \"@openzeppelin/contracts/token/ERC20/ERC20.sol\";\nimport \"@openzeppelin/contracts/token/ERC20/extensions/ERC20Votes.sol\";\nimport \"@openzeppelin/contracts/utils/Address.sol\";\n\nimport \"@openzeppelin/contracts/access/AccessControlEnumerable.sol\";\nimport \"./Fees.sol\";\n\n\ncontract Akapz is Initializable, AccessControlEnumerable, ERC20Votes {\n\nusing Address for address;\n\n \n\naddress private _owner;\nuint private _initialized = 0;\nuint256 public s_maxSupply; // 100 millions akapz tokens\n    uint256 public _initialSupply;\n\nevent Deposited(address indexed _from, uint _amount);\n    event HolderRegistered(address indexed _holder, uint atBlock);\n\nbytes32 private constant UPGRADER_ROLE = keccak256(abi.encode(\"UPGRADER_ROLE\"));\nbytes32 private constant OWNER_ROLE = keccak256(abi.encode(\"OWNER_ROLE\"));\nbytes32 private constant FOUNDER_ROLE = keccak256(abi.encode(\"FOUNDER_ROLE\"));\n\n    mapping(address => bool) public _holders;\n\n    constructor(string memory name, string memory symbol, address owner_) ERC20(name, symbol) ERC20Permit(name)  {\n        initialize(name, symbol, owner_);\n    }\n\nfunction initialize(string memory name, string memory symbol, address owner_) public  {\n\n\n\n        __Akapz_init(owner_);\n        \n\n}\n\n\nfunction __Akapz_init(address owner_) private {\n    _setOwner(owner_);\n    _setupRole(UPGRADER_ROLE, owner_);\n    s_maxSupply = 100000000 * 10 ** 18;\n    _initialSupply = s_maxSupply / 5;\n    _mint(owner_, _initialSupply);\n\n}\n\n    function _setOwner(address owner_) internal {\n    require(owner_ != address(0), \"owner cannot be address zero\");\n    _owner = owner_;\n}\n\nmodifier onlyUpgrader(address sender) {\n    require(hasRole(UPGRADER_ROLE, sender), \"not authorized for upgrades\");\n    _;\n}\n\n\n\nfunction _afterTokenTransfer(address from, address to, uint256 amount) internal override(ERC20Votes) {\n    if(amount >= 1) {\n        _holders[to] = true;\n    }\n    emit HolderRegistered(to, block.number);\n    super._afterTokenTransfer(from, to, amount);\n}\n\nfunction mint(address to, uint256 amount) public onlyUpgrader(msg.sender) {\n    _mint(to, amount);\n}\n\nfunction _mint(address to, uint256 amount) internal override(ERC20Votes) {\n    super._mint(to, amount);\n  }\nfunction _burn(address account, uint256 amount) internal override(ERC20Votes) {\n    super._burn(account, amount);\n  }\n\nreceive() external payable {\n    emit Deposited(_msgSender(), msg.value);\n}\n\n    modifier onlyHolder(address sender) {\n        require(_holders[sender] == true, \"you need at least 1 Akap to gather fees\");\n        _;\n    }\n\n\n}",
  "sourcePath": "/Users/nicolascloutier/Documents/GitHub/akapz-dao/chain/contracts/Governance/Akapz.sol",
  "compiler": {
    "name": "solc",
    "version": "0.8.9+commit.e5eed63a.Emscripten.clang"
  },
  "schemaVersion": "3.4.3",
  "updatedAt": "2022-05-16T18:49:35.500Z",
  "networkType": "ethereum",
  "devdoc": {
    "kind": "dev",
    "methods": {
      "DOMAIN_SEPARATOR()": {
        "details": "See {IERC20Permit-DOMAIN_SEPARATOR}."
      },
      "allowance(address,address)": {
        "details": "See {IERC20-allowance}."
      },
      "approve(address,uint256)": {
        "details": "See {IERC20-approve}. NOTE: If `amount` is the maximum `uint256`, the allowance is not updated on `transferFrom`. This is semantically equivalent to an infinite approval. Requirements: - `spender` cannot be the zero address."
      },
      "balanceOf(address)": {
        "details": "See {IERC20-balanceOf}."
      },
      "checkpoints(address,uint32)": {
        "details": "Get the `pos`-th checkpoint for `account`."
      },
      "decimals()": {
        "details": "Returns the number of decimals used to get its user representation. For example, if `decimals` equals `2`, a balance of `505` tokens should be displayed to a user as `5.05` (`505 / 10 ** 2`). Tokens usually opt for a value of 18, imitating the relationship between Ether and Wei. This is the value {ERC20} uses, unless this function is overridden; NOTE: This information is only used for _display_ purposes: it in no way affects any of the arithmetic of the contract, including {IERC20-balanceOf} and {IERC20-transfer}."
      },
      "decreaseAllowance(address,uint256)": {
        "details": "Atomically decreases the allowance granted to `spender` by the caller. This is an alternative to {approve} that can be used as a mitigation for problems described in {IERC20-approve}. Emits an {Approval} event indicating the updated allowance. Requirements: - `spender` cannot be the zero address. - `spender` must have allowance for the caller of at least `subtractedValue`."
      },
      "delegate(address)": {
        "details": "Delegate votes from the sender to `delegatee`."
      },
      "delegateBySig(address,uint256,uint256,uint8,bytes32,bytes32)": {
        "details": "Delegates votes from signer to `delegatee`"
      },
      "delegates(address)": {
        "details": "Get the address `account` is currently delegating to."
      },
      "getPastTotalSupply(uint256)": {
        "details": "Retrieve the `totalSupply` at the end of `blockNumber`. Note, this value is the sum of all balances. It is but NOT the sum of all the delegated votes! Requirements: - `blockNumber` must have been already mined"
      },
      "getPastVotes(address,uint256)": {
        "details": "Retrieve the number of votes for `account` at the end of `blockNumber`. Requirements: - `blockNumber` must have been already mined"
      },
      "getRoleAdmin(bytes32)": {
        "details": "Returns the admin role that controls `role`. See {grantRole} and {revokeRole}. To change a role's admin, use {_setRoleAdmin}."
      },
      "getRoleMember(bytes32,uint256)": {
        "details": "Returns one of the accounts that have `role`. `index` must be a value between 0 and {getRoleMemberCount}, non-inclusive. Role bearers are not sorted in any particular way, and their ordering may change at any point. WARNING: When using {getRoleMember} and {getRoleMemberCount}, make sure you perform all queries on the same block. See the following https://forum.openzeppelin.com/t/iterating-over-elements-on-enumerableset-in-openzeppelin-contracts/2296[forum post] for more information."
      },
      "getRoleMemberCount(bytes32)": {
        "details": "Returns the number of accounts that have `role`. Can be used together with {getRoleMember} to enumerate all bearers of a role."
      },
      "getVotes(address)": {
        "details": "Gets the current votes balance for `account`"
      },
      "grantRole(bytes32,address)": {
        "details": "Grants `role` to `account`. If `account` had not been already granted `role`, emits a {RoleGranted} event. Requirements: - the caller must have ``role``'s admin role."
      },
      "hasRole(bytes32,address)": {
        "details": "Returns `true` if `account` has been granted `role`."
      },
      "increaseAllowance(address,uint256)": {
        "details": "Atomically increases the allowance granted to `spender` by the caller. This is an alternative to {approve} that can be used as a mitigation for problems described in {IERC20-approve}. Emits an {Approval} event indicating the updated allowance. Requirements: - `spender` cannot be the zero address."
      },
      "name()": {
        "details": "Returns the name of the token."
      },
      "nonces(address)": {
        "details": "See {IERC20Permit-nonces}."
      },
      "numCheckpoints(address)": {
        "details": "Get number of checkpoints for `account`."
      },
      "permit(address,address,uint256,uint256,uint8,bytes32,bytes32)": {
        "details": "See {IERC20Permit-permit}."
      },
      "renounceRole(bytes32,address)": {
        "details": "Revokes `role` from the calling account. Roles are often managed via {grantRole} and {revokeRole}: this function's purpose is to provide a mechanism for accounts to lose their privileges if they are compromised (such as when a trusted device is misplaced). If the calling account had been revoked `role`, emits a {RoleRevoked} event. Requirements: - the caller must be `account`."
      },
      "revokeRole(bytes32,address)": {
        "details": "Revokes `role` from `account`. If `account` had been granted `role`, emits a {RoleRevoked} event. Requirements: - the caller must have ``role``'s admin role."
      },
      "supportsInterface(bytes4)": {
        "details": "See {IERC165-supportsInterface}."
      },
      "symbol()": {
        "details": "Returns the symbol of the token, usually a shorter version of the name."
      },
      "totalSupply()": {
        "details": "See {IERC20-totalSupply}."
      },
      "transfer(address,uint256)": {
        "details": "See {IERC20-transfer}. Requirements: - `to` cannot be the zero address. - the caller must have a balance of at least `amount`."
      },
      "transferFrom(address,address,uint256)": {
        "details": "See {IERC20-transferFrom}. Emits an {Approval} event indicating the updated allowance. This is not required by the EIP. See the note at the beginning of {ERC20}. NOTE: Does not update the allowance if the current allowance is the maximum `uint256`. Requirements: - `from` and `to` cannot be the zero address. - `from` must have a balance of at least `amount`. - the caller must have allowance for ``from``'s tokens of at least `amount`."
      }
    },
    "version": 1
  },
  "userdoc": {
    "kind": "user",
    "methods": {},
    "version": 1
  }
}