{
  "contractName": "AkapzStakePool",
  "abi": [
    {
      "inputs": [
        {
          "internalType": "contract AKX",
          "name": "_AKXToken",
          "type": "address"
        },
        {
          "internalType": "contract Akapz",
          "name": "_akapzGovernanceToken",
          "type": "address"
        },
        {
          "internalType": "contract AkapzFarmingLPToken",
          "name": "_akapzFarmingLPToken",
          "type": "address"
        },
        {
          "internalType": "contract IUniswapV2Factory",
          "name": "_uniswapV2Factory",
          "type": "address"
        },
        {
          "internalType": "contract IUniswapV2Router02",
          "name": "_uniswapV2Router02",
          "type": "address"
        }
      ],
      "stateMutability": "nonpayable",
      "type": "constructor"
    },
    {
      "inputs": [],
      "name": "AKXToken",
      "outputs": [
        {
          "internalType": "contract AKX",
          "name": "",
          "type": "address"
        }
      ],
      "stateMutability": "view",
      "type": "function",
      "constant": true
    },
    {
      "inputs": [],
      "name": "AkapzGovernanceToken",
      "outputs": [
        {
          "internalType": "contract Akapz",
          "name": "",
          "type": "address"
        }
      ],
      "stateMutability": "view",
      "type": "function",
      "constant": true
    },
    {
      "inputs": [],
      "name": "akapzFarmingLPToken",
      "outputs": [
        {
          "internalType": "contract AkapzFarmingLPToken",
          "name": "",
          "type": "address"
        }
      ],
      "stateMutability": "view",
      "type": "function",
      "constant": true
    },
    {
      "inputs": [],
      "name": "currentStakeId",
      "outputs": [
        {
          "internalType": "uint8",
          "name": "",
          "type": "uint8"
        }
      ],
      "stateMutability": "view",
      "type": "function",
      "constant": true
    },
    {
      "inputs": [],
      "name": "lastBlock",
      "outputs": [
        {
          "internalType": "uint256",
          "name": "",
          "type": "uint256"
        }
      ],
      "stateMutability": "view",
      "type": "function",
      "constant": true
    },
    {
      "inputs": [],
      "name": "nextBlock",
      "outputs": [
        {
          "internalType": "uint256",
          "name": "",
          "type": "uint256"
        }
      ],
      "stateMutability": "view",
      "type": "function",
      "constant": true
    },
    {
      "inputs": [
        {
          "internalType": "address",
          "name": "",
          "type": "address"
        }
      ],
      "name": "pools",
      "outputs": [
        {
          "internalType": "contract IUniswapV2Pair",
          "name": "lpToken",
          "type": "address"
        },
        {
          "internalType": "uint256",
          "name": "allocPoint",
          "type": "uint256"
        },
        {
          "internalType": "uint256",
          "name": "lastRewardBlock",
          "type": "uint256"
        },
        {
          "internalType": "uint256",
          "name": "accPerShare",
          "type": "uint256"
        }
      ],
      "stateMutability": "view",
      "type": "function",
      "constant": true
    },
    {
      "inputs": [
        {
          "internalType": "uint8",
          "name": "",
          "type": "uint8"
        }
      ],
      "name": "stakeDatas",
      "outputs": [
        {
          "internalType": "address",
          "name": "staker",
          "type": "address"
        },
        {
          "internalType": "contract IUniswapV2Pair",
          "name": "lpToken",
          "type": "address"
        },
        {
          "internalType": "uint256",
          "name": "stakedLPTokenAmount",
          "type": "uint256"
        },
        {
          "internalType": "uint256",
          "name": "startBlock",
          "type": "uint256"
        },
        {
          "internalType": "uint256",
          "name": "shareOfPool",
          "type": "uint256"
        },
        {
          "internalType": "uint256",
          "name": "allocPoint",
          "type": "uint256"
        },
        {
          "internalType": "uint256",
          "name": "lastRewardBlock",
          "type": "uint256"
        },
        {
          "internalType": "uint256",
          "name": "accPerShare",
          "type": "uint256"
        }
      ],
      "stateMutability": "view",
      "type": "function",
      "constant": true
    },
    {
      "inputs": [
        {
          "internalType": "address",
          "name": "",
          "type": "address"
        }
      ],
      "name": "stakers",
      "outputs": [
        {
          "internalType": "uint256",
          "name": "amount",
          "type": "uint256"
        },
        {
          "internalType": "uint256",
          "name": "rewardDebt",
          "type": "uint256"
        },
        {
          "internalType": "uint256",
          "name": "blockTs",
          "type": "uint256"
        }
      ],
      "stateMutability": "view",
      "type": "function",
      "constant": true
    },
    {
      "inputs": [],
      "name": "startBlock",
      "outputs": [
        {
          "internalType": "uint256",
          "name": "",
          "type": "uint256"
        }
      ],
      "stateMutability": "view",
      "type": "function",
      "constant": true
    },
    {
      "inputs": [],
      "name": "uniswapV2Factory",
      "outputs": [
        {
          "internalType": "contract IUniswapV2Factory",
          "name": "",
          "type": "address"
        }
      ],
      "stateMutability": "view",
      "type": "function",
      "constant": true
    },
    {
      "inputs": [],
      "name": "uniswapV2Router02",
      "outputs": [
        {
          "internalType": "contract IUniswapV2Router02",
          "name": "",
          "type": "address"
        }
      ],
      "stateMutability": "view",
      "type": "function",
      "constant": true
    },
    {
      "inputs": [],
      "name": "wETH",
      "outputs": [
        {
          "internalType": "contract IWETH",
          "name": "",
          "type": "address"
        }
      ],
      "stateMutability": "view",
      "type": "function",
      "constant": true
    },
    {
      "inputs": [
        {
          "internalType": "contract IERC20",
          "name": "erc20",
          "type": "address"
        }
      ],
      "name": "createPairWithERC20",
      "outputs": [
        {
          "internalType": "contract IUniswapV2Pair",
          "name": "pair",
          "type": "address"
        }
      ],
      "stateMutability": "nonpayable",
      "type": "function"
    },
    {
      "inputs": [],
      "name": "createPairWithETH",
      "outputs": [
        {
          "internalType": "contract IUniswapV2Pair",
          "name": "pair",
          "type": "address"
        }
      ],
      "stateMutability": "nonpayable",
      "type": "function"
    },
    {
      "inputs": [
        {
          "internalType": "contract IUniswapV2Pair",
          "name": "pair",
          "type": "address"
        },
        {
          "internalType": "uint256",
          "name": "AKXTokenAmountDesired",
          "type": "uint256"
        },
        {
          "internalType": "uint256",
          "name": "ERC20AmountDesired",
          "type": "uint256"
        }
      ],
      "name": "addLiquidityWithERC20",
      "outputs": [],
      "stateMutability": "nonpayable",
      "type": "function"
    },
    {
      "inputs": [
        {
          "internalType": "contract IUniswapV2Pair",
          "name": "pair",
          "type": "address"
        },
        {
          "internalType": "uint256",
          "name": "AKXTokenAmountDesired",
          "type": "uint256"
        }
      ],
      "name": "addLiquidityWithETH",
      "outputs": [],
      "stateMutability": "payable",
      "type": "function",
      "payable": true
    },
    {
      "inputs": [
        {
          "internalType": "address payable",
          "name": "staker",
          "type": "address"
        },
        {
          "internalType": "contract IUniswapV2Pair",
          "name": "pair",
          "type": "address"
        },
        {
          "internalType": "uint256",
          "name": "lpTokenAmountUnStaked",
          "type": "uint256"
        }
      ],
      "name": "removeLiquidityWithETH",
      "outputs": [],
      "stateMutability": "nonpayable",
      "type": "function"
    },
    {
      "inputs": [
        {
          "internalType": "contract IUniswapV2Pair",
          "name": "pair",
          "type": "address"
        },
        {
          "internalType": "uint256",
          "name": "lpTokenAmount",
          "type": "uint256"
        }
      ],
      "name": "stakeLPToken",
      "outputs": [],
      "stateMutability": "nonpayable",
      "type": "function"
    },
    {
      "inputs": [
        {
          "internalType": "contract IUniswapV2Pair",
          "name": "pair",
          "type": "address"
        }
      ],
      "name": "claimEarnedReward",
      "outputs": [],
      "stateMutability": "nonpayable",
      "type": "function"
    },
    {
      "inputs": [],
      "name": "weeklyPoolStatusUpdate",
      "outputs": [],
      "stateMutability": "nonpayable",
      "type": "function"
    },
    {
      "inputs": [
        {
          "internalType": "contract IUniswapV2Pair",
          "name": "pair",
          "type": "address"
        },
        {
          "internalType": "uint256",
          "name": "unStakedLpTokenAmount",
          "type": "uint256"
        }
      ],
      "name": "unStakeLPToken",
      "outputs": [],
      "stateMutability": "nonpayable",
      "type": "function"
    },
    {
      "inputs": [],
      "name": "getTotalStakedLPTokenAmount",
      "outputs": [
        {
          "internalType": "uint256",
          "name": "_totalStakedLPTokenAmount",
          "type": "uint256"
        }
      ],
      "stateMutability": "view",
      "type": "function",
      "constant": true
    },
    {
      "inputs": [
        {
          "internalType": "uint8",
          "name": "stakeId",
          "type": "uint8"
        }
      ],
      "name": "getTotalIndividualStakedLPTokenAmount",
      "outputs": [
        {
          "internalType": "uint256",
          "name": "_totalIndividualStakedLPTokenAmount",
          "type": "uint256"
        }
      ],
      "stateMutability": "view",
      "type": "function",
      "constant": true
    }
  ],
  "bytecode": "0x6080604052600f6016553480156200001657600080fd5b50604051620040bf380380620040bf83398181016040528101906200003c919062000651565b84600460006101000a81548173ffffffffffffffffffffffffffffffffffffffff021916908373ffffffffffffffffffffffffffffffffffffffff16021790555083600660006101000a81548173ffffffffffffffffffffffffffffffffffffffff021916908373ffffffffffffffffffffffffffffffffffffffff16021790555082600560006101000a81548173ffffffffffffffffffffffffffffffffffffffff021916908373ffffffffffffffffffffffffffffffffffffffff16021790555081600860006101000a81548173ffffffffffffffffffffffffffffffffffffffff021916908373ffffffffffffffffffffffffffffffffffffffff16021790555080600960006101000a81548173ffffffffffffffffffffffffffffffffffffffff021916908373ffffffffffffffffffffffffffffffffffffffff160217905550600960009054906101000a900473ffffffffffffffffffffffffffffffffffffffff1673ffffffffffffffffffffffffffffffffffffffff1663ad5c46486040518163ffffffff1660e01b8152600401602060405180830381600087803b158015620001ec57600080fd5b505af115801562000201573d6000803e3d6000fd5b505050506040513d601f19601f820116820180604052508101906200022791906200070a565b600760006101000a81548173ffffffffffffffffffffffffffffffffffffffff021916908373ffffffffffffffffffffffffffffffffffffffff16021790555084600a60006101000a81548173ffffffffffffffffffffffffffffffffffffffff021916908373ffffffffffffffffffffffffffffffffffffffff16021790555083600c60006101000a81548173ffffffffffffffffffffffffffffffffffffffff021916908373ffffffffffffffffffffffffffffffffffffffff16021790555082600b60006101000a81548173ffffffffffffffffffffffffffffffffffffffff021916908373ffffffffffffffffffffffffffffffffffffffff16021790555081600e60006101000a81548173ffffffffffffffffffffffffffffffffffffffff021916908373ffffffffffffffffffffffffffffffffffffffff16021790555080600f60006101000a81548173ffffffffffffffffffffffffffffffffffffffff021916908373ffffffffffffffffffffffffffffffffffffffff160217905550600960009054906101000a900473ffffffffffffffffffffffffffffffffffffffff1673ffffffffffffffffffffffffffffffffffffffff1663ad5c46486040518163ffffffff1660e01b8152600401602060405180830381600087803b1580156200041757600080fd5b505af11580156200042c573d6000803e3d6000fd5b505050506040513d601f19601f820116820180604052508101906200045291906200070a565b600d60006101000a81548173ffffffffffffffffffffffffffffffffffffffff021916908373ffffffffffffffffffffffffffffffffffffffff160217905550436013819055504360148190555050505050506200073c565b600080fd5b600073ffffffffffffffffffffffffffffffffffffffff82169050919050565b6000620004dd82620004b0565b9050919050565b6000620004f182620004d0565b9050919050565b6200050381620004e4565b81146200050f57600080fd5b50565b6000815190506200052381620004f8565b92915050565b60006200053682620004b0565b9050919050565b60006200054a8262000529565b9050919050565b6200055c816200053d565b81146200056857600080fd5b50565b6000815190506200057c8162000551565b92915050565b60006200058f82620004d0565b9050919050565b620005a18162000582565b8114620005ad57600080fd5b50565b600081519050620005c18162000596565b92915050565b6000620005d482620004d0565b9050919050565b620005e681620005c7565b8114620005f257600080fd5b50565b6000815190506200060681620005db565b92915050565b60006200061982620004d0565b9050919050565b6200062b816200060c565b81146200063757600080fd5b50565b6000815190506200064b8162000620565b92915050565b600080600080600060a0868803121562000670576200066f620004ab565b5b6000620006808882890162000512565b955050602062000693888289016200056b565b9450506040620006a688828901620005b0565b9350506060620006b988828901620005f5565b9250506080620006cc888289016200063a565b9150509295509295909350565b620006e481620004d0565b8114620006f057600080fd5b50565b6000815190506200070481620006d9565b92915050565b600060208284031215620007235762000722620004ab565b5b60006200073384828501620006f3565b91505092915050565b613973806200074c6000396000f3fe60806040526004361061014b5760003560e01c80635d22ac1b116100b6578063a313d91f1161006f578063a313d91f1461048e578063a4063dbc146104b9578063a7c6402c146104f9578063b97e1f7814610524578063d4258bf61461054f578063f2428621146105665761014b565b80635d22ac1b14610363578063787a466a1461038c5780637c33cc23146103b5578063806b984f146103f957806383788fce146104245780639168ae721461044f5761014b565b80634081f501116101085780634081f5011461026057806348cd4cb11461029d5780634d121125146102c85780634d17e8c9146102f157806359d0f7131461031c5780635c4f127c146103475761014b565b80630e9841b214610150578063111533b414610179578063121b05b8146101a45780631b2903ff146101e15780631baeaabe1461020c578063398dfad114610237575b600080fd5b34801561015c57600080fd5b50610177600480360381019061017291906126d6565b610591565b005b34801561018557600080fd5b5061018e6108b5565b60405161019b9190612775565b60405180910390f35b3480156101b057600080fd5b506101cb60048036038101906101c691906127ce565b6108db565b6040516101d8919061282e565b60405180910390f35b3480156101ed57600080fd5b506101f66109ba565b604051610203919061282e565b60405180910390f35b34801561021857600080fd5b50610221610ab9565b60405161022e919061286a565b60405180910390f35b34801561024357600080fd5b5061025e60048036038101906102599190612885565b610adf565b005b34801561026c57600080fd5b5061028760048036038101906102829190612911565b611034565b604051610294919061294d565b60405180910390f35b3480156102a957600080fd5b506102b2611153565b6040516102bf919061294d565b60405180910390f35b3480156102d457600080fd5b506102ef60048036038101906102ea9190612968565b611159565b005b3480156102fd57600080fd5b506103066111f9565b60405161031391906129b6565b60405180910390f35b34801561032857600080fd5b5061033161121f565b60405161033e91906129f2565b60405180910390f35b610361600480360381019061035c91906126d6565b611245565b005b34801561036f57600080fd5b5061038a60048036038101906103859190612a4b565b61149c565b005b34801561039857600080fd5b506103b360048036038101906103ae91906126d6565b61172e565b005b3480156103c157600080fd5b506103dc60048036038101906103d79190612911565b61174c565b6040516103f0989796959493929190612aad565b60405180910390f35b34801561040557600080fd5b5061040e6117d4565b60405161041b919061294d565b60405180910390f35b34801561043057600080fd5b506104396117da565b604051610446919061294d565b60405180910390f35b34801561045b57600080fd5b5061047660048036038101906104719190612b57565b6117e0565b60405161048593929190612b84565b60405180910390f35b34801561049a57600080fd5b506104a361180a565b6040516104b0919061294d565b60405180910390f35b3480156104c557600080fd5b506104e060048036038101906104db9190612b57565b611814565b6040516104f09493929190612bbb565b60405180910390f35b34801561050557600080fd5b5061050e611864565b60405161051b9190612c21565b60405180910390f35b34801561053057600080fd5b5061053961188a565b6040516105469190612c4b565b60405180910390f35b34801561055b57600080fd5b5061056461189d565b005b34801561057257600080fd5b5061057b61191f565b6040516105889190612c87565b60405180910390f35b8173ffffffffffffffffffffffffffffffffffffffff166323b872dd3330846040518463ffffffff1660e01b81526004016105ce93929190612ca2565b602060405180830381600087803b1580156105e857600080fd5b505af11580156105fc573d6000803e3d6000fd5b505050506040513d601f19601f820116820180604052508101906106209190612d11565b50600560009054906101000a900473ffffffffffffffffffffffffffffffffffffffff1673ffffffffffffffffffffffffffffffffffffffff166340c10f1933836040518363ffffffff1660e01b815260040161067e929190612d3e565b600060405180830381600087803b15801561069857600080fd5b505af11580156106ac573d6000803e3d6000fd5b5050505080601060008282546106c29190612d96565b9250508190555060006106d3611945565b9050600f601481819054906101000a900460ff16809291906106f490612dec565b91906101000a81548160ff021916908360ff160217905550506000600260008360ff1660ff1681526020019081526020016000209050338160000160006101000a81548173ffffffffffffffffffffffffffffffffffffffff021916908373ffffffffffffffffffffffffffffffffffffffff160217905550838160010160006101000a81548173ffffffffffffffffffffffffffffffffffffffff021916908373ffffffffffffffffffffffffffffffffffffffff1602179055508281600201819055504381600301819055506001339080600181540180825580915050600190039060005260206000200160009091909190916101000a81548173ffffffffffffffffffffffffffffffffffffffff021916908373ffffffffffffffffffffffffffffffffffffffff16021790555060008060003373ffffffffffffffffffffffffffffffffffffffff1673ffffffffffffffffffffffffffffffffffffffff1681526020019081526020016000209050806000018390806001815401808255809150506001900390600052602060002090602091828204019190069091909190916101000a81548160ff021916908360ff1602179055505050505050565b600660009054906101000a900473ffffffffffffffffffffffffffffffffffffffff1681565b600080600860009054906101000a900473ffffffffffffffffffffffffffffffffffffffff1673ffffffffffffffffffffffffffffffffffffffff1663c9c65396600a60009054906101000a900473ffffffffffffffffffffffffffffffffffffffff16856040518363ffffffff1660e01b815260040161095d929190612e16565b602060405180830381600087803b15801561097757600080fd5b505af115801561098b573d6000803e3d6000fd5b505050506040513d601f19601f820116820180604052508101906109af9190612e54565b905080915050919050565b600080600860009054906101000a900473ffffffffffffffffffffffffffffffffffffffff1673ffffffffffffffffffffffffffffffffffffffff1663c9c65396600a60009054906101000a900473ffffffffffffffffffffffffffffffffffffffff16600d60009054906101000a900473ffffffffffffffffffffffffffffffffffffffff166040518363ffffffff1660e01b8152600401610a5e929190612e16565b602060405180830381600087803b158015610a7857600080fd5b505af1158015610a8c573d6000803e3d6000fd5b505050506040513d601f19601f82011682018060405250810190610ab09190612e54565b90508091505090565b600460009054906101000a900473ffffffffffffffffffffffffffffffffffffffff1681565b60008373ffffffffffffffffffffffffffffffffffffffff1663d21220a76040518163ffffffff1660e01b815260040160206040518083038186803b158015610b2757600080fd5b505afa158015610b3b573d6000803e3d6000fd5b505050506040513d601f19601f82011682018060405250810190610b5f9190612e54565b9050610bae3384600460009054906101000a900473ffffffffffffffffffffffffffffffffffffffff1673ffffffffffffffffffffffffffffffffffffffff166119689092919063ffffffff16565b610bd933838373ffffffffffffffffffffffffffffffffffffffff166119689092919063ffffffff16565b6000600860009054906101000a900473ffffffffffffffffffffffffffffffffffffffff1673ffffffffffffffffffffffffffffffffffffffff1663e6a43905600a60009054906101000a900473ffffffffffffffffffffffffffffffffffffffff16846040518363ffffffff1660e01b8152600401610c5a929190612e16565b60206040518083038186803b158015610c7257600080fd5b505afa158015610c86573d6000803e3d6000fd5b505050506040513d601f19601f82011682018060405250810190610caa9190612e54565b9050600073ffffffffffffffffffffffffffffffffffffffff168173ffffffffffffffffffffffffffffffffffffffff1611610d1b576040517f08c379a0000000000000000000000000000000000000000000000000000000008152600401610d1290612f04565b60405180910390fd5b6000610d6c600e60009054906101000a900473ffffffffffffffffffffffffffffffffffffffff16600a60009054906101000a900473ffffffffffffffffffffffffffffffffffffffff16856119ee565b905060008173ffffffffffffffffffffffffffffffffffffffff166318160ddd6040518163ffffffff1660e01b815260040160206040518083038186803b158015610db657600080fd5b505afa158015610dca573d6000803e3d6000fd5b505050506040513d601f19601f82011682018060405250810190610dee9190612f39565b905060008111610e33576040517f08c379a0000000000000000000000000000000000000000000000000000000008152600401610e2a90612ffe565b60405180910390fd5b610ea2600f60009054906101000a900473ffffffffffffffffffffffffffffffffffffffff1687600460009054906101000a900473ffffffffffffffffffffffffffffffffffffffff1673ffffffffffffffffffffffffffffffffffffffff16611a609092919063ffffffff16565b610eef600f60009054906101000a900473ffffffffffffffffffffffffffffffffffffffff16868673ffffffffffffffffffffffffffffffffffffffff16611a609092919063ffffffff16565b6000806000610eff878a8a611bbe565b809350819450829550505050600560009054906101000a900473ffffffffffffffffffffffffffffffffffffffff1673ffffffffffffffffffffffffffffffffffffffff166340c10f1933836040518363ffffffff1660e01b8152600401610f68929190612d3e565b600060405180830381600087803b158015610f8257600080fd5b505af1158015610f96573d6000803e3d6000fd5b505050508473ffffffffffffffffffffffffffffffffffffffff1663a9059cbb33836040518363ffffffff1660e01b8152600401610fd5929190612d3e565b602060405180830381600087803b158015610fef57600080fd5b505af1158015611003573d6000803e3d6000fd5b505050506040513d601f19601f820116820180604052508101906110279190612d11565b5050505050505050505050565b600080600260008460ff1660ff168152602001908152602001600020604051806101000160405290816000820160009054906101000a900473ffffffffffffffffffffffffffffffffffffffff1673ffffffffffffffffffffffffffffffffffffffff1673ffffffffffffffffffffffffffffffffffffffff1681526020016001820160009054906101000a900473ffffffffffffffffffffffffffffffffffffffff1673ffffffffffffffffffffffffffffffffffffffff1673ffffffffffffffffffffffffffffffffffffffff168152602001600282015481526020016003820154815260200160048201548152602001600582015481526020016006820154815260200160078201548152505090508060400151915050919050565b60135481565b600061116482611ce9565b9050600660009054906101000a900473ffffffffffffffffffffffffffffffffffffffff1673ffffffffffffffffffffffffffffffffffffffff166340c10f1933836040518363ffffffff1660e01b81526004016111c3929190612d3e565b600060405180830381600087803b1580156111dd57600080fd5b505af11580156111f1573d6000803e3d6000fd5b505050505050565b600560009054906101000a900473ffffffffffffffffffffffffffffffffffffffff1681565b600860009054906101000a900473ffffffffffffffffffffffffffffffffffffffff1681565b6112923382600460009054906101000a900473ffffffffffffffffffffffffffffffffffffffff1673ffffffffffffffffffffffffffffffffffffffff166119689092919063ffffffff16565b6000349050600760009054906101000a900473ffffffffffffffffffffffffffffffffffffffff1673ffffffffffffffffffffffffffffffffffffffff1663d0e30db06040518163ffffffff1660e01b8152600401600060405180830381600087803b15801561130157600080fd5b505af1158015611315573d6000803e3d6000fd5b50505050600460009054906101000a900473ffffffffffffffffffffffffffffffffffffffff1673ffffffffffffffffffffffffffffffffffffffff1663095ea7b3600f60009054906101000a900473ffffffffffffffffffffffffffffffffffffffff16846040518363ffffffff1660e01b8152600401611398929190612d3e565b602060405180830381600087803b1580156113b257600080fd5b505af11580156113c6573d6000803e3d6000fd5b505050506040513d601f19601f820116820180604052508101906113ea9190612d11565b5060008060006113fa8585611fd4565b8093508194508295505050508573ffffffffffffffffffffffffffffffffffffffff1663a9059cbb33836040518363ffffffff1660e01b8152600401611441929190612d3e565b602060405180830381600087803b15801561145b57600080fd5b505af115801561146f573d6000803e3d6000fd5b505050506040513d601f19601f820116820180604052508101906114939190612d11565b50505050505050565b600080600080600087905060006114bd600f426120fb90919063ffffffff16565b9050600960009054906101000a900473ffffffffffffffffffffffffffffffffffffffff1673ffffffffffffffffffffffffffffffffffffffff166302751cec600a60009054906101000a900473ffffffffffffffffffffffffffffffffffffffff1689878787876040518763ffffffff1660e01b81526004016115469695949392919061301e565b6040805180830381600087803b15801561155f57600080fd5b505af1158015611573573d6000803e3d6000fd5b505050506040513d601f19601f82011682018060405250810190611597919061307f565b8096508197505050600760009054906101000a900473ffffffffffffffffffffffffffffffffffffffff1673ffffffffffffffffffffffffffffffffffffffff16632e1a7d4d866040518263ffffffff1660e01b81526004016115fa919061294d565b600060405180830381600087803b15801561161457600080fd5b505af1158015611628573d6000803e3d6000fd5b50505050600460009054906101000a900473ffffffffffffffffffffffffffffffffffffffff1673ffffffffffffffffffffffffffffffffffffffff1663a9059cbb8a886040518363ffffffff1660e01b81526004016116899291906130e0565b602060405180830381600087803b1580156116a357600080fd5b505af11580156116b7573d6000803e3d6000fd5b505050506040513d601f19601f820116820180604052508101906116db9190612d11565b508873ffffffffffffffffffffffffffffffffffffffff166108fc869081150290604051600060405180830381858888f19350505050158015611722573d6000803e3d6000fd5b50505050505050505050565b600082905061173e338484612111565b61174783611159565b505050565b60026020528060005260406000206000915090508060000160009054906101000a900473ffffffffffffffffffffffffffffffffffffffff16908060010160009054906101000a900473ffffffffffffffffffffffffffffffffffffffff16908060020154908060030154908060040154908060050154908060060154908060070154905088565b60145481565b60155481565b60006020528060005260406000206000915090508060010154908060020154908060030154905083565b6000601054905090565b60036020528060005260406000206000915090508060000160009054906101000a900473ffffffffffffffffffffffffffffffffffffffff16908060010154908060020154908060030154905084565b600960009054906101000a900473ffffffffffffffffffffffffffffffffffffffff1681565b600f60149054906101000a900460ff1681565b600043905060155481111561191c5760145481116118f0576040517f08c379a00000000000000000000000000000000000000000000000000000000081526004016118e79061317b565b60405180910390fd5b8060148190555061190d62093a80826120fb90919063ffffffff16565b60158190555061191b612233565b5b50565b600760009054906101000a900473ffffffffffffffffffffffffffffffffffffffff1681565b60006001600f60149054906101000a900460ff16611963919061319b565b905090565b6119e98363a9059cbb60e01b8484604051602401611987929190612d3e565b604051602081830303815290604052907bffffffffffffffffffffffffffffffffffffffffffffffffffffffff19166020820180517bffffffffffffffffffffffffffffffffffffffffffffffffffffffff838183161783525050505061223e565b505050565b60008060006119fd8585612305565b91509150858282604051602001611a1592919061321a565b60405160208183030381529060405280519060200120604051602001611a3c929190613314565b6040516020818303038152906040528051906020012060601c925050509392505050565b6000811480611af9575060008373ffffffffffffffffffffffffffffffffffffffff1663dd62ed3e30856040518363ffffffff1660e01b8152600401611aa7929190612e16565b60206040518083038186803b158015611abf57600080fd5b505afa158015611ad3573d6000803e3d6000fd5b505050506040513d601f19601f82011682018060405250810190611af79190612f39565b145b611b38576040517f08c379a0000000000000000000000000000000000000000000000000000000008152600401611b2f906133c8565b60405180910390fd5b611bb98363095ea7b360e01b8484604051602401611b57929190612d3e565b604051602081830303815290604052907bffffffffffffffffffffffffffffffffffffffffffffffffffffffff19166020820180517bffffffffffffffffffffffffffffffffffffffffffffffffffffffff838183161783525050505061223e565b505050565b60008060008060008060008060003390506000611be5600f426120fb90919063ffffffff16565b9050600960009054906101000a900473ffffffffffffffffffffffffffffffffffffffff1673ffffffffffffffffffffffffffffffffffffffff1663e8e33700600a60009054906101000a900473ffffffffffffffffffffffffffffffffffffffff168f8f8f898989896040518963ffffffff1660e01b8152600401611c729897969594939291906133e8565b606060405180830381600087803b158015611c8c57600080fd5b505af1158015611ca0573d6000803e3d6000fd5b505050506040513d601f19601f82011682018060405250810190611cc49190613466565b8097508198508299505050508686869950995099505050505050505093509350939050565b6000806000803373ffffffffffffffffffffffffffffffffffffffff1673ffffffffffffffffffffffffffffffffffffffff16815260200190815260200160002060405180608001604052908160008201805480602002602001604051908101604052809291908181526020018280548015611daa57602002820191906000526020600020906000905b82829054906101000a900460ff1660ff1681526020019060010190602082600001049283019260010382029150808411611d735790505b5050505050815260200160018201548152602001600282015481526020016003820154815250509050600081600001519050600080600190505b82518160ff161015611f3d5760008190506000600260008360ff1660ff168152602001908152602001600020604051806101000160405290816000820160009054906101000a900473ffffffffffffffffffffffffffffffffffffffff1673ffffffffffffffffffffffffffffffffffffffff1673ffffffffffffffffffffffffffffffffffffffff1681526020016001820160009054906101000a900473ffffffffffffffffffffffffffffffffffffffff1673ffffffffffffffffffffffffffffffffffffffff1673ffffffffffffffffffffffffffffffffffffffff168152602001600282015481526020016003820154815260200160048201548152602001600582015481526020016006820154815260200160078201548152505090506000816020015190506000826040015190508086611f249190612d96565b9550505050508080611f3590612dec565b915050611de4565b506000611f556010548361243390919063ffffffff16565b9050611f6e60115460105461244990919063ffffffff16565b6012819055506000611fc56064611fb784611fa96064611f9b60165460125461245f90919063ffffffff16565b61243390919063ffffffff16565b61245f90919063ffffffff16565b61243390919063ffffffff16565b90508095505050505050919050565b600080600080600080600088905060003390506000611ffe61012c426120fb90919063ffffffff16565b9050600960009054906101000a900473ffffffffffffffffffffffffffffffffffffffff1673ffffffffffffffffffffffffffffffffffffffff1663f305d719600a60009054906101000a900473ffffffffffffffffffffffffffffffffffffffff168d868e87876040518763ffffffff1660e01b81526004016120879695949392919061301e565b606060405180830381600087803b1580156120a157600080fd5b505af11580156120b5573d6000803e3d6000fd5b505050506040513d601f19601f820116820180604052508101906120d99190613466565b8096508197508298505050508585859850985098505050505050509250925092565b600081836121099190612d96565b905092915050565b600560009054906101000a900473ffffffffffffffffffffffffffffffffffffffff1673ffffffffffffffffffffffffffffffffffffffff16639dc29fac84836040518363ffffffff1660e01b815260040161216e929190612d3e565b600060405180830381600087803b15801561218857600080fd5b505af115801561219c573d6000803e3d6000fd5b505050508173ffffffffffffffffffffffffffffffffffffffff1663a9059cbb84836040518363ffffffff1660e01b81526004016121db929190612d3e565b602060405180830381600087803b1580156121f557600080fd5b505af1158015612209573d6000803e3d6000fd5b505050506040513d601f19601f8201168201806040525081019061222d9190612d11565b50505050565b601054601181905550565b60006122a0826040518060400160405280602081526020017f5361666545524332303a206c6f772d6c6576656c2063616c6c206661696c65648152508573ffffffffffffffffffffffffffffffffffffffff166124759092919063ffffffff16565b905060008151111561230057808060200190518101906122c09190612d11565b6122ff576040517f08c379a00000000000000000000000000000000000000000000000000000000081526004016122f69061352b565b60405180910390fd5b5b505050565b6000808273ffffffffffffffffffffffffffffffffffffffff168473ffffffffffffffffffffffffffffffffffffffff161415612377576040517f08c379a000000000000000000000000000000000000000000000000000000000815260040161236e906135bd565b60405180910390fd5b8273ffffffffffffffffffffffffffffffffffffffff168473ffffffffffffffffffffffffffffffffffffffff16106123b15782846123b4565b83835b8092508193505050600073ffffffffffffffffffffffffffffffffffffffff168273ffffffffffffffffffffffffffffffffffffffff16141561242c576040517f08c379a000000000000000000000000000000000000000000000000000000000815260040161242390613629565b60405180910390fd5b9250929050565b600081836124419190613678565b905092915050565b6000818361245791906136a9565b905092915050565b6000818361246d91906136dd565b905092915050565b6060612484848460008561248d565b90509392505050565b6060824710156124d2576040517f08c379a00000000000000000000000000000000000000000000000000000000081526004016124c9906137a9565b60405180910390fd5b6124db856125a1565b61251a576040517f08c379a000000000000000000000000000000000000000000000000000000000815260040161251190613815565b60405180910390fd5b6000808673ffffffffffffffffffffffffffffffffffffffff16858760405161254391906138af565b60006040518083038185875af1925050503d8060008114612580576040519150601f19603f3d011682016040523d82523d6000602084013e612585565b606091505b50915091506125958282866125c4565b92505050949350505050565b6000808273ffffffffffffffffffffffffffffffffffffffff163b119050919050565b606083156125d457829050612624565b6000835111156125e75782518084602001fd5b816040517f08c379a000000000000000000000000000000000000000000000000000000000815260040161261b919061391b565b60405180910390fd5b9392505050565b600080fd5b600073ffffffffffffffffffffffffffffffffffffffff82169050919050565b600061265b82612630565b9050919050565b600061266d82612650565b9050919050565b61267d81612662565b811461268857600080fd5b50565b60008135905061269a81612674565b92915050565b6000819050919050565b6126b3816126a0565b81146126be57600080fd5b50565b6000813590506126d0816126aa565b92915050565b600080604083850312156126ed576126ec61262b565b5b60006126fb8582860161268b565b925050602061270c858286016126c1565b9150509250929050565b6000819050919050565b600061273b61273661273184612630565b612716565b612630565b9050919050565b600061274d82612720565b9050919050565b600061275f82612742565b9050919050565b61276f81612754565b82525050565b600060208201905061278a6000830184612766565b92915050565b600061279b82612650565b9050919050565b6127ab81612790565b81146127b657600080fd5b50565b6000813590506127c8816127a2565b92915050565b6000602082840312156127e4576127e361262b565b5b60006127f2848285016127b9565b91505092915050565b600061280682612720565b9050919050565b6000612818826127fb565b9050919050565b6128288161280d565b82525050565b6000602082019050612843600083018461281f565b92915050565b6000612854826127fb565b9050919050565b61286481612849565b82525050565b600060208201905061287f600083018461285b565b92915050565b60008060006060848603121561289e5761289d61262b565b5b60006128ac8682870161268b565b93505060206128bd868287016126c1565b92505060406128ce868287016126c1565b9150509250925092565b600060ff82169050919050565b6128ee816128d8565b81146128f957600080fd5b50565b60008135905061290b816128e5565b92915050565b6000602082840312156129275761292661262b565b5b6000612935848285016128fc565b91505092915050565b612947816126a0565b82525050565b6000602082019050612962600083018461293e565b92915050565b60006020828403121561297e5761297d61262b565b5b600061298c8482850161268b565b91505092915050565b60006129a0826127fb565b9050919050565b6129b081612995565b82525050565b60006020820190506129cb60008301846129a7565b92915050565b60006129dc826127fb565b9050919050565b6129ec816129d1565b82525050565b6000602082019050612a0760008301846129e3565b92915050565b6000612a1882612630565b9050919050565b612a2881612a0d565b8114612a3357600080fd5b50565b600081359050612a4581612a1f565b92915050565b600080600060608486031215612a6457612a6361262b565b5b6000612a7286828701612a36565b9350506020612a838682870161268b565b9250506040612a94868287016126c1565b9150509250925092565b612aa781612650565b82525050565b600061010082019050612ac3600083018b612a9e565b612ad0602083018a61281f565b612add604083018961293e565b612aea606083018861293e565b612af7608083018761293e565b612b0460a083018661293e565b612b1160c083018561293e565b612b1e60e083018461293e565b9998505050505050505050565b612b3481612650565b8114612b3f57600080fd5b50565b600081359050612b5181612b2b565b92915050565b600060208284031215612b6d57612b6c61262b565b5b6000612b7b84828501612b42565b91505092915050565b6000606082019050612b99600083018661293e565b612ba6602083018561293e565b612bb3604083018461293e565b949350505050565b6000608082019050612bd0600083018761281f565b612bdd602083018661293e565b612bea604083018561293e565b612bf7606083018461293e565b95945050505050565b6000612c0b826127fb565b9050919050565b612c1b81612c00565b82525050565b6000602082019050612c366000830184612c12565b92915050565b612c45816128d8565b82525050565b6000602082019050612c606000830184612c3c565b92915050565b6000612c71826127fb565b9050919050565b612c8181612c66565b82525050565b6000602082019050612c9c6000830184612c78565b92915050565b6000606082019050612cb76000830186612a9e565b612cc46020830185612a9e565b612cd1604083018461293e565b949350505050565b60008115159050919050565b612cee81612cd9565b8114612cf957600080fd5b50565b600081519050612d0b81612ce5565b92915050565b600060208284031215612d2757612d2661262b565b5b6000612d3584828501612cfc565b91505092915050565b6000604082019050612d536000830185612a9e565b612d60602083018461293e565b9392505050565b7f4e487b7100000000000000000000000000000000000000000000000000000000600052601160045260246000fd5b6000612da1826126a0565b9150612dac836126a0565b9250827fffffffffffffffffffffffffffffffffffffffffffffffffffffffffffffffff03821115612de157612de0612d67565b5b828201905092915050565b6000612df7826128d8565b915060ff821415612e0b57612e0a612d67565b5b600182019050919050565b6000604082019050612e2b6000830185612a9e565b612e386020830184612a9e565b9392505050565b600081519050612e4e81612b2b565b92915050565b600060208284031215612e6a57612e6961262b565b5b6000612e7884828501612e3f565b91505092915050565b600082825260208201905092915050565b7f54686973207061697220636f6e747261637420686173206e6f7420657869737460008201527f6564207965740000000000000000000000000000000000000000000000000000602082015250565b6000612eee602683612e81565b9150612ef982612e92565b604082019050919050565b60006020820190508181036000830152612f1d81612ee1565b9050919050565b600081519050612f33816126aa565b92915050565b600060208284031215612f4f57612f4e61262b565b5b6000612f5d84828501612f24565b91505092915050565b7f546869732070616972277320746f74616c537570706c79206973207374696c6c60008201527f20302e20506c6561736520616464206c6971756964697479206174206669727360208201527f7400000000000000000000000000000000000000000000000000000000000000604082015250565b6000612fe8604183612e81565b9150612ff382612f66565b606082019050919050565b6000602082019050818103600083015261301781612fdb565b9050919050565b600060c0820190506130336000830189612a9e565b613040602083018861293e565b61304d604083018761293e565b61305a606083018661293e565b6130676080830185612a9e565b61307460a083018461293e565b979650505050505050565b600080604083850312156130965761309561262b565b5b60006130a485828601612f24565b92505060206130b585828601612f24565b9150509250929050565b60006130ca826127fb565b9050919050565b6130da816130bf565b82525050565b60006040820190506130f560008301856130d1565b613102602083018461293e565b9392505050565b7f426c6f636b206e756d626572206973207374696c6c20696e20746865206c617360008201527f7420706572696f64000000000000000000000000000000000000000000000000602082015250565b6000613165602883612e81565b915061317082613109565b604082019050919050565b6000602082019050818103600083015261319481613158565b9050919050565b60006131a6826128d8565b91506131b1836128d8565b92508260ff038211156131c7576131c6612d67565b5b828201905092915050565b60008160601b9050919050565b60006131ea826131d2565b9050919050565b60006131fc826131df565b9050919050565b61321461320f82612650565b6131f1565b82525050565b60006132268285613203565b6014820191506132368284613203565b6014820191508190509392505050565b600081905092915050565b7fff00000000000000000000000000000000000000000000000000000000000000600082015250565b6000613287600183613246565b915061329282613251565b600182019050919050565b6000819050919050565b6000819050919050565b6132c26132bd8261329d565b6132a7565b82525050565b7f96e8ac4277198ff8b6f785478aa9a39f403cb768dd02cbee326c3e7da348845f600082015250565b60006132fe602083613246565b9150613309826132c8565b602082019050919050565b600061331f8261327a565b915061332b8285613203565b60148201915061333b82846132b1565b60208201915061334a826132f1565b91508190509392505050565b7f5361666545524332303a20617070726f76652066726f6d206e6f6e2d7a65726f60008201527f20746f206e6f6e2d7a65726f20616c6c6f77616e636500000000000000000000602082015250565b60006133b2603683612e81565b91506133bd82613356565b604082019050919050565b600060208201905081810360008301526133e1816133a5565b9050919050565b6000610100820190506133fe600083018b612a9e565b61340b602083018a612a9e565b613418604083018961293e565b613425606083018861293e565b613432608083018761293e565b61343f60a083018661293e565b61344c60c0830185612a9e565b61345960e083018461293e565b9998505050505050505050565b60008060006060848603121561347f5761347e61262b565b5b600061348d86828701612f24565b935050602061349e86828701612f24565b92505060406134af86828701612f24565b9150509250925092565b7f5361666545524332303a204552433230206f7065726174696f6e20646964206e60008201527f6f74207375636365656400000000000000000000000000000000000000000000602082015250565b6000613515602a83612e81565b9150613520826134b9565b604082019050919050565b6000602082019050818103600083015261354481613508565b9050919050565b7f556e697377617056324c6962726172793a204944454e544943414c5f4144445260008201527f4553534553000000000000000000000000000000000000000000000000000000602082015250565b60006135a7602583612e81565b91506135b28261354b565b604082019050919050565b600060208201905081810360008301526135d68161359a565b9050919050565b7f556e697377617056324c6962726172793a205a45524f5f414444524553530000600082015250565b6000613613601e83612e81565b915061361e826135dd565b602082019050919050565b6000602082019050818103600083015261364281613606565b9050919050565b7f4e487b7100000000000000000000000000000000000000000000000000000000600052601260045260246000fd5b6000613683826126a0565b915061368e836126a0565b92508261369e5761369d613649565b5b828204905092915050565b60006136b4826126a0565b91506136bf836126a0565b9250828210156136d2576136d1612d67565b5b828203905092915050565b60006136e8826126a0565b91506136f3836126a0565b9250817fffffffffffffffffffffffffffffffffffffffffffffffffffffffffffffffff048311821515161561372c5761372b612d67565b5b828202905092915050565b7f416464726573733a20696e73756666696369656e742062616c616e636520666f60008201527f722063616c6c0000000000000000000000000000000000000000000000000000602082015250565b6000613793602683612e81565b915061379e82613737565b604082019050919050565b600060208201905081810360008301526137c281613786565b9050919050565b7f416464726573733a2063616c6c20746f206e6f6e2d636f6e7472616374000000600082015250565b60006137ff601d83612e81565b915061380a826137c9565b602082019050919050565b6000602082019050818103600083015261382e816137f2565b9050919050565b600081519050919050565b600081905092915050565b60005b8381101561386957808201518184015260208101905061384e565b83811115613878576000848401525b50505050565b600061388982613835565b6138938185613840565b93506138a381856020860161384b565b80840191505092915050565b60006138bb828461387e565b915081905092915050565b600081519050919050565b6000601f19601f8301169050919050565b60006138ed826138c6565b6138f78185612e81565b935061390781856020860161384b565b613910816138d1565b840191505092915050565b6000602082019050818103600083015261393581846138e2565b90509291505056fea2646970667358221220ea97c865f795e6b8cecdcd525deac92c3f3bf69c4c99accf1247a8b5d778312764736f6c63430008090033",
  "immutableReferences": {},
  "source": "// SPDX-License-Identifier: MIT\npragma solidity 0.8.9;\n\nimport \"./AkapzPoolStorage.sol\";\nimport {IERC20} from \"@openzeppelin/contracts/token/ERC20/IERC20.sol\";\nimport {SafeERC20} from \"@openzeppelin/contracts/token/ERC20/utils/SafeERC20.sol\";\nimport {SafeMath} from \"@openzeppelin/contracts/utils/math/SafeMath.sol\";\nimport {Akapz} from \"../Governance/Akapz.sol\"; // Governance Token\nimport {AKX} from \"../AKX/AKX.sol\";\nimport {IWETH} from \"../../v2-periphery/contracts/interfaces/IWETH.sol\";\nimport {UniswapV2Library} from \"../../v2-periphery/contracts/libraries/UniswapV2Library.sol\";\nimport {IUniswapV2Factory} from \"../../v2-core/contracts/interfaces/IUniswapV2Factory.sol\";\nimport {IUniswapV2Router02} from \"../../v2-periphery/contracts/interfaces/IUniswapV2Router02.sol\";\nimport {IUniswapV2Pair} from \"../../v2-core/contracts/interfaces/IUniswapV2Pair.sol\";\nimport {AkapzFarmingLPToken} from \"./AkapzFarmingLPToken.sol\";\n\n\ncontract AkapzStakePool is AkapzPoolStorage {\n    using SafeMath for uint256;\n    using SafeERC20 for IERC20;\n    using SafeERC20 for AKX;\n\n    AKX public AKXToken;\n    AkapzFarmingLPToken public akapzFarmingLPToken;\n    Akapz public AkapzGovernanceToken;\n    IWETH public wETH;\n    IUniswapV2Factory public uniswapV2Factory;\n    IUniswapV2Router02 public uniswapV2Router02;\n\n    address AKX_TOKEN;\n    address AKAPZ_FARMING_LP_TOKEN;\n    address AKAPZ_GOVERNANCE_TOKEN;\n    address WETH_TOKEN;\n    address UNISWAP_V2_FACTORY;\n    address UNISWAP_V2_ROUTER_02;\n\n    uint8 public currentStakeId;\n\n    uint totalStakedLPTokenAmount;        /// Total staked UNI-LP tokens (AKX-ETH) amount during whole period\n    uint lastTotalStakedLPTokenAmount;    /// Total staked UNI-LP tokens (AKX-ETH) amount until last week\n    uint weeklyTotalStakedLPTokenAmount;  /// Total staked UNI-LP tokens (AKX-ETH) amount during recent week\n\n    uint public startBlock;\n    uint public lastBlock;\n    uint public nextBlock;\n\n    uint256 REWARD_RATE = 15; // reward rate is 15%\n\n    constructor(AKX _AKXToken,\n        Akapz _akapzGovernanceToken,\n        AkapzFarmingLPToken _akapzFarmingLPToken,\n        IUniswapV2Factory _uniswapV2Factory,\n        IUniswapV2Router02 _uniswapV2Router02\n    ) {\n        AKXToken = _AKXToken;\n        AkapzGovernanceToken = _akapzGovernanceToken;\n        akapzFarmingLPToken = _akapzFarmingLPToken;\n        uniswapV2Factory = _uniswapV2Factory;\n        uniswapV2Router02 = _uniswapV2Router02;\n        wETH = IWETH(uniswapV2Router02.WETH());\n        AKX_TOKEN = address(_AKXToken);\n        AKAPZ_GOVERNANCE_TOKEN = address(_akapzGovernanceToken);\n        AKAPZ_FARMING_LP_TOKEN = address(_akapzFarmingLPToken);\n        UNISWAP_V2_FACTORY = address(_uniswapV2Factory);\n        UNISWAP_V2_ROUTER_02 = address(_uniswapV2Router02);\n        WETH_TOKEN = address(uniswapV2Router02.WETH());\n\n        startBlock = block.number;\n        lastBlock = block.number;\n\n    }\n\n    // Create erc20 pair addresses of LP Tokens AKX / ERC20Token\n\n    function createPairWithERC20(IERC20 erc20) public returns (IUniswapV2Pair pair) {\n        address pair = uniswapV2Factory.createPair(AKX_TOKEN, address(erc20));\n        return IUniswapV2Pair(pair);\n    }\n\n    // Create pairing with ETH / WETH\n    function createPairWithETH() public returns (IUniswapV2Pair pair) {\n        address pair = uniswapV2Factory.createPair(AKX_TOKEN, WETH_TOKEN);  /// [Note]: WETH is treated as ETH\n        return IUniswapV2Pair(pair);\n    }\n\n    // Add liquidity AKX Tokens with ERC20 tokens\n\n    function addLiquidityWithERC20(\n    IUniswapV2Pair pair,\n    uint256 AKXTokenAmountDesired,\n    uint256 ERC20AmountDesired\n    ) public  {\n        IERC20 erc20 = IERC20(pair.token1());\n        AKXToken.safeTransfer( msg.sender, AKXTokenAmountDesired);\n        erc20.safeTransfer(msg.sender, ERC20AmountDesired);\n        /// Check whether a pair contract exists or not\n        address pairAddress = uniswapV2Factory.getPair(AKX_TOKEN, address(erc20));\n        require (pairAddress > address(0), \"This pair contract has not existed yet\");\n\n        IUniswapV2Pair pair = IUniswapV2Pair(UniswapV2Library.pairFor(UNISWAP_V2_FACTORY, AKX_TOKEN, address(erc20)));\n        uint totalSupply = pair.totalSupply();\n        require (totalSupply > 0, \"This pair's totalSupply is still 0. Please add liquidity at first\");\n\n        /// Approve each tokens for UniswapV2Router02\n        AKXToken.safeApprove(UNISWAP_V2_ROUTER_02, AKXTokenAmountDesired);\n        erc20.safeApprove(UNISWAP_V2_ROUTER_02, ERC20AmountDesired);\n\n        uint256 AKXTokenAmount;\n        uint256 ERC20Amount;\n        uint256 liquidity;\n        (AKXTokenAmount, ERC20Amount, liquidity) = _addLiquidityWithERC20(erc20, AKXTokenAmountDesired, ERC20AmountDesired);\n\n        // minting from lp farming\n        akapzFarmingLPToken.mint(msg.sender, liquidity);\n\n\n        /// Back LPtoken to a staker\n        pair.transfer(msg.sender, liquidity);\n\n    }\n\n    function _addLiquidityWithERC20(   /// [Note]: This internal method is added for avoiding \"Stack too deep\"\n        IERC20 erc20,\n        uint256 AKXTokenAmountDesired,\n        uint256 ERC20AmountDesired\n    ) internal returns (uint256 _AKXTokenAmount, uint256 _ERC20Amount, uint256 _liquidity) {\n        uint256 AKXTokenAmount;\n        uint256 ERC20Amount;\n        uint256 liquidity;\n\n        /// Define each minimum amounts\n        uint256 AKXTokenMin;\n        uint256 ERC20AmountMin;\n\n        address to = msg.sender;\n        uint deadline = block.timestamp.add(15 seconds);\n        (AKXTokenAmount, ERC20Amount, liquidity) = uniswapV2Router02.addLiquidity(AKX_TOKEN,\n            address(erc20),\n            AKXTokenAmountDesired,\n            ERC20AmountDesired,\n            AKXTokenMin,\n            ERC20AmountMin,\n            to,\n            deadline);\n\n        return (AKXTokenAmount, ERC20Amount, liquidity);\n    }\n\n    /***\n   * @notice - Add Liquidity for a pair (LP token) between the AKX tokens and ETH (AKX/ETH)\n     **/\n    function addLiquidityWithETH(\n        IUniswapV2Pair pair,\n        uint AKXTokenAmountDesired\n    ) public payable  {\n        /// Transfer AKX tokens and ETH from a user\n        AKXToken.safeTransfer(msg.sender, AKXTokenAmountDesired);\n        uint ETHAmountMin = msg.value;\n\n        /// Convert ETH (msg.value) to WETH (ERC20) \n        /// [Note]: Converted amountETH is equal to \"msg.value\"\n        wETH.deposit();\n\n        /// Approve each tokens for UniswapV2Routor02\n        AKXToken.approve(UNISWAP_V2_ROUTER_02, AKXTokenAmountDesired);\n        //wETH.approve(UNISWAP_V2_ROUTER_02, ETHAmountMin);\n\n        /// Add liquidity and pair\n        uint AKXTokenAmount;\n        uint ETHAmount;\n        uint liquidity;\n        (AKXTokenAmount, ETHAmount, liquidity) = _addLiquidityWithETH(AKXTokenAmountDesired, ETHAmountMin);\n\n        /// [Todo]: Refund leftover ETH to a staker (Need to identify how much leftover ETH of a staker) \n        //msg.sender.call.value(address(this).balance)(\"\");\n\n        /// Back LPtoken to a staker\n        pair.transfer(msg.sender, liquidity);\n\n    }\n\n    function _addLiquidityWithETH(   /// [Note]: This internal method is added for avoiding \"Stack too deep\" \n        uint AKXTokenAmountDesired,\n        uint ETHAmountMin\n    ) internal returns (uint _AKXTokenAmount, uint _ETHAmount, uint _liquidity) {\n        uint AKXTokenAmount;\n        uint ETHAmount;\n        uint liquidity;\n\n        /// Define each minimum amounts\n        uint AKXTokenMin = AKXTokenAmountDesired;  /// [Note]: 5 AKX will be set as the initial addLiquidity.\n\n        address to = msg.sender;\n        uint deadline = block.timestamp.add(300 seconds);\n        (AKXTokenAmount, ETHAmount, liquidity) = uniswapV2Router02.addLiquidityETH(AKX_TOKEN,\n            AKXTokenAmountDesired,\n            AKXTokenMin,\n            ETHAmountMin,\n            to,\n            deadline);\n\n        return (AKXTokenAmount, ETHAmount, liquidity);\n    }\n\n    ///------------------------------------------------------------------------------\n    /// Remove liquidity AKX tokens with ERC20 tokens (AKX/DAI, AKX/USDC, etc...)\n    ///------------------------------------------------------------------------------\n\n    /***\n     * @notice - Remove liquidity\" for a pair (LP token) between the AKX tokens and another ERC20 tokens \n     *         - e.g. AKX/DAI, AKX/USDC, etc...\n     **/\n    function removeLiquidityWithERC20(address staker, IUniswapV2Pair pair, uint lpTokenAmountUnStaked) internal  {\n        /// Remove liquidity that a staker was staked\n        uint AKXTokenAmount;\n        uint ERC20Amount;\n        uint AKXTokenMin = 0;\n        uint ERC20AmountMin = 0;\n        address to = staker;\n        uint deadline = block.timestamp.add(15 seconds);\n        (AKXTokenAmount, ERC20Amount) = uniswapV2Router02.removeLiquidity(AKX_TOKEN,\n            pair.token1(),\n            lpTokenAmountUnStaked,\n            AKXTokenMin,\n            ERC20AmountMin,\n            to,\n            deadline);\n\n        /// Transfer AKX token and ERC20 + fees earned (into a staker)\n        AKXToken.transfer(staker, AKXTokenAmount);\n        IERC20(pair.token1()).transfer(staker, ERC20Amount);\n    }\n\n\n    ///-------------------------------------------------------------------\n    /// Remove Liquidity AKX tokens with ETH (AKX/ETH)\n    ///-------------------------------------------------------------------\n\n    /***\n     * @notice - Remove liquidity for a pair (LP token) between the AKX tokens and ETH (AKX/ETH)\n     **/\n    function removeLiquidityWithETH(address payable staker, IUniswapV2Pair pair, uint lpTokenAmountUnStaked) public  {\n        /// Remove liquidity that a staker was staked\n        uint AKXTokenAmount;\n        uint ETHAmount;         /// WETH\n        uint AKXTokenMin = 0;\n        uint ETHAmountMin = 0;  /// WETH\n        address to = staker;\n        uint deadline = block.timestamp.add(15 seconds);\n        (AKXTokenAmount, ETHAmount) = uniswapV2Router02.removeLiquidityETH(AKX_TOKEN,\n            lpTokenAmountUnStaked,\n            AKXTokenMin,\n            ETHAmountMin,\n            to,\n            deadline);\n\n        /// Convert WETH to ETH\n        wETH.withdraw(ETHAmount);\n\n        /// Transfer AKX token and ETH + fees earned (into a staker)\n        AKXToken.transfer(staker, AKXTokenAmount);\n        staker.transfer(ETHAmount);\n    }\n\n    ///--------------------------------------------------------\n    /// Stake UNI-LP tokens of AKX/ERC20 or AKX/ETH into AKX pool\n    ///--------------------------------------------------------\n\n    /***\n     * @notice - Stake UNI-LP tokens (AKX/ERC20 or AKX/ETH)\n     * @param pair - Staked UNI-LP token\n     * @param lpTokenAmount - Staked UNI-LP tokens amount\n     **/\n    function stakeLPToken(IUniswapV2Pair pair, uint lpTokenAmount) public {\n        /// Stake LP tokens into this pool contract\n        pair.transferFrom(msg.sender, address(this), lpTokenAmount);\n\n        /// Mint the akapz Farming LP tokens\n        akapzFarmingLPToken.mint(msg.sender, lpTokenAmount);\n\n        /// Add new staked UNI-LP token amount to the total staked UNI-LP token amount\n        totalStakedLPTokenAmount += lpTokenAmount;\n\n        /// Register staker's data\n        uint8 newStakeId = getNextStakeId();\n        currentStakeId++;\n        StakeData storage stakeData = stakeDatas[newStakeId];\n        stakeData.staker = msg.sender;\n        stakeData.lpToken = pair;\n        stakeData.stakedLPTokenAmount = lpTokenAmount;\n        stakeData.startBlock = block.number;\n\n        /// Staker is added into stakers list\n        stakersList.push(msg.sender);\n\n        /// Save stake ID\n        Staker storage staker = stakers[msg.sender];\n        staker.stakeIds.push(newStakeId);\n    }\n\n\n    ///---------------------------------------------------\n    /// Withdraw only earned rewards\n    ///---------------------------------------------------\n\n    /***\n     * @notice - Claim rewards (Do not un-stake LP tokens (GLM-ETH)\n     * @dev - Caller (msg.sender) is a staker\n     **/\n    function claimEarnedReward(IUniswapV2Pair pair) public  {\n        /// Compute earned rewards (akapzGovernanceToken) and Distribute them into a staker\n        uint earnedReward = _computeEarnedReward(pair);\n\n        /// Mint akapzGovernanceToken as rewards for a staker\n        AkapzGovernanceToken.mint(msg.sender, earnedReward);\n    }\n\n    ///---------------------------------------------------\n    /// Regular update of pool status\n    ///---------------------------------------------------\n\n    /***\n     * @notice - Update pool status weekly (every week)\n     **/\n    function weeklyPoolStatusUpdate() public  {\n        uint currentBlock = block.number;\n\n        if (currentBlock > nextBlock) {\n            require (currentBlock > lastBlock, \"Block number is still in the last period\");\n\n            /// Update both blocks (the last block and the next block)\n            lastBlock = currentBlock;\n            nextBlock = currentBlock.add(604800);  /// Plus 1 week (604800 seconds)\n\n            /// Update total staked amount until last week\n            _updateLastTotalStakedLPTokenAmount();\n        }\n\n    }\n\n    ///---------------------------------------------------\n    /// Withdraw UNI-LP tokens with earned rewards\n    ///---------------------------------------------------\n\n    /***\n     * @notice - un-stake LP tokens with earned rewards (akapzGovernanceToken)\n     * @dev - Caller (msg.sender) is a staker\n     **/\n    function unStakeLPToken(IUniswapV2Pair pair, uint unStakedLpTokenAmount) public  {\n        address PAIR = address(pair);\n\n        /// Burn the akapz Farming Tokens and transfer un-staked LP tokens\n        _redeemWithUnStakedLPToken(msg.sender, pair, unStakedLpTokenAmount);\n\n        /// Compute earned reward (akapzGovernanceToken) and Distribute them into staker\n        claimEarnedReward(pair);\n    }\n\n    function _redeemWithUnStakedLPToken(address staker, IUniswapV2Pair pair, uint unStakedLpTokenAmount) internal  {\n        /// Burn the akapz Farming LP tokens\n        akapzFarmingLPToken.burn(staker, unStakedLpTokenAmount);\n\n        /// Transfer un-staked UNI-LP tokens\n        pair.transfer(staker, unStakedLpTokenAmount);\n    }\n\n    ///--------------------------------------------------------\n    /// akapz Governance Token is given to stakers as rewards\n    ///--------------------------------------------------------\n\n    /***\n     * @notice - Compute earned rewards that is akapzGovernanceTokens\n     * @dev - [idea v1]: Reward is given to each stakers every block (every 15 seconds) and depends on share of pool\n     * @dev - [idea v2]: Reward is given to each stakers by using the fixed-rewards-rate (10%)\n     *                   => There is the locked-period (7 days) as minimum staking-term.\n     **/\n    function _computeEarnedReward(IUniswapV2Pair pair) internal returns (uint _earnedReward) {\n        Staker memory staker = stakers[msg.sender];\n        uint8[] memory _stakeIds = staker.stakeIds;\n        uint totalIndividualStakedLPTokenAmount;\n\n        for (uint8 i=1; i < _stakeIds.length; i++) {\n            uint8 stakeId = i;\n\n            StakeData memory stakeData = stakeDatas[stakeId];\n            IUniswapV2Pair _pair = stakeData.lpToken;\n            uint stakedLPTokenAmount = stakeData.stakedLPTokenAmount;\n\n            totalIndividualStakedLPTokenAmount += stakedLPTokenAmount;\n        }\n\n        /// Identify each staker's share of pool\n        uint SHARE_OF_POOL = totalIndividualStakedLPTokenAmount.div(totalStakedLPTokenAmount);\n\n        /// Compute total staked GLM tokens amount per a week (7days)\n        weeklyTotalStakedLPTokenAmount = totalStakedLPTokenAmount.sub(lastTotalStakedLPTokenAmount);\n\n        /// Formula for computing earned rewards (akapzGovernanceTokens)\n        uint earnedReward = weeklyTotalStakedLPTokenAmount.mul(REWARD_RATE).div(100).mul(SHARE_OF_POOL).div(100);\n\n        return earnedReward;\n    }\n\n    /***\n     * @notice - Update total staked amount until last week\n     **/\n    function _updateLastTotalStakedLPTokenAmount() internal {\n        lastTotalStakedLPTokenAmount = totalStakedLPTokenAmount;\n    }\n\n    ///-------------------\n    /// Other getter methods\n    ///-------------------\n\n    function getTotalStakedLPTokenAmount() public view returns (uint _totalStakedLPTokenAmount) {\n        return totalStakedLPTokenAmount;\n    }\n\n    function getTotalIndividualStakedLPTokenAmount(uint8 stakeId) public view returns (uint _totalIndividualStakedLPTokenAmount) {\n        StakeData memory stakeData = stakeDatas[stakeId];\n        return stakeData.stakedLPTokenAmount;\n    }\n\n\n    ///-------------------\n    /// Private methods\n    ///-------------------\n\n    function getNextStakeId() private view returns (uint8 nextStakeId) {\n        return currentStakeId + 1;\n    }\n\n\n}",
  "sourcePath": "/Users/nicolascloutier/Documents/GitHub/akapz-dao/chain/contracts/Pools/AkapzStakePool.sol",
  "compiler": {
    "name": "solc",
    "version": "0.8.9+commit.e5eed63a.Emscripten.clang"
  },
  "schemaVersion": "3.4.3",
  "updatedAt": "2022-05-16T18:49:35.440Z",
  "networkType": "ethereum",
  "devdoc": {
    "kind": "dev",
    "methods": {},
    "version": 1
  },
  "userdoc": {
    "kind": "user",
    "methods": {
      "claimEarnedReward(address)": {
        "notice": "--------------------------------------------------- Withdraw only earned rewards ---------------------------------------------------"
      },
      "getTotalStakedLPTokenAmount()": {
        "notice": "------------------- Other getter methods -------------------"
      },
      "removeLiquidityWithETH(address,address,uint256)": {
        "notice": "------------------------------------------------------------------- Remove Liquidity AKX tokens with ETH (AKX/ETH) -------------------------------------------------------------------"
      },
      "stakeLPToken(address,uint256)": {
        "notice": "-------------------------------------------------------- Stake UNI-LP tokens of AKX/ERC20 or AKX/ETH into AKX pool --------------------------------------------------------"
      },
      "startBlock()": {
        "notice": "Total staked UNI-LP tokens (AKX-ETH) amount during recent week"
      },
      "unStakeLPToken(address,uint256)": {
        "notice": "--------------------------------------------------- Withdraw UNI-LP tokens with earned rewards ---------------------------------------------------"
      },
      "weeklyPoolStatusUpdate()": {
        "notice": "--------------------------------------------------- Regular update of pool status ---------------------------------------------------"
      }
    },
    "version": 1
  }
}