{
  "contractName": "AKX",
  "abi": [
    {
      "inputs": [
        {
          "internalType": "string",
          "name": "_name_",
          "type": "string"
        },
        {
          "internalType": "string",
          "name": "_symbol_",
          "type": "string"
        }
      ],
      "stateMutability": "nonpayable",
      "type": "constructor"
    },
    {
      "anonymous": false,
      "inputs": [
        {
          "indexed": true,
          "internalType": "address",
          "name": "owner",
          "type": "address"
        },
        {
          "indexed": true,
          "internalType": "address",
          "name": "spender",
          "type": "address"
        },
        {
          "indexed": false,
          "internalType": "uint256",
          "name": "value",
          "type": "uint256"
        }
      ],
      "name": "Approval",
      "type": "event"
    },
    {
      "anonymous": false,
      "inputs": [
        {
          "indexed": false,
          "internalType": "address",
          "name": "account",
          "type": "address"
        }
      ],
      "name": "Paused",
      "type": "event"
    },
    {
      "anonymous": false,
      "inputs": [
        {
          "indexed": true,
          "internalType": "bytes32",
          "name": "role",
          "type": "bytes32"
        },
        {
          "indexed": true,
          "internalType": "bytes32",
          "name": "previousAdminRole",
          "type": "bytes32"
        },
        {
          "indexed": true,
          "internalType": "bytes32",
          "name": "newAdminRole",
          "type": "bytes32"
        }
      ],
      "name": "RoleAdminChanged",
      "type": "event"
    },
    {
      "anonymous": false,
      "inputs": [
        {
          "indexed": true,
          "internalType": "bytes32",
          "name": "role",
          "type": "bytes32"
        },
        {
          "indexed": true,
          "internalType": "address",
          "name": "account",
          "type": "address"
        },
        {
          "indexed": true,
          "internalType": "address",
          "name": "sender",
          "type": "address"
        }
      ],
      "name": "RoleGranted",
      "type": "event"
    },
    {
      "anonymous": false,
      "inputs": [
        {
          "indexed": true,
          "internalType": "bytes32",
          "name": "role",
          "type": "bytes32"
        },
        {
          "indexed": true,
          "internalType": "address",
          "name": "account",
          "type": "address"
        },
        {
          "indexed": true,
          "internalType": "address",
          "name": "sender",
          "type": "address"
        }
      ],
      "name": "RoleRevoked",
      "type": "event"
    },
    {
      "anonymous": false,
      "inputs": [
        {
          "indexed": true,
          "internalType": "address",
          "name": "from",
          "type": "address"
        },
        {
          "indexed": true,
          "internalType": "address",
          "name": "to",
          "type": "address"
        },
        {
          "indexed": false,
          "internalType": "uint256",
          "name": "value",
          "type": "uint256"
        }
      ],
      "name": "Transfer",
      "type": "event"
    },
    {
      "anonymous": false,
      "inputs": [
        {
          "indexed": false,
          "internalType": "address",
          "name": "account",
          "type": "address"
        }
      ],
      "name": "Unpaused",
      "type": "event"
    },
    {
      "inputs": [],
      "name": "DEFAULT_ADMIN_ROLE",
      "outputs": [
        {
          "internalType": "bytes32",
          "name": "",
          "type": "bytes32"
        }
      ],
      "stateMutability": "view",
      "type": "function",
      "constant": true
    },
    {
      "inputs": [],
      "name": "DOMAIN_SEPARATOR",
      "outputs": [
        {
          "internalType": "bytes32",
          "name": "",
          "type": "bytes32"
        }
      ],
      "stateMutability": "view",
      "type": "function",
      "constant": true
    },
    {
      "inputs": [],
      "name": "MINTER_ROLE",
      "outputs": [
        {
          "internalType": "bytes32",
          "name": "",
          "type": "bytes32"
        }
      ],
      "stateMutability": "view",
      "type": "function",
      "constant": true
    },
    {
      "inputs": [],
      "name": "PAUSER_ROLE",
      "outputs": [
        {
          "internalType": "bytes32",
          "name": "",
          "type": "bytes32"
        }
      ],
      "stateMutability": "view",
      "type": "function",
      "constant": true
    },
    {
      "inputs": [],
      "name": "_decimals",
      "outputs": [
        {
          "internalType": "uint8",
          "name": "",
          "type": "uint8"
        }
      ],
      "stateMutability": "view",
      "type": "function",
      "constant": true
    },
    {
      "inputs": [],
      "name": "_name",
      "outputs": [
        {
          "internalType": "string",
          "name": "",
          "type": "string"
        }
      ],
      "stateMutability": "view",
      "type": "function",
      "constant": true
    },
    {
      "inputs": [],
      "name": "_symbol",
      "outputs": [
        {
          "internalType": "string",
          "name": "",
          "type": "string"
        }
      ],
      "stateMutability": "view",
      "type": "function",
      "constant": true
    },
    {
      "inputs": [],
      "name": "_totalSupply",
      "outputs": [
        {
          "internalType": "uint256",
          "name": "",
          "type": "uint256"
        }
      ],
      "stateMutability": "view",
      "type": "function",
      "constant": true
    },
    {
      "inputs": [
        {
          "internalType": "address",
          "name": "owner",
          "type": "address"
        },
        {
          "internalType": "address",
          "name": "spender",
          "type": "address"
        }
      ],
      "name": "allowance",
      "outputs": [
        {
          "internalType": "uint256",
          "name": "",
          "type": "uint256"
        }
      ],
      "stateMutability": "view",
      "type": "function",
      "constant": true
    },
    {
      "inputs": [
        {
          "internalType": "address",
          "name": "spender",
          "type": "address"
        },
        {
          "internalType": "uint256",
          "name": "amount",
          "type": "uint256"
        }
      ],
      "name": "approve",
      "outputs": [
        {
          "internalType": "bool",
          "name": "",
          "type": "bool"
        }
      ],
      "stateMutability": "nonpayable",
      "type": "function"
    },
    {
      "inputs": [
        {
          "internalType": "address",
          "name": "account",
          "type": "address"
        }
      ],
      "name": "balanceOf",
      "outputs": [
        {
          "internalType": "uint256",
          "name": "",
          "type": "uint256"
        }
      ],
      "stateMutability": "view",
      "type": "function",
      "constant": true
    },
    {
      "inputs": [
        {
          "internalType": "uint256",
          "name": "amount",
          "type": "uint256"
        }
      ],
      "name": "burn",
      "outputs": [],
      "stateMutability": "nonpayable",
      "type": "function"
    },
    {
      "inputs": [
        {
          "internalType": "address",
          "name": "account",
          "type": "address"
        },
        {
          "internalType": "uint256",
          "name": "amount",
          "type": "uint256"
        }
      ],
      "name": "burnFrom",
      "outputs": [],
      "stateMutability": "nonpayable",
      "type": "function"
    },
    {
      "inputs": [],
      "name": "decimals",
      "outputs": [
        {
          "internalType": "uint8",
          "name": "",
          "type": "uint8"
        }
      ],
      "stateMutability": "view",
      "type": "function",
      "constant": true
    },
    {
      "inputs": [
        {
          "internalType": "address",
          "name": "spender",
          "type": "address"
        },
        {
          "internalType": "uint256",
          "name": "subtractedValue",
          "type": "uint256"
        }
      ],
      "name": "decreaseAllowance",
      "outputs": [
        {
          "internalType": "bool",
          "name": "",
          "type": "bool"
        }
      ],
      "stateMutability": "nonpayable",
      "type": "function"
    },
    {
      "inputs": [
        {
          "internalType": "bytes32",
          "name": "role",
          "type": "bytes32"
        }
      ],
      "name": "getRoleAdmin",
      "outputs": [
        {
          "internalType": "bytes32",
          "name": "",
          "type": "bytes32"
        }
      ],
      "stateMutability": "view",
      "type": "function",
      "constant": true
    },
    {
      "inputs": [
        {
          "internalType": "bytes32",
          "name": "role",
          "type": "bytes32"
        },
        {
          "internalType": "uint256",
          "name": "index",
          "type": "uint256"
        }
      ],
      "name": "getRoleMember",
      "outputs": [
        {
          "internalType": "address",
          "name": "",
          "type": "address"
        }
      ],
      "stateMutability": "view",
      "type": "function",
      "constant": true
    },
    {
      "inputs": [
        {
          "internalType": "bytes32",
          "name": "role",
          "type": "bytes32"
        }
      ],
      "name": "getRoleMemberCount",
      "outputs": [
        {
          "internalType": "uint256",
          "name": "",
          "type": "uint256"
        }
      ],
      "stateMutability": "view",
      "type": "function",
      "constant": true
    },
    {
      "inputs": [
        {
          "internalType": "bytes32",
          "name": "role",
          "type": "bytes32"
        },
        {
          "internalType": "address",
          "name": "account",
          "type": "address"
        }
      ],
      "name": "grantRole",
      "outputs": [],
      "stateMutability": "nonpayable",
      "type": "function"
    },
    {
      "inputs": [
        {
          "internalType": "bytes32",
          "name": "role",
          "type": "bytes32"
        },
        {
          "internalType": "address",
          "name": "account",
          "type": "address"
        }
      ],
      "name": "hasRole",
      "outputs": [
        {
          "internalType": "bool",
          "name": "",
          "type": "bool"
        }
      ],
      "stateMutability": "view",
      "type": "function",
      "constant": true
    },
    {
      "inputs": [
        {
          "internalType": "address",
          "name": "spender",
          "type": "address"
        },
        {
          "internalType": "uint256",
          "name": "addedValue",
          "type": "uint256"
        }
      ],
      "name": "increaseAllowance",
      "outputs": [
        {
          "internalType": "bool",
          "name": "",
          "type": "bool"
        }
      ],
      "stateMutability": "nonpayable",
      "type": "function"
    },
    {
      "inputs": [],
      "name": "name",
      "outputs": [
        {
          "internalType": "string",
          "name": "",
          "type": "string"
        }
      ],
      "stateMutability": "view",
      "type": "function",
      "constant": true
    },
    {
      "inputs": [
        {
          "internalType": "address",
          "name": "owner",
          "type": "address"
        }
      ],
      "name": "nonces",
      "outputs": [
        {
          "internalType": "uint256",
          "name": "",
          "type": "uint256"
        }
      ],
      "stateMutability": "view",
      "type": "function",
      "constant": true
    },
    {
      "inputs": [],
      "name": "paused",
      "outputs": [
        {
          "internalType": "bool",
          "name": "",
          "type": "bool"
        }
      ],
      "stateMutability": "view",
      "type": "function",
      "constant": true
    },
    {
      "inputs": [
        {
          "internalType": "address",
          "name": "owner",
          "type": "address"
        },
        {
          "internalType": "address",
          "name": "spender",
          "type": "address"
        },
        {
          "internalType": "uint256",
          "name": "value",
          "type": "uint256"
        },
        {
          "internalType": "uint256",
          "name": "deadline",
          "type": "uint256"
        },
        {
          "internalType": "uint8",
          "name": "v",
          "type": "uint8"
        },
        {
          "internalType": "bytes32",
          "name": "r",
          "type": "bytes32"
        },
        {
          "internalType": "bytes32",
          "name": "s",
          "type": "bytes32"
        }
      ],
      "name": "permit",
      "outputs": [],
      "stateMutability": "nonpayable",
      "type": "function"
    },
    {
      "inputs": [
        {
          "internalType": "bytes32",
          "name": "role",
          "type": "bytes32"
        },
        {
          "internalType": "address",
          "name": "account",
          "type": "address"
        }
      ],
      "name": "renounceRole",
      "outputs": [],
      "stateMutability": "nonpayable",
      "type": "function"
    },
    {
      "inputs": [
        {
          "internalType": "bytes32",
          "name": "role",
          "type": "bytes32"
        },
        {
          "internalType": "address",
          "name": "account",
          "type": "address"
        }
      ],
      "name": "revokeRole",
      "outputs": [],
      "stateMutability": "nonpayable",
      "type": "function"
    },
    {
      "inputs": [
        {
          "internalType": "bytes4",
          "name": "interfaceId",
          "type": "bytes4"
        }
      ],
      "name": "supportsInterface",
      "outputs": [
        {
          "internalType": "bool",
          "name": "",
          "type": "bool"
        }
      ],
      "stateMutability": "view",
      "type": "function",
      "constant": true
    },
    {
      "inputs": [],
      "name": "symbol",
      "outputs": [
        {
          "internalType": "string",
          "name": "",
          "type": "string"
        }
      ],
      "stateMutability": "view",
      "type": "function",
      "constant": true
    },
    {
      "inputs": [],
      "name": "totalSupply",
      "outputs": [
        {
          "internalType": "uint256",
          "name": "",
          "type": "uint256"
        }
      ],
      "stateMutability": "view",
      "type": "function",
      "constant": true
    },
    {
      "inputs": [
        {
          "internalType": "address",
          "name": "to",
          "type": "address"
        },
        {
          "internalType": "uint256",
          "name": "amount",
          "type": "uint256"
        }
      ],
      "name": "transfer",
      "outputs": [
        {
          "internalType": "bool",
          "name": "",
          "type": "bool"
        }
      ],
      "stateMutability": "nonpayable",
      "type": "function"
    },
    {
      "inputs": [
        {
          "internalType": "address",
          "name": "from",
          "type": "address"
        },
        {
          "internalType": "address",
          "name": "to",
          "type": "address"
        },
        {
          "internalType": "uint256",
          "name": "amount",
          "type": "uint256"
        }
      ],
      "name": "transferFrom",
      "outputs": [
        {
          "internalType": "bool",
          "name": "",
          "type": "bool"
        }
      ],
      "stateMutability": "nonpayable",
      "type": "function"
    },
    {
      "inputs": [],
      "name": "version",
      "outputs": [
        {
          "internalType": "string",
          "name": "",
          "type": "string"
        }
      ],
      "stateMutability": "view",
      "type": "function",
      "constant": true
    },
    {
      "inputs": [
        {
          "internalType": "address",
          "name": "to",
          "type": "address"
        },
        {
          "internalType": "uint256",
          "name": "amount",
          "type": "uint256"
        }
      ],
      "name": "mint",
      "outputs": [],
      "stateMutability": "nonpayable",
      "type": "function"
    },
    {
      "inputs": [],
      "name": "pause",
      "outputs": [],
      "stateMutability": "nonpayable",
      "type": "function"
    },
    {
      "inputs": [],
      "name": "unpause",
      "outputs": [],
      "stateMutability": "nonpayable",
      "type": "function"
    }
  ],
  "bytecode": "0x6101406040523480156200001257600080fd5b5060405162004ef038038062004ef0833981810160405281019062000038919062000a6e565b81806040518060400160405280600181526020017f3100000000000000000000000000000000000000000000000000000000000000815250848481600590805190602001906200008a92919062000821565b508060069080519060200190620000a392919062000821565b5050506000600760006101000a81548160ff02191690831515021790555060008280519060200120905060008280519060200120905060007f8b73c3c69bb8fe3d512ecc4cf759cc79239f7b179b0ffacaa9a75d522b39400f90508260e081815250508161010081815250504660a081815250506200012a8184846200028e60201b60201c565b608081815250503073ffffffffffffffffffffffffffffffffffffffff1660c08173ffffffffffffffffffffffffffffffffffffffff168152505080610120818152505050505050505081600a90805190602001906200018c92919062000821565b5080600b9080519060200190620001a592919062000821565b506012600c60006101000a81548160ff021916908360ff160217905550620001e66000801b620001da620002ca60201b60201c565b620002d260201b60201c565b620002277f9f2df0fed2c77648de5860a4cc508cd0818c85b8b8a1ab4ceeef8d981c8956a66200021b620002ca60201b60201c565b620002d260201b60201c565b620002687f65d7a28e3265b37a6474929f336521b332c1681b933f6cb9f3376673440d862a6200025c620002ca60201b60201c565b620002d260201b60201c565b62000286336b033b2e3c9fd0803ce8000000620002e860201b60201c565b505062000e8c565b60008383834630604051602001620002ab95949392919062000b6e565b6040516020818303038152906040528051906020012090509392505050565b600033905090565b620002e482826200038160201b60201c565b5050565b620003297f9f2df0fed2c77648de5860a4cc508cd0818c85b8b8a1ab4ceeef8d981c8956a66200031d620002ca60201b60201c565b620003c960201b60201c565b6200036b576040517f08c379a0000000000000000000000000000000000000000000000000000000008152600401620003629062000c52565b60405180910390fd5b6200037d82826200043360201b60201c565b5050565b620003988282620005ad60201b6200116d1760201c565b620003c481600160008581526020019081526020016000206200069e60201b6200124d1790919060201c565b505050565b600080600084815260200190815260200160002060000160008373ffffffffffffffffffffffffffffffffffffffff1673ffffffffffffffffffffffffffffffffffffffff16815260200190815260200160002060009054906101000a900460ff16905092915050565b600073ffffffffffffffffffffffffffffffffffffffff168273ffffffffffffffffffffffffffffffffffffffff161415620004a6576040517f08c379a00000000000000000000000000000000000000000000000000000000081526004016200049d9062000cc4565b60405180910390fd5b620004ba60008383620006d660201b60201c565b8060046000828254620004ce919062000d15565b9250508190555080600260008473ffffffffffffffffffffffffffffffffffffffff1673ffffffffffffffffffffffffffffffffffffffff168152602001908152602001600020600082825462000526919062000d15565b925050819055508173ffffffffffffffffffffffffffffffffffffffff16600073ffffffffffffffffffffffffffffffffffffffff167fddf252ad1be2c89b69c2b068fc378daa952ba7f163c4a11628f55a4df523b3ef836040516200058d919062000d72565b60405180910390a3620005a960008383620006f360201b60201c565b5050565b620005bf8282620003c960201b60201c565b6200069a57600160008084815260200190815260200160002060000160008373ffffffffffffffffffffffffffffffffffffffff1673ffffffffffffffffffffffffffffffffffffffff16815260200190815260200160002060006101000a81548160ff0219169083151502179055506200063f620002ca60201b60201c565b73ffffffffffffffffffffffffffffffffffffffff168173ffffffffffffffffffffffffffffffffffffffff16837f2f8788117e7eff1d82e926ec794901d17c78024a50270940304540a733656f0d60405160405180910390a45b5050565b6000620006ce836000018373ffffffffffffffffffffffffffffffffffffffff1660001b620006f860201b60201c565b905092915050565b620006ee8383836200077260201b6200127d1760201c565b505050565b505050565b60006200070c8383620007e260201b60201c565b620007675782600001829080600181540180825580915050600190039060005260206000200160009091909190915055826000018054905083600101600084815260200190815260200160002081905550600190506200076c565b600090505b92915050565b6200078a8383836200080560201b620012d51760201c565b6200079a6200080a60201b60201c565b15620007dd576040517f08c379a0000000000000000000000000000000000000000000000000000000008152600401620007d49062000e05565b60405180910390fd5b505050565b600080836001016000848152602001908152602001600020541415905092915050565b505050565b6000600760009054906101000a900460ff16905090565b8280546200082f9062000e56565b90600052602060002090601f0160209004810192826200085357600085556200089f565b82601f106200086e57805160ff19168380011785556200089f565b828001600101855582156200089f579182015b828111156200089e57825182559160200191906001019062000881565b5b509050620008ae9190620008b2565b5090565b5b80821115620008cd576000816000905550600101620008b3565b5090565b6000604051905090565b600080fd5b600080fd5b600080fd5b600080fd5b6000601f19601f8301169050919050565b7f4e487b7100000000000000000000000000000000000000000000000000000000600052604160045260246000fd5b6200093a82620008ef565b810181811067ffffffffffffffff821117156200095c576200095b62000900565b5b80604052505050565b600062000971620008d1565b90506200097f82826200092f565b919050565b600067ffffffffffffffff821115620009a257620009a162000900565b5b620009ad82620008ef565b9050602081019050919050565b60005b83811015620009da578082015181840152602081019050620009bd565b83811115620009ea576000848401525b50505050565b600062000a0762000a018462000984565b62000965565b90508281526020810184848401111562000a265762000a25620008ea565b5b62000a33848285620009ba565b509392505050565b600082601f83011262000a535762000a52620008e5565b5b815162000a65848260208601620009f0565b91505092915050565b6000806040838503121562000a885762000a87620008db565b5b600083015167ffffffffffffffff81111562000aa95762000aa8620008e0565b5b62000ab78582860162000a3b565b925050602083015167ffffffffffffffff81111562000adb5762000ada620008e0565b5b62000ae98582860162000a3b565b9150509250929050565b6000819050919050565b62000b088162000af3565b82525050565b6000819050919050565b62000b238162000b0e565b82525050565b600073ffffffffffffffffffffffffffffffffffffffff82169050919050565b600062000b568262000b29565b9050919050565b62000b688162000b49565b82525050565b600060a08201905062000b85600083018862000afd565b62000b94602083018762000afd565b62000ba3604083018662000afd565b62000bb2606083018562000b18565b62000bc1608083018462000b5d565b9695505050505050565b600082825260208201905092915050565b7f45524332305072657365744d696e7465725061757365723a206d75737420686160008201527f7665206d696e74657220726f6c6520746f206d696e7400000000000000000000602082015250565b600062000c3a60368362000bcb565b915062000c478262000bdc565b604082019050919050565b6000602082019050818103600083015262000c6d8162000c2b565b9050919050565b7f45524332303a206d696e7420746f20746865207a65726f206164647265737300600082015250565b600062000cac601f8362000bcb565b915062000cb98262000c74565b602082019050919050565b6000602082019050818103600083015262000cdf8162000c9d565b9050919050565b7f4e487b7100000000000000000000000000000000000000000000000000000000600052601160045260246000fd5b600062000d228262000b0e565b915062000d2f8362000b0e565b9250827fffffffffffffffffffffffffffffffffffffffffffffffffffffffffffffffff0382111562000d675762000d6662000ce6565b5b828201905092915050565b600060208201905062000d89600083018462000b18565b92915050565b7f45524332305061757361626c653a20746f6b656e207472616e7366657220776860008201527f696c652070617573656400000000000000000000000000000000000000000000602082015250565b600062000ded602a8362000bcb565b915062000dfa8262000d8f565b604082019050919050565b6000602082019050818103600083015262000e208162000dde565b9050919050565b7f4e487b7100000000000000000000000000000000000000000000000000000000600052602260045260246000fd5b6000600282049050600182168062000e6f57607f821691505b6020821081141562000e865762000e8562000e27565b5b50919050565b60805160a05160c05160e051610100516101205161401462000edc600039600061192d0152600061196f0152600061194e01526000611883015260006118d90152600061190201526140146000f3fe608060405234801561001057600080fd5b506004361061021c5760003560e01c806370a0823111610125578063a9059cbb116100ad578063d505accf1161007c578063d505accf14610669578063d539139314610685578063d547741f146106a3578063dd62ed3e146106bf578063e63ab1e9146106ef5761021c565b8063a9059cbb146105cd578063b09f1266146105fd578063ca15c8731461061b578063d28d88521461064b5761021c565b80639010d07c116100f45780639010d07c1461050157806391d148541461053157806395d89b4114610561578063a217fddf1461057f578063a457c2d71461059d5761021c565b806370a082311461047b57806379cc6790146104ab5780637ecebe00146104c75780638456cb59146104f75761021c565b80633644e515116101a85780633f4ba83a116101775780633f4ba83a146103fd57806340c10f191461040757806342966c681461042357806354fd4d501461043f5780635c975abb1461045d5761021c565b80633644e5151461037557806336568abe1461039357806339509351146103af5780633eaaf86b146103df5761021c565b806323b872dd116101ef57806323b872dd146102bd578063248a9ca3146102ed5780632f2ff15d1461031d578063313ce5671461033957806332424aa3146103575761021c565b806301ffc9a71461022157806306fdde0314610251578063095ea7b31461026f57806318160ddd1461029f575b600080fd5b61023b6004803603810190610236919061293a565b61070d565b6040516102489190612982565b60405180910390f35b610259610787565b6040516102669190612a36565b60405180910390f35b61028960048036038101906102849190612aec565b610819565b6040516102969190612982565b60405180910390f35b6102a761083c565b6040516102b49190612b3b565b60405180910390f35b6102d760048036038101906102d29190612b56565b610846565b6040516102e49190612982565b60405180910390f35b61030760048036038101906103029190612bdf565b610875565b6040516103149190612c1b565b60405180910390f35b61033760048036038101906103329190612c36565b610894565b005b6103416108b5565b60405161034e9190612c92565b60405180910390f35b61035f6108be565b60405161036c9190612c92565b60405180910390f35b61037d6108d1565b60405161038a9190612c1b565b60405180910390f35b6103ad60048036038101906103a89190612c36565b6108e0565b005b6103c960048036038101906103c49190612aec565b610963565b6040516103d69190612982565b60405180910390f35b6103e761099a565b6040516103f49190612b3b565b60405180910390f35b6104056109a0565b005b610421600480360381019061041c9190612aec565b610a1a565b005b61043d60048036038101906104389190612cad565b610a98565b005b610447610aac565b6040516104549190612a36565b60405180910390f35b610465610ae5565b6040516104729190612982565b60405180910390f35b61049560048036038101906104909190612cda565b610afc565b6040516104a29190612b3b565b60405180910390f35b6104c560048036038101906104c09190612aec565b610b45565b005b6104e160048036038101906104dc9190612cda565b610b65565b6040516104ee9190612b3b565b60405180910390f35b6104ff610bb5565b005b61051b60048036038101906105169190612d07565b610c2f565b6040516105289190612d56565b60405180910390f35b61054b60048036038101906105469190612c36565b610c5e565b6040516105589190612982565b60405180910390f35b610569610cc8565b6040516105769190612a36565b60405180910390f35b610587610d5a565b6040516105949190612c1b565b60405180910390f35b6105b760048036038101906105b29190612aec565b610d61565b6040516105c49190612982565b60405180910390f35b6105e760048036038101906105e29190612aec565b610dd8565b6040516105f49190612982565b60405180910390f35b610605610dfb565b6040516106129190612a36565b60405180910390f35b61063560048036038101906106309190612bdf565b610e89565b6040516106429190612b3b565b60405180910390f35b610653610ead565b6040516106609190612a36565b60405180910390f35b610683600480360381019061067e9190612d9d565b610f3b565b005b61068d61107d565b60405161069a9190612c1b565b60405180910390f35b6106bd60048036038101906106b89190612c36565b6110a1565b005b6106d960048036038101906106d49190612e3f565b6110c2565b6040516106e69190612b3b565b60405180910390f35b6106f7611149565b6040516107049190612c1b565b60405180910390f35b60007f5a05180f000000000000000000000000000000000000000000000000000000007bffffffffffffffffffffffffffffffffffffffffffffffffffffffff1916827bffffffffffffffffffffffffffffffffffffffffffffffffffffffff19161480610780575061077f826112da565b5b9050919050565b60606005805461079690612eae565b80601f01602080910402602001604051908101604052809291908181526020018280546107c290612eae565b801561080f5780601f106107e45761010080835404028352916020019161080f565b820191906000526020600020905b8154815290600101906020018083116107f257829003601f168201915b5050505050905090565b600080610824611354565b905061083181858561135c565b600191505092915050565b6000600454905090565b600080610851611354565b905061085e858285611527565b6108698585856115b3565b60019150509392505050565b6000806000838152602001908152602001600020600101549050919050565b61089d82610875565b6108a681611837565b6108b0838361184b565b505050565b60006012905090565b600c60009054906101000a900460ff1681565b60006108db61187f565b905090565b6108e8611354565b73ffffffffffffffffffffffffffffffffffffffff168173ffffffffffffffffffffffffffffffffffffffff1614610955576040517f08c379a000000000000000000000000000000000000000000000000000000000815260040161094c90612f52565b60405180910390fd5b61095f8282611999565b5050565b60008061096e611354565b905061098f81858561098085896110c2565b61098a9190612fa1565b61135c565b600191505092915050565b600d5481565b6109d17f65d7a28e3265b37a6474929f336521b332c1681b933f6cb9f3376673440d862a6109cc611354565b610c5e565b610a10576040517f08c379a0000000000000000000000000000000000000000000000000000000008152600401610a0790613069565b60405180910390fd5b610a186119cd565b565b610a4b7f9f2df0fed2c77648de5860a4cc508cd0818c85b8b8a1ab4ceeef8d981c8956a6610a46611354565b610c5e565b610a8a576040517f08c379a0000000000000000000000000000000000000000000000000000000008152600401610a81906130fb565b60405180910390fd5b610a948282611a6f565b5050565b610aa9610aa3611354565b82611bd0565b50565b6040518060400160405280600181526020017f310000000000000000000000000000000000000000000000000000000000000081525081565b6000600760009054906101000a900460ff16905090565b6000600260008373ffffffffffffffffffffffffffffffffffffffff1673ffffffffffffffffffffffffffffffffffffffff168152602001908152602001600020549050919050565b610b5782610b51611354565b83611527565b610b618282611bd0565b5050565b6000610bae600860008473ffffffffffffffffffffffffffffffffffffffff1673ffffffffffffffffffffffffffffffffffffffff168152602001908152602001600020611da9565b9050919050565b610be67f65d7a28e3265b37a6474929f336521b332c1681b933f6cb9f3376673440d862a610be1611354565b610c5e565b610c25576040517f08c379a0000000000000000000000000000000000000000000000000000000008152600401610c1c9061318d565b60405180910390fd5b610c2d611db7565b565b6000610c568260016000868152602001908152602001600020611e5a90919063ffffffff16565b905092915050565b600080600084815260200190815260200160002060000160008373ffffffffffffffffffffffffffffffffffffffff1673ffffffffffffffffffffffffffffffffffffffff16815260200190815260200160002060009054906101000a900460ff16905092915050565b606060068054610cd790612eae565b80601f0160208091040260200160405190810160405280929190818152602001828054610d0390612eae565b8015610d505780601f10610d2557610100808354040283529160200191610d50565b820191906000526020600020905b815481529060010190602001808311610d3357829003601f168201915b5050505050905090565b6000801b81565b600080610d6c611354565b90506000610d7a82866110c2565b905083811015610dbf576040517f08c379a0000000000000000000000000000000000000000000000000000000008152600401610db69061321f565b60405180910390fd5b610dcc828686840361135c565b60019250505092915050565b600080610de3611354565b9050610df08185856115b3565b600191505092915050565b600b8054610e0890612eae565b80601f0160208091040260200160405190810160405280929190818152602001828054610e3490612eae565b8015610e815780601f10610e5657610100808354040283529160200191610e81565b820191906000526020600020905b815481529060010190602001808311610e6457829003601f168201915b505050505081565b6000610ea660016000848152602001908152602001600020611e74565b9050919050565b600a8054610eba90612eae565b80601f0160208091040260200160405190810160405280929190818152602001828054610ee690612eae565b8015610f335780601f10610f0857610100808354040283529160200191610f33565b820191906000526020600020905b815481529060010190602001808311610f1657829003601f168201915b505050505081565b83421115610f7e576040517f08c379a0000000000000000000000000000000000000000000000000000000008152600401610f759061328b565b60405180910390fd5b60007f6e71edae12b1b97f4d1f60370fef10105fa2faae0126114a169c64845d6126c9888888610fad8c611e89565b89604051602001610fc3969594939291906132ab565b6040516020818303038152906040528051906020012090506000610fe682611ee7565b90506000610ff682878787611f01565b90508973ffffffffffffffffffffffffffffffffffffffff168173ffffffffffffffffffffffffffffffffffffffff1614611066576040517f08c379a000000000000000000000000000000000000000000000000000000000815260040161105d90613358565b60405180910390fd5b6110718a8a8a61135c565b50505050505050505050565b7f9f2df0fed2c77648de5860a4cc508cd0818c85b8b8a1ab4ceeef8d981c8956a681565b6110aa82610875565b6110b381611837565b6110bd8383611999565b505050565b6000600360008473ffffffffffffffffffffffffffffffffffffffff1673ffffffffffffffffffffffffffffffffffffffff16815260200190815260200160002060008373ffffffffffffffffffffffffffffffffffffffff1673ffffffffffffffffffffffffffffffffffffffff16815260200190815260200160002054905092915050565b7f65d7a28e3265b37a6474929f336521b332c1681b933f6cb9f3376673440d862a81565b6111778282610c5e565b61124957600160008084815260200190815260200160002060000160008373ffffffffffffffffffffffffffffffffffffffff1673ffffffffffffffffffffffffffffffffffffffff16815260200190815260200160002060006101000a81548160ff0219169083151502179055506111ee611354565b73ffffffffffffffffffffffffffffffffffffffff168173ffffffffffffffffffffffffffffffffffffffff16837f2f8788117e7eff1d82e926ec794901d17c78024a50270940304540a733656f0d60405160405180910390a45b5050565b6000611275836000018373ffffffffffffffffffffffffffffffffffffffff1660001b611f2c565b905092915050565b6112888383836112d5565b611290610ae5565b156112d0576040517f08c379a00000000000000000000000000000000000000000000000000000000081526004016112c7906133ea565b60405180910390fd5b505050565b505050565b60007f7965db0b000000000000000000000000000000000000000000000000000000007bffffffffffffffffffffffffffffffffffffffffffffffffffffffff1916827bffffffffffffffffffffffffffffffffffffffffffffffffffffffff1916148061134d575061134c82611f9c565b5b9050919050565b600033905090565b600073ffffffffffffffffffffffffffffffffffffffff168373ffffffffffffffffffffffffffffffffffffffff1614156113cc576040517f08c379a00000000000000000000000000000000000000000000000000000000081526004016113c39061347c565b60405180910390fd5b600073ffffffffffffffffffffffffffffffffffffffff168273ffffffffffffffffffffffffffffffffffffffff16141561143c576040517f08c379a00000000000000000000000000000000000000000000000000000000081526004016114339061350e565b60405180910390fd5b80600360008573ffffffffffffffffffffffffffffffffffffffff1673ffffffffffffffffffffffffffffffffffffffff16815260200190815260200160002060008473ffffffffffffffffffffffffffffffffffffffff1673ffffffffffffffffffffffffffffffffffffffff168152602001908152602001600020819055508173ffffffffffffffffffffffffffffffffffffffff168373ffffffffffffffffffffffffffffffffffffffff167f8c5be1e5ebec7d5bd14f71427d1e84f3dd0314c0f7b2291e5b200ac8c7c3b9258360405161151a9190612b3b565b60405180910390a3505050565b600061153384846110c2565b90507fffffffffffffffffffffffffffffffffffffffffffffffffffffffffffffffff81146115ad578181101561159f576040517f08c379a00000000000000000000000000000000000000000000000000000000081526004016115969061357a565b60405180910390fd5b6115ac848484840361135c565b5b50505050565b600073ffffffffffffffffffffffffffffffffffffffff168373ffffffffffffffffffffffffffffffffffffffff161415611623576040517f08c379a000000000000000000000000000000000000000000000000000000000815260040161161a9061360c565b60405180910390fd5b600073ffffffffffffffffffffffffffffffffffffffff168273ffffffffffffffffffffffffffffffffffffffff161415611693576040517f08c379a000000000000000000000000000000000000000000000000000000000815260040161168a9061369e565b60405180910390fd5b61169e838383612006565b6000600260008573ffffffffffffffffffffffffffffffffffffffff1673ffffffffffffffffffffffffffffffffffffffff16815260200190815260200160002054905081811015611725576040517f08c379a000000000000000000000000000000000000000000000000000000000815260040161171c90613730565b60405180910390fd5b818103600260008673ffffffffffffffffffffffffffffffffffffffff1673ffffffffffffffffffffffffffffffffffffffff1681526020019081526020016000208190555081600260008573ffffffffffffffffffffffffffffffffffffffff1673ffffffffffffffffffffffffffffffffffffffff16815260200190815260200160002060008282546117ba9190612fa1565b925050819055508273ffffffffffffffffffffffffffffffffffffffff168473ffffffffffffffffffffffffffffffffffffffff167fddf252ad1be2c89b69c2b068fc378daa952ba7f163c4a11628f55a4df523b3ef8460405161181e9190612b3b565b60405180910390a3611831848484612016565b50505050565b61184881611843611354565b61201b565b50565b611855828261116d565b61187a816001600085815260200190815260200160002061124d90919063ffffffff16565b505050565b60007f000000000000000000000000000000000000000000000000000000000000000073ffffffffffffffffffffffffffffffffffffffff163073ffffffffffffffffffffffffffffffffffffffff161480156118fb57507f000000000000000000000000000000000000000000000000000000000000000046145b15611928577f00000000000000000000000000000000000000000000000000000000000000009050611996565b6119937f00000000000000000000000000000000000000000000000000000000000000007f00000000000000000000000000000000000000000000000000000000000000007f00000000000000000000000000000000000000000000000000000000000000006120b8565b90505b90565b6119a382826120f2565b6119c881600160008581526020019081526020016000206121d390919063ffffffff16565b505050565b6119d5610ae5565b611a14576040517f08c379a0000000000000000000000000000000000000000000000000000000008152600401611a0b9061379c565b60405180910390fd5b6000600760006101000a81548160ff0219169083151502179055507f5db9ee0a495bf2e6ff9c91a7834c1ba4fdd244a5e8aa4e537bd38aeae4b073aa611a58611354565b604051611a659190612d56565b60405180910390a1565b600073ffffffffffffffffffffffffffffffffffffffff168273ffffffffffffffffffffffffffffffffffffffff161415611adf576040517f08c379a0000000000000000000000000000000000000000000000000000000008152600401611ad690613808565b60405180910390fd5b611aeb60008383612006565b8060046000828254611afd9190612fa1565b9250508190555080600260008473ffffffffffffffffffffffffffffffffffffffff1673ffffffffffffffffffffffffffffffffffffffff1681526020019081526020016000206000828254611b539190612fa1565b925050819055508173ffffffffffffffffffffffffffffffffffffffff16600073ffffffffffffffffffffffffffffffffffffffff167fddf252ad1be2c89b69c2b068fc378daa952ba7f163c4a11628f55a4df523b3ef83604051611bb89190612b3b565b60405180910390a3611bcc60008383612016565b5050565b600073ffffffffffffffffffffffffffffffffffffffff168273ffffffffffffffffffffffffffffffffffffffff161415611c40576040517f08c379a0000000000000000000000000000000000000000000000000000000008152600401611c379061389a565b60405180910390fd5b611c4c82600083612006565b6000600260008473ffffffffffffffffffffffffffffffffffffffff1673ffffffffffffffffffffffffffffffffffffffff16815260200190815260200160002054905081811015611cd3576040517f08c379a0000000000000000000000000000000000000000000000000000000008152600401611cca9061392c565b60405180910390fd5b818103600260008573ffffffffffffffffffffffffffffffffffffffff1673ffffffffffffffffffffffffffffffffffffffff168152602001908152602001600020819055508160046000828254611d2b919061394c565b92505081905550600073ffffffffffffffffffffffffffffffffffffffff168373ffffffffffffffffffffffffffffffffffffffff167fddf252ad1be2c89b69c2b068fc378daa952ba7f163c4a11628f55a4df523b3ef84604051611d909190612b3b565b60405180910390a3611da483600084612016565b505050565b600081600001549050919050565b611dbf610ae5565b15611dff576040517f08c379a0000000000000000000000000000000000000000000000000000000008152600401611df6906139cc565b60405180910390fd5b6001600760006101000a81548160ff0219169083151502179055507f62e78cea01bee320cd4e420270b5ea74000d11b0c9f74754ebdbfc544b05a258611e43611354565b604051611e509190612d56565b60405180910390a1565b6000611e698360000183612203565b60001c905092915050565b6000611e828260000161222e565b9050919050565b600080600860008473ffffffffffffffffffffffffffffffffffffffff1673ffffffffffffffffffffffffffffffffffffffff1681526020019081526020016000209050611ed681611da9565b9150611ee18161223f565b50919050565b6000611efa611ef461187f565b83612255565b9050919050565b6000806000611f1287878787612288565b91509150611f1f81612395565b8192505050949350505050565b6000611f38838361256a565b611f91578260000182908060018154018082558091505060019003906000526020600020016000909190919091505582600001805490508360010160008481526020019081526020016000208190555060019050611f96565b600090505b92915050565b60007f01ffc9a7000000000000000000000000000000000000000000000000000000007bffffffffffffffffffffffffffffffffffffffffffffffffffffffff1916827bffffffffffffffffffffffffffffffffffffffffffffffffffffffff1916149050919050565b61201183838361127d565b505050565b505050565b6120258282610c5e565b6120b45761204a8173ffffffffffffffffffffffffffffffffffffffff16601461258d565b6120588360001c602061258d565b604051602001612069929190613ac0565b6040516020818303038152906040526040517f08c379a00000000000000000000000000000000000000000000000000000000081526004016120ab9190612a36565b60405180910390fd5b5050565b600083838346306040516020016120d3959493929190613afa565b6040516020818303038152906040528051906020012090509392505050565b6120fc8282610c5e565b156121cf57600080600084815260200190815260200160002060000160008373ffffffffffffffffffffffffffffffffffffffff1673ffffffffffffffffffffffffffffffffffffffff16815260200190815260200160002060006101000a81548160ff021916908315150217905550612174611354565b73ffffffffffffffffffffffffffffffffffffffff168173ffffffffffffffffffffffffffffffffffffffff16837ff6391f5c32d9c69d2a47ea670b442974b53935d1edc7fd64eb21e047a839171b60405160405180910390a45b5050565b60006121fb836000018373ffffffffffffffffffffffffffffffffffffffff1660001b6127c9565b905092915050565b600082600001828154811061221b5761221a613b4d565b5b9060005260206000200154905092915050565b600081600001805490509050919050565b6001816000016000828254019250508190555050565b6000828260405160200161226a929190613be9565b60405160208183030381529060405280519060200120905092915050565b6000807f7fffffffffffffffffffffffffffffff5d576e7357a4501ddfe92f46681b20a08360001c11156122c357600060039150915061238c565b601b8560ff16141580156122db5750601c8560ff1614155b156122ed57600060049150915061238c565b6000600187878787604051600081526020016040526040516123129493929190613c20565b6020604051602081039080840390855afa158015612334573d6000803e3d6000fd5b505050602060405103519050600073ffffffffffffffffffffffffffffffffffffffff168173ffffffffffffffffffffffffffffffffffffffff1614156123835760006001925092505061238c565b80600092509250505b94509492505050565b600060048111156123a9576123a8613c65565b5b8160048111156123bc576123bb613c65565b5b14156123c757612567565b600160048111156123db576123da613c65565b5b8160048111156123ee576123ed613c65565b5b141561242f576040517f08c379a000000000000000000000000000000000000000000000000000000000815260040161242690613ce0565b60405180910390fd5b6002600481111561244357612442613c65565b5b81600481111561245657612455613c65565b5b1415612497576040517f08c379a000000000000000000000000000000000000000000000000000000000815260040161248e90613d4c565b60405180910390fd5b600360048111156124ab576124aa613c65565b5b8160048111156124be576124bd613c65565b5b14156124ff576040517f08c379a00000000000000000000000000000000000000000000000000000000081526004016124f690613dde565b60405180910390fd5b60048081111561251257612511613c65565b5b81600481111561252557612524613c65565b5b1415612566576040517f08c379a000000000000000000000000000000000000000000000000000000000815260040161255d90613e70565b60405180910390fd5b5b50565b600080836001016000848152602001908152602001600020541415905092915050565b6060600060028360026125a09190613e90565b6125aa9190612fa1565b67ffffffffffffffff8111156125c3576125c2613eea565b5b6040519080825280601f01601f1916602001820160405280156125f55781602001600182028036833780820191505090505b5090507f30000000000000000000000000000000000000000000000000000000000000008160008151811061262d5761262c613b4d565b5b60200101907effffffffffffffffffffffffffffffffffffffffffffffffffffffffffffff1916908160001a9053507f78000000000000000000000000000000000000000000000000000000000000008160018151811061269157612690613b4d565b5b60200101907effffffffffffffffffffffffffffffffffffffffffffffffffffffffffffff1916908160001a905350600060018460026126d19190613e90565b6126db9190612fa1565b90505b600181111561277b577f3031323334353637383961626364656600000000000000000000000000000000600f86166010811061271d5761271c613b4d565b5b1a60f81b82828151811061273457612733613b4d565b5b60200101907effffffffffffffffffffffffffffffffffffffffffffffffffffffffffffff1916908160001a905350600485901c94508061277490613f19565b90506126de565b50600084146127bf576040517f08c379a00000000000000000000000000000000000000000000000000000000081526004016127b690613f8f565b60405180910390fd5b8091505092915050565b600080836001016000848152602001908152602001600020549050600081146128d15760006001826127fb919061394c565b9050600060018660000180549050612813919061394c565b905081811461288257600086600001828154811061283457612833613b4d565b5b906000526020600020015490508087600001848154811061285857612857613b4d565b5b90600052602060002001819055508387600101600083815260200190815260200160002081905550505b8560000180548061289657612895613faf565b5b6001900381819060005260206000200160009055905585600101600086815260200190815260200160002060009055600193505050506128d7565b60009150505b92915050565b600080fd5b60007fffffffff0000000000000000000000000000000000000000000000000000000082169050919050565b612917816128e2565b811461292257600080fd5b50565b6000813590506129348161290e565b92915050565b6000602082840312156129505761294f6128dd565b5b600061295e84828501612925565b91505092915050565b60008115159050919050565b61297c81612967565b82525050565b60006020820190506129976000830184612973565b92915050565b600081519050919050565b600082825260208201905092915050565b60005b838110156129d75780820151818401526020810190506129bc565b838111156129e6576000848401525b50505050565b6000601f19601f8301169050919050565b6000612a088261299d565b612a1281856129a8565b9350612a228185602086016129b9565b612a2b816129ec565b840191505092915050565b60006020820190508181036000830152612a5081846129fd565b905092915050565b600073ffffffffffffffffffffffffffffffffffffffff82169050919050565b6000612a8382612a58565b9050919050565b612a9381612a78565b8114612a9e57600080fd5b50565b600081359050612ab081612a8a565b92915050565b6000819050919050565b612ac981612ab6565b8114612ad457600080fd5b50565b600081359050612ae681612ac0565b92915050565b60008060408385031215612b0357612b026128dd565b5b6000612b1185828601612aa1565b9250506020612b2285828601612ad7565b9150509250929050565b612b3581612ab6565b82525050565b6000602082019050612b506000830184612b2c565b92915050565b600080600060608486031215612b6f57612b6e6128dd565b5b6000612b7d86828701612aa1565b9350506020612b8e86828701612aa1565b9250506040612b9f86828701612ad7565b9150509250925092565b6000819050919050565b612bbc81612ba9565b8114612bc757600080fd5b50565b600081359050612bd981612bb3565b92915050565b600060208284031215612bf557612bf46128dd565b5b6000612c0384828501612bca565b91505092915050565b612c1581612ba9565b82525050565b6000602082019050612c306000830184612c0c565b92915050565b60008060408385031215612c4d57612c4c6128dd565b5b6000612c5b85828601612bca565b9250506020612c6c85828601612aa1565b9150509250929050565b600060ff82169050919050565b612c8c81612c76565b82525050565b6000602082019050612ca76000830184612c83565b92915050565b600060208284031215612cc357612cc26128dd565b5b6000612cd184828501612ad7565b91505092915050565b600060208284031215612cf057612cef6128dd565b5b6000612cfe84828501612aa1565b91505092915050565b60008060408385031215612d1e57612d1d6128dd565b5b6000612d2c85828601612bca565b9250506020612d3d85828601612ad7565b9150509250929050565b612d5081612a78565b82525050565b6000602082019050612d6b6000830184612d47565b92915050565b612d7a81612c76565b8114612d8557600080fd5b50565b600081359050612d9781612d71565b92915050565b600080600080600080600060e0888a031215612dbc57612dbb6128dd565b5b6000612dca8a828b01612aa1565b9750506020612ddb8a828b01612aa1565b9650506040612dec8a828b01612ad7565b9550506060612dfd8a828b01612ad7565b9450506080612e0e8a828b01612d88565b93505060a0612e1f8a828b01612bca565b92505060c0612e308a828b01612bca565b91505092959891949750929550565b60008060408385031215612e5657612e556128dd565b5b6000612e6485828601612aa1565b9250506020612e7585828601612aa1565b9150509250929050565b7f4e487b7100000000000000000000000000000000000000000000000000000000600052602260045260246000fd5b60006002820490506001821680612ec657607f821691505b60208210811415612eda57612ed9612e7f565b5b50919050565b7f416363657373436f6e74726f6c3a2063616e206f6e6c792072656e6f756e636560008201527f20726f6c657320666f722073656c660000000000000000000000000000000000602082015250565b6000612f3c602f836129a8565b9150612f4782612ee0565b604082019050919050565b60006020820190508181036000830152612f6b81612f2f565b9050919050565b7f4e487b7100000000000000000000000000000000000000000000000000000000600052601160045260246000fd5b6000612fac82612ab6565b9150612fb783612ab6565b9250827fffffffffffffffffffffffffffffffffffffffffffffffffffffffffffffffff03821115612fec57612feb612f72565b5b828201905092915050565b7f45524332305072657365744d696e7465725061757365723a206d75737420686160008201527f76652070617573657220726f6c6520746f20756e706175736500000000000000602082015250565b60006130536039836129a8565b915061305e82612ff7565b604082019050919050565b6000602082019050818103600083015261308281613046565b9050919050565b7f45524332305072657365744d696e7465725061757365723a206d75737420686160008201527f7665206d696e74657220726f6c6520746f206d696e7400000000000000000000602082015250565b60006130e56036836129a8565b91506130f082613089565b604082019050919050565b60006020820190508181036000830152613114816130d8565b9050919050565b7f45524332305072657365744d696e7465725061757365723a206d75737420686160008201527f76652070617573657220726f6c6520746f207061757365000000000000000000602082015250565b60006131776037836129a8565b91506131828261311b565b604082019050919050565b600060208201905081810360008301526131a68161316a565b9050919050565b7f45524332303a2064656372656173656420616c6c6f77616e63652062656c6f7760008201527f207a65726f000000000000000000000000000000000000000000000000000000602082015250565b60006132096025836129a8565b9150613214826131ad565b604082019050919050565b60006020820190508181036000830152613238816131fc565b9050919050565b7f45524332305065726d69743a206578706972656420646561646c696e65000000600082015250565b6000613275601d836129a8565b91506132808261323f565b602082019050919050565b600060208201905081810360008301526132a481613268565b9050919050565b600060c0820190506132c06000830189612c0c565b6132cd6020830188612d47565b6132da6040830187612d47565b6132e76060830186612b2c565b6132f46080830185612b2c565b61330160a0830184612b2c565b979650505050505050565b7f45524332305065726d69743a20696e76616c6964207369676e61747572650000600082015250565b6000613342601e836129a8565b915061334d8261330c565b602082019050919050565b6000602082019050818103600083015261337181613335565b9050919050565b7f45524332305061757361626c653a20746f6b656e207472616e7366657220776860008201527f696c652070617573656400000000000000000000000000000000000000000000602082015250565b60006133d4602a836129a8565b91506133df82613378565b604082019050919050565b60006020820190508181036000830152613403816133c7565b9050919050565b7f45524332303a20617070726f76652066726f6d20746865207a65726f2061646460008201527f7265737300000000000000000000000000000000000000000000000000000000602082015250565b60006134666024836129a8565b91506134718261340a565b604082019050919050565b6000602082019050818103600083015261349581613459565b9050919050565b7f45524332303a20617070726f766520746f20746865207a65726f20616464726560008201527f7373000000000000000000000000000000000000000000000000000000000000602082015250565b60006134f86022836129a8565b91506135038261349c565b604082019050919050565b60006020820190508181036000830152613527816134eb565b9050919050565b7f45524332303a20696e73756666696369656e7420616c6c6f77616e6365000000600082015250565b6000613564601d836129a8565b915061356f8261352e565b602082019050919050565b6000602082019050818103600083015261359381613557565b9050919050565b7f45524332303a207472616e736665722066726f6d20746865207a65726f20616460008201527f6472657373000000000000000000000000000000000000000000000000000000602082015250565b60006135f66025836129a8565b91506136018261359a565b604082019050919050565b60006020820190508181036000830152613625816135e9565b9050919050565b7f45524332303a207472616e7366657220746f20746865207a65726f206164647260008201527f6573730000000000000000000000000000000000000000000000000000000000602082015250565b60006136886023836129a8565b91506136938261362c565b604082019050919050565b600060208201905081810360008301526136b78161367b565b9050919050565b7f45524332303a207472616e7366657220616d6f756e742065786365656473206260008201527f616c616e63650000000000000000000000000000000000000000000000000000602082015250565b600061371a6026836129a8565b9150613725826136be565b604082019050919050565b600060208201905081810360008301526137498161370d565b9050919050565b7f5061757361626c653a206e6f7420706175736564000000000000000000000000600082015250565b60006137866014836129a8565b915061379182613750565b602082019050919050565b600060208201905081810360008301526137b581613779565b9050919050565b7f45524332303a206d696e7420746f20746865207a65726f206164647265737300600082015250565b60006137f2601f836129a8565b91506137fd826137bc565b602082019050919050565b60006020820190508181036000830152613821816137e5565b9050919050565b7f45524332303a206275726e2066726f6d20746865207a65726f2061646472657360008201527f7300000000000000000000000000000000000000000000000000000000000000602082015250565b60006138846021836129a8565b915061388f82613828565b604082019050919050565b600060208201905081810360008301526138b381613877565b9050919050565b7f45524332303a206275726e20616d6f756e7420657863656564732062616c616e60008201527f6365000000000000000000000000000000000000000000000000000000000000602082015250565b60006139166022836129a8565b9150613921826138ba565b604082019050919050565b6000602082019050818103600083015261394581613909565b9050919050565b600061395782612ab6565b915061396283612ab6565b92508282101561397557613974612f72565b5b828203905092915050565b7f5061757361626c653a2070617573656400000000000000000000000000000000600082015250565b60006139b66010836129a8565b91506139c182613980565b602082019050919050565b600060208201905081810360008301526139e5816139a9565b9050919050565b600081905092915050565b7f416363657373436f6e74726f6c3a206163636f756e7420000000000000000000600082015250565b6000613a2d6017836139ec565b9150613a38826139f7565b601782019050919050565b6000613a4e8261299d565b613a5881856139ec565b9350613a688185602086016129b9565b80840191505092915050565b7f206973206d697373696e6720726f6c6520000000000000000000000000000000600082015250565b6000613aaa6011836139ec565b9150613ab582613a74565b601182019050919050565b6000613acb82613a20565b9150613ad78285613a43565b9150613ae282613a9d565b9150613aee8284613a43565b91508190509392505050565b600060a082019050613b0f6000830188612c0c565b613b1c6020830187612c0c565b613b296040830186612c0c565b613b366060830185612b2c565b613b436080830184612d47565b9695505050505050565b7f4e487b7100000000000000000000000000000000000000000000000000000000600052603260045260246000fd5b7f1901000000000000000000000000000000000000000000000000000000000000600082015250565b6000613bb26002836139ec565b9150613bbd82613b7c565b600282019050919050565b6000819050919050565b613be3613bde82612ba9565b613bc8565b82525050565b6000613bf482613ba5565b9150613c008285613bd2565b602082019150613c108284613bd2565b6020820191508190509392505050565b6000608082019050613c356000830187612c0c565b613c426020830186612c83565b613c4f6040830185612c0c565b613c5c6060830184612c0c565b95945050505050565b7f4e487b7100000000000000000000000000000000000000000000000000000000600052602160045260246000fd5b7f45434453413a20696e76616c6964207369676e61747572650000000000000000600082015250565b6000613cca6018836129a8565b9150613cd582613c94565b602082019050919050565b60006020820190508181036000830152613cf981613cbd565b9050919050565b7f45434453413a20696e76616c6964207369676e6174757265206c656e67746800600082015250565b6000613d36601f836129a8565b9150613d4182613d00565b602082019050919050565b60006020820190508181036000830152613d6581613d29565b9050919050565b7f45434453413a20696e76616c6964207369676e6174757265202773272076616c60008201527f7565000000000000000000000000000000000000000000000000000000000000602082015250565b6000613dc86022836129a8565b9150613dd382613d6c565b604082019050919050565b60006020820190508181036000830152613df781613dbb565b9050919050565b7f45434453413a20696e76616c6964207369676e6174757265202776272076616c60008201527f7565000000000000000000000000000000000000000000000000000000000000602082015250565b6000613e5a6022836129a8565b9150613e6582613dfe565b604082019050919050565b60006020820190508181036000830152613e8981613e4d565b9050919050565b6000613e9b82612ab6565b9150613ea683612ab6565b9250817fffffffffffffffffffffffffffffffffffffffffffffffffffffffffffffffff0483118215151615613edf57613ede612f72565b5b828202905092915050565b7f4e487b7100000000000000000000000000000000000000000000000000000000600052604160045260246000fd5b6000613f2482612ab6565b91506000821415613f3857613f37612f72565b5b600182039050919050565b7f537472696e67733a20686578206c656e67746820696e73756666696369656e74600082015250565b6000613f796020836129a8565b9150613f8482613f43565b602082019050919050565b60006020820190508181036000830152613fa881613f6c565b9050919050565b7f4e487b7100000000000000000000000000000000000000000000000000000000600052603160045260246000fdfea26469706673582212209f777293dd3184353f00b80fa626bb759276170650c0a4da5e03279ee5b61a8464736f6c63430008090033",
  "immutableReferences": {
    "8630": [
      {
        "length": 32,
        "start": 6402
      }
    ],
    "8632": [
      {
        "length": 32,
        "start": 6361
      }
    ],
    "8634": [
      {
        "length": 32,
        "start": 6275
      }
    ],
    "8636": [
      {
        "length": 32,
        "start": 6478
      }
    ],
    "8638": [
      {
        "length": 32,
        "start": 6511
      }
    ],
    "8640": [
      {
        "length": 32,
        "start": 6445
      }
    ]
  },
  "source": "//SPDX-License-Identifier: MIT\npragma solidity 0.8.9;\n\nimport \"@openzeppelin/contracts/token/ERC20/ERC20.sol\";\nimport \"@openzeppelin/contracts/token/ERC20/extensions/ERC20Burnable.sol\";\nimport \"@openzeppelin/contracts/token/ERC20/extensions/ERC20Pausable.sol\";\nimport \"@openzeppelin/contracts/token/ERC20/extensions/draft-ERC20Permit.sol\";\nimport \"@openzeppelin/contracts/access/AccessControlEnumerable.sol\";\nimport \"@openzeppelin/contracts/utils/Context.sol\";\n\ncontract AKX is Context, AccessControlEnumerable, ERC20Burnable, ERC20Pausable, ERC20Permit {\n    bytes32 public constant MINTER_ROLE = keccak256(\"MINTER_ROLE\");\n    bytes32 public constant PAUSER_ROLE = keccak256(\"PAUSER_ROLE\");\n\n    string public constant version = \"1\";\n\n    string public _name;\n    string public _symbol;\n    uint8 public  _decimals;\n    uint256 public _totalSupply;\n\n\n    constructor(string memory _name_, string memory _symbol_) ERC20(_name_, _symbol_) ERC20Permit(_name_)  {\n\n        _name = _name_;\n        _symbol = _symbol_;\n        _decimals = 18;\n\n        _setupRole(DEFAULT_ADMIN_ROLE, _msgSender());\n\n        _setupRole(MINTER_ROLE, _msgSender());\n        _setupRole(PAUSER_ROLE, _msgSender());\n\n        mint(msg.sender, 1000000000 * 10 ** 18);\n\n    }\n\n    function mint(address to, uint256 amount) public virtual {\n        require(hasRole(MINTER_ROLE, _msgSender()), \"ERC20PresetMinterPauser: must have minter role to mint\");\n        _mint(to, amount);\n    }\n\n    function pause() public virtual {\n        require(hasRole(PAUSER_ROLE, _msgSender()), \"ERC20PresetMinterPauser: must have pauser role to pause\");\n        _pause();\n    }\n\n    function unpause() public virtual {\n        require(hasRole(PAUSER_ROLE, _msgSender()), \"ERC20PresetMinterPauser: must have pauser role to unpause\");\n        _unpause();\n    }\n\n    function _beforeTokenTransfer(\n        address from,\n        address to,\n        uint256 amount\n    ) internal virtual override(ERC20, ERC20Pausable) {\n        super._beforeTokenTransfer(from, to, amount);\n    }\n\n}",
  "sourcePath": "/Users/nicolascloutier/Documents/GitHub/akapz-dao/chain/contracts/AKX/AKX.sol",
  "compiler": {
    "name": "solc",
    "version": "0.8.9+commit.e5eed63a.Emscripten.clang"
  },
  "schemaVersion": "3.4.3",
  "updatedAt": "2022-05-16T18:49:35.470Z",
  "networkType": "ethereum",
  "devdoc": {
    "kind": "dev",
    "methods": {
      "DOMAIN_SEPARATOR()": {
        "details": "See {IERC20Permit-DOMAIN_SEPARATOR}."
      },
      "allowance(address,address)": {
        "details": "See {IERC20-allowance}."
      },
      "approve(address,uint256)": {
        "details": "See {IERC20-approve}. NOTE: If `amount` is the maximum `uint256`, the allowance is not updated on `transferFrom`. This is semantically equivalent to an infinite approval. Requirements: - `spender` cannot be the zero address."
      },
      "balanceOf(address)": {
        "details": "See {IERC20-balanceOf}."
      },
      "burn(uint256)": {
        "details": "Destroys `amount` tokens from the caller. See {ERC20-_burn}."
      },
      "burnFrom(address,uint256)": {
        "details": "Destroys `amount` tokens from `account`, deducting from the caller's allowance. See {ERC20-_burn} and {ERC20-allowance}. Requirements: - the caller must have allowance for ``accounts``'s tokens of at least `amount`."
      },
      "decimals()": {
        "details": "Returns the number of decimals used to get its user representation. For example, if `decimals` equals `2`, a balance of `505` tokens should be displayed to a user as `5.05` (`505 / 10 ** 2`). Tokens usually opt for a value of 18, imitating the relationship between Ether and Wei. This is the value {ERC20} uses, unless this function is overridden; NOTE: This information is only used for _display_ purposes: it in no way affects any of the arithmetic of the contract, including {IERC20-balanceOf} and {IERC20-transfer}."
      },
      "decreaseAllowance(address,uint256)": {
        "details": "Atomically decreases the allowance granted to `spender` by the caller. This is an alternative to {approve} that can be used as a mitigation for problems described in {IERC20-approve}. Emits an {Approval} event indicating the updated allowance. Requirements: - `spender` cannot be the zero address. - `spender` must have allowance for the caller of at least `subtractedValue`."
      },
      "getRoleAdmin(bytes32)": {
        "details": "Returns the admin role that controls `role`. See {grantRole} and {revokeRole}. To change a role's admin, use {_setRoleAdmin}."
      },
      "getRoleMember(bytes32,uint256)": {
        "details": "Returns one of the accounts that have `role`. `index` must be a value between 0 and {getRoleMemberCount}, non-inclusive. Role bearers are not sorted in any particular way, and their ordering may change at any point. WARNING: When using {getRoleMember} and {getRoleMemberCount}, make sure you perform all queries on the same block. See the following https://forum.openzeppelin.com/t/iterating-over-elements-on-enumerableset-in-openzeppelin-contracts/2296[forum post] for more information."
      },
      "getRoleMemberCount(bytes32)": {
        "details": "Returns the number of accounts that have `role`. Can be used together with {getRoleMember} to enumerate all bearers of a role."
      },
      "grantRole(bytes32,address)": {
        "details": "Grants `role` to `account`. If `account` had not been already granted `role`, emits a {RoleGranted} event. Requirements: - the caller must have ``role``'s admin role."
      },
      "hasRole(bytes32,address)": {
        "details": "Returns `true` if `account` has been granted `role`."
      },
      "increaseAllowance(address,uint256)": {
        "details": "Atomically increases the allowance granted to `spender` by the caller. This is an alternative to {approve} that can be used as a mitigation for problems described in {IERC20-approve}. Emits an {Approval} event indicating the updated allowance. Requirements: - `spender` cannot be the zero address."
      },
      "name()": {
        "details": "Returns the name of the token."
      },
      "nonces(address)": {
        "details": "See {IERC20Permit-nonces}."
      },
      "paused()": {
        "details": "Returns true if the contract is paused, and false otherwise."
      },
      "permit(address,address,uint256,uint256,uint8,bytes32,bytes32)": {
        "details": "See {IERC20Permit-permit}."
      },
      "renounceRole(bytes32,address)": {
        "details": "Revokes `role` from the calling account. Roles are often managed via {grantRole} and {revokeRole}: this function's purpose is to provide a mechanism for accounts to lose their privileges if they are compromised (such as when a trusted device is misplaced). If the calling account had been revoked `role`, emits a {RoleRevoked} event. Requirements: - the caller must be `account`."
      },
      "revokeRole(bytes32,address)": {
        "details": "Revokes `role` from `account`. If `account` had been granted `role`, emits a {RoleRevoked} event. Requirements: - the caller must have ``role``'s admin role."
      },
      "supportsInterface(bytes4)": {
        "details": "See {IERC165-supportsInterface}."
      },
      "symbol()": {
        "details": "Returns the symbol of the token, usually a shorter version of the name."
      },
      "totalSupply()": {
        "details": "See {IERC20-totalSupply}."
      },
      "transfer(address,uint256)": {
        "details": "See {IERC20-transfer}. Requirements: - `to` cannot be the zero address. - the caller must have a balance of at least `amount`."
      },
      "transferFrom(address,address,uint256)": {
        "details": "See {IERC20-transferFrom}. Emits an {Approval} event indicating the updated allowance. This is not required by the EIP. See the note at the beginning of {ERC20}. NOTE: Does not update the allowance if the current allowance is the maximum `uint256`. Requirements: - `from` and `to` cannot be the zero address. - `from` must have a balance of at least `amount`. - the caller must have allowance for ``from``'s tokens of at least `amount`."
      }
    },
    "version": 1
  },
  "userdoc": {
    "kind": "user",
    "methods": {},
    "version": 1
  }
}