{
  "contractName": "AKXTFaucet",
  "abi": [
    {
      "anonymous": false,
      "inputs": [
        {
          "indexed": true,
          "internalType": "address",
          "name": "previousOwner",
          "type": "address"
        },
        {
          "indexed": true,
          "internalType": "address",
          "name": "newOwner",
          "type": "address"
        }
      ],
      "name": "OwnershipTransferred",
      "type": "event"
    },
    {
      "inputs": [],
      "name": "owner",
      "outputs": [
        {
          "internalType": "address",
          "name": "",
          "type": "address"
        }
      ],
      "stateMutability": "view",
      "type": "function"
    },
    {
      "inputs": [],
      "name": "renounceOwnership",
      "outputs": [],
      "stateMutability": "nonpayable",
      "type": "function"
    },
    {
      "inputs": [],
      "name": "token",
      "outputs": [
        {
          "internalType": "contract AKX",
          "name": "",
          "type": "address"
        }
      ],
      "stateMutability": "view",
      "type": "function"
    },
    {
      "inputs": [
        {
          "internalType": "address",
          "name": "newOwner",
          "type": "address"
        }
      ],
      "name": "transferOwnership",
      "outputs": [],
      "stateMutability": "nonpayable",
      "type": "function"
    },
    {
      "inputs": [
        {
          "internalType": "address",
          "name": "_token",
          "type": "address"
        }
      ],
      "name": "setAKXT",
      "outputs": [],
      "stateMutability": "nonpayable",
      "type": "function"
    },
    {
      "inputs": [],
      "name": "create",
      "outputs": [],
      "stateMutability": "nonpayable",
      "type": "function"
    }
  ],
  "bytecode": "0x608060405234801561001057600080fd5b5061002d61002261003260201b60201c565b61003a60201b60201c565b6100fe565b600033905090565b60008060009054906101000a900473ffffffffffffffffffffffffffffffffffffffff169050816000806101000a81548173ffffffffffffffffffffffffffffffffffffffff021916908373ffffffffffffffffffffffffffffffffffffffff1602179055508173ffffffffffffffffffffffffffffffffffffffff168173ffffffffffffffffffffffffffffffffffffffff167f8be0079c531659141344cd1fd0a4f28419497f9722a3daafe3b4186f6b6457e060405160405180910390a35050565b610f728061010d6000396000f3fe608060405234801561001057600080fd5b50600436106100625760003560e01c80636b31881314610067578063715018a6146100835780638da5cb5b1461008d578063efc81a8c146100ab578063f2fde38b146100b5578063fc0c546a146100d1575b600080fd5b610081600480360381019061007c919061087e565b6100ef565b005b61008b6102b0565b005b610095610338565b6040516100a291906108ba565b60405180910390f35b6100b3610361565b005b6100cf60048036038101906100ca919061087e565b610631565b005b6100d9610729565b6040516100e69190610934565b60405180910390f35b6100f761074f565b73ffffffffffffffffffffffffffffffffffffffff16610115610338565b73ffffffffffffffffffffffffffffffffffffffff161461016b576040517f08c379a0000000000000000000000000000000000000000000000000000000008152600401610162906109ac565b60405180910390fd5b600073ffffffffffffffffffffffffffffffffffffffff16600160009054906101000a900473ffffffffffffffffffffffffffffffffffffffff1673ffffffffffffffffffffffffffffffffffffffff16146101fc576040517f08c379a00000000000000000000000000000000000000000000000000000000081526004016101f390610a3e565b60405180910390fd5b600073ffffffffffffffffffffffffffffffffffffffff168173ffffffffffffffffffffffffffffffffffffffff16141561026c576040517f08c379a000000000000000000000000000000000000000000000000000000000815260040161026390610aaa565b60405180910390fd5b80600160006101000a81548173ffffffffffffffffffffffffffffffffffffffff021916908373ffffffffffffffffffffffffffffffffffffffff16021790555050565b6102b861074f565b73ffffffffffffffffffffffffffffffffffffffff166102d6610338565b73ffffffffffffffffffffffffffffffffffffffff161461032c576040517f08c379a0000000000000000000000000000000000000000000000000000000008152600401610323906109ac565b60405180910390fd5b6103366000610757565b565b60008060009054906101000a900473ffffffffffffffffffffffffffffffffffffffff16905090565b600073ffffffffffffffffffffffffffffffffffffffff16600160009054906101000a900473ffffffffffffffffffffffffffffffffffffffff1673ffffffffffffffffffffffffffffffffffffffff1614156103f3576040517f08c379a00000000000000000000000000000000000000000000000000000000081526004016103ea90610b16565b60405180910390fd5b6000600160009054906101000a900473ffffffffffffffffffffffffffffffffffffffff1673ffffffffffffffffffffffffffffffffffffffff1663313ce5676040518163ffffffff1660e01b815260040160206040518083038186803b15801561045d57600080fd5b505afa158015610471573d6000803e3d6000fd5b505050506040513d601f19601f820116820180604052508101906104959190610b6f565b60ff16600a6104a49190610d08565b6103e86104b19190610d53565b905080600160009054906101000a900473ffffffffffffffffffffffffffffffffffffffff1673ffffffffffffffffffffffffffffffffffffffff166370a08231336040518263ffffffff1660e01b815260040161050f91906108ba565b60206040518083038186803b15801561052757600080fd5b505afa15801561053b573d6000803e3d6000fd5b505050506040513d601f19601f8201168201806040525081019061055f9190610dd9565b1061059f576040517f08c379a000000000000000000000000000000000000000000000000000000000815260040161059690610e52565b60405180910390fd5b600160009054906101000a900473ffffffffffffffffffffffffffffffffffffffff1673ffffffffffffffffffffffffffffffffffffffff166340c10f1933836040518363ffffffff1660e01b81526004016105fc929190610e81565b600060405180830381600087803b15801561061657600080fd5b505af115801561062a573d6000803e3d6000fd5b5050505050565b61063961074f565b73ffffffffffffffffffffffffffffffffffffffff16610657610338565b73ffffffffffffffffffffffffffffffffffffffff16146106ad576040517f08c379a00000000000000000000000000000000000000000000000000000000081526004016106a4906109ac565b60405180910390fd5b600073ffffffffffffffffffffffffffffffffffffffff168173ffffffffffffffffffffffffffffffffffffffff16141561071d576040517f08c379a000000000000000000000000000000000000000000000000000000000815260040161071490610f1c565b60405180910390fd5b61072681610757565b50565b600160009054906101000a900473ffffffffffffffffffffffffffffffffffffffff1681565b600033905090565b60008060009054906101000a900473ffffffffffffffffffffffffffffffffffffffff169050816000806101000a81548173ffffffffffffffffffffffffffffffffffffffff021916908373ffffffffffffffffffffffffffffffffffffffff1602179055508173ffffffffffffffffffffffffffffffffffffffff168173ffffffffffffffffffffffffffffffffffffffff167f8be0079c531659141344cd1fd0a4f28419497f9722a3daafe3b4186f6b6457e060405160405180910390a35050565b600080fd5b600073ffffffffffffffffffffffffffffffffffffffff82169050919050565b600061084b82610820565b9050919050565b61085b81610840565b811461086657600080fd5b50565b60008135905061087881610852565b92915050565b6000602082840312156108945761089361081b565b5b60006108a284828501610869565b91505092915050565b6108b481610840565b82525050565b60006020820190506108cf60008301846108ab565b92915050565b6000819050919050565b60006108fa6108f56108f084610820565b6108d5565b610820565b9050919050565b600061090c826108df565b9050919050565b600061091e82610901565b9050919050565b61092e81610913565b82525050565b60006020820190506109496000830184610925565b92915050565b600082825260208201905092915050565b7f4f776e61626c653a2063616c6c6572206973206e6f7420746865206f776e6572600082015250565b600061099660208361094f565b91506109a182610960565b602082019050919050565b600060208201905081810360008301526109c581610989565b9050919050565b7f46756e6374696f6e2063616e20626520696e766f6b6564206f6e6c79206f6e6360008201527f6500000000000000000000000000000000000000000000000000000000000000602082015250565b6000610a2860218361094f565b9150610a33826109cc565b604082019050919050565b60006020820190508181036000830152610a5781610a1b565b9050919050565b7f496e76616c696420746f6b656e20636f6e747261637420616464726573730000600082015250565b6000610a94601e8361094f565b9150610a9f82610a5e565b602082019050919050565b60006020820190508181036000830152610ac381610a87565b9050919050565b7f546f6b656e20636f6e747261637420686173206e6f74206265656e2073657400600082015250565b6000610b00601f8361094f565b9150610b0b82610aca565b602082019050919050565b60006020820190508181036000830152610b2f81610af3565b9050919050565b600060ff82169050919050565b610b4c81610b36565b8114610b5757600080fd5b50565b600081519050610b6981610b43565b92915050565b600060208284031215610b8557610b8461081b565b5b6000610b9384828501610b5a565b91505092915050565b7f4e487b7100000000000000000000000000000000000000000000000000000000600052601160045260246000fd5b60008160011c9050919050565b6000808291508390505b6001851115610c2257808604811115610bfe57610bfd610b9c565b5b6001851615610c0d5780820291505b8081029050610c1b85610bcb565b9450610be2565b94509492505050565b600082610c3b5760019050610cf7565b81610c495760009050610cf7565b8160018114610c5f5760028114610c6957610c98565b6001915050610cf7565b60ff841115610c7b57610c7a610b9c565b5b8360020a915084821115610c9257610c91610b9c565b5b50610cf7565b5060208310610133831016604e8410600b8410161715610ccd5782820a905083811115610cc857610cc7610b9c565b5b610cf7565b610cda8484846001610bd8565b92509050818404811115610cf157610cf0610b9c565b5b81810290505b9392505050565b6000819050919050565b6000610d1382610cfe565b9150610d1e83610cfe565b9250610d4b7fffffffffffffffffffffffffffffffffffffffffffffffffffffffffffffffff8484610c2b565b905092915050565b6000610d5e82610cfe565b9150610d6983610cfe565b9250817fffffffffffffffffffffffffffffffffffffffffffffffffffffffffffffffff0483118215151615610da257610da1610b9c565b5b828202905092915050565b610db681610cfe565b8114610dc157600080fd5b50565b600081519050610dd381610dad565b92915050565b600060208284031215610def57610dee61081b565b5b6000610dfd84828501610dc4565b91505092915050565b7f43616e6e6f742061637175697265206d6f72652066756e647300000000000000600082015250565b6000610e3c60198361094f565b9150610e4782610e06565b602082019050919050565b60006020820190508181036000830152610e6b81610e2f565b9050919050565b610e7b81610cfe565b82525050565b6000604082019050610e9660008301856108ab565b610ea36020830184610e72565b9392505050565b7f4f776e61626c653a206e6577206f776e657220697320746865207a65726f206160008201527f6464726573730000000000000000000000000000000000000000000000000000602082015250565b6000610f0660268361094f565b9150610f1182610eaa565b604082019050919050565b60006020820190508181036000830152610f3581610ef9565b905091905056fea26469706673582212206c70f303887eee1840bb791e12d5b5126d250d8169d40c640c1196d1e9ffdc4864736f6c63430008090033",
  "immutableReferences": {},
  "source": "// SPDX-License-Identifier: MIT\npragma solidity 0.8.9;\n\nimport \"./AKX.sol\";\nimport \"@openzeppelin/contracts/access/Ownable.sol\";\n\ncontract AKXTFaucet is Ownable {\n    AKX public token;\n    function setAKXT(address _token) external onlyOwner {\n        // can be called only once\n        require(address(token) == address(0), \"Function can be invoked only once\");\n\n        // validate address\n        require(_token != address(0), \"Invalid token contract address\");\n\n        token = AKX(_token);\n    }\n\n    function create() external {\n        require(address(token) != address(0), \"Token contract has not been set\");\n        uint256 tokens = 1000 * 10 ** uint256(token.decimals());\n        if (token.balanceOf(msg.sender) >= tokens) revert(\"Cannot acquire more funds\");\n        token.mint(msg.sender, tokens);\n    }\n}",
  "sourcePath": "/Users/nicolascloutier/Documents/GitHub/akapz-dao/chain/contracts/AKX/AKXTFaucet.sol",
  "compiler": {
    "name": "solc",
    "version": "0.8.9+commit.e5eed63a.Emscripten.clang"
  },
  "schemaVersion": "3.4.3",
  "updatedAt": "2022-05-16T16:39:42.537Z",
  "devdoc": {
    "kind": "dev",
    "methods": {
      "owner()": {
        "details": "Returns the address of the current owner."
      },
      "renounceOwnership()": {
        "details": "Leaves the contract without owner. It will not be possible to call `onlyOwner` functions anymore. Can only be called by the current owner. NOTE: Renouncing ownership will leave the contract without an owner, thereby removing any functionality that is only available to the owner."
      },
      "transferOwnership(address)": {
        "details": "Transfers ownership of the contract to a new account (`newOwner`). Can only be called by the current owner."
      }
    },
    "version": 1
  },
  "userdoc": {
    "kind": "user",
    "methods": {},
    "version": 1
  }
}