{
  "contractName": "FoundersController",
  "abi": [
    {
      "anonymous": false,
      "inputs": [
        {
          "indexed": true,
          "internalType": "address",
          "name": "_founderAddress",
          "type": "address"
        },
        {
          "indexed": false,
          "internalType": "uint256",
          "name": "_dedicatedAmount",
          "type": "uint256"
        },
        {
          "indexed": false,
          "internalType": "uint256",
          "name": "timestamp",
          "type": "uint256"
        }
      ],
      "name": "DirectorAdded",
      "type": "event"
    },
    {
      "anonymous": false,
      "inputs": [
        {
          "indexed": true,
          "internalType": "address",
          "name": "_directorRemoved",
          "type": "address"
        },
        {
          "indexed": false,
          "internalType": "string",
          "name": "reason",
          "type": "string"
        },
        {
          "indexed": false,
          "internalType": "uint256",
          "name": "timestamp",
          "type": "uint256"
        }
      ],
      "name": "DirectorRemoved",
      "type": "event"
    },
    {
      "anonymous": false,
      "inputs": [
        {
          "indexed": true,
          "internalType": "address",
          "name": "previousOwner",
          "type": "address"
        },
        {
          "indexed": true,
          "internalType": "address",
          "name": "newOwner",
          "type": "address"
        }
      ],
      "name": "OwnershipTransferred",
      "type": "event"
    },
    {
      "anonymous": false,
      "inputs": [
        {
          "indexed": false,
          "internalType": "uint256",
          "name": "_oldValue",
          "type": "uint256"
        },
        {
          "indexed": false,
          "internalType": "uint256",
          "name": "_newValue",
          "type": "uint256"
        }
      ],
      "name": "PercentFundsPerDirectorChanged",
      "type": "event"
    },
    {
      "anonymous": false,
      "inputs": [
        {
          "indexed": true,
          "internalType": "bytes32",
          "name": "role",
          "type": "bytes32"
        },
        {
          "indexed": true,
          "internalType": "bytes32",
          "name": "previousAdminRole",
          "type": "bytes32"
        },
        {
          "indexed": true,
          "internalType": "bytes32",
          "name": "newAdminRole",
          "type": "bytes32"
        }
      ],
      "name": "RoleAdminChanged",
      "type": "event"
    },
    {
      "anonymous": false,
      "inputs": [
        {
          "indexed": true,
          "internalType": "bytes32",
          "name": "role",
          "type": "bytes32"
        },
        {
          "indexed": true,
          "internalType": "address",
          "name": "account",
          "type": "address"
        },
        {
          "indexed": true,
          "internalType": "address",
          "name": "sender",
          "type": "address"
        }
      ],
      "name": "RoleGranted",
      "type": "event"
    },
    {
      "anonymous": false,
      "inputs": [
        {
          "indexed": true,
          "internalType": "bytes32",
          "name": "role",
          "type": "bytes32"
        },
        {
          "indexed": true,
          "internalType": "address",
          "name": "account",
          "type": "address"
        },
        {
          "indexed": true,
          "internalType": "address",
          "name": "sender",
          "type": "address"
        }
      ],
      "name": "RoleRevoked",
      "type": "event"
    },
    {
      "inputs": [],
      "name": "AclOwner",
      "outputs": [
        {
          "internalType": "address",
          "name": "",
          "type": "address"
        }
      ],
      "stateMutability": "view",
      "type": "function"
    },
    {
      "inputs": [],
      "name": "DEFAULT_ADMIN_ROLE",
      "outputs": [
        {
          "internalType": "bytes32",
          "name": "",
          "type": "bytes32"
        }
      ],
      "stateMutability": "view",
      "type": "function"
    },
    {
      "inputs": [],
      "name": "NOTSET_ROLE",
      "outputs": [
        {
          "internalType": "bytes32",
          "name": "",
          "type": "bytes32"
        }
      ],
      "stateMutability": "view",
      "type": "function"
    },
    {
      "inputs": [],
      "name": "ROLE_ADVISOR",
      "outputs": [
        {
          "internalType": "bytes32",
          "name": "",
          "type": "bytes32"
        }
      ],
      "stateMutability": "view",
      "type": "function"
    },
    {
      "inputs": [],
      "name": "ROLE_CEO",
      "outputs": [
        {
          "internalType": "bytes32",
          "name": "",
          "type": "bytes32"
        }
      ],
      "stateMutability": "view",
      "type": "function"
    },
    {
      "inputs": [],
      "name": "ROLE_CFO",
      "outputs": [
        {
          "internalType": "bytes32",
          "name": "",
          "type": "bytes32"
        }
      ],
      "stateMutability": "view",
      "type": "function"
    },
    {
      "inputs": [],
      "name": "ROLE_CMO",
      "outputs": [
        {
          "internalType": "bytes32",
          "name": "",
          "type": "bytes32"
        }
      ],
      "stateMutability": "view",
      "type": "function"
    },
    {
      "inputs": [],
      "name": "ROLE_COO",
      "outputs": [
        {
          "internalType": "bytes32",
          "name": "",
          "type": "bytes32"
        }
      ],
      "stateMutability": "view",
      "type": "function"
    },
    {
      "inputs": [],
      "name": "ROLE_CTO",
      "outputs": [
        {
          "internalType": "bytes32",
          "name": "",
          "type": "bytes32"
        }
      ],
      "stateMutability": "view",
      "type": "function"
    },
    {
      "inputs": [],
      "name": "ROLE_HOLDER",
      "outputs": [
        {
          "internalType": "bytes32",
          "name": "",
          "type": "bytes32"
        }
      ],
      "stateMutability": "view",
      "type": "function"
    },
    {
      "inputs": [],
      "name": "ROLE_PARTNER",
      "outputs": [
        {
          "internalType": "bytes32",
          "name": "",
          "type": "bytes32"
        }
      ],
      "stateMutability": "view",
      "type": "function"
    },
    {
      "inputs": [],
      "name": "_initACL",
      "outputs": [],
      "stateMutability": "nonpayable",
      "type": "function"
    },
    {
      "inputs": [
        {
          "internalType": "bytes32",
          "name": "role",
          "type": "bytes32"
        },
        {
          "internalType": "address",
          "name": "_to",
          "type": "address"
        }
      ],
      "name": "addRoleToAddress",
      "outputs": [],
      "stateMutability": "nonpayable",
      "type": "function"
    },
    {
      "inputs": [],
      "name": "getAllDirectorRoles",
      "outputs": [
        {
          "internalType": "bytes32[]",
          "name": "",
          "type": "bytes32[]"
        }
      ],
      "stateMutability": "view",
      "type": "function"
    },
    {
      "inputs": [],
      "name": "getAllDirectorRolesAsHumanReadable",
      "outputs": [
        {
          "internalType": "string[]",
          "name": "",
          "type": "string[]"
        }
      ],
      "stateMutability": "view",
      "type": "function"
    },
    {
      "inputs": [
        {
          "internalType": "bytes32",
          "name": "role",
          "type": "bytes32"
        }
      ],
      "name": "getRoleAdmin",
      "outputs": [
        {
          "internalType": "bytes32",
          "name": "",
          "type": "bytes32"
        }
      ],
      "stateMutability": "view",
      "type": "function"
    },
    {
      "inputs": [
        {
          "internalType": "bytes32",
          "name": "role",
          "type": "bytes32"
        },
        {
          "internalType": "uint256",
          "name": "index",
          "type": "uint256"
        }
      ],
      "name": "getRoleMember",
      "outputs": [
        {
          "internalType": "address",
          "name": "",
          "type": "address"
        }
      ],
      "stateMutability": "view",
      "type": "function"
    },
    {
      "inputs": [
        {
          "internalType": "bytes32",
          "name": "role",
          "type": "bytes32"
        }
      ],
      "name": "getRoleMemberCount",
      "outputs": [
        {
          "internalType": "uint256",
          "name": "",
          "type": "uint256"
        }
      ],
      "stateMutability": "view",
      "type": "function"
    },
    {
      "inputs": [
        {
          "internalType": "bytes32",
          "name": "role",
          "type": "bytes32"
        },
        {
          "internalType": "address",
          "name": "account",
          "type": "address"
        }
      ],
      "name": "grantRole",
      "outputs": [],
      "stateMutability": "nonpayable",
      "type": "function"
    },
    {
      "inputs": [
        {
          "internalType": "bytes32",
          "name": "role",
          "type": "bytes32"
        },
        {
          "internalType": "address",
          "name": "account",
          "type": "address"
        }
      ],
      "name": "hasRole",
      "outputs": [
        {
          "internalType": "bool",
          "name": "",
          "type": "bool"
        }
      ],
      "stateMutability": "view",
      "type": "function"
    },
    {
      "inputs": [],
      "name": "owner",
      "outputs": [
        {
          "internalType": "address",
          "name": "",
          "type": "address"
        }
      ],
      "stateMutability": "view",
      "type": "function"
    },
    {
      "inputs": [],
      "name": "renounceOwnership",
      "outputs": [],
      "stateMutability": "nonpayable",
      "type": "function"
    },
    {
      "inputs": [
        {
          "internalType": "bytes32",
          "name": "role",
          "type": "bytes32"
        },
        {
          "internalType": "address",
          "name": "account",
          "type": "address"
        }
      ],
      "name": "renounceRole",
      "outputs": [],
      "stateMutability": "nonpayable",
      "type": "function"
    },
    {
      "inputs": [
        {
          "internalType": "bytes32",
          "name": "role",
          "type": "bytes32"
        },
        {
          "internalType": "address",
          "name": "account",
          "type": "address"
        }
      ],
      "name": "revokeRole",
      "outputs": [],
      "stateMutability": "nonpayable",
      "type": "function"
    },
    {
      "inputs": [
        {
          "internalType": "bytes4",
          "name": "interfaceId",
          "type": "bytes4"
        }
      ],
      "name": "supportsInterface",
      "outputs": [
        {
          "internalType": "bool",
          "name": "",
          "type": "bool"
        }
      ],
      "stateMutability": "view",
      "type": "function"
    },
    {
      "inputs": [
        {
          "internalType": "address",
          "name": "newOwner",
          "type": "address"
        }
      ],
      "name": "transferOwnership",
      "outputs": [],
      "stateMutability": "nonpayable",
      "type": "function"
    },
    {
      "inputs": [
        {
          "internalType": "string",
          "name": "name",
          "type": "string"
        },
        {
          "internalType": "bytes32",
          "name": "roles",
          "type": "bytes32"
        },
        {
          "internalType": "address",
          "name": "wallet",
          "type": "address"
        }
      ],
      "name": "AddDirector",
      "outputs": [],
      "stateMutability": "nonpayable",
      "type": "function"
    },
    {
      "inputs": [],
      "name": "PercentFundsPerDirector",
      "outputs": [
        {
          "internalType": "uint256",
          "name": "",
          "type": "uint256"
        }
      ],
      "stateMutability": "view",
      "type": "function"
    },
    {
      "inputs": [
        {
          "internalType": "uint256",
          "name": "newValue",
          "type": "uint256"
        }
      ],
      "name": "ChangePercentFundsPerDirector",
      "outputs": [],
      "stateMutability": "nonpayable",
      "type": "function"
    },
    {
      "inputs": [
        {
          "internalType": "string",
          "name": "name",
          "type": "string"
        },
        {
          "internalType": "bytes32",
          "name": "roles",
          "type": "bytes32"
        },
        {
          "internalType": "address",
          "name": "wallet",
          "type": "address"
        }
      ],
      "name": "_initNewDirector",
      "outputs": [],
      "stateMutability": "nonpayable",
      "type": "function"
    }
  ],
  "bytecode": "0x60806040526000600a60006101000a81548160ff02191690831515021790555060016010553480156200003157600080fd5b5062000052620000466200005860201b60201c565b6200006060201b60201c565b62000124565b600033905090565b60008060009054906101000a900473ffffffffffffffffffffffffffffffffffffffff169050816000806101000a81548173ffffffffffffffffffffffffffffffffffffffff021916908373ffffffffffffffffffffffffffffffffffffffff1602179055508173ffffffffffffffffffffffffffffffffffffffff168173ffffffffffffffffffffffffffffffffffffffff167f8be0079c531659141344cd1fd0a4f28419497f9722a3daafe3b4186f6b6457e060405160405180910390a35050565b6130b980620001346000396000f3fe608060405234801561001057600080fd5b50600436106101da5760003560e01c806386790bc311610104578063bac9dbab116100a2578063d547741f11610071578063d547741f14610513578063e23f2a1d1461052f578063eee03afe1461054d578063f2fde38b14610569576101da565b8063bac9dbab14610489578063c0036312146104a7578063ca15c873146104c5578063d1f8a4c1146104f5576101da565b806391d14854116100de57806391d14854146103ff578063a217fddf1461042f578063a85892e01461044d578063b91c6c261461046b576101da565b806386790bc3146103935780638da5cb5b146103b15780639010d07c146103cf576101da565b806336568abe1161017c578063715018a61161014b578063715018a6146103435780637708ea1d1461034d5780637832bb071461036b57806379cf196014610375576101da565b806336568abe146102cf57806351e337fb146102eb5780635d12af7e146103075780636415554714610325576101da565b806327600f61116101b857806327600f611461025b5780632a051f00146102775780632d328381146102955780632f2ff15d146102b3576101da565b806301ffc9a7146101df57806312859fb51461020f578063248a9ca31461022b575b600080fd5b6101f960048036038101906101f49190611d12565b610585565b6040516102069190611d5a565b60405180910390f35b61022960048036038101906102249190611f4f565b6105ff565b005b61024560048036038101906102409190611fbe565b610680565b6040516102529190611ffa565b60405180910390f35b61027560048036038101906102709190612015565b6106a0565b005b61027f610723565b60405161028c9190611ffa565b60405180910390f35b61029d61074b565b6040516102aa919061219f565b60405180910390f35b6102cd60048036038101906102c89190612015565b610824565b005b6102e960048036038101906102e49190612015565b610845565b005b610305600480360381019061030091906121f7565b6108c8565b005b61030f61098f565b60405161031c9190612233565b60405180910390f35b61032d610999565b60405161033a9190611ffa565b60405180910390f35b61034b6109c1565b005b610355610a49565b6040516103629190611ffa565b60405180910390f35b610373610a71565b005b61037d610dcd565b60405161038a9190611ffa565b60405180910390f35b61039b610df5565b6040516103a8919061230c565b60405180910390f35b6103b9610e4d565b6040516103c6919061233d565b60405180910390f35b6103e960048036038101906103e49190612358565b610e76565b6040516103f6919061233d565b60405180910390f35b61041960048036038101906104149190612015565b610ea5565b6040516104269190611d5a565b60405180910390f35b610437610f10565b6040516104449190611ffa565b60405180910390f35b610455610f17565b604051610462919061233d565b60405180910390f35b610473610f41565b6040516104809190611ffa565b60405180910390f35b610491610f69565b60405161049e9190611ffa565b60405180910390f35b6104af610f91565b6040516104bc9190611ffa565b60405180910390f35b6104df60048036038101906104da9190611fbe565b610fb9565b6040516104ec9190612233565b60405180910390f35b6104fd610fdd565b60405161050a9190611ffa565b60405180910390f35b61052d60048036038101906105289190612015565b611005565b005b610537611026565b6040516105449190611ffa565b60405180910390f35b61056760048036038101906105629190611f4f565b61104e565b005b610583600480360381019061057e9190612398565b6111d2565b005b60007f5a05180f000000000000000000000000000000000000000000000000000000007bffffffffffffffffffffffffffffffffffffffffffffffffffffffff1916827bffffffffffffffffffffffffffffffffffffffffffffffffffffffff191614806105f857506105f7826112ca565b5b9050919050565b610607611344565b73ffffffffffffffffffffffffffffffffffffffff16610625610e4d565b73ffffffffffffffffffffffffffffffffffffffff161461067b576040517f08c379a000000000000000000000000000000000000000000000000000000000815260040161067290612422565b60405180910390fd5b505050565b600060016000838152602001908152602001600020600101549050919050565b6106a8610f17565b73ffffffffffffffffffffffffffffffffffffffff163373ffffffffffffffffffffffffffffffffffffffff1614610715576040517f08c379a000000000000000000000000000000000000000000000000000000000815260040161070c9061248e565b60405180910390fd5b61071f8282610824565b5050565b604051602001610732906124fa565b6040516020818303038152906040528051906020012081565b60606005805480602002602001604051908101604052809291908181526020016000905b8282101561081b57838290600052602060002001805461078e90612549565b80601f01602080910402602001604051908101604052809291908181526020018280546107ba90612549565b80156108075780601f106107dc57610100808354040283529160200191610807565b820191906000526020600020905b8154815290600101906020018083116107ea57829003601f168201915b50505050508152602001906001019061076f565b50505050905090565b61082d82610680565b6108368161134c565b6108408383611360565b505050565b61084d611344565b73ffffffffffffffffffffffffffffffffffffffff168173ffffffffffffffffffffffffffffffffffffffff16146108ba576040517f08c379a00000000000000000000000000000000000000000000000000000000081526004016108b1906125ed565b60405180910390fd5b6108c48282611394565b5050565b6108d0611344565b73ffffffffffffffffffffffffffffffffffffffff166108ee610e4d565b73ffffffffffffffffffffffffffffffffffffffff1614610944576040517f08c379a000000000000000000000000000000000000000000000000000000000815260040161093b90612422565b60405180910390fd5b60006010549050816010819055507fce1e4c081a1e0643720357277d051cd0fb2c4240e6c2d7aab4e11d1087c1ab6f818360405161098392919061260d565b60405180910390a15050565b6000601054905090565b6040516020016109a890612682565b6040516020818303038152906040528051906020012081565b6109c9611344565b73ffffffffffffffffffffffffffffffffffffffff166109e7610e4d565b73ffffffffffffffffffffffffffffffffffffffff1614610a3d576040517f08c379a0000000000000000000000000000000000000000000000000000000008152600401610a3490612422565b60405180910390fd5b610a4760006113c8565b565b604051602001610a58906126ee565b6040516020818303038152906040528051906020012081565b610a79611344565b73ffffffffffffffffffffffffffffffffffffffff16610a97610e4d565b73ffffffffffffffffffffffffffffffffffffffff1614610aed576040517f08c379a0000000000000000000000000000000000000000000000000000000008152600401610ae490612422565b60405180910390fd5b60001515600a60009054906101000a900460ff16151514610b43576040517f08c379a0000000000000000000000000000000000000000000000000000000008152600401610b3a9061275a565b60405180910390fd5b604051602001610b52906127c6565b604051602081830303815290604052805190602001206007600081548110610b7d57610b7c6127e6565b5b9060005260206000200181905550604051602001610b9a906126ee565b604051602081830303815290604052805190602001206007600181548110610bc557610bc46127e6565b5b9060005260206000200181905550604051602001610be290612861565b604051602081830303815290604052805190602001206007600281548110610c0d57610c0c6127e6565b5b9060005260206000200181905550604051602001610c2a906124fa565b604051602081830303815290604052805190602001206007600381548110610c5557610c546127e6565b5b9060005260206000200181905550604051602001610c72906128cd565b604051602081830303815290604052805190602001206007600481548110610c9d57610c9c6127e6565b5b9060005260206000200181905550604051602001610cba90612939565b604051602081830303815290604052805190602001206007600581548110610ce557610ce46127e6565b5b9060005260206000200181905550604051602001610d02906127c6565b604051602081830303815290604052805190602001206008600081548110610d2d57610d2c6127e6565b5b9060005260206000200181905550604051602001610d4a906129a5565b604051602081830303815290604052805190602001206008600181548110610d7557610d746127e6565b5b9060005260206000200181905550604051602001610d9290612682565b604051602081830303815290604052805190602001206008600281548110610dbd57610dbc6127e6565b5b9060005260206000200181905550565b604051602001610ddc90612a11565b6040516020818303038152906040528051906020012081565b60606007805480602002602001604051908101604052809291908181526020018280548015610e4357602002820191906000526020600020905b815481526020019060010190808311610e2f575b5050505050905090565b60008060009054906101000a900473ffffffffffffffffffffffffffffffffffffffff16905090565b6000610e9d826002600086815260200190815260200160002061148c90919063ffffffff16565b905092915050565b60006001600084815260200190815260200160002060000160008373ffffffffffffffffffffffffffffffffffffffff1673ffffffffffffffffffffffffffffffffffffffff16815260200190815260200160002060009054906101000a900460ff16905092915050565b6000801b81565b6000600660009054906101000a900473ffffffffffffffffffffffffffffffffffffffff16905090565b604051602001610f5090612939565b6040516020818303038152906040528051906020012081565b604051602001610f78906128cd565b6040516020818303038152906040528051906020012081565b604051602001610fa090612a7d565b6040516020818303038152906040528051906020012081565b6000610fd6600260008481526020019081526020016000206114a6565b9050919050565b604051602001610fec906129a5565b6040516020818303038152906040528051906020012081565b61100e82610680565b6110178161134c565b6110218383611394565b505050565b60405160200161103590612861565b6040516020818303038152906040528051906020012081565b611056611344565b73ffffffffffffffffffffffffffffffffffffffff16611074610e4d565b73ffffffffffffffffffffffffffffffffffffffff16146110ca576040517f08c379a00000000000000000000000000000000000000000000000000000000081526004016110c190612422565b60405180910390fd5b73__Founders______________________________63428987458484846040518463ffffffff1660e01b815260040161110593929190612b05565b60006040518083038186803b15801561111d57600080fd5b505af4158015611131573d6000803e3d6000fd5b505050506040513d6000823e3d601f19601f8201168201806040525081019061115a9190612c67565b600c6000820151816000019080519060200190611178929190611c03565b506020820151816001015560408201518160020160006101000a81548173ffffffffffffffffffffffffffffffffffffffff021916908373ffffffffffffffffffffffffffffffffffffffff160217905550905050505050565b6111da611344565b73ffffffffffffffffffffffffffffffffffffffff166111f8610e4d565b73ffffffffffffffffffffffffffffffffffffffff161461124e576040517f08c379a000000000000000000000000000000000000000000000000000000000815260040161124590612422565b60405180910390fd5b600073ffffffffffffffffffffffffffffffffffffffff168173ffffffffffffffffffffffffffffffffffffffff1614156112be576040517f08c379a00000000000000000000000000000000000000000000000000000000081526004016112b590612d22565b60405180910390fd5b6112c7816113c8565b50565b60007f7965db0b000000000000000000000000000000000000000000000000000000007bffffffffffffffffffffffffffffffffffffffffffffffffffffffff1916827bffffffffffffffffffffffffffffffffffffffffffffffffffffffff1916148061133d575061133c826114bb565b5b9050919050565b600033905090565b61135d81611358611344565b611525565b50565b61136a82826115c2565b61138f81600260008581526020019081526020016000206116a290919063ffffffff16565b505050565b61139e82826116d2565b6113c381600260008581526020019081526020016000206117b490919063ffffffff16565b505050565b60008060009054906101000a900473ffffffffffffffffffffffffffffffffffffffff169050816000806101000a81548173ffffffffffffffffffffffffffffffffffffffff021916908373ffffffffffffffffffffffffffffffffffffffff1602179055508173ffffffffffffffffffffffffffffffffffffffff168173ffffffffffffffffffffffffffffffffffffffff167f8be0079c531659141344cd1fd0a4f28419497f9722a3daafe3b4186f6b6457e060405160405180910390a35050565b600061149b83600001836117e4565b60001c905092915050565b60006114b48260000161180f565b9050919050565b60007f01ffc9a7000000000000000000000000000000000000000000000000000000007bffffffffffffffffffffffffffffffffffffffffffffffffffffffff1916827bffffffffffffffffffffffffffffffffffffffffffffffffffffffff1916149050919050565b61152f8282610ea5565b6115be576115548173ffffffffffffffffffffffffffffffffffffffff166014611820565b6115628360001c6020611820565b604051602001611573929190612e16565b6040516020818303038152906040526040517f08c379a00000000000000000000000000000000000000000000000000000000081526004016115b59190612e89565b60405180910390fd5b5050565b6115cc8282610ea5565b61169e57600180600084815260200190815260200160002060000160008373ffffffffffffffffffffffffffffffffffffffff1673ffffffffffffffffffffffffffffffffffffffff16815260200190815260200160002060006101000a81548160ff021916908315150217905550611643611344565b73ffffffffffffffffffffffffffffffffffffffff168173ffffffffffffffffffffffffffffffffffffffff16837f2f8788117e7eff1d82e926ec794901d17c78024a50270940304540a733656f0d60405160405180910390a45b5050565b60006116ca836000018373ffffffffffffffffffffffffffffffffffffffff1660001b611a5c565b905092915050565b6116dc8282610ea5565b156117b05760006001600084815260200190815260200160002060000160008373ffffffffffffffffffffffffffffffffffffffff1673ffffffffffffffffffffffffffffffffffffffff16815260200190815260200160002060006101000a81548160ff021916908315150217905550611755611344565b73ffffffffffffffffffffffffffffffffffffffff168173ffffffffffffffffffffffffffffffffffffffff16837ff6391f5c32d9c69d2a47ea670b442974b53935d1edc7fd64eb21e047a839171b60405160405180910390a45b5050565b60006117dc836000018373ffffffffffffffffffffffffffffffffffffffff1660001b611acc565b905092915050565b60008260000182815481106117fc576117fb6127e6565b5b9060005260206000200154905092915050565b600081600001805490509050919050565b6060600060028360026118339190612eda565b61183d9190612f34565b67ffffffffffffffff81111561185657611855611d90565b5b6040519080825280601f01601f1916602001820160405280156118885781602001600182028036833780820191505090505b5090507f3000000000000000000000000000000000000000000000000000000000000000816000815181106118c0576118bf6127e6565b5b60200101907effffffffffffffffffffffffffffffffffffffffffffffffffffffffffffff1916908160001a9053507f780000000000000000000000000000000000000000000000000000000000000081600181518110611924576119236127e6565b5b60200101907effffffffffffffffffffffffffffffffffffffffffffffffffffffffffffff1916908160001a905350600060018460026119649190612eda565b61196e9190612f34565b90505b6001811115611a0e577f3031323334353637383961626364656600000000000000000000000000000000600f8616601081106119b0576119af6127e6565b5b1a60f81b8282815181106119c7576119c66127e6565b5b60200101907effffffffffffffffffffffffffffffffffffffffffffffffffffffffffffff1916908160001a905350600485901c945080611a0790612f8a565b9050611971565b5060008414611a52576040517f08c379a0000000000000000000000000000000000000000000000000000000008152600401611a4990613000565b60405180910390fd5b8091505092915050565b6000611a688383611be0565b611ac1578260000182908060018154018082558091505060019003906000526020600020016000909190919091505582600001805490508360010160008481526020019081526020016000208190555060019050611ac6565b600090505b92915050565b60008083600101600084815260200190815260200160002054905060008114611bd4576000600182611afe9190613020565b9050600060018660000180549050611b169190613020565b9050818114611b85576000866000018281548110611b3757611b366127e6565b5b9060005260206000200154905080876000018481548110611b5b57611b5a6127e6565b5b90600052602060002001819055508387600101600083815260200190815260200160002081905550505b85600001805480611b9957611b98613054565b5b600190038181906000526020600020016000905590558560010160008681526020019081526020016000206000905560019350505050611bda565b60009150505b92915050565b600080836001016000848152602001908152602001600020541415905092915050565b828054611c0f90612549565b90600052602060002090601f016020900481019282611c315760008555611c78565b82601f10611c4a57805160ff1916838001178555611c78565b82800160010185558215611c78579182015b82811115611c77578251825591602001919060010190611c5c565b5b509050611c859190611c89565b5090565b5b80821115611ca2576000816000905550600101611c8a565b5090565b6000604051905090565b600080fd5b600080fd5b60007fffffffff0000000000000000000000000000000000000000000000000000000082169050919050565b611cef81611cba565b8114611cfa57600080fd5b50565b600081359050611d0c81611ce6565b92915050565b600060208284031215611d2857611d27611cb0565b5b6000611d3684828501611cfd565b91505092915050565b60008115159050919050565b611d5481611d3f565b82525050565b6000602082019050611d6f6000830184611d4b565b92915050565b600080fd5b600080fd5b6000601f19601f8301169050919050565b7f4e487b7100000000000000000000000000000000000000000000000000000000600052604160045260246000fd5b611dc882611d7f565b810181811067ffffffffffffffff82111715611de757611de6611d90565b5b80604052505050565b6000611dfa611ca6565b9050611e068282611dbf565b919050565b600067ffffffffffffffff821115611e2657611e25611d90565b5b611e2f82611d7f565b9050602081019050919050565b82818337600083830152505050565b6000611e5e611e5984611e0b565b611df0565b905082815260208101848484011115611e7a57611e79611d7a565b5b611e85848285611e3c565b509392505050565b600082601f830112611ea257611ea1611d75565b5b8135611eb2848260208601611e4b565b91505092915050565b6000819050919050565b611ece81611ebb565b8114611ed957600080fd5b50565b600081359050611eeb81611ec5565b92915050565b600073ffffffffffffffffffffffffffffffffffffffff82169050919050565b6000611f1c82611ef1565b9050919050565b611f2c81611f11565b8114611f3757600080fd5b50565b600081359050611f4981611f23565b92915050565b600080600060608486031215611f6857611f67611cb0565b5b600084013567ffffffffffffffff811115611f8657611f85611cb5565b5b611f9286828701611e8d565b9350506020611fa386828701611edc565b9250506040611fb486828701611f3a565b9150509250925092565b600060208284031215611fd457611fd3611cb0565b5b6000611fe284828501611edc565b91505092915050565b611ff481611ebb565b82525050565b600060208201905061200f6000830184611feb565b92915050565b6000806040838503121561202c5761202b611cb0565b5b600061203a85828601611edc565b925050602061204b85828601611f3a565b9150509250929050565b600081519050919050565b600082825260208201905092915050565b6000819050602082019050919050565b600081519050919050565b600082825260208201905092915050565b60005b838110156120bb5780820151818401526020810190506120a0565b838111156120ca576000848401525b50505050565b60006120db82612081565b6120e5818561208c565b93506120f581856020860161209d565b6120fe81611d7f565b840191505092915050565b600061211583836120d0565b905092915050565b6000602082019050919050565b600061213582612055565b61213f8185612060565b93508360208202850161215185612071565b8060005b8581101561218d578484038952815161216e8582612109565b94506121798361211d565b925060208a01995050600181019050612155565b50829750879550505050505092915050565b600060208201905081810360008301526121b9818461212a565b905092915050565b6000819050919050565b6121d4816121c1565b81146121df57600080fd5b50565b6000813590506121f1816121cb565b92915050565b60006020828403121561220d5761220c611cb0565b5b600061221b848285016121e2565b91505092915050565b61222d816121c1565b82525050565b60006020820190506122486000830184612224565b92915050565b600081519050919050565b600082825260208201905092915050565b6000819050602082019050919050565b61228381611ebb565b82525050565b6000612295838361227a565b60208301905092915050565b6000602082019050919050565b60006122b98261224e565b6122c38185612259565b93506122ce8361226a565b8060005b838110156122ff5781516122e68882612289565b97506122f1836122a1565b9250506001810190506122d2565b5085935050505092915050565b6000602082019050818103600083015261232681846122ae565b905092915050565b61233781611f11565b82525050565b6000602082019050612352600083018461232e565b92915050565b6000806040838503121561236f5761236e611cb0565b5b600061237d85828601611edc565b925050602061238e858286016121e2565b9150509250929050565b6000602082840312156123ae576123ad611cb0565b5b60006123bc84828501611f3a565b91505092915050565b600082825260208201905092915050565b7f4f776e61626c653a2063616c6c6572206973206e6f7420746865206f776e6572600082015250565b600061240c6020836123c5565b9150612417826123d6565b602082019050919050565b6000602082019050818103600083015261243b816123ff565b9050919050565b7f6f6e6c792061636c206f776e6572000000000000000000000000000000000000600082015250565b6000612478600e836123c5565b915061248382612442565b602082019050919050565b600060208201905081810360008301526124a78161246b565b9050919050565b7f43544f0000000000000000000000000000000000000000000000000000000000600082015250565b60006124e46003836123c5565b91506124ef826124ae565b602082019050919050565b60006020820190508181036000830152612513816124d7565b9050919050565b7f4e487b7100000000000000000000000000000000000000000000000000000000600052602260045260246000fd5b6000600282049050600182168061256157607f821691505b602082108114156125755761257461251a565b5b50919050565b7f416363657373436f6e74726f6c3a2063616e206f6e6c792072656e6f756e636560008201527f20726f6c657320666f722073656c660000000000000000000000000000000000602082015250565b60006125d7602f836123c5565b91506125e28261257b565b604082019050919050565b60006020820190508181036000830152612606816125ca565b9050919050565b60006040820190506126226000830185612224565b61262f6020830184612224565b9392505050565b7f504152544e455200000000000000000000000000000000000000000000000000600082015250565b600061266c6007836123c5565b915061267782612636565b602082019050919050565b6000602082019050818103600083015261269b8161265f565b9050919050565b7f43454f0000000000000000000000000000000000000000000000000000000000600082015250565b60006126d86003836123c5565b91506126e3826126a2565b602082019050919050565b60006020820190508181036000830152612707816126cb565b9050919050565b7f616c726561647920696e697469616c697a656400000000000000000000000000600082015250565b60006127446013836123c5565b915061274f8261270e565b602082019050919050565b6000602082019050818103600083015261277381612737565b9050919050565b7f4e4f4e4500000000000000000000000000000000000000000000000000000000600082015250565b60006127b06004836123c5565b91506127bb8261277a565b602082019050919050565b600060208201905081810360008301526127df816127a3565b9050919050565b7f4e487b7100000000000000000000000000000000000000000000000000000000600052603260045260246000fd5b7f43464f0000000000000000000000000000000000000000000000000000000000600082015250565b600061284b6003836123c5565b915061285682612815565b602082019050919050565b6000602082019050818103600083015261287a8161283e565b9050919050565b7f434f4f0000000000000000000000000000000000000000000000000000000000600082015250565b60006128b76003836123c5565b91506128c282612881565b602082019050919050565b600060208201905081810360008301526128e6816128aa565b9050919050565b7f434d4f0000000000000000000000000000000000000000000000000000000000600082015250565b60006129236003836123c5565b915061292e826128ed565b602082019050919050565b6000602082019050818103600083015261295281612916565b9050919050565b7f41445649534f5200000000000000000000000000000000000000000000000000600082015250565b600061298f6007836123c5565b915061299a82612959565b602082019050919050565b600060208201905081810360008301526129be81612982565b9050919050565b7f484f4c4445520000000000000000000000000000000000000000000000000000600082015250565b60006129fb6006836123c5565b9150612a06826129c5565b602082019050919050565b60006020820190508181036000830152612a2a816129ee565b9050919050565b7f4e4f545345540000000000000000000000000000000000000000000000000000600082015250565b6000612a676006836123c5565b9150612a7282612a31565b602082019050919050565b60006020820190508181036000830152612a9681612a5a565b9050919050565b600082825260208201905092915050565b6000612ab982612081565b612ac38185612a9d565b9350612ad381856020860161209d565b612adc81611d7f565b840191505092915050565b612af081611ebb565b82525050565b612aff81611f11565b82525050565b60006060820190508181036000830152612b1f8186612aae565b9050612b2e6020830185612ae7565b612b3b6040830184612af6565b949350505050565b600080fd5b600080fd5b6000612b60612b5b84611e0b565b611df0565b905082815260208101848484011115612b7c57612b7b611d7a565b5b612b8784828561209d565b509392505050565b600082601f830112612ba457612ba3611d75565b5b8151612bb4848260208601612b4d565b91505092915050565b600081519050612bcc81611ec5565b92915050565b600081519050612be181611f23565b92915050565b600060608284031215612bfd57612bfc612b43565b5b612c076060611df0565b9050600082015167ffffffffffffffff811115612c2757612c26612b48565b5b612c3384828501612b8f565b6000830152506020612c4784828501612bbd565b6020830152506040612c5b84828501612bd2565b60408301525092915050565b600060208284031215612c7d57612c7c611cb0565b5b600082015167ffffffffffffffff811115612c9b57612c9a611cb5565b5b612ca784828501612be7565b91505092915050565b7f4f776e61626c653a206e6577206f776e657220697320746865207a65726f206160008201527f6464726573730000000000000000000000000000000000000000000000000000602082015250565b6000612d0c6026836123c5565b9150612d1782612cb0565b604082019050919050565b60006020820190508181036000830152612d3b81612cff565b9050919050565b600081905092915050565b7f416363657373436f6e74726f6c3a206163636f756e7420000000000000000000600082015250565b6000612d83601783612d42565b9150612d8e82612d4d565b601782019050919050565b6000612da482612081565b612dae8185612d42565b9350612dbe81856020860161209d565b80840191505092915050565b7f206973206d697373696e6720726f6c6520000000000000000000000000000000600082015250565b6000612e00601183612d42565b9150612e0b82612dca565b601182019050919050565b6000612e2182612d76565b9150612e2d8285612d99565b9150612e3882612df3565b9150612e448284612d99565b91508190509392505050565b6000612e5b82612081565b612e6581856123c5565b9350612e7581856020860161209d565b612e7e81611d7f565b840191505092915050565b60006020820190508181036000830152612ea38184612e50565b905092915050565b7f4e487b7100000000000000000000000000000000000000000000000000000000600052601160045260246000fd5b6000612ee5826121c1565b9150612ef0836121c1565b9250817fffffffffffffffffffffffffffffffffffffffffffffffffffffffffffffffff0483118215151615612f2957612f28612eab565b5b828202905092915050565b6000612f3f826121c1565b9150612f4a836121c1565b9250827fffffffffffffffffffffffffffffffffffffffffffffffffffffffffffffffff03821115612f7f57612f7e612eab565b5b828201905092915050565b6000612f95826121c1565b91506000821415612fa957612fa8612eab565b5b600182039050919050565b7f537472696e67733a20686578206c656e67746820696e73756666696369656e74600082015250565b6000612fea6020836123c5565b9150612ff582612fb4565b602082019050919050565b6000602082019050818103600083015261301981612fdd565b9050919050565b600061302b826121c1565b9150613036836121c1565b92508282101561304957613048612eab565b5b828203905092915050565b7f4e487b7100000000000000000000000000000000000000000000000000000000600052603160045260246000fdfea2646970667358221220e34b30115b946cfe2c655f059e2c48a403c1f93b8e654727ffb5d4c90edd12fd64736f6c63430008090033",
  "immutableReferences": {},
  "source": "//SPDX-License-Identifier: MIT\npragma solidity 0.8.9;\n\nimport \"@openzeppelin/contracts/access/Ownable.sol\";\nimport \"../Libraries/Founders.sol\";\nimport \"./ACLController.sol\";\n\ncontract FoundersController is Ownable, ACLController {\n\n    event DirectorAdded(address indexed _founderAddress, uint256 _dedicatedAmount, uint timestamp);\n    event DirectorRemoved(address indexed _directorRemoved, string reason, uint timestamp);\n    event PercentFundsPerDirectorChanged(uint256 _oldValue, uint256 _newValue);\n\n    Founders.founderData private _data;\n    mapping(address => Founders.founderData) private _foundersDirectory;\n\n    bytes32 public constant NOTSET_ROLE = keccak256(abi.encode(\"NOTSET\"));\n    uint256 private DedicatedPercentForDirector = 1; // 1% per director will be set\n\n    function AddDirector(string memory name, bytes32  roles, address wallet) public onlyOwner {\n\n    }\n\n    function PercentFundsPerDirector() public view virtual returns (uint256) {\n        return DedicatedPercentForDirector;\n    }\n\n    function ChangePercentFundsPerDirector(uint256 newValue) public onlyOwner {\n        uint256 oldValue = DedicatedPercentForDirector;\n            DedicatedPercentForDirector = newValue;\n        emit PercentFundsPerDirectorChanged(oldValue, newValue);\n    }\n\n\n    function _addNewDirector(address  _founderAddress, uint256 _dedicatedAmount, Founders.founderData memory __data) private onlyOwner {\n        _foundersDirectory[_founderAddress] = __data;\n\n    }\n\n    function _initNewDirector(string memory name, bytes32  roles, address wallet) public onlyOwner {\n        _data = Founders._createFounder(name, roles, wallet);\n    }\n\n    function _resetData() private onlyOwner {\n        _data.name = \"\";\n        _data.roles = NOTSET_ROLE;\n        _data.wallet = address(0x0000000000000000000000000000000000000000);\n    }\n\n}",
  "sourcePath": "/Users/nicolascloutier/Documents/GitHub/akapz-dao/chain/contracts/Controllers/FoundersController.sol",
  "compiler": {
    "name": "solc",
    "version": "0.8.9+commit.e5eed63a.Emscripten.clang"
  },
  "schemaVersion": "3.4.3",
  "updatedAt": "2022-05-16T16:01:01.275Z",
  "devdoc": {
    "kind": "dev",
    "methods": {
      "getRoleAdmin(bytes32)": {
        "details": "Returns the admin role that controls `role`. See {grantRole} and {revokeRole}. To change a role's admin, use {_setRoleAdmin}."
      },
      "getRoleMember(bytes32,uint256)": {
        "details": "Returns one of the accounts that have `role`. `index` must be a value between 0 and {getRoleMemberCount}, non-inclusive. Role bearers are not sorted in any particular way, and their ordering may change at any point. WARNING: When using {getRoleMember} and {getRoleMemberCount}, make sure you perform all queries on the same block. See the following https://forum.openzeppelin.com/t/iterating-over-elements-on-enumerableset-in-openzeppelin-contracts/2296[forum post] for more information."
      },
      "getRoleMemberCount(bytes32)": {
        "details": "Returns the number of accounts that have `role`. Can be used together with {getRoleMember} to enumerate all bearers of a role."
      },
      "grantRole(bytes32,address)": {
        "details": "Grants `role` to `account`. If `account` had not been already granted `role`, emits a {RoleGranted} event. Requirements: - the caller must have ``role``'s admin role."
      },
      "hasRole(bytes32,address)": {
        "details": "Returns `true` if `account` has been granted `role`."
      },
      "owner()": {
        "details": "Returns the address of the current owner."
      },
      "renounceOwnership()": {
        "details": "Leaves the contract without owner. It will not be possible to call `onlyOwner` functions anymore. Can only be called by the current owner. NOTE: Renouncing ownership will leave the contract without an owner, thereby removing any functionality that is only available to the owner."
      },
      "renounceRole(bytes32,address)": {
        "details": "Revokes `role` from the calling account. Roles are often managed via {grantRole} and {revokeRole}: this function's purpose is to provide a mechanism for accounts to lose their privileges if they are compromised (such as when a trusted device is misplaced). If the calling account had been revoked `role`, emits a {RoleRevoked} event. Requirements: - the caller must be `account`."
      },
      "revokeRole(bytes32,address)": {
        "details": "Revokes `role` from `account`. If `account` had been granted `role`, emits a {RoleRevoked} event. Requirements: - the caller must have ``role``'s admin role."
      },
      "supportsInterface(bytes4)": {
        "details": "See {IERC165-supportsInterface}."
      },
      "transferOwnership(address)": {
        "details": "Transfers ownership of the contract to a new account (`newOwner`). Can only be called by the current owner."
      }
    },
    "version": 1
  },
  "userdoc": {
    "kind": "user",
    "methods": {},
    "version": 1
  }
}