{
  "contractName": "Founders",
  "abi": [
    {
      "inputs": [],
      "name": "ROLE_ADVISOR",
      "outputs": [
        {
          "internalType": "bytes32",
          "name": "",
          "type": "bytes32"
        }
      ],
      "stateMutability": "view",
      "type": "function"
    },
    {
      "inputs": [],
      "name": "ROLE_CEO",
      "outputs": [
        {
          "internalType": "bytes32",
          "name": "",
          "type": "bytes32"
        }
      ],
      "stateMutability": "view",
      "type": "function"
    },
    {
      "inputs": [],
      "name": "ROLE_CFO",
      "outputs": [
        {
          "internalType": "bytes32",
          "name": "",
          "type": "bytes32"
        }
      ],
      "stateMutability": "view",
      "type": "function"
    },
    {
      "inputs": [],
      "name": "ROLE_CMO",
      "outputs": [
        {
          "internalType": "bytes32",
          "name": "",
          "type": "bytes32"
        }
      ],
      "stateMutability": "view",
      "type": "function"
    },
    {
      "inputs": [],
      "name": "ROLE_COO",
      "outputs": [
        {
          "internalType": "bytes32",
          "name": "",
          "type": "bytes32"
        }
      ],
      "stateMutability": "view",
      "type": "function"
    },
    {
      "inputs": [],
      "name": "ROLE_CTO",
      "outputs": [
        {
          "internalType": "bytes32",
          "name": "",
          "type": "bytes32"
        }
      ],
      "stateMutability": "view",
      "type": "function"
    },
    {
      "inputs": [],
      "name": "ROLE_PARTNER",
      "outputs": [
        {
          "internalType": "bytes32",
          "name": "",
          "type": "bytes32"
        }
      ],
      "stateMutability": "view",
      "type": "function"
    },
    {
      "inputs": [
        {
          "internalType": "string",
          "name": "name",
          "type": "string"
        },
        {
          "internalType": "bytes32",
          "name": "roles",
          "type": "bytes32"
        },
        {
          "internalType": "address",
          "name": "wallet",
          "type": "address"
        }
      ],
      "name": "_createFounder",
      "outputs": [
        {
          "components": [
            {
              "internalType": "string",
              "name": "name",
              "type": "string"
            },
            {
              "internalType": "bytes32",
              "name": "roles",
              "type": "bytes32"
            },
            {
              "internalType": "address",
              "name": "wallet",
              "type": "address"
            }
          ],
          "internalType": "struct Founders.founderData",
          "name": "",
          "type": "tuple"
        }
      ],
      "stateMutability": "pure",
      "type": "function"
    },
    {
      "inputs": [
        {
          "internalType": "bytes32",
          "name": "role",
          "type": "bytes32"
        }
      ],
      "name": "_roleToString",
      "outputs": [
        {
          "internalType": "string",
          "name": "",
          "type": "string"
        }
      ],
      "stateMutability": "pure",
      "type": "function"
    }
  ],
  "bytecode": "0x610dd4610053600b82828239805160001a607314610046577f4e487b7100000000000000000000000000000000000000000000000000000000600052600060045260246000fd5b30600052607381538281f3fe730000000000000000000000000000000000000000301460806040526004361061009d5760003560e01c8063b91c6c2611610070578063b91c6c261461012c578063bac9dbab1461014a578063d1f8a4c114610168578063e23f2a1d14610186578063fb76a5a7146101a45761009d565b80632a051f00146100a257806342898745146100c057806364155547146100f05780637708ea1d1461010e575b600080fd5b6100aa6101d4565b6040516100b7919061067a565b60405180910390f35b6100da60048036038101906100d59190610879565b6101fc565b6040516100e791906109de565b60405180910390f35b6100f861023e565b604051610105919061067a565b60405180910390f35b610116610266565b604051610123919061067a565b60405180910390f35b61013461028e565b604051610141919061067a565b60405180910390f35b6101526102b6565b60405161015f919061067a565b60405180910390f35b6101706102de565b60405161017d919061067a565b60405180910390f35b61018e610306565b60405161019b919061067a565b60405180910390f35b6101be60048036038101906101b99190610a00565b61032e565b6040516101cb9190610a77565b60405180910390f35b6040516020016101e390610af6565b6040516020818303038152906040528051906020012081565b610204610627565b60405180606001604052808581526020018481526020018373ffffffffffffffffffffffffffffffffffffffff1681525090509392505050565b60405160200161024d90610b62565b6040516020818303038152906040528051906020012081565b60405160200161027590610bce565b6040516020818303038152906040528051906020012081565b60405160200161029d90610c3a565b6040516020818303038152906040528051906020012081565b6040516020016102c590610ca6565b6040516020818303038152906040528051906020012081565b6040516020016102ed90610d12565b6040516020818303038152906040528051906020012081565b60405160200161031590610d7e565b6040516020818303038152906040528051906020012081565b606060405160200161033f90610bce565b60405160208183030381529060405280519060200120821415610399576040518060400160405280600381526020017f43454f00000000000000000000000000000000000000000000000000000000008152509050610622565b6040516020016103a890610d7e565b60405160208183030381529060405280519060200120821415610402576040518060400160405280600381526020017f43464f00000000000000000000000000000000000000000000000000000000008152509050610622565b60405160200161041190610af6565b6040516020818303038152906040528051906020012082141561046b576040518060400160405280600381526020017f43544f00000000000000000000000000000000000000000000000000000000008152509050610622565b60405160200161047a90610ca6565b604051602081830303815290604052805190602001208214156104d4576040518060400160405280600381526020017f434f4f00000000000000000000000000000000000000000000000000000000008152509050610622565b6040516020016104e390610c3a565b6040516020818303038152906040528051906020012082141561053d576040518060400160405280600381526020017f434d4f00000000000000000000000000000000000000000000000000000000008152509050610622565b60405160200161054c90610d12565b604051602081830303815290604052805190602001208214156105a6576040518060400160405280600781526020017f41445649534f52000000000000000000000000000000000000000000000000008152509050610622565b6040516020016105b590610b62565b6040516020818303038152906040528051906020012082141561060f576040518060400160405280600781526020017f504152544e4552000000000000000000000000000000000000000000000000008152509050610622565b6040518060200160405280600081525090505b919050565b60405180606001604052806060815260200160008019168152602001600073ffffffffffffffffffffffffffffffffffffffff1681525090565b6000819050919050565b61067481610661565b82525050565b600060208201905061068f600083018461066b565b92915050565b6000604051905090565b600080fd5b600080fd5b600080fd5b600080fd5b6000601f19601f8301169050919050565b7f4e487b7100000000000000000000000000000000000000000000000000000000600052604160045260246000fd5b6106fc826106b3565b810181811067ffffffffffffffff8211171561071b5761071a6106c4565b5b80604052505050565b600061072e610695565b905061073a82826106f3565b919050565b600067ffffffffffffffff82111561075a576107596106c4565b5b610763826106b3565b9050602081019050919050565b82818337600083830152505050565b600061079261078d8461073f565b610724565b9050828152602081018484840111156107ae576107ad6106ae565b5b6107b9848285610770565b509392505050565b600082601f8301126107d6576107d56106a9565b5b81356107e684826020860161077f565b91505092915050565b6107f881610661565b811461080357600080fd5b50565b600081359050610815816107ef565b92915050565b600073ffffffffffffffffffffffffffffffffffffffff82169050919050565b60006108468261081b565b9050919050565b6108568161083b565b811461086157600080fd5b50565b6000813590506108738161084d565b92915050565b6000806000606084860312156108925761089161069f565b5b600084013567ffffffffffffffff8111156108b0576108af6106a4565b5b6108bc868287016107c1565b93505060206108cd86828701610806565b92505060406108de86828701610864565b9150509250925092565b600081519050919050565b600082825260208201905092915050565b60005b83811015610922578082015181840152602081019050610907565b83811115610931576000848401525b50505050565b6000610942826108e8565b61094c81856108f3565b935061095c818560208601610904565b610965816106b3565b840191505092915050565b61097981610661565b82525050565b6109888161083b565b82525050565b600060608301600083015184820360008601526109ab8282610937565b91505060208301516109c06020860182610970565b5060408301516109d3604086018261097f565b508091505092915050565b600060208201905081810360008301526109f8818461098e565b905092915050565b600060208284031215610a1657610a1561069f565b5b6000610a2484828501610806565b91505092915050565b600082825260208201905092915050565b6000610a49826108e8565b610a538185610a2d565b9350610a63818560208601610904565b610a6c816106b3565b840191505092915050565b60006020820190508181036000830152610a918184610a3e565b905092915050565b600082825260208201905092915050565b7f43544f0000000000000000000000000000000000000000000000000000000000600082015250565b6000610ae0600383610a99565b9150610aeb82610aaa565b602082019050919050565b60006020820190508181036000830152610b0f81610ad3565b9050919050565b7f504152544e455200000000000000000000000000000000000000000000000000600082015250565b6000610b4c600783610a99565b9150610b5782610b16565b602082019050919050565b60006020820190508181036000830152610b7b81610b3f565b9050919050565b7f43454f0000000000000000000000000000000000000000000000000000000000600082015250565b6000610bb8600383610a99565b9150610bc382610b82565b602082019050919050565b60006020820190508181036000830152610be781610bab565b9050919050565b7f434d4f0000000000000000000000000000000000000000000000000000000000600082015250565b6000610c24600383610a99565b9150610c2f82610bee565b602082019050919050565b60006020820190508181036000830152610c5381610c17565b9050919050565b7f434f4f0000000000000000000000000000000000000000000000000000000000600082015250565b6000610c90600383610a99565b9150610c9b82610c5a565b602082019050919050565b60006020820190508181036000830152610cbf81610c83565b9050919050565b7f41445649534f5200000000000000000000000000000000000000000000000000600082015250565b6000610cfc600783610a99565b9150610d0782610cc6565b602082019050919050565b60006020820190508181036000830152610d2b81610cef565b9050919050565b7f43464f0000000000000000000000000000000000000000000000000000000000600082015250565b6000610d68600383610a99565b9150610d7382610d32565b602082019050919050565b60006020820190508181036000830152610d9781610d5b565b905091905056fea2646970667358221220569e3030e5f92ac02104acad8956c8ea9b33575965459bd0d01f6eb19ad69d9064736f6c63430008090033",
  "immutableReferences": {},
  "source": "// SPDX-License-Identifier: MIT\npragma solidity ^0.8.9;\n\nlibrary Founders {\n\n\n    bytes32 public constant ROLE_CEO = keccak256(abi.encode(\"CEO\"));\n    bytes32 public constant ROLE_CFO = keccak256(abi.encode(\"CFO\"));\n    bytes32 public constant ROLE_CTO = keccak256(abi.encode(\"CTO\"));\n    bytes32 public constant ROLE_COO = keccak256(abi.encode(\"COO\"));\n    bytes32 public constant ROLE_CMO = keccak256(abi.encode(\"CMO\"));\n    bytes32 public constant ROLE_ADVISOR = keccak256(abi.encode(\"ADVISOR\"));\n    bytes32 public constant ROLE_PARTNER = keccak256(abi.encode(\"PARTNER\"));\n\n    struct founderData {\n        string name;\n        bytes32 roles;\n        address wallet;\n    }\n\n    function _createFounder(string memory name, bytes32  roles, address wallet) public pure returns (founderData memory) {\n        return founderData({\n            name: name,\n            roles: roles,\n            wallet: wallet\n        });\n    }\n\n    function _roleToString(bytes32 role) public pure returns (string memory) {\n        if(role == ROLE_CEO) return \"CEO\";\n        if(role == ROLE_CFO) return \"CFO\";\n        if(role == ROLE_CTO) return \"CTO\";\n        if(role == ROLE_COO) return \"COO\";\n        if(role == ROLE_CMO) return \"CMO\";\n        if(role == ROLE_ADVISOR) return \"ADVISOR\";\n        if(role == ROLE_PARTNER) return \"PARTNER\";\n       return \"\";\n    }\n\n}",
  "sourcePath": "/Users/nicolascloutier/Documents/GitHub/akapz-dao/chain/contracts/Libraries/Founders.sol",
  "compiler": {
    "name": "solc",
    "version": "0.8.9+commit.e5eed63a.Emscripten.clang"
  },
  "schemaVersion": "3.4.3",
  "updatedAt": "2022-05-16T16:01:01.372Z",
  "devdoc": {
    "kind": "dev",
    "methods": {},
    "version": 1
  },
  "userdoc": {
    "kind": "user",
    "methods": {},
    "version": 1
  }
}