{
  "contractName": "GovernorContract",
  "abi": [
    {
      "inputs": [
        {
          "internalType": "contract ERC20Votes",
          "name": "_token",
          "type": "address"
        },
        {
          "internalType": "contract TimelockController",
          "name": "_timelock",
          "type": "address"
        },
        {
          "internalType": "uint256",
          "name": "_quorumPercentage",
          "type": "uint256"
        },
        {
          "internalType": "uint256",
          "name": "_votingPeriod",
          "type": "uint256"
        },
        {
          "internalType": "uint256",
          "name": "_votingDelay",
          "type": "uint256"
        }
      ],
      "stateMutability": "nonpayable",
      "type": "constructor"
    },
    {
      "inputs": [],
      "name": "Empty",
      "type": "error"
    },
    {
      "anonymous": false,
      "inputs": [
        {
          "indexed": false,
          "internalType": "uint256",
          "name": "proposalId",
          "type": "uint256"
        }
      ],
      "name": "ProposalCanceled",
      "type": "event"
    },
    {
      "anonymous": false,
      "inputs": [
        {
          "indexed": false,
          "internalType": "uint256",
          "name": "proposalId",
          "type": "uint256"
        },
        {
          "indexed": false,
          "internalType": "address",
          "name": "proposer",
          "type": "address"
        },
        {
          "indexed": false,
          "internalType": "address[]",
          "name": "targets",
          "type": "address[]"
        },
        {
          "indexed": false,
          "internalType": "uint256[]",
          "name": "values",
          "type": "uint256[]"
        },
        {
          "indexed": false,
          "internalType": "string[]",
          "name": "signatures",
          "type": "string[]"
        },
        {
          "indexed": false,
          "internalType": "bytes[]",
          "name": "calldatas",
          "type": "bytes[]"
        },
        {
          "indexed": false,
          "internalType": "uint256",
          "name": "startBlock",
          "type": "uint256"
        },
        {
          "indexed": false,
          "internalType": "uint256",
          "name": "endBlock",
          "type": "uint256"
        },
        {
          "indexed": false,
          "internalType": "string",
          "name": "description",
          "type": "string"
        }
      ],
      "name": "ProposalCreated",
      "type": "event"
    },
    {
      "anonymous": false,
      "inputs": [
        {
          "indexed": false,
          "internalType": "uint256",
          "name": "proposalId",
          "type": "uint256"
        }
      ],
      "name": "ProposalExecuted",
      "type": "event"
    },
    {
      "anonymous": false,
      "inputs": [
        {
          "indexed": false,
          "internalType": "uint256",
          "name": "proposalId",
          "type": "uint256"
        },
        {
          "indexed": false,
          "internalType": "uint256",
          "name": "eta",
          "type": "uint256"
        }
      ],
      "name": "ProposalQueued",
      "type": "event"
    },
    {
      "anonymous": false,
      "inputs": [
        {
          "indexed": false,
          "internalType": "uint256",
          "name": "oldQuorumNumerator",
          "type": "uint256"
        },
        {
          "indexed": false,
          "internalType": "uint256",
          "name": "newQuorumNumerator",
          "type": "uint256"
        }
      ],
      "name": "QuorumNumeratorUpdated",
      "type": "event"
    },
    {
      "anonymous": false,
      "inputs": [
        {
          "indexed": false,
          "internalType": "address",
          "name": "oldTimelock",
          "type": "address"
        },
        {
          "indexed": false,
          "internalType": "address",
          "name": "newTimelock",
          "type": "address"
        }
      ],
      "name": "TimelockChange",
      "type": "event"
    },
    {
      "anonymous": false,
      "inputs": [
        {
          "indexed": true,
          "internalType": "address",
          "name": "voter",
          "type": "address"
        },
        {
          "indexed": false,
          "internalType": "uint256",
          "name": "proposalId",
          "type": "uint256"
        },
        {
          "indexed": false,
          "internalType": "uint8",
          "name": "support",
          "type": "uint8"
        },
        {
          "indexed": false,
          "internalType": "uint256",
          "name": "weight",
          "type": "uint256"
        },
        {
          "indexed": false,
          "internalType": "string",
          "name": "reason",
          "type": "string"
        }
      ],
      "name": "VoteCast",
      "type": "event"
    },
    {
      "anonymous": false,
      "inputs": [
        {
          "indexed": true,
          "internalType": "address",
          "name": "voter",
          "type": "address"
        },
        {
          "indexed": false,
          "internalType": "uint256",
          "name": "proposalId",
          "type": "uint256"
        },
        {
          "indexed": false,
          "internalType": "uint8",
          "name": "support",
          "type": "uint8"
        },
        {
          "indexed": false,
          "internalType": "uint256",
          "name": "weight",
          "type": "uint256"
        },
        {
          "indexed": false,
          "internalType": "string",
          "name": "reason",
          "type": "string"
        },
        {
          "indexed": false,
          "internalType": "bytes",
          "name": "params",
          "type": "bytes"
        }
      ],
      "name": "VoteCastWithParams",
      "type": "event"
    },
    {
      "inputs": [],
      "name": "BALLOT_TYPEHASH",
      "outputs": [
        {
          "internalType": "bytes32",
          "name": "",
          "type": "bytes32"
        }
      ],
      "stateMutability": "view",
      "type": "function"
    },
    {
      "inputs": [],
      "name": "COUNTING_MODE",
      "outputs": [
        {
          "internalType": "string",
          "name": "",
          "type": "string"
        }
      ],
      "stateMutability": "pure",
      "type": "function"
    },
    {
      "inputs": [],
      "name": "EXTENDED_BALLOT_TYPEHASH",
      "outputs": [
        {
          "internalType": "bytes32",
          "name": "",
          "type": "bytes32"
        }
      ],
      "stateMutability": "view",
      "type": "function"
    },
    {
      "inputs": [
        {
          "internalType": "uint256",
          "name": "proposalId",
          "type": "uint256"
        },
        {
          "internalType": "uint8",
          "name": "support",
          "type": "uint8"
        }
      ],
      "name": "castVote",
      "outputs": [
        {
          "internalType": "uint256",
          "name": "",
          "type": "uint256"
        }
      ],
      "stateMutability": "nonpayable",
      "type": "function"
    },
    {
      "inputs": [
        {
          "internalType": "uint256",
          "name": "proposalId",
          "type": "uint256"
        },
        {
          "internalType": "uint8",
          "name": "support",
          "type": "uint8"
        },
        {
          "internalType": "uint8",
          "name": "v",
          "type": "uint8"
        },
        {
          "internalType": "bytes32",
          "name": "r",
          "type": "bytes32"
        },
        {
          "internalType": "bytes32",
          "name": "s",
          "type": "bytes32"
        }
      ],
      "name": "castVoteBySig",
      "outputs": [
        {
          "internalType": "uint256",
          "name": "",
          "type": "uint256"
        }
      ],
      "stateMutability": "nonpayable",
      "type": "function"
    },
    {
      "inputs": [
        {
          "internalType": "uint256",
          "name": "proposalId",
          "type": "uint256"
        },
        {
          "internalType": "uint8",
          "name": "support",
          "type": "uint8"
        },
        {
          "internalType": "string",
          "name": "reason",
          "type": "string"
        }
      ],
      "name": "castVoteWithReason",
      "outputs": [
        {
          "internalType": "uint256",
          "name": "",
          "type": "uint256"
        }
      ],
      "stateMutability": "nonpayable",
      "type": "function"
    },
    {
      "inputs": [
        {
          "internalType": "uint256",
          "name": "proposalId",
          "type": "uint256"
        },
        {
          "internalType": "uint8",
          "name": "support",
          "type": "uint8"
        },
        {
          "internalType": "string",
          "name": "reason",
          "type": "string"
        },
        {
          "internalType": "bytes",
          "name": "params",
          "type": "bytes"
        }
      ],
      "name": "castVoteWithReasonAndParams",
      "outputs": [
        {
          "internalType": "uint256",
          "name": "",
          "type": "uint256"
        }
      ],
      "stateMutability": "nonpayable",
      "type": "function"
    },
    {
      "inputs": [
        {
          "internalType": "uint256",
          "name": "proposalId",
          "type": "uint256"
        },
        {
          "internalType": "uint8",
          "name": "support",
          "type": "uint8"
        },
        {
          "internalType": "string",
          "name": "reason",
          "type": "string"
        },
        {
          "internalType": "bytes",
          "name": "params",
          "type": "bytes"
        },
        {
          "internalType": "uint8",
          "name": "v",
          "type": "uint8"
        },
        {
          "internalType": "bytes32",
          "name": "r",
          "type": "bytes32"
        },
        {
          "internalType": "bytes32",
          "name": "s",
          "type": "bytes32"
        }
      ],
      "name": "castVoteWithReasonAndParamsBySig",
      "outputs": [
        {
          "internalType": "uint256",
          "name": "",
          "type": "uint256"
        }
      ],
      "stateMutability": "nonpayable",
      "type": "function"
    },
    {
      "inputs": [
        {
          "internalType": "address[]",
          "name": "targets",
          "type": "address[]"
        },
        {
          "internalType": "uint256[]",
          "name": "values",
          "type": "uint256[]"
        },
        {
          "internalType": "bytes[]",
          "name": "calldatas",
          "type": "bytes[]"
        },
        {
          "internalType": "bytes32",
          "name": "descriptionHash",
          "type": "bytes32"
        }
      ],
      "name": "execute",
      "outputs": [
        {
          "internalType": "uint256",
          "name": "",
          "type": "uint256"
        }
      ],
      "stateMutability": "payable",
      "type": "function"
    },
    {
      "inputs": [
        {
          "internalType": "address",
          "name": "account",
          "type": "address"
        },
        {
          "internalType": "uint256",
          "name": "blockNumber",
          "type": "uint256"
        },
        {
          "internalType": "bytes",
          "name": "params",
          "type": "bytes"
        }
      ],
      "name": "getVotesWithParams",
      "outputs": [
        {
          "internalType": "uint256",
          "name": "",
          "type": "uint256"
        }
      ],
      "stateMutability": "view",
      "type": "function"
    },
    {
      "inputs": [
        {
          "internalType": "uint256",
          "name": "proposalId",
          "type": "uint256"
        },
        {
          "internalType": "address",
          "name": "account",
          "type": "address"
        }
      ],
      "name": "hasVoted",
      "outputs": [
        {
          "internalType": "bool",
          "name": "",
          "type": "bool"
        }
      ],
      "stateMutability": "view",
      "type": "function"
    },
    {
      "inputs": [
        {
          "internalType": "address[]",
          "name": "targets",
          "type": "address[]"
        },
        {
          "internalType": "uint256[]",
          "name": "values",
          "type": "uint256[]"
        },
        {
          "internalType": "bytes[]",
          "name": "calldatas",
          "type": "bytes[]"
        },
        {
          "internalType": "bytes32",
          "name": "descriptionHash",
          "type": "bytes32"
        }
      ],
      "name": "hashProposal",
      "outputs": [
        {
          "internalType": "uint256",
          "name": "",
          "type": "uint256"
        }
      ],
      "stateMutability": "pure",
      "type": "function"
    },
    {
      "inputs": [],
      "name": "name",
      "outputs": [
        {
          "internalType": "string",
          "name": "",
          "type": "string"
        }
      ],
      "stateMutability": "view",
      "type": "function"
    },
    {
      "inputs": [
        {
          "internalType": "address",
          "name": "",
          "type": "address"
        },
        {
          "internalType": "address",
          "name": "",
          "type": "address"
        },
        {
          "internalType": "uint256[]",
          "name": "",
          "type": "uint256[]"
        },
        {
          "internalType": "uint256[]",
          "name": "",
          "type": "uint256[]"
        },
        {
          "internalType": "bytes",
          "name": "",
          "type": "bytes"
        }
      ],
      "name": "onERC1155BatchReceived",
      "outputs": [
        {
          "internalType": "bytes4",
          "name": "",
          "type": "bytes4"
        }
      ],
      "stateMutability": "nonpayable",
      "type": "function"
    },
    {
      "inputs": [
        {
          "internalType": "address",
          "name": "",
          "type": "address"
        },
        {
          "internalType": "address",
          "name": "",
          "type": "address"
        },
        {
          "internalType": "uint256",
          "name": "",
          "type": "uint256"
        },
        {
          "internalType": "uint256",
          "name": "",
          "type": "uint256"
        },
        {
          "internalType": "bytes",
          "name": "",
          "type": "bytes"
        }
      ],
      "name": "onERC1155Received",
      "outputs": [
        {
          "internalType": "bytes4",
          "name": "",
          "type": "bytes4"
        }
      ],
      "stateMutability": "nonpayable",
      "type": "function"
    },
    {
      "inputs": [
        {
          "internalType": "address",
          "name": "",
          "type": "address"
        },
        {
          "internalType": "address",
          "name": "",
          "type": "address"
        },
        {
          "internalType": "uint256",
          "name": "",
          "type": "uint256"
        },
        {
          "internalType": "bytes",
          "name": "",
          "type": "bytes"
        }
      ],
      "name": "onERC721Received",
      "outputs": [
        {
          "internalType": "bytes4",
          "name": "",
          "type": "bytes4"
        }
      ],
      "stateMutability": "nonpayable",
      "type": "function"
    },
    {
      "inputs": [
        {
          "internalType": "uint256",
          "name": "proposalId",
          "type": "uint256"
        }
      ],
      "name": "proposalDeadline",
      "outputs": [
        {
          "internalType": "uint256",
          "name": "",
          "type": "uint256"
        }
      ],
      "stateMutability": "view",
      "type": "function"
    },
    {
      "inputs": [
        {
          "internalType": "uint256",
          "name": "proposalId",
          "type": "uint256"
        }
      ],
      "name": "proposalEta",
      "outputs": [
        {
          "internalType": "uint256",
          "name": "",
          "type": "uint256"
        }
      ],
      "stateMutability": "view",
      "type": "function"
    },
    {
      "inputs": [
        {
          "internalType": "uint256",
          "name": "proposalId",
          "type": "uint256"
        }
      ],
      "name": "proposalSnapshot",
      "outputs": [
        {
          "internalType": "uint256",
          "name": "",
          "type": "uint256"
        }
      ],
      "stateMutability": "view",
      "type": "function"
    },
    {
      "inputs": [],
      "name": "proposalThreshold",
      "outputs": [
        {
          "internalType": "uint256",
          "name": "",
          "type": "uint256"
        }
      ],
      "stateMutability": "view",
      "type": "function"
    },
    {
      "inputs": [
        {
          "internalType": "uint256",
          "name": "proposalId",
          "type": "uint256"
        }
      ],
      "name": "proposalVotes",
      "outputs": [
        {
          "internalType": "uint256",
          "name": "againstVotes",
          "type": "uint256"
        },
        {
          "internalType": "uint256",
          "name": "forVotes",
          "type": "uint256"
        },
        {
          "internalType": "uint256",
          "name": "abstainVotes",
          "type": "uint256"
        }
      ],
      "stateMutability": "view",
      "type": "function"
    },
    {
      "inputs": [
        {
          "internalType": "address[]",
          "name": "targets",
          "type": "address[]"
        },
        {
          "internalType": "uint256[]",
          "name": "values",
          "type": "uint256[]"
        },
        {
          "internalType": "bytes[]",
          "name": "calldatas",
          "type": "bytes[]"
        },
        {
          "internalType": "bytes32",
          "name": "descriptionHash",
          "type": "bytes32"
        }
      ],
      "name": "queue",
      "outputs": [
        {
          "internalType": "uint256",
          "name": "",
          "type": "uint256"
        }
      ],
      "stateMutability": "nonpayable",
      "type": "function"
    },
    {
      "inputs": [],
      "name": "quorumDenominator",
      "outputs": [
        {
          "internalType": "uint256",
          "name": "",
          "type": "uint256"
        }
      ],
      "stateMutability": "view",
      "type": "function"
    },
    {
      "inputs": [],
      "name": "quorumNumerator",
      "outputs": [
        {
          "internalType": "uint256",
          "name": "",
          "type": "uint256"
        }
      ],
      "stateMutability": "view",
      "type": "function"
    },
    {
      "inputs": [
        {
          "internalType": "address",
          "name": "target",
          "type": "address"
        },
        {
          "internalType": "uint256",
          "name": "value",
          "type": "uint256"
        },
        {
          "internalType": "bytes",
          "name": "data",
          "type": "bytes"
        }
      ],
      "name": "relay",
      "outputs": [],
      "stateMutability": "nonpayable",
      "type": "function"
    },
    {
      "inputs": [],
      "name": "s_votingDelay",
      "outputs": [
        {
          "internalType": "uint256",
          "name": "",
          "type": "uint256"
        }
      ],
      "stateMutability": "view",
      "type": "function"
    },
    {
      "inputs": [],
      "name": "s_votingPeriod",
      "outputs": [
        {
          "internalType": "uint256",
          "name": "",
          "type": "uint256"
        }
      ],
      "stateMutability": "view",
      "type": "function"
    },
    {
      "inputs": [],
      "name": "timelock",
      "outputs": [
        {
          "internalType": "address",
          "name": "",
          "type": "address"
        }
      ],
      "stateMutability": "view",
      "type": "function"
    },
    {
      "inputs": [],
      "name": "token",
      "outputs": [
        {
          "internalType": "contract IVotes",
          "name": "",
          "type": "address"
        }
      ],
      "stateMutability": "view",
      "type": "function"
    },
    {
      "inputs": [
        {
          "internalType": "uint256",
          "name": "newQuorumNumerator",
          "type": "uint256"
        }
      ],
      "name": "updateQuorumNumerator",
      "outputs": [],
      "stateMutability": "nonpayable",
      "type": "function"
    },
    {
      "inputs": [
        {
          "internalType": "contract TimelockController",
          "name": "newTimelock",
          "type": "address"
        }
      ],
      "name": "updateTimelock",
      "outputs": [],
      "stateMutability": "nonpayable",
      "type": "function"
    },
    {
      "inputs": [],
      "name": "version",
      "outputs": [
        {
          "internalType": "string",
          "name": "",
          "type": "string"
        }
      ],
      "stateMutability": "view",
      "type": "function"
    },
    {
      "stateMutability": "payable",
      "type": "receive"
    },
    {
      "inputs": [],
      "name": "votingDelay",
      "outputs": [
        {
          "internalType": "uint256",
          "name": "",
          "type": "uint256"
        }
      ],
      "stateMutability": "view",
      "type": "function"
    },
    {
      "inputs": [],
      "name": "votingPeriod",
      "outputs": [
        {
          "internalType": "uint256",
          "name": "",
          "type": "uint256"
        }
      ],
      "stateMutability": "view",
      "type": "function"
    },
    {
      "inputs": [
        {
          "internalType": "uint256",
          "name": "blockNumber",
          "type": "uint256"
        }
      ],
      "name": "quorum",
      "outputs": [
        {
          "internalType": "uint256",
          "name": "",
          "type": "uint256"
        }
      ],
      "stateMutability": "view",
      "type": "function"
    },
    {
      "inputs": [
        {
          "internalType": "address",
          "name": "account",
          "type": "address"
        },
        {
          "internalType": "uint256",
          "name": "blockNumber",
          "type": "uint256"
        }
      ],
      "name": "getVotes",
      "outputs": [
        {
          "internalType": "uint256",
          "name": "",
          "type": "uint256"
        }
      ],
      "stateMutability": "view",
      "type": "function"
    },
    {
      "inputs": [
        {
          "internalType": "uint256",
          "name": "proposalId",
          "type": "uint256"
        }
      ],
      "name": "state",
      "outputs": [
        {
          "internalType": "enum IGovernor.ProposalState",
          "name": "",
          "type": "uint8"
        }
      ],
      "stateMutability": "view",
      "type": "function"
    },
    {
      "inputs": [
        {
          "internalType": "address[]",
          "name": "targets",
          "type": "address[]"
        },
        {
          "internalType": "uint256[]",
          "name": "values",
          "type": "uint256[]"
        },
        {
          "internalType": "bytes[]",
          "name": "calldatas",
          "type": "bytes[]"
        },
        {
          "internalType": "string",
          "name": "description",
          "type": "string"
        }
      ],
      "name": "propose",
      "outputs": [
        {
          "internalType": "uint256",
          "name": "",
          "type": "uint256"
        }
      ],
      "stateMutability": "nonpayable",
      "type": "function"
    },
    {
      "inputs": [
        {
          "internalType": "bytes4",
          "name": "interfaceId",
          "type": "bytes4"
        }
      ],
      "name": "supportsInterface",
      "outputs": [
        {
          "internalType": "bool",
          "name": "",
          "type": "bool"
        }
      ],
      "stateMutability": "view",
      "type": "function"
    }
  ],
  "bytecode": "0x6101606040523480156200001257600080fd5b50604051620065e1380380620065e1833981810160405281019062000038919062000548565b8383866040518060400160405280601081526020017f476f7665726e6f72436f6e7472616374000000000000000000000000000000008152508062000082620001c160201b60201c565b60008280519060200120905060008280519060200120905060007f8b73c3c69bb8fe3d512ecc4cf759cc79239f7b179b0ffacaa9a75d522b39400f90508260e081815250508161010081815250504660a08181525050620000eb818484620001fe60201b60201c565b608081815250503073ffffffffffffffffffffffffffffffffffffffff1660c08173ffffffffffffffffffffffffffffffffffffffff1681525050806101208181525050505050505080600090805190602001906200014c92919062000386565b50508073ffffffffffffffffffffffffffffffffffffffff166101408173ffffffffffffffffffffffffffffffffffffffff16815250505062000195816200023a60201b60201c565b50620001a781620002dc60201b60201c565b5080600881905550816009819055505050505050620007f8565b60606040518060400160405280600181526020017f3100000000000000000000000000000000000000000000000000000000000000815250905090565b600083838346306040516020016200021b9594939291906200060d565b6040516020818303038152906040528051906020012090509392505050565b6200024a6200037d60201b60201c565b8111156200028f576040517f08c379a0000000000000000000000000000000000000000000000000000000008152600401620002869062000717565b60405180910390fd5b60006005549050816005819055507f0553476bf02ef2726e8ce5ced78d63e26e602e4a2257b1f559418e24b46339978183604051620002d092919062000739565b60405180910390a15050565b7f08f74ea46ef7894f65eabfb5e6e695de773a000b47c529ab559178069b226401600660009054906101000a900473ffffffffffffffffffffffffffffffffffffffff16826040516200033192919062000766565b60405180910390a180600660006101000a81548173ffffffffffffffffffffffffffffffffffffffff021916908373ffffffffffffffffffffffffffffffffffffffff16021790555050565b60006064905090565b8280546200039490620007c2565b90600052602060002090601f016020900481019282620003b8576000855562000404565b82601f10620003d357805160ff191683800117855562000404565b8280016001018555821562000404579182015b8281111562000403578251825591602001919060010190620003e6565b5b50905062000413919062000417565b5090565b5b808211156200043257600081600090555060010162000418565b5090565b600080fd5b600073ffffffffffffffffffffffffffffffffffffffff82169050919050565b600062000468826200043b565b9050919050565b60006200047c826200045b565b9050919050565b6200048e816200046f565b81146200049a57600080fd5b50565b600081519050620004ae8162000483565b92915050565b6000620004c1826200043b565b9050919050565b6000620004d582620004b4565b9050919050565b620004e781620004c8565b8114620004f357600080fd5b50565b6000815190506200050781620004dc565b92915050565b6000819050919050565b62000522816200050d565b81146200052e57600080fd5b50565b600081519050620005428162000517565b92915050565b600080600080600060a0868803121562000567576200056662000436565b5b600062000577888289016200049d565b95505060206200058a88828901620004f6565b94505060406200059d8882890162000531565b9350506060620005b08882890162000531565b9250506080620005c38882890162000531565b9150509295509295909350565b6000819050919050565b620005e581620005d0565b82525050565b620005f6816200050d565b82525050565b62000607816200045b565b82525050565b600060a082019050620006246000830188620005da565b620006336020830187620005da565b620006426040830186620005da565b620006516060830185620005eb565b620006606080830184620005fc565b9695505050505050565b600082825260208201905092915050565b7f476f7665726e6f72566f74657351756f72756d4672616374696f6e3a2071756f60008201527f72756d4e756d657261746f72206f7665722071756f72756d44656e6f6d696e6160208201527f746f720000000000000000000000000000000000000000000000000000000000604082015250565b6000620006ff6043836200066a565b91506200070c826200067b565b606082019050919050565b600060208201905081810360008301526200073281620006f0565b9050919050565b6000604082019050620007506000830185620005eb565b6200075f6020830184620005eb565b9392505050565b60006040820190506200077d6000830185620005fc565b6200078c6020830184620005fc565b9392505050565b7f4e487b7100000000000000000000000000000000000000000000000000000000600052602260045260246000fd5b60006002820490506001821680620007db57607f821691505b60208210811415620007f257620007f162000793565b5b50919050565b60805160a05160c05160e051610100516101205161014051615d8062000861600039600081816119700152818161243c01526125ec015260006128c101526000612903015260006128e2015260006128170152600061286d015260006128960152615d806000f3fe6080604052600436106102345760003560e01c8063725ae3dc1161012e578063c01f9e37116100ab578063deaaa7cc1161006f578063deaaa7cc1461097a578063eb9019d4146109a5578063f23a6e61146109e2578063f8ce560a14610a1f578063fc0c546a14610a5c5761027a565b8063c01f9e3714610881578063c28bc2fa146108be578063c59057e4146108e7578063d33219b414610924578063dd4e2ba51461094f5761027a565b8063a7713a70116100f2578063a7713a7014610788578063a890c910146107b3578063ab58fb8e146107dc578063b58131b014610819578063bc197c81146108445761027a565b8063725ae3dc1461067b5780637b3c71d3146106a65780637d5e81e2146106e357806397c3d334146107205780639a802a6d1461074b5761027a565b80632d63f693116101bc5780634385963211610180578063438596321461055a578063544ffc9c1461059757806354fd4d50146105d657806356781388146106015780635f398a141461063e5761027a565b80632d63f6931461044d5780632fe3e2611461048a5780633932abb1146104b55780633bccf4fd146104e05780633e4f49e61461051d5761027a565b806306fdde031161020357806306fdde031461034d578063102d7f2c14610378578063150b7a02146103a3578063160cbed7146103e05780632656227d1461041d5761027a565b806301ffc9a71461027f57806302a251a3146102bc57806303420181146102e757806306f3f9e6146103245761027a565b3661027a573073ffffffffffffffffffffffffffffffffffffffff16610258610a87565b73ffffffffffffffffffffffffffffffffffffffff161461027857600080fd5b005b600080fd5b34801561028b57600080fd5b506102a660048036038101906102a19190613505565b610a96565b6040516102b3919061354d565b60405180910390f35b3480156102c857600080fd5b506102d1610aa8565b6040516102de9190613581565b60405180910390f35b3480156102f357600080fd5b5061030e600480360381019061030991906137dd565b610ab2565b60405161031b9190613581565b60405180910390f35b34801561033057600080fd5b5061034b600480360381019061034691906138bb565b610b97565b005b34801561035957600080fd5b50610362610c93565b60405161036f9190613970565b60405180910390f35b34801561038457600080fd5b5061038d610d25565b60405161039a9190613581565b60405180910390f35b3480156103af57600080fd5b506103ca60048036038101906103c591906139f0565b610d2b565b6040516103d79190613a82565b60405180910390f35b3480156103ec57600080fd5b5061040760048036038101906104029190613d04565b610d3f565b6040516104149190613581565b60405180910390f35b61043760048036038101906104329190613d04565b611017565b6040516104449190613581565b60405180910390f35b34801561045957600080fd5b50610474600480360381019061046f91906138bb565b611164565b6040516104819190613581565b60405180910390f35b34801561049657600080fd5b5061049f6111d2565b6040516104ac9190613dce565b60405180910390f35b3480156104c157600080fd5b506104ca6111f6565b6040516104d79190613581565b60405180910390f35b3480156104ec57600080fd5b5061050760048036038101906105029190613de9565b611200565b6040516105149190613581565b60405180910390f35b34801561052957600080fd5b50610544600480360381019061053f91906138bb565b61128a565b6040516105519190613edb565b60405180910390f35b34801561056657600080fd5b50610581600480360381019061057c9190613ef6565b61129c565b60405161058e919061354d565b60405180910390f35b3480156105a357600080fd5b506105be60048036038101906105b991906138bb565b611307565b6040516105cd93929190613f36565b60405180910390f35b3480156105e257600080fd5b506105eb61133f565b6040516105f89190613970565b60405180910390f35b34801561060d57600080fd5b5061062860048036038101906106239190613f6d565b61137c565b6040516106359190613581565b60405180910390f35b34801561064a57600080fd5b5061066560048036038101906106609190613fad565b6113ad565b6040516106729190613581565b60405180910390f35b34801561068757600080fd5b50610690611417565b60405161069d9190613581565b60405180910390f35b3480156106b257600080fd5b506106cd60048036038101906106c89190614051565b61141d565b6040516106da9190613581565b60405180910390f35b3480156106ef57600080fd5b5061070a60048036038101906107059190614166565b611485565b6040516107179190613581565b60405180910390f35b34801561072c57600080fd5b5061073561149d565b6040516107429190613581565b60405180910390f35b34801561075757600080fd5b50610772600480360381019061076d919061423d565b6114a6565b60405161077f9190613581565b60405180910390f35b34801561079457600080fd5b5061079d6114bc565b6040516107aa9190613581565b60405180910390f35b3480156107bf57600080fd5b506107da60048036038101906107d591906142fc565b6114c6565b005b3480156107e857600080fd5b5061080360048036038101906107fe91906138bb565b6115c2565b6040516108109190613581565b60405180910390f35b34801561082557600080fd5b5061082e61169e565b60405161083b9190613581565b60405180910390f35b34801561085057600080fd5b5061086b60048036038101906108669190614329565b6116a3565b6040516108789190613a82565b60405180910390f35b34801561088d57600080fd5b506108a860048036038101906108a391906138bb565b6116b8565b6040516108b59190613581565b60405180910390f35b3480156108ca57600080fd5b506108e560048036038101906108e0919061444e565b611726565b005b3480156108f357600080fd5b5061090e60048036038101906109099190613d04565b61186c565b60405161091b9190613581565b60405180910390f35b34801561093057600080fd5b506109396118a8565b60405161094691906144d1565b60405180910390f35b34801561095b57600080fd5b506109646118d2565b6040516109719190613970565b60405180910390f35b34801561098657600080fd5b5061098f61190f565b60405161099c9190613dce565b60405180910390f35b3480156109b157600080fd5b506109cc60048036038101906109c791906144ec565b611933565b6040516109d99190613581565b60405180910390f35b3480156109ee57600080fd5b50610a096004803603810190610a04919061452c565b611947565b604051610a169190613a82565b60405180910390f35b348015610a2b57600080fd5b50610a466004803603810190610a4191906138bb565b61195c565b604051610a539190613581565b60405180910390f35b348015610a6857600080fd5b50610a7161196e565b604051610a7e9190614622565b60405180910390f35b6000610a91611992565b905090565b6000610aa1826119bc565b9050919050565b6000600954905090565b600080610b35610b2d7fb3b3f3b703cd84ce352197dcff232b1b5d3cfb2025ce47cf04742d0651f1af888c8c8c8c604051610aee92919061466d565b60405180910390208b80519060200120604051602001610b12959493929190614695565b60405160208183030381529060405280519060200120611a36565b868686611a50565b9050610b888a828b8b8b8080601f016020809104026020016040519081016040528093929190818152602001838380828437600081840152601f19601f820116905080830192505050505050508a611a7b565b91505098975050505050505050565b610b9f610a87565b73ffffffffffffffffffffffffffffffffffffffff16610bbd611c38565b73ffffffffffffffffffffffffffffffffffffffff1614610c13576040517f08c379a0000000000000000000000000000000000000000000000000000000008152600401610c0a90614734565b60405180910390fd5b3073ffffffffffffffffffffffffffffffffffffffff16610c32610a87565b73ffffffffffffffffffffffffffffffffffffffff1614610c87576000610c57611c40565b604051610c6592919061466d565b604051809103902090505b80610c7b6002611c4d565b14610c8557610c70565b505b610c9081611d29565b50565b606060008054610ca290614783565b80601f0160208091040260200160405190810160405280929190818152602001828054610cce90614783565b8015610d1b5780601f10610cf057610100808354040283529160200191610d1b565b820191906000526020600020905b815481529060010190602001808311610cfe57829003601f168201915b5050505050905090565b60085481565b600063150b7a0260e01b9050949350505050565b600080610d4e8686868661186c565b905060046007811115610d6457610d63613e64565b5b610d6d8261128a565b6007811115610d7f57610d7e613e64565b5b14610dbf576040517f08c379a0000000000000000000000000000000000000000000000000000000008152600401610db690614827565b60405180910390fd5b6000600660009054906101000a900473ffffffffffffffffffffffffffffffffffffffff1673ffffffffffffffffffffffffffffffffffffffff1663f27a0c926040518163ffffffff1660e01b815260040160206040518083038186803b158015610e2957600080fd5b505afa158015610e3d573d6000803e3d6000fd5b505050506040513d601f19601f82011682018060405250810190610e61919061485c565b9050600660009054906101000a900473ffffffffffffffffffffffffffffffffffffffff1673ffffffffffffffffffffffffffffffffffffffff1663b1c5f4278888886000896040518663ffffffff1660e01b8152600401610ec7959493929190614b64565b60206040518083038186803b158015610edf57600080fd5b505afa158015610ef3573d6000803e3d6000fd5b505050506040513d601f19601f82011682018060405250810190610f179190614be1565b6007600084815260200190815260200160002081905550600660009054906101000a900473ffffffffffffffffffffffffffffffffffffffff1673ffffffffffffffffffffffffffffffffffffffff16638f2a0bb0888888600089876040518763ffffffff1660e01b8152600401610f9496959493929190614c0e565b600060405180830381600087803b158015610fae57600080fd5b505af1158015610fc2573d6000803e3d6000fd5b505050507f9a2e42fd6722813d69113e7d0079d3d940171428df7373df9c7f7617cfda2892828242610ff49190614cb3565b604051611002929190614d09565b60405180910390a18192505050949350505050565b6000806110268686868661186c565b905060006110338261128a565b90506004600781111561104957611048613e64565b5b81600781111561105c5761105b613e64565b5b148061108c57506005600781111561107757611076613e64565b5b81600781111561108a57611089613e64565b5b145b6110cb576040517f08c379a00000000000000000000000000000000000000000000000000000000081526004016110c290614827565b60405180910390fd5b600180600084815260200190815260200160002060020160006101000a81548160ff0219169083151502179055507f712ae1383f79ac853f8d882153778e0260ef8f03b504e2866e0593e04d2b291f826040516111289190613581565b60405180910390a161113d8288888888611dbe565b61114a8288888888611ea2565b6111578288888888611eb6565b8192505050949350505050565b60006111c1600160008481526020019081526020016000206000016040518060200160405290816000820160009054906101000a900467ffffffffffffffff1667ffffffffffffffff1667ffffffffffffffff1681525050611f11565b67ffffffffffffffff169050919050565b7fb3b3f3b703cd84ce352197dcff232b1b5d3cfb2025ce47cf04742d0651f1af8881565b6000600854905090565b6000806112616112597f150214d74d59b7d1e90c73fc22ef3d991dd0a76b046543d4d80ab92d2a50328f898960405160200161123e93929190614d32565b60405160208183030381529060405280519060200120611a36565b868686611a50565b905061127e87828860405180602001604052806000815250611f1f565b91505095945050505050565b600061129582611f3f565b9050919050565b60006004600084815260200190815260200160002060030160008373ffffffffffffffffffffffffffffffffffffffff1673ffffffffffffffffffffffffffffffffffffffff16815260200190815260200160002060009054906101000a900460ff16905092915050565b600080600080600460008681526020019081526020016000209050806000015481600101548260020154935093509350509193909250565b60606040518060400160405280600181526020017f3100000000000000000000000000000000000000000000000000000000000000815250905090565b600080611387611c38565b90506113a484828560405180602001604052806000815250611f1f565b91505092915050565b6000806113b8611c38565b905061140b87828888888080601f016020809104026020016040519081016040528093929190818152602001838380828437600081840152601f19601f8201169050808301925050505050505087611a7b565b91505095945050505050565b60095481565b600080611428611c38565b905061147a86828787878080601f016020809104026020016040519081016040528093929190818152602001838380828437600081840152601f19601f82011690508083019250505050505050611f1f565b915050949350505050565b600061149385858585612131565b9050949350505050565b60006064905090565b60006114b3848484612438565b90509392505050565b6000600554905090565b6114ce610a87565b73ffffffffffffffffffffffffffffffffffffffff166114ec611c38565b73ffffffffffffffffffffffffffffffffffffffff1614611542576040517f08c379a000000000000000000000000000000000000000000000000000000000815260040161153990614734565b60405180910390fd5b3073ffffffffffffffffffffffffffffffffffffffff16611561610a87565b73ffffffffffffffffffffffffffffffffffffffff16146115b6576000611586611c40565b60405161159492919061466d565b604051809103902090505b806115aa6002611c4d565b146115b45761159f565b505b6115bf816124ee565b50565b600080600660009054906101000a900473ffffffffffffffffffffffffffffffffffffffff1673ffffffffffffffffffffffffffffffffffffffff1663d45c443560076000868152602001908152602001600020546040518263ffffffff1660e01b81526004016116339190613dce565b60206040518083038186803b15801561164b57600080fd5b505afa15801561165f573d6000803e3d6000fd5b505050506040513d601f19601f82011682018060405250810190611683919061485c565b9050600181146116935780611696565b60005b915050919050565b600090565b600063bc197c8160e01b905095945050505050565b6000611715600160008481526020019081526020016000206001016040518060200160405290816000820160009054906101000a900467ffffffffffffffff1667ffffffffffffffff1667ffffffffffffffff1681525050611f11565b67ffffffffffffffff169050919050565b61172e610a87565b73ffffffffffffffffffffffffffffffffffffffff1661174c611c38565b73ffffffffffffffffffffffffffffffffffffffff16146117a2576040517f08c379a000000000000000000000000000000000000000000000000000000000815260040161179990614734565b60405180910390fd5b3073ffffffffffffffffffffffffffffffffffffffff166117c1610a87565b73ffffffffffffffffffffffffffffffffffffffff16146118165760006117e6611c40565b6040516117f492919061466d565b604051809103902090505b8061180a6002611c4d565b14611814576117ff565b505b6118658483838080601f016020809104026020016040519081016040528093929190818152602001838380828437600081840152601f19601f820116905080830192505050505050508561258d565b5050505050565b6000848484846040516020016118859493929190614d69565b6040516020818303038152906040528051906020012060001c9050949350505050565b6000600660009054906101000a900473ffffffffffffffffffffffffffffffffffffffff16905090565b60606040518060400160405280602081526020017f737570706f72743d627261766f2671756f72756d3d666f722c6162737461696e815250905090565b7f150214d74d59b7d1e90c73fc22ef3d991dd0a76b046543d4d80ab92d2a50328f81565b600061193f83836125bc565b905092915050565b600063f23a6e6160e01b905095945050505050565b6000611967826125d8565b9050919050565b7f000000000000000000000000000000000000000000000000000000000000000081565b6000600660009054906101000a900473ffffffffffffffffffffffffffffffffffffffff16905090565b60007f6e665ced000000000000000000000000000000000000000000000000000000007bffffffffffffffffffffffffffffffffffffffffffffffffffffffff1916827bffffffffffffffffffffffffffffffffffffffffffffffffffffffff19161480611a2f5750611a2e826126ae565b5b9050919050565b6000611a49611a43612813565b8361292d565b9050919050565b6000806000611a6187878787612960565b91509150611a6e81612a6d565b8192505050949350505050565b60008060016000888152602001908152602001600020905060016007811115611aa757611aa6613e64565b5b611ab08861128a565b6007811115611ac257611ac1613e64565b5b14611b02576040517f08c379a0000000000000000000000000000000000000000000000000000000008152600401611af990614e35565b60405180910390fd5b6000611b6187611b51846000016040518060200160405290816000820160009054906101000a900467ffffffffffffffff1667ffffffffffffffff1667ffffffffffffffff1681525050611f11565b67ffffffffffffffff1686612438565b9050611b708888888488612c42565b600084511415611bd3578673ffffffffffffffffffffffffffffffffffffffff167fb8e138887d0aa13bab447e82de9d5c1777041ecd21ca36ba824ff1e6c07ddda489888489604051611bc69493929190614e55565b60405180910390a2611c2a565b8673ffffffffffffffffffffffffffffffffffffffff167fe2babfbac5889a709b63bb7f598b324e08bc5a4fb9ec647fb3cbc9ec07eb87128988848989604051611c21959493929190614eeb565b60405180910390a25b809250505095945050505050565b600033905090565b3660008036915091509091565b6000611c5882612e49565b15611c8f576040517f3db2a12a00000000000000000000000000000000000000000000000000000000815260040160405180910390fd5b60008260000160009054906101000a9004600f0b905082600101600082600f0b600f0b815260200190815260200160002054915082600101600082600f0b600f0b815260200190815260200160002060009055600181018360000160006101000a8154816fffffffffffffffffffffffffffffffff0219169083600f0b6fffffffffffffffffffffffffffffffff16021790555050919050565b611d3161149d565b811115611d73576040517f08c379a0000000000000000000000000000000000000000000000000000000008152600401611d6a90614fe4565b60405180910390fd5b60006005549050816005819055507f0553476bf02ef2726e8ce5ced78d63e26e602e4a2257b1f559418e24b46339978183604051611db2929190614d09565b60405180910390a15050565b3073ffffffffffffffffffffffffffffffffffffffff16611ddd610a87565b73ffffffffffffffffffffffffffffffffffffffff1614611e9b5760005b8451811015611e99573073ffffffffffffffffffffffffffffffffffffffff16858281518110611e2e57611e2d615004565b5b602002602001015173ffffffffffffffffffffffffffffffffffffffff161415611e8857611e87838281518110611e6857611e67615004565b5b6020026020010151805190602001206002612e7e90919063ffffffff16565b5b80611e9290615033565b9050611dfb565b505b5050505050565b611eaf8585858585612efa565b5050505050565b3073ffffffffffffffffffffffffffffffffffffffff16611ed5610a87565b73ffffffffffffffffffffffffffffffffffffffff1614611f0a57611efa6002612e49565b611f0957611f086002612f98565b5b5b5050505050565b600081600001519050919050565b6000611f3585858585611f30613019565b611a7b565b9050949350505050565b600080611f4b83613030565b905060046007811115611f6157611f60613e64565b5b816007811115611f7457611f73613e64565b5b14611f82578091505061212c565b6000600760008581526020019081526020016000205490506000801b811415611faf57819250505061212c565b600660009054906101000a900473ffffffffffffffffffffffffffffffffffffffff1673ffffffffffffffffffffffffffffffffffffffff16632ab0f529826040518263ffffffff1660e01b815260040161200a9190613dce565b60206040518083038186803b15801561202257600080fd5b505afa158015612036573d6000803e3d6000fd5b505050506040513d601f19601f8201168201806040525081019061205a91906150a8565b1561206a5760079250505061212c565b600660009054906101000a900473ffffffffffffffffffffffffffffffffffffffff1673ffffffffffffffffffffffffffffffffffffffff1663584b153e826040518263ffffffff1660e01b81526004016120c59190613dce565b60206040518083038186803b1580156120dd57600080fd5b505afa1580156120f1573d6000803e3d6000fd5b505050506040513d601f19601f8201168201806040525081019061211591906150a8565b156121255760059250505061212c565b6002925050505b919050565b600061213b61169e565b612158612146611c38565b60014361215391906150d5565b611933565b1015612199576040517f08c379a00000000000000000000000000000000000000000000000000000000081526004016121909061517b565b60405180910390fd5b60006121ae868686868051906020012061186c565b905084518651146121f4576040517f08c379a00000000000000000000000000000000000000000000000000000000081526004016121eb9061520d565b60405180910390fd5b8351865114612238576040517f08c379a000000000000000000000000000000000000000000000000000000000815260040161222f9061520d565b60405180910390fd5b600086511161227c576040517f08c379a000000000000000000000000000000000000000000000000000000000815260040161227390615279565b60405180910390fd5b60006001600083815260200190815260200160002090506122dc816000016040518060200160405290816000820160009054906101000a900467ffffffffffffffff1667ffffffffffffffff1667ffffffffffffffff1681525050613145565b61231b576040517f08c379a00000000000000000000000000000000000000000000000000000000081526004016123129061530b565b60405180910390fd5b600061232d6123286111f6565b61315f565b6123364361315f565b612340919061533f565b9050600061235461234f610aa8565b61315f565b8261235f919061533f565b905061237782846000016131b690919063ffffffff16565b61238d81846001016131b690919063ffffffff16565b7f7d84a6263ae0d98d3329bd7b46bb4e8d6f98cd35a7adb45c274c8b7fd5ebd5e0846123b7611c38565b8b8b8d5167ffffffffffffffff8111156123d4576123d361367c565b5b60405190808252806020026020018201604052801561240757816020015b60608152602001906001900390816123f25790505b508c88888e604051612421999897969594939291906154ba565b60405180910390a183945050505050949350505050565b60007f000000000000000000000000000000000000000000000000000000000000000073ffffffffffffffffffffffffffffffffffffffff16633a46b1a885856040518363ffffffff1660e01b815260040161249592919061556a565b60206040518083038186803b1580156124ad57600080fd5b505afa1580156124c1573d6000803e3d6000fd5b505050506040513d601f19601f820116820180604052508101906124e5919061485c565b90509392505050565b7f08f74ea46ef7894f65eabfb5e6e695de773a000b47c529ab559178069b226401600660009054906101000a900473ffffffffffffffffffffffffffffffffffffffff1682604051612541929190615593565b60405180910390a180600660006101000a81548173ffffffffffffffffffffffffffffffffffffffff021916908373ffffffffffffffffffffffffffffffffffffffff16021790555050565b60606125b3848484604051806060016040528060298152602001615d22602991396131e5565b90509392505050565b60006125d083836125cb613019565b612438565b905092915050565b60006125e261149d565b6125ea6114bc565b7f000000000000000000000000000000000000000000000000000000000000000073ffffffffffffffffffffffffffffffffffffffff16638e539e8c856040518263ffffffff1660e01b81526004016126439190613581565b60206040518083038186803b15801561265b57600080fd5b505afa15801561266f573d6000803e3d6000fd5b505050506040513d601f19601f82011682018060405250810190612693919061485c565b61269d91906155bc565b6126a79190615645565b9050919050565b6000639a802a6d60e01b630342018160e01b635f398a1460e01b7f79dd796f000000000000000000000000000000000000000000000000000000001818187bffffffffffffffffffffffffffffffffffffffffffffffffffffffff1916827bffffffffffffffffffffffffffffffffffffffffffffffffffffffff1916148061279457507f79dd796f000000000000000000000000000000000000000000000000000000007bffffffffffffffffffffffffffffffffffffffffffffffffffffffff1916827bffffffffffffffffffffffffffffffffffffffffffffffffffffffff1916145b806127fc57507f4e2312e0000000000000000000000000000000000000000000000000000000007bffffffffffffffffffffffffffffffffffffffffffffffffffffffff1916827bffffffffffffffffffffffffffffffffffffffffffffffffffffffff1916145b8061280c575061280b826132f9565b5b9050919050565b60007f000000000000000000000000000000000000000000000000000000000000000073ffffffffffffffffffffffffffffffffffffffff163073ffffffffffffffffffffffffffffffffffffffff1614801561288f57507f000000000000000000000000000000000000000000000000000000000000000046145b156128bc577f0000000000000000000000000000000000000000000000000000000000000000905061292a565b6129277f00000000000000000000000000000000000000000000000000000000000000007f00000000000000000000000000000000000000000000000000000000000000007f0000000000000000000000000000000000000000000000000000000000000000613363565b90505b90565b600082826040516020016129429291906156ee565b60405160208183030381529060405280519060200120905092915050565b6000807f7fffffffffffffffffffffffffffffff5d576e7357a4501ddfe92f46681b20a08360001c111561299b576000600391509150612a64565b601b8560ff16141580156129b35750601c8560ff1614155b156129c5576000600491509150612a64565b6000600187878787604051600081526020016040526040516129ea9493929190615725565b6020604051602081039080840390855afa158015612a0c573d6000803e3d6000fd5b505050602060405103519050600073ffffffffffffffffffffffffffffffffffffffff168173ffffffffffffffffffffffffffffffffffffffff161415612a5b57600060019250925050612a64565b80600092509250505b94509492505050565b60006004811115612a8157612a80613e64565b5b816004811115612a9457612a93613e64565b5b1415612a9f57612c3f565b60016004811115612ab357612ab2613e64565b5b816004811115612ac657612ac5613e64565b5b1415612b07576040517f08c379a0000000000000000000000000000000000000000000000000000000008152600401612afe906157b6565b60405180910390fd5b60026004811115612b1b57612b1a613e64565b5b816004811115612b2e57612b2d613e64565b5b1415612b6f576040517f08c379a0000000000000000000000000000000000000000000000000000000008152600401612b6690615822565b60405180910390fd5b60036004811115612b8357612b82613e64565b5b816004811115612b9657612b95613e64565b5b1415612bd7576040517f08c379a0000000000000000000000000000000000000000000000000000000008152600401612bce906158b4565b60405180910390fd5b600480811115612bea57612be9613e64565b5b816004811115612bfd57612bfc613e64565b5b1415612c3e576040517f08c379a0000000000000000000000000000000000000000000000000000000008152600401612c3590615946565b60405180910390fd5b5b50565b60006004600087815260200190815260200160002090508060030160008673ffffffffffffffffffffffffffffffffffffffff1673ffffffffffffffffffffffffffffffffffffffff16815260200190815260200160002060009054906101000a900460ff1615612ce8576040517f08c379a0000000000000000000000000000000000000000000000000000000008152600401612cdf906159d8565b60405180910390fd5b60018160030160008773ffffffffffffffffffffffffffffffffffffffff1673ffffffffffffffffffffffffffffffffffffffff16815260200190815260200160002060006101000a81548160ff02191690831515021790555060006002811115612d5657612d55613e64565b5b60ff168460ff161415612d835782816000016000828254612d779190614cb3565b92505081905550612e41565b60016002811115612d9757612d96613e64565b5b60ff168460ff161415612dc45782816001016000828254612db89190614cb3565b92505081905550612e40565b600280811115612dd757612dd6613e64565b5b60ff168460ff161415612e045782816002016000828254612df89190614cb3565b92505081905550612e3f565b6040517f08c379a0000000000000000000000000000000000000000000000000000000008152600401612e3690615a6a565b60405180910390fd5b5b5b505050505050565b60008160000160009054906101000a9004600f0b600f0b8260000160109054906101000a9004600f0b600f0b13159050919050565b60008260000160109054906101000a9004600f0b90508183600101600083600f0b600f0b815260200190815260200160002081905550600181018360000160106101000a8154816fffffffffffffffffffffffffffffffff0219169083600f0b6fffffffffffffffffffffffffffffffff160217905550505050565b600660009054906101000a900473ffffffffffffffffffffffffffffffffffffffff1673ffffffffffffffffffffffffffffffffffffffff1663e38335e5348686866000876040518763ffffffff1660e01b8152600401612f5f959493929190614b64565b6000604051808303818588803b158015612f7857600080fd5b505af1158015612f8c573d6000803e3d6000fd5b50505050505050505050565b60008160000160006101000a8154816fffffffffffffffffffffffffffffffff0219169083600f0b6fffffffffffffffffffffffffffffffff16021790555060008160000160106101000a8154816fffffffffffffffffffffffffffffffff0219169083600f0b6fffffffffffffffffffffffffffffffff16021790555050565b606060405180602001604052806000815250905090565b6000806001600084815260200190815260200160002090508060020160009054906101000a900460ff1615613069576007915050613140565b8060020160019054906101000a900460ff161561308a576002915050613140565b600061309584611164565b905060008114156130db576040517f08c379a00000000000000000000000000000000000000000000000000000000081526004016130d290615ad6565b60405180910390fd5b4381106130ed57600092505050613140565b60006130f8856116b8565b905043811061310d5760019350505050613140565b6131168561339d565b80156131275750613126856133e4565b5b156131385760049350505050613140565b600393505050505b919050565b600080826000015167ffffffffffffffff16149050919050565b600067ffffffffffffffff80168211156131ae576040517f08c379a00000000000000000000000000000000000000000000000000000000081526004016131a590615b68565b60405180910390fd5b819050919050565b808260000160006101000a81548167ffffffffffffffff021916908367ffffffffffffffff1602179055505050565b60608247101561322a576040517f08c379a000000000000000000000000000000000000000000000000000000000815260040161322190615bfa565b60405180910390fd5b6132338561340f565b613272576040517f08c379a000000000000000000000000000000000000000000000000000000000815260040161326990615c66565b60405180910390fd5b6000808673ffffffffffffffffffffffffffffffffffffffff16858760405161329b9190615cb7565b60006040518083038185875af1925050503d80600081146132d8576040519150601f19603f3d011682016040523d82523d6000602084013e6132dd565b606091505b50915091506132ed828286613432565b92505050949350505050565b60007f01ffc9a7000000000000000000000000000000000000000000000000000000007bffffffffffffffffffffffffffffffffffffffffffffffffffffffff1916827bffffffffffffffffffffffffffffffffffffffffffffffffffffffff1916149050919050565b6000838383463060405160200161337e959493929190615cce565b6040516020818303038152906040528051906020012090509392505050565b600080600460008481526020019081526020016000209050806002015481600101546133c99190614cb3565b6133da6133d585611164565b61195c565b1115915050919050565b6000806004600084815260200190815260200160002090508060000154816001015411915050919050565b6000808273ffffffffffffffffffffffffffffffffffffffff163b119050919050565b6060831561344257829050613492565b6000835111156134555782518084602001fd5b816040517f08c379a00000000000000000000000000000000000000000000000000000000081526004016134899190613970565b60405180910390fd5b9392505050565b6000604051905090565b600080fd5b600080fd5b60007fffffffff0000000000000000000000000000000000000000000000000000000082169050919050565b6134e2816134ad565b81146134ed57600080fd5b50565b6000813590506134ff816134d9565b92915050565b60006020828403121561351b5761351a6134a3565b5b6000613529848285016134f0565b91505092915050565b60008115159050919050565b61354781613532565b82525050565b6000602082019050613562600083018461353e565b92915050565b6000819050919050565b61357b81613568565b82525050565b60006020820190506135966000830184613572565b92915050565b6135a581613568565b81146135b057600080fd5b50565b6000813590506135c28161359c565b92915050565b600060ff82169050919050565b6135de816135c8565b81146135e957600080fd5b50565b6000813590506135fb816135d5565b92915050565b600080fd5b600080fd5b600080fd5b60008083601f84011261362657613625613601565b5b8235905067ffffffffffffffff81111561364357613642613606565b5b60208301915083600182028301111561365f5761365e61360b565b5b9250929050565b600080fd5b6000601f19601f8301169050919050565b7f4e487b7100000000000000000000000000000000000000000000000000000000600052604160045260246000fd5b6136b48261366b565b810181811067ffffffffffffffff821117156136d3576136d261367c565b5b80604052505050565b60006136e6613499565b90506136f282826136ab565b919050565b600067ffffffffffffffff8211156137125761371161367c565b5b61371b8261366b565b9050602081019050919050565b82818337600083830152505050565b600061374a613745846136f7565b6136dc565b90508281526020810184848401111561376657613765613666565b5b613771848285613728565b509392505050565b600082601f83011261378e5761378d613601565b5b813561379e848260208601613737565b91505092915050565b6000819050919050565b6137ba816137a7565b81146137c557600080fd5b50565b6000813590506137d7816137b1565b92915050565b60008060008060008060008060e0898b0312156137fd576137fc6134a3565b5b600061380b8b828c016135b3565b985050602061381c8b828c016135ec565b975050604089013567ffffffffffffffff81111561383d5761383c6134a8565b5b6138498b828c01613610565b9650965050606089013567ffffffffffffffff81111561386c5761386b6134a8565b5b6138788b828c01613779565b94505060806138898b828c016135ec565b93505060a061389a8b828c016137c8565b92505060c06138ab8b828c016137c8565b9150509295985092959890939650565b6000602082840312156138d1576138d06134a3565b5b60006138df848285016135b3565b91505092915050565b600081519050919050565b600082825260208201905092915050565b60005b83811015613922578082015181840152602081019050613907565b83811115613931576000848401525b50505050565b6000613942826138e8565b61394c81856138f3565b935061395c818560208601613904565b6139658161366b565b840191505092915050565b6000602082019050818103600083015261398a8184613937565b905092915050565b600073ffffffffffffffffffffffffffffffffffffffff82169050919050565b60006139bd82613992565b9050919050565b6139cd816139b2565b81146139d857600080fd5b50565b6000813590506139ea816139c4565b92915050565b60008060008060808587031215613a0a57613a096134a3565b5b6000613a18878288016139db565b9450506020613a29878288016139db565b9350506040613a3a878288016135b3565b925050606085013567ffffffffffffffff811115613a5b57613a5a6134a8565b5b613a6787828801613779565b91505092959194509250565b613a7c816134ad565b82525050565b6000602082019050613a976000830184613a73565b92915050565b600067ffffffffffffffff821115613ab857613ab761367c565b5b602082029050602081019050919050565b6000613adc613ad784613a9d565b6136dc565b90508083825260208201905060208402830185811115613aff57613afe61360b565b5b835b81811015613b285780613b1488826139db565b845260208401935050602081019050613b01565b5050509392505050565b600082601f830112613b4757613b46613601565b5b8135613b57848260208601613ac9565b91505092915050565b600067ffffffffffffffff821115613b7b57613b7a61367c565b5b602082029050602081019050919050565b6000613b9f613b9a84613b60565b6136dc565b90508083825260208201905060208402830185811115613bc257613bc161360b565b5b835b81811015613beb5780613bd788826135b3565b845260208401935050602081019050613bc4565b5050509392505050565b600082601f830112613c0a57613c09613601565b5b8135613c1a848260208601613b8c565b91505092915050565b600067ffffffffffffffff821115613c3e57613c3d61367c565b5b602082029050602081019050919050565b6000613c62613c5d84613c23565b6136dc565b90508083825260208201905060208402830185811115613c8557613c8461360b565b5b835b81811015613ccc57803567ffffffffffffffff811115613caa57613ca9613601565b5b808601613cb78982613779565b85526020850194505050602081019050613c87565b5050509392505050565b600082601f830112613ceb57613cea613601565b5b8135613cfb848260208601613c4f565b91505092915050565b60008060008060808587031215613d1e57613d1d6134a3565b5b600085013567ffffffffffffffff811115613d3c57613d3b6134a8565b5b613d4887828801613b32565b945050602085013567ffffffffffffffff811115613d6957613d686134a8565b5b613d7587828801613bf5565b935050604085013567ffffffffffffffff811115613d9657613d956134a8565b5b613da287828801613cd6565b9250506060613db3878288016137c8565b91505092959194509250565b613dc8816137a7565b82525050565b6000602082019050613de36000830184613dbf565b92915050565b600080600080600060a08688031215613e0557613e046134a3565b5b6000613e13888289016135b3565b9550506020613e24888289016135ec565b9450506040613e35888289016135ec565b9350506060613e46888289016137c8565b9250506080613e57888289016137c8565b9150509295509295909350565b7f4e487b7100000000000000000000000000000000000000000000000000000000600052602160045260246000fd5b60088110613ea457613ea3613e64565b5b50565b6000819050613eb582613e93565b919050565b6000613ec582613ea7565b9050919050565b613ed581613eba565b82525050565b6000602082019050613ef06000830184613ecc565b92915050565b60008060408385031215613f0d57613f0c6134a3565b5b6000613f1b858286016135b3565b9250506020613f2c858286016139db565b9150509250929050565b6000606082019050613f4b6000830186613572565b613f586020830185613572565b613f656040830184613572565b949350505050565b60008060408385031215613f8457613f836134a3565b5b6000613f92858286016135b3565b9250506020613fa3858286016135ec565b9150509250929050565b600080600080600060808688031215613fc957613fc86134a3565b5b6000613fd7888289016135b3565b9550506020613fe8888289016135ec565b945050604086013567ffffffffffffffff811115614009576140086134a8565b5b61401588828901613610565b9350935050606086013567ffffffffffffffff811115614038576140376134a8565b5b61404488828901613779565b9150509295509295909350565b6000806000806060858703121561406b5761406a6134a3565b5b6000614079878288016135b3565b945050602061408a878288016135ec565b935050604085013567ffffffffffffffff8111156140ab576140aa6134a8565b5b6140b787828801613610565b925092505092959194509250565b600067ffffffffffffffff8211156140e0576140df61367c565b5b6140e98261366b565b9050602081019050919050565b6000614109614104846140c5565b6136dc565b90508281526020810184848401111561412557614124613666565b5b614130848285613728565b509392505050565b600082601f83011261414d5761414c613601565b5b813561415d8482602086016140f6565b91505092915050565b600080600080608085870312156141805761417f6134a3565b5b600085013567ffffffffffffffff81111561419e5761419d6134a8565b5b6141aa87828801613b32565b945050602085013567ffffffffffffffff8111156141cb576141ca6134a8565b5b6141d787828801613bf5565b935050604085013567ffffffffffffffff8111156141f8576141f76134a8565b5b61420487828801613cd6565b925050606085013567ffffffffffffffff811115614225576142246134a8565b5b61423187828801614138565b91505092959194509250565b600080600060608486031215614256576142556134a3565b5b6000614264868287016139db565b9350506020614275868287016135b3565b925050604084013567ffffffffffffffff811115614296576142956134a8565b5b6142a286828701613779565b9150509250925092565b60006142b782613992565b9050919050565b60006142c9826142ac565b9050919050565b6142d9816142be565b81146142e457600080fd5b50565b6000813590506142f6816142d0565b92915050565b600060208284031215614312576143116134a3565b5b6000614320848285016142e7565b91505092915050565b600080600080600060a08688031215614345576143446134a3565b5b6000614353888289016139db565b9550506020614364888289016139db565b945050604086013567ffffffffffffffff811115614385576143846134a8565b5b61439188828901613bf5565b935050606086013567ffffffffffffffff8111156143b2576143b16134a8565b5b6143be88828901613bf5565b925050608086013567ffffffffffffffff8111156143df576143de6134a8565b5b6143eb88828901613779565b9150509295509295909350565b60008083601f84011261440e5761440d613601565b5b8235905067ffffffffffffffff81111561442b5761442a613606565b5b6020830191508360018202830111156144475761444661360b565b5b9250929050565b60008060008060608587031215614468576144676134a3565b5b6000614476878288016139db565b9450506020614487878288016135b3565b935050604085013567ffffffffffffffff8111156144a8576144a76134a8565b5b6144b4878288016143f8565b925092505092959194509250565b6144cb816139b2565b82525050565b60006020820190506144e660008301846144c2565b92915050565b60008060408385031215614503576145026134a3565b5b6000614511858286016139db565b9250506020614522858286016135b3565b9150509250929050565b600080600080600060a08688031215614548576145476134a3565b5b6000614556888289016139db565b9550506020614567888289016139db565b9450506040614578888289016135b3565b9350506060614589888289016135b3565b925050608086013567ffffffffffffffff8111156145aa576145a96134a8565b5b6145b688828901613779565b9150509295509295909350565b6000819050919050565b60006145e86145e36145de84613992565b6145c3565b613992565b9050919050565b60006145fa826145cd565b9050919050565b600061460c826145ef565b9050919050565b61461c81614601565b82525050565b60006020820190506146376000830184614613565b92915050565b600081905092915050565b6000614654838561463d565b9350614661838584613728565b82840190509392505050565b600061467a828486614648565b91508190509392505050565b61468f816135c8565b82525050565b600060a0820190506146aa6000830188613dbf565b6146b76020830187613572565b6146c46040830186614686565b6146d16060830185613dbf565b6146de6080830184613dbf565b9695505050505050565b7f476f7665726e6f723a206f6e6c79476f7665726e616e63650000000000000000600082015250565b600061471e6018836138f3565b9150614729826146e8565b602082019050919050565b6000602082019050818103600083015261474d81614711565b9050919050565b7f4e487b7100000000000000000000000000000000000000000000000000000000600052602260045260246000fd5b6000600282049050600182168061479b57607f821691505b602082108114156147af576147ae614754565b5b50919050565b7f476f7665726e6f723a2070726f706f73616c206e6f742073756363657373667560008201527f6c00000000000000000000000000000000000000000000000000000000000000602082015250565b60006148116021836138f3565b915061481c826147b5565b604082019050919050565b6000602082019050818103600083015261484081614804565b9050919050565b6000815190506148568161359c565b92915050565b600060208284031215614872576148716134a3565b5b600061488084828501614847565b91505092915050565b600081519050919050565b600082825260208201905092915050565b6000819050602082019050919050565b6148be816139b2565b82525050565b60006148d083836148b5565b60208301905092915050565b6000602082019050919050565b60006148f482614889565b6148fe8185614894565b9350614909836148a5565b8060005b8381101561493a57815161492188826148c4565b975061492c836148dc565b92505060018101905061490d565b5085935050505092915050565b600081519050919050565b600082825260208201905092915050565b6000819050602082019050919050565b61497c81613568565b82525050565b600061498e8383614973565b60208301905092915050565b6000602082019050919050565b60006149b282614947565b6149bc8185614952565b93506149c783614963565b8060005b838110156149f85781516149df8882614982565b97506149ea8361499a565b9250506001810190506149cb565b5085935050505092915050565b600081519050919050565b600082825260208201905092915050565b6000819050602082019050919050565b600081519050919050565b600082825260208201905092915050565b6000614a5882614a31565b614a628185614a3c565b9350614a72818560208601613904565b614a7b8161366b565b840191505092915050565b6000614a928383614a4d565b905092915050565b6000602082019050919050565b6000614ab282614a05565b614abc8185614a10565b935083602082028501614ace85614a21565b8060005b85811015614b0a5784840389528151614aeb8582614a86565b9450614af683614a9a565b925060208a01995050600181019050614ad2565b50829750879550505050505092915050565b6000819050919050565b60008160001b9050919050565b6000614b4e614b49614b4484614b1c565b614b26565b6137a7565b9050919050565b614b5e81614b33565b82525050565b600060a0820190508181036000830152614b7e81886148e9565b90508181036020830152614b9281876149a7565b90508181036040830152614ba68186614aa7565b9050614bb56060830185614b55565b614bc26080830184613dbf565b9695505050505050565b600081519050614bdb816137b1565b92915050565b600060208284031215614bf757614bf66134a3565b5b6000614c0584828501614bcc565b91505092915050565b600060c0820190508181036000830152614c2881896148e9565b90508181036020830152614c3c81886149a7565b90508181036040830152614c508187614aa7565b9050614c5f6060830186614b55565b614c6c6080830185613dbf565b614c7960a0830184613572565b979650505050505050565b7f4e487b7100000000000000000000000000000000000000000000000000000000600052601160045260246000fd5b6000614cbe82613568565b9150614cc983613568565b9250827fffffffffffffffffffffffffffffffffffffffffffffffffffffffffffffffff03821115614cfe57614cfd614c84565b5b828201905092915050565b6000604082019050614d1e6000830185613572565b614d2b6020830184613572565b9392505050565b6000606082019050614d476000830186613dbf565b614d546020830185613572565b614d616040830184614686565b949350505050565b60006080820190508181036000830152614d8381876148e9565b90508181036020830152614d9781866149a7565b90508181036040830152614dab8185614aa7565b9050614dba6060830184613dbf565b95945050505050565b7f476f7665726e6f723a20766f7465206e6f742063757272656e746c792061637460008201527f6976650000000000000000000000000000000000000000000000000000000000602082015250565b6000614e1f6023836138f3565b9150614e2a82614dc3565b604082019050919050565b60006020820190508181036000830152614e4e81614e12565b9050919050565b6000608082019050614e6a6000830187613572565b614e776020830186614686565b614e846040830185613572565b8181036060830152614e968184613937565b905095945050505050565b600082825260208201905092915050565b6000614ebd82614a31565b614ec78185614ea1565b9350614ed7818560208601613904565b614ee08161366b565b840191505092915050565b600060a082019050614f006000830188613572565b614f0d6020830187614686565b614f1a6040830186613572565b8181036060830152614f2c8185613937565b90508181036080830152614f408184614eb2565b90509695505050505050565b7f476f7665726e6f72566f74657351756f72756d4672616374696f6e3a2071756f60008201527f72756d4e756d657261746f72206f7665722071756f72756d44656e6f6d696e6160208201527f746f720000000000000000000000000000000000000000000000000000000000604082015250565b6000614fce6043836138f3565b9150614fd982614f4c565b606082019050919050565b60006020820190508181036000830152614ffd81614fc1565b9050919050565b7f4e487b7100000000000000000000000000000000000000000000000000000000600052603260045260246000fd5b600061503e82613568565b91507fffffffffffffffffffffffffffffffffffffffffffffffffffffffffffffffff82141561507157615070614c84565b5b600182019050919050565b61508581613532565b811461509057600080fd5b50565b6000815190506150a28161507c565b92915050565b6000602082840312156150be576150bd6134a3565b5b60006150cc84828501615093565b91505092915050565b60006150e082613568565b91506150eb83613568565b9250828210156150fe576150fd614c84565b5b828203905092915050565b7f476f7665726e6f723a2070726f706f73657220766f7465732062656c6f77207060008201527f726f706f73616c207468726573686f6c64000000000000000000000000000000602082015250565b60006151656031836138f3565b915061517082615109565b604082019050919050565b6000602082019050818103600083015261519481615158565b9050919050565b7f476f7665726e6f723a20696e76616c69642070726f706f73616c206c656e677460008201527f6800000000000000000000000000000000000000000000000000000000000000602082015250565b60006151f76021836138f3565b91506152028261519b565b604082019050919050565b60006020820190508181036000830152615226816151ea565b9050919050565b7f476f7665726e6f723a20656d7074792070726f706f73616c0000000000000000600082015250565b60006152636018836138f3565b915061526e8261522d565b602082019050919050565b6000602082019050818103600083015261529281615256565b9050919050565b7f476f7665726e6f723a2070726f706f73616c20616c726561647920657869737460008201527f7300000000000000000000000000000000000000000000000000000000000000602082015250565b60006152f56021836138f3565b915061530082615299565b604082019050919050565b60006020820190508181036000830152615324816152e8565b9050919050565b600067ffffffffffffffff82169050919050565b600061534a8261532b565b91506153558361532b565b92508267ffffffffffffffff0382111561537257615371614c84565b5b828201905092915050565b600081519050919050565b600082825260208201905092915050565b6000819050602082019050919050565b600082825260208201905092915050565b60006153c5826138e8565b6153cf81856153a9565b93506153df818560208601613904565b6153e88161366b565b840191505092915050565b60006153ff83836153ba565b905092915050565b6000602082019050919050565b600061541f8261537d565b6154298185615388565b93508360208202850161543b85615399565b8060005b85811015615477578484038952815161545885826153f3565b945061546383615407565b925060208a0199505060018101905061543f565b50829750879550505050505092915050565b60006154a461549f61549a8461532b565b6145c3565b613568565b9050919050565b6154b481615489565b82525050565b6000610120820190506154d0600083018c613572565b6154dd602083018b6144c2565b81810360408301526154ef818a6148e9565b9050818103606083015261550381896149a7565b905081810360808301526155178188615414565b905081810360a083015261552b8187614aa7565b905061553a60c08301866154ab565b61554760e08301856154ab565b81810361010083015261555a8184613937565b90509a9950505050505050505050565b600060408201905061557f60008301856144c2565b61558c6020830184613572565b9392505050565b60006040820190506155a860008301856144c2565b6155b560208301846144c2565b9392505050565b60006155c782613568565b91506155d283613568565b9250817fffffffffffffffffffffffffffffffffffffffffffffffffffffffffffffffff048311821515161561560b5761560a614c84565b5b828202905092915050565b7f4e487b7100000000000000000000000000000000000000000000000000000000600052601260045260246000fd5b600061565082613568565b915061565b83613568565b92508261566b5761566a615616565b5b828204905092915050565b600081905092915050565b7f1901000000000000000000000000000000000000000000000000000000000000600082015250565b60006156b7600283615676565b91506156c282615681565b600282019050919050565b6000819050919050565b6156e86156e3826137a7565b6156cd565b82525050565b60006156f9826156aa565b915061570582856156d7565b60208201915061571582846156d7565b6020820191508190509392505050565b600060808201905061573a6000830187613dbf565b6157476020830186614686565b6157546040830185613dbf565b6157616060830184613dbf565b95945050505050565b7f45434453413a20696e76616c6964207369676e61747572650000000000000000600082015250565b60006157a06018836138f3565b91506157ab8261576a565b602082019050919050565b600060208201905081810360008301526157cf81615793565b9050919050565b7f45434453413a20696e76616c6964207369676e6174757265206c656e67746800600082015250565b600061580c601f836138f3565b9150615817826157d6565b602082019050919050565b6000602082019050818103600083015261583b816157ff565b9050919050565b7f45434453413a20696e76616c6964207369676e6174757265202773272076616c60008201527f7565000000000000000000000000000000000000000000000000000000000000602082015250565b600061589e6022836138f3565b91506158a982615842565b604082019050919050565b600060208201905081810360008301526158cd81615891565b9050919050565b7f45434453413a20696e76616c6964207369676e6174757265202776272076616c60008201527f7565000000000000000000000000000000000000000000000000000000000000602082015250565b60006159306022836138f3565b915061593b826158d4565b604082019050919050565b6000602082019050818103600083015261595f81615923565b9050919050565b7f476f7665726e6f72566f74696e6753696d706c653a20766f746520616c72656160008201527f6479206361737400000000000000000000000000000000000000000000000000602082015250565b60006159c26027836138f3565b91506159cd82615966565b604082019050919050565b600060208201905081810360008301526159f1816159b5565b9050919050565b7f476f7665726e6f72566f74696e6753696d706c653a20696e76616c696420766160008201527f6c756520666f7220656e756d20566f7465547970650000000000000000000000602082015250565b6000615a546035836138f3565b9150615a5f826159f8565b604082019050919050565b60006020820190508181036000830152615a8381615a47565b9050919050565b7f476f7665726e6f723a20756e6b6e6f776e2070726f706f73616c206964000000600082015250565b6000615ac0601d836138f3565b9150615acb82615a8a565b602082019050919050565b60006020820190508181036000830152615aef81615ab3565b9050919050565b7f53616665436173743a2076616c756520646f65736e27742066697420696e203660008201527f3420626974730000000000000000000000000000000000000000000000000000602082015250565b6000615b526026836138f3565b9150615b5d82615af6565b604082019050919050565b60006020820190508181036000830152615b8181615b45565b9050919050565b7f416464726573733a20696e73756666696369656e742062616c616e636520666f60008201527f722063616c6c0000000000000000000000000000000000000000000000000000602082015250565b6000615be46026836138f3565b9150615bef82615b88565b604082019050919050565b60006020820190508181036000830152615c1381615bd7565b9050919050565b7f416464726573733a2063616c6c20746f206e6f6e2d636f6e7472616374000000600082015250565b6000615c50601d836138f3565b9150615c5b82615c1a565b602082019050919050565b60006020820190508181036000830152615c7f81615c43565b9050919050565b6000615c9182614a31565b615c9b818561463d565b9350615cab818560208601613904565b80840191505092915050565b6000615cc38284615c86565b915081905092915050565b600060a082019050615ce36000830188613dbf565b615cf06020830187613dbf565b615cfd6040830186613dbf565b615d0a6060830185613572565b615d1760808301846144c2565b969550505050505056fe416464726573733a206c6f772d6c6576656c2063616c6c20776974682076616c7565206661696c6564a2646970667358221220726a057fa9e681dece5b13051e71efae613c6641c8767da34eeba6c2244e738164736f6c63430008090033",
  "immutableReferences": {
    "9428": [
      {
        "length": 32,
        "start": 6512
      },
      {
        "length": 32,
        "start": 9276
      },
      {
        "length": 32,
        "start": 9708
      }
    ],
    "14034": [
      {
        "length": 32,
        "start": 10390
      }
    ],
    "14036": [
      {
        "length": 32,
        "start": 10349
      }
    ],
    "14038": [
      {
        "length": 32,
        "start": 10263
      }
    ],
    "14040": [
      {
        "length": 32,
        "start": 10466
      }
    ],
    "14042": [
      {
        "length": 32,
        "start": 10499
      }
    ],
    "14044": [
      {
        "length": 32,
        "start": 10433
      }
    ]
  },
  "source": "// SPDX-License-Identifier: MIT\npragma solidity 0.8.9;\nimport \"@openzeppelin/contracts/governance/Governor.sol\";\nimport \"@openzeppelin/contracts/governance/extensions/GovernorCountingSimple.sol\";\nimport \"@openzeppelin/contracts/governance/extensions/GovernorVotes.sol\";\nimport \"@openzeppelin/contracts/governance/extensions/GovernorVotesQuorumFraction.sol\";\nimport \"@openzeppelin/contracts/governance/extensions/GovernorTimelockControl.sol\";\nimport \"@openzeppelin/contracts/token/ERC20/extensions/ERC20Votes.sol\";\n\ncontract GovernorContract is\n  Governor,\n  GovernorCountingSimple,\n  GovernorVotes,\n  GovernorVotesQuorumFraction,\n  GovernorTimelockControl\n{\n  uint256 public s_votingDelay;\n  uint256 public s_votingPeriod;\nconstructor(\n    ERC20Votes _token,\n    TimelockController _timelock,\n    uint256 _quorumPercentage,\n    uint256 _votingPeriod,\n    uint256 _votingDelay\n  )\n    Governor(\"GovernorContract\")\n    GovernorVotes(_token)\n    GovernorVotesQuorumFraction(_quorumPercentage)\n    GovernorTimelockControl(_timelock)\n  {\n    s_votingDelay = _votingDelay;\n    s_votingPeriod = _votingPeriod;\n  }\nfunction votingDelay() public view override returns (uint256) {\n    return s_votingDelay; // 1 = 1 block\n  }\nfunction votingPeriod() public view override returns (uint256) {\n    return s_votingPeriod; // 45818 = 1 week\n  }\n// The following functions are overrides required by Solidity.\nfunction quorum(uint256 blockNumber)\n    public\n    view\n    override(IGovernor, GovernorVotesQuorumFraction)\n    returns (uint256)\n  {\n    return super.quorum(blockNumber);\n  }\nfunction getVotes(address account, uint256 blockNumber)\n    public\n    view\n    override(IGovernor, Governor)\n    returns (uint256)\n  {\n    return super.getVotes(account, blockNumber);\n  }\nfunction state(uint256 proposalId)\n    public\n    view\n    override(Governor, GovernorTimelockControl)\n    returns (ProposalState)\n  {\n    return super.state(proposalId);\n  }\nfunction propose(\n    address[] memory targets,\n    uint256[] memory values,\n    bytes[] memory calldatas,\n    string memory description\n  ) public override(Governor, IGovernor) returns (uint256) {\n    return super.propose(targets, values, calldatas, description);\n  }\nfunction _execute(\n    uint256 proposalId,\n    address[] memory targets,\n    uint256[] memory values,\n    bytes[] memory calldatas,\n    bytes32 descriptionHash\n  ) internal override(Governor, GovernorTimelockControl) {\n    super._execute(proposalId, targets, values, calldatas, descriptionHash);\n  }\nfunction _cancel(\n    address[] memory targets,\n    uint256[] memory values,\n    bytes[] memory calldatas,\n    bytes32 descriptionHash\n  ) internal override(Governor, GovernorTimelockControl) returns (uint256) {\n    return super._cancel(targets, values, calldatas, descriptionHash);\n  }\nfunction _executor() internal view override(Governor, GovernorTimelockControl) returns (address) {\n    return super._executor();\n  }\nfunction supportsInterface(bytes4 interfaceId)\n    public\n    view\n    override(Governor, GovernorTimelockControl)\n    returns (bool)\n  {\n    return super.supportsInterface(interfaceId);\n  }\n}\n",
  "sourcePath": "/Users/nicolascloutier/Documents/GitHub/akapz-dao/chain/contracts/Governance/Governor.sol",
  "compiler": {
    "name": "solc",
    "version": "0.8.9+commit.e5eed63a.Emscripten.clang"
  },
  "schemaVersion": "3.4.3",
  "updatedAt": "2022-05-16T16:01:01.329Z",
  "devdoc": {
    "errors": {
      "Empty()": [
        {
          "details": "An operation (e.g. {front}) couldn't be completed due to the queue being empty."
        }
      ]
    },
    "kind": "dev",
    "methods": {
      "COUNTING_MODE()": {
        "details": "See {IGovernor-COUNTING_MODE}."
      },
      "castVote(uint256,uint8)": {
        "details": "See {IGovernor-castVote}."
      },
      "castVoteBySig(uint256,uint8,uint8,bytes32,bytes32)": {
        "details": "See {IGovernor-castVoteBySig}."
      },
      "castVoteWithReason(uint256,uint8,string)": {
        "details": "See {IGovernor-castVoteWithReason}."
      },
      "castVoteWithReasonAndParams(uint256,uint8,string,bytes)": {
        "details": "See {IGovernor-castVoteWithReasonAndParams}."
      },
      "castVoteWithReasonAndParamsBySig(uint256,uint8,string,bytes,uint8,bytes32,bytes32)": {
        "details": "See {IGovernor-castVoteWithReasonAndParamsBySig}."
      },
      "execute(address[],uint256[],bytes[],bytes32)": {
        "details": "See {IGovernor-execute}."
      },
      "getVotesWithParams(address,uint256,bytes)": {
        "details": "See {IGovernor-getVotesWithParams}."
      },
      "hasVoted(uint256,address)": {
        "details": "See {IGovernor-hasVoted}."
      },
      "hashProposal(address[],uint256[],bytes[],bytes32)": {
        "details": "See {IGovernor-hashProposal}. The proposal id is produced by hashing the RLC encoded `targets` array, the `values` array, the `calldatas` array and the descriptionHash (bytes32 which itself is the keccak256 hash of the description string). This proposal id can be produced from the proposal data which is part of the {ProposalCreated} event. It can even be computed in advance, before the proposal is submitted. Note that the chainId and the governor address are not part of the proposal id computation. Consequently, the same proposal (with same operation and same description) will have the same id if submitted on multiple governors across multiple networks. This also means that in order to execute the same operation twice (on the same governor) the proposer will have to change the description in order to avoid proposal id conflicts."
      },
      "name()": {
        "details": "See {IGovernor-name}."
      },
      "onERC1155BatchReceived(address,address,uint256[],uint256[],bytes)": {
        "details": "See {IERC1155Receiver-onERC1155BatchReceived}."
      },
      "onERC1155Received(address,address,uint256,uint256,bytes)": {
        "details": "See {IERC1155Receiver-onERC1155Received}."
      },
      "onERC721Received(address,address,uint256,bytes)": {
        "details": "See {IERC721Receiver-onERC721Received}."
      },
      "proposalDeadline(uint256)": {
        "details": "See {IGovernor-proposalDeadline}."
      },
      "proposalEta(uint256)": {
        "details": "Public accessor to check the eta of a queued proposal"
      },
      "proposalSnapshot(uint256)": {
        "details": "See {IGovernor-proposalSnapshot}."
      },
      "proposalThreshold()": {
        "details": "Part of the Governor Bravo's interface: _\"The number of votes required in order for a voter to become a proposer\"_."
      },
      "proposalVotes(uint256)": {
        "details": "Accessor to the internal vote counts."
      },
      "queue(address[],uint256[],bytes[],bytes32)": {
        "details": "Function to queue a proposal to the timelock."
      },
      "quorumDenominator()": {
        "details": "Returns the quorum denominator. Defaults to 100, but may be overridden."
      },
      "quorumNumerator()": {
        "details": "Returns the current quorum numerator. See {quorumDenominator}."
      },
      "relay(address,uint256,bytes)": {
        "details": "Relays a transaction or function call to an arbitrary target. In cases where the governance executor is some contract other than the governor itself, like when using a timelock, this function can be invoked in a governance proposal to recover tokens or Ether that was sent to the governor contract by mistake. Note that if the executor is simply the governor itself, use of `relay` is redundant."
      },
      "timelock()": {
        "details": "Public accessor to check the address of the timelock"
      },
      "updateQuorumNumerator(uint256)": {
        "details": "Changes the quorum numerator. Emits a {QuorumNumeratorUpdated} event. Requirements: - Must be called through a governance proposal. - New numerator must be smaller or equal to the denominator."
      },
      "updateTimelock(address)": {
        "details": "Public endpoint to update the underlying timelock instance. Restricted to the timelock itself, so updates must be proposed, scheduled, and executed through governance proposals. CAUTION: It is not recommended to change the timelock while there are other queued governance proposals."
      },
      "version()": {
        "details": "See {IGovernor-version}."
      },
      "votingDelay()": {
        "details": "Delay, in number of block, between the proposal is created and the vote starts. This can be increassed to leave time for users to buy voting power, of delegate it, before the voting of a proposal starts."
      },
      "votingPeriod()": {
        "details": "Delay, in number of blocks, between the vote start and vote ends. NOTE: The {votingDelay} can delay the start of the vote. This must be considered when setting the voting duration compared to the voting delay."
      }
    },
    "version": 1
  },
  "userdoc": {
    "kind": "user",
    "methods": {
      "votingDelay()": {
        "notice": "module:user-config"
      },
      "votingPeriod()": {
        "notice": "module:user-config"
      }
    },
    "version": 1
  }
}