{
  "contractName": "Media",
  "abi": [
    {
      "inputs": [],
      "name": "MEDIA_TYPE_FREEBIE_IMAGE",
      "outputs": [
        {
          "internalType": "bytes32",
          "name": "",
          "type": "bytes32"
        }
      ],
      "stateMutability": "view",
      "type": "function"
    },
    {
      "inputs": [],
      "name": "MEDIA_TYPE_FREEBIE_STREAM",
      "outputs": [
        {
          "internalType": "bytes32",
          "name": "",
          "type": "bytes32"
        }
      ],
      "stateMutability": "view",
      "type": "function"
    },
    {
      "inputs": [],
      "name": "MEDIA_TYPE_FREEBIE_VIDEO",
      "outputs": [
        {
          "internalType": "bytes32",
          "name": "",
          "type": "bytes32"
        }
      ],
      "stateMutability": "view",
      "type": "function"
    },
    {
      "inputs": [],
      "name": "MEDIA_TYPE_IMAGE",
      "outputs": [
        {
          "internalType": "bytes32",
          "name": "",
          "type": "bytes32"
        }
      ],
      "stateMutability": "view",
      "type": "function"
    },
    {
      "inputs": [],
      "name": "MEDIA_TYPE_PPMS",
      "outputs": [
        {
          "internalType": "bytes32",
          "name": "",
          "type": "bytes32"
        }
      ],
      "stateMutability": "view",
      "type": "function"
    },
    {
      "inputs": [],
      "name": "MEDIA_TYPE_PPVS",
      "outputs": [
        {
          "internalType": "bytes32",
          "name": "",
          "type": "bytes32"
        }
      ],
      "stateMutability": "view",
      "type": "function"
    },
    {
      "inputs": [],
      "name": "MEDIA_TYPE_VIDEO",
      "outputs": [
        {
          "internalType": "bytes32",
          "name": "",
          "type": "bytes32"
        }
      ],
      "stateMutability": "view",
      "type": "function"
    },
    {
      "inputs": [
        {
          "components": [
            {
              "internalType": "string",
              "name": "mimeType",
              "type": "string"
            },
            {
              "internalType": "uint256",
              "name": "size",
              "type": "uint256"
            },
            {
              "internalType": "uint256",
              "name": "heightPx",
              "type": "uint256"
            },
            {
              "internalType": "uint256",
              "name": "widthPx",
              "type": "uint256"
            },
            {
              "internalType": "bool",
              "name": "_censoredIfNotPurchased",
              "type": "bool"
            },
            {
              "internalType": "bool",
              "name": "_isNSFW",
              "type": "bool"
            },
            {
              "internalType": "string",
              "name": "title",
              "type": "string"
            },
            {
              "internalType": "string",
              "name": "_description",
              "type": "string"
            },
            {
              "internalType": "uint256",
              "name": "_timestamp",
              "type": "uint256"
            },
            {
              "internalType": "uint256",
              "name": "_expiry",
              "type": "uint256"
            }
          ],
          "internalType": "struct Media.ImageDetails",
          "name": "_image",
          "type": "tuple"
        }
      ],
      "name": "newImage",
      "outputs": [
        {
          "components": [
            {
              "internalType": "string",
              "name": "mimeType",
              "type": "string"
            },
            {
              "internalType": "uint256",
              "name": "size",
              "type": "uint256"
            },
            {
              "internalType": "uint256",
              "name": "heightPx",
              "type": "uint256"
            },
            {
              "internalType": "uint256",
              "name": "widthPx",
              "type": "uint256"
            },
            {
              "internalType": "bool",
              "name": "_censoredIfNotPurchased",
              "type": "bool"
            },
            {
              "internalType": "bool",
              "name": "_isNSFW",
              "type": "bool"
            },
            {
              "internalType": "string",
              "name": "title",
              "type": "string"
            },
            {
              "internalType": "string",
              "name": "_description",
              "type": "string"
            },
            {
              "internalType": "uint256",
              "name": "_timestamp",
              "type": "uint256"
            },
            {
              "internalType": "uint256",
              "name": "_expiry",
              "type": "uint256"
            }
          ],
          "internalType": "struct Media.ImageDetails",
          "name": "",
          "type": "tuple"
        }
      ],
      "stateMutability": "pure",
      "type": "function"
    }
  ],
  "bytecode": "0x610aae610053600b82828239805160001a607314610046577f4e487b7100000000000000000000000000000000000000000000000000000000600052600060045260246000fd5b30600052607381538281f3fe73000000000000000000000000000000000000000030146080604052600436106100925760003560e01c80636748031c116100655780636748031c1461012157806381aebef81461013f578063c840950e1461015d578063f7af14231461017b57610092565b8063098d8f811461009757806310169a2b146100c757806314e1ec4c146100e55780631a462ed914610103575b600080fd5b6100b160048036038101906100ac91906104c0565b610199565b6040516100be91906106be565b60405180910390f35b6100cf610322565b6040516100dc91906106f9565b60405180910390f35b6100ed61034a565b6040516100fa91906106f9565b60405180910390f35b61010b610372565b60405161011891906106f9565b60405180910390f35b61012961039a565b60405161013691906106f9565b60405180910390f35b6101476103c2565b60405161015491906106f9565b60405180910390f35b6101656103ea565b60405161017291906106f9565b60405180910390f35b610183610412565b60405161019091906106f9565b60405180910390f35b6101a161043a565b6040518061014001604052808380600001906101bd9190610723565b8080601f016020809104026020016040519081016040528093929190818152602001838380828437600081840152601f19601f82011690508083019250505050505050815260200183602001358152602001836040013581526020018360600135815260200183608001602081019061023691906107b2565b151581526020018360a001602081019061025091906107b2565b15158152602001838060c001906102679190610723565b8080601f016020809104026020016040519081016040528093929190818152602001838380828437600081840152601f19601f820116905080830192505050505050508152602001838060e001906102bf9190610723565b8080601f016020809104026020016040519081016040528093929190818152602001838380828437600081840152601f19601f82011690508083019250505050505050815260200183610100013581526020018361012001358152509050919050565b6040516020016103319061083c565b6040516020818303038152906040528051906020012081565b604051602001610359906108a8565b6040516020818303038152906040528051906020012081565b60405160200161038190610914565b6040516020818303038152906040528051906020012081565b6040516020016103a990610980565b6040516020818303038152906040528051906020012081565b6040516020016103d1906109ec565b6040516020818303038152906040528051906020012081565b6040516020016103f99061083c565b6040516020818303038152906040528051906020012081565b60405160200161042190610a58565b6040516020818303038152906040528051906020012081565b60405180610140016040528060608152602001600081526020016000815260200160008152602001600015158152602001600015158152602001606081526020016060815260200160008152602001600081525090565b600080fd5b600080fd5b600080fd5b600061014082840312156104b7576104b661049b565b5b81905092915050565b6000602082840312156104d6576104d5610491565b5b600082013567ffffffffffffffff8111156104f4576104f3610496565b5b610500848285016104a0565b91505092915050565b600081519050919050565b600082825260208201905092915050565b60005b83811015610543578082015181840152602081019050610528565b83811115610552576000848401525b50505050565b6000601f19601f8301169050919050565b600061057482610509565b61057e8185610514565b935061058e818560208601610525565b61059781610558565b840191505092915050565b6000819050919050565b6105b5816105a2565b82525050565b60008115159050919050565b6105d0816105bb565b82525050565b60006101408301600083015184820360008601526105f48282610569565b915050602083015161060960208601826105ac565b50604083015161061c60408601826105ac565b50606083015161062f60608601826105ac565b50608083015161064260808601826105c7565b5060a083015161065560a08601826105c7565b5060c083015184820360c086015261066d8282610569565b91505060e083015184820360e08601526106878282610569565b91505061010083015161069e6101008601826105ac565b506101208301516106b36101208601826105ac565b508091505092915050565b600060208201905081810360008301526106d881846105d6565b905092915050565b6000819050919050565b6106f3816106e0565b82525050565b600060208201905061070e60008301846106ea565b92915050565b600080fd5b600080fd5b600080fd5b600080833560016020038436030381126107405761073f610714565b5b80840192508235915067ffffffffffffffff82111561076257610761610719565b5b60208301925060018202360383131561077e5761077d61071e565b5b509250929050565b61078f816105bb565b811461079a57600080fd5b50565b6000813590506107ac81610786565b92915050565b6000602082840312156107c8576107c7610491565b5b60006107d68482850161079d565b91505092915050565b600082825260208201905092915050565b7f50504d5300000000000000000000000000000000000000000000000000000000600082015250565b60006108266004836107df565b9150610831826107f0565b602082019050919050565b6000602082019050818103600083015261085581610819565b9050919050565b7f494d414745000000000000000000000000000000000000000000000000000000600082015250565b60006108926005836107df565b915061089d8261085c565b602082019050919050565b600060208201905081810360008301526108c181610885565b9050919050565b7f465245454249455f494d41474500000000000000000000000000000000000000600082015250565b60006108fe600d836107df565b9150610909826108c8565b602082019050919050565b6000602082019050818103600083015261092d816108f1565b9050919050565b7f465245454249455f53545245414d000000000000000000000000000000000000600082015250565b600061096a600e836107df565b915061097582610934565b602082019050919050565b600060208201905081810360008301526109998161095d565b9050919050565b7f564944454f000000000000000000000000000000000000000000000000000000600082015250565b60006109d66005836107df565b91506109e1826109a0565b602082019050919050565b60006020820190508181036000830152610a05816109c9565b9050919050565b7f465245454249455f564944454f00000000000000000000000000000000000000600082015250565b6000610a42600d836107df565b9150610a4d82610a0c565b602082019050919050565b60006020820190508181036000830152610a7181610a35565b905091905056fea2646970667358221220da1b182cd2ade766f24100c0c28d7dc605228e1e39ab14f2766cf1c1df9fb84064736f6c63430008090033",
  "immutableReferences": {},
  "source": "// SPDX-License-Identifier: MIT\npragma solidity ^0.8.9;\n\n\nlibrary Media {\n\n struct ImageDetails {\n        string mimeType;\n        uint size;\n        uint heightPx;\n        uint widthPx;\n        bool _censoredIfNotPurchased;\n        bool _isNSFW;\n        string title;\n        string _description;\n        uint _timestamp;\n        uint _expiry;\n    }\n\n     struct VideoDetails {\n        string mimeType;\n        uint size;\n        uint heightPx;\n        uint widthPx;\n        bool _hasPreview;\n        bool _isNSFW;\n        string title;\n        string _description;\n        uint durationInSeconds;\n        uint _timestamp;\n        uint _expiry;\n    }\n\n    bytes32 public constant MEDIA_TYPE_IMAGE = keccak256(abi.encode(\"IMAGE\"));\n    bytes32 public constant MEDIA_TYPE_VIDEO = keccak256(abi.encode(\"VIDEO\"));\n    bytes32 public constant MEDIA_TYPE_PPMS = keccak256(abi.encode(\"PPMS\"));\n    bytes32 public constant MEDIA_TYPE_PPVS = keccak256(abi.encode(\"PPMS\"));\n    bytes32 public constant MEDIA_TYPE_FREEBIE_IMAGE = keccak256(abi.encode(\"FREEBIE_IMAGE\"));\n    bytes32 public constant MEDIA_TYPE_FREEBIE_VIDEO = keccak256(abi.encode(\"FREEBIE_VIDEO\"));\n    bytes32 public constant MEDIA_TYPE_FREEBIE_STREAM = keccak256(abi.encode(\"FREEBIE_STREAM\"));\n\n    function newImage(ImageDetails calldata _image) external  pure returns(ImageDetails memory) {\n        return ImageDetails({\n            mimeType: _image.mimeType,\n            size: _image.size,\n            heightPx: _image.heightPx,\n            widthPx: _image.widthPx,\n            _censoredIfNotPurchased: _image._censoredIfNotPurchased,\n            _isNSFW: _image._isNSFW,\n             title: _image.title,\n              _description: _image._description,\n              _timestamp: _image._timestamp,\n              _expiry: _image._expiry\n        });\n    }\n\n}",
  "sourcePath": "/Users/nicolascloutier/Documents/GitHub/akapz-dao/chain/contracts/Libraries/Media.sol",
  "compiler": {
    "name": "solc",
    "version": "0.8.9+commit.e5eed63a.Emscripten.clang"
  },
  "schemaVersion": "3.4.3",
  "updatedAt": "2022-05-16T16:01:01.381Z",
  "devdoc": {
    "kind": "dev",
    "methods": {},
    "version": 1
  },
  "userdoc": {
    "kind": "user",
    "methods": {},
    "version": 1
  }
}