{
  "abi": [
    {
      "inputs": [
        {
          "internalType": "string",
          "name": "name",
          "type": "string"
        },
        {
          "internalType": "string",
          "name": "symbol",
          "type": "string"
        },
        {
          "internalType": "address",
          "name": "owner_",
          "type": "address"
        }
      ],
      "stateMutability": "nonpayable",
      "type": "constructor"
    },
    {
      "anonymous": false,
      "inputs": [
        {
          "indexed": false,
          "internalType": "address",
          "name": "previousAdmin",
          "type": "address"
        },
        {
          "indexed": false,
          "internalType": "address",
          "name": "newAdmin",
          "type": "address"
        }
      ],
      "name": "AdminChanged",
      "type": "event"
    },
    {
      "anonymous": false,
      "inputs": [
        {
          "indexed": true,
          "internalType": "address",
          "name": "owner",
          "type": "address"
        },
        {
          "indexed": true,
          "internalType": "address",
          "name": "spender",
          "type": "address"
        },
        {
          "indexed": false,
          "internalType": "uint256",
          "name": "value",
          "type": "uint256"
        }
      ],
      "name": "Approval",
      "type": "event"
    },
    {
      "anonymous": false,
      "inputs": [
        {
          "indexed": true,
          "internalType": "address",
          "name": "beacon",
          "type": "address"
        }
      ],
      "name": "BeaconUpgraded",
      "type": "event"
    },
    {
      "anonymous": false,
      "inputs": [
        {
          "indexed": true,
          "internalType": "address",
          "name": "delegator",
          "type": "address"
        },
        {
          "indexed": true,
          "internalType": "address",
          "name": "fromDelegate",
          "type": "address"
        },
        {
          "indexed": true,
          "internalType": "address",
          "name": "toDelegate",
          "type": "address"
        }
      ],
      "name": "DelegateChanged",
      "type": "event"
    },
    {
      "anonymous": false,
      "inputs": [
        {
          "indexed": true,
          "internalType": "address",
          "name": "delegate",
          "type": "address"
        },
        {
          "indexed": false,
          "internalType": "uint256",
          "name": "previousBalance",
          "type": "uint256"
        },
        {
          "indexed": false,
          "internalType": "uint256",
          "name": "newBalance",
          "type": "uint256"
        }
      ],
      "name": "DelegateVotesChanged",
      "type": "event"
    },
    {
      "anonymous": false,
      "inputs": [
        {
          "indexed": true,
          "internalType": "address",
          "name": "_from",
          "type": "address"
        },
        {
          "indexed": false,
          "internalType": "uint256",
          "name": "_amount",
          "type": "uint256"
        }
      ],
      "name": "Deposited",
      "type": "event"
    },
    {
      "anonymous": false,
      "inputs": [
        {
          "indexed": true,
          "internalType": "address",
          "name": "_holder",
          "type": "address"
        },
        {
          "indexed": false,
          "internalType": "uint256",
          "name": "atBlock",
          "type": "uint256"
        }
      ],
      "name": "HolderRegistered",
      "type": "event"
    },
    {
      "anonymous": false,
      "inputs": [
        {
          "indexed": false,
          "internalType": "uint8",
          "name": "version",
          "type": "uint8"
        }
      ],
      "name": "Initialized",
      "type": "event"
    },
    {
      "anonymous": false,
      "inputs": [
        {
          "indexed": false,
          "internalType": "address",
          "name": "_to",
          "type": "address"
        },
        {
          "indexed": false,
          "internalType": "uint256",
          "name": "_amount",
          "type": "uint256"
        },
        {
          "indexed": false,
          "internalType": "uint256",
          "name": "_percentOfTotal",
          "type": "uint256"
        },
        {
          "indexed": false,
          "internalType": "uint256",
          "name": "_atBlock",
          "type": "uint256"
        },
        {
          "indexed": false,
          "internalType": "uint256",
          "name": "_period",
          "type": "uint256"
        }
      ],
      "name": "LogFeeDistributed",
      "type": "event"
    },
    {
      "anonymous": false,
      "inputs": [
        {
          "indexed": true,
          "internalType": "bytes32",
          "name": "role",
          "type": "bytes32"
        },
        {
          "indexed": true,
          "internalType": "bytes32",
          "name": "previousAdminRole",
          "type": "bytes32"
        },
        {
          "indexed": true,
          "internalType": "bytes32",
          "name": "newAdminRole",
          "type": "bytes32"
        }
      ],
      "name": "RoleAdminChanged",
      "type": "event"
    },
    {
      "anonymous": false,
      "inputs": [
        {
          "indexed": true,
          "internalType": "bytes32",
          "name": "role",
          "type": "bytes32"
        },
        {
          "indexed": true,
          "internalType": "address",
          "name": "account",
          "type": "address"
        },
        {
          "indexed": true,
          "internalType": "address",
          "name": "sender",
          "type": "address"
        }
      ],
      "name": "RoleGranted",
      "type": "event"
    },
    {
      "anonymous": false,
      "inputs": [
        {
          "indexed": true,
          "internalType": "bytes32",
          "name": "role",
          "type": "bytes32"
        },
        {
          "indexed": true,
          "internalType": "address",
          "name": "account",
          "type": "address"
        },
        {
          "indexed": true,
          "internalType": "address",
          "name": "sender",
          "type": "address"
        }
      ],
      "name": "RoleRevoked",
      "type": "event"
    },
    {
      "anonymous": false,
      "inputs": [
        {
          "indexed": true,
          "internalType": "address",
          "name": "from",
          "type": "address"
        },
        {
          "indexed": true,
          "internalType": "address",
          "name": "to",
          "type": "address"
        },
        {
          "indexed": false,
          "internalType": "uint256",
          "name": "value",
          "type": "uint256"
        }
      ],
      "name": "Transfer",
      "type": "event"
    },
    {
      "anonymous": false,
      "inputs": [
        {
          "indexed": true,
          "internalType": "address",
          "name": "implementation",
          "type": "address"
        }
      ],
      "name": "Upgraded",
      "type": "event"
    },
    {
      "inputs": [],
      "name": "DEFAULT_ADMIN_ROLE",
      "outputs": [
        {
          "internalType": "bytes32",
          "name": "",
          "type": "bytes32"
        }
      ],
      "stateMutability": "view",
      "type": "function"
    },
    {
      "inputs": [],
      "name": "DOMAIN_SEPARATOR",
      "outputs": [
        {
          "internalType": "bytes32",
          "name": "",
          "type": "bytes32"
        }
      ],
      "stateMutability": "view",
      "type": "function"
    },
    {
      "inputs": [],
      "name": "UNISWAP_ROUTER_ADDRESS",
      "outputs": [
        {
          "internalType": "address",
          "name": "",
          "type": "address"
        }
      ],
      "stateMutability": "view",
      "type": "function"
    },
    {
      "inputs": [
        {
          "internalType": "address",
          "name": "",
          "type": "address"
        }
      ],
      "name": "_holders",
      "outputs": [
        {
          "internalType": "bool",
          "name": "",
          "type": "bool"
        }
      ],
      "stateMutability": "view",
      "type": "function"
    },
    {
      "inputs": [],
      "name": "_initialSupply",
      "outputs": [
        {
          "internalType": "uint256",
          "name": "",
          "type": "uint256"
        }
      ],
      "stateMutability": "view",
      "type": "function"
    },
    {
      "inputs": [
        {
          "internalType": "address",
          "name": "owner",
          "type": "address"
        },
        {
          "internalType": "address",
          "name": "spender",
          "type": "address"
        }
      ],
      "name": "allowance",
      "outputs": [
        {
          "internalType": "uint256",
          "name": "",
          "type": "uint256"
        }
      ],
      "stateMutability": "view",
      "type": "function"
    },
    {
      "inputs": [
        {
          "internalType": "address",
          "name": "spender",
          "type": "address"
        },
        {
          "internalType": "uint256",
          "name": "amount",
          "type": "uint256"
        }
      ],
      "name": "approve",
      "outputs": [
        {
          "internalType": "bool",
          "name": "",
          "type": "bool"
        }
      ],
      "stateMutability": "nonpayable",
      "type": "function"
    },
    {
      "inputs": [
        {
          "internalType": "address",
          "name": "account",
          "type": "address"
        }
      ],
      "name": "balanceOf",
      "outputs": [
        {
          "internalType": "uint256",
          "name": "",
          "type": "uint256"
        }
      ],
      "stateMutability": "view",
      "type": "function"
    },
    {
      "inputs": [
        {
          "internalType": "address",
          "name": "account",
          "type": "address"
        },
        {
          "internalType": "uint32",
          "name": "pos",
          "type": "uint32"
        }
      ],
      "name": "checkpoints",
      "outputs": [
        {
          "components": [
            {
              "internalType": "uint32",
              "name": "fromBlock",
              "type": "uint32"
            },
            {
              "internalType": "uint224",
              "name": "votes",
              "type": "uint224"
            }
          ],
          "internalType": "struct ERC20VotesUpgradeable.Checkpoint",
          "name": "",
          "type": "tuple"
        }
      ],
      "stateMutability": "view",
      "type": "function"
    },
    {
      "inputs": [],
      "name": "current_period",
      "outputs": [
        {
          "internalType": "uint256",
          "name": "",
          "type": "uint256"
        }
      ],
      "stateMutability": "view",
      "type": "function"
    },
    {
      "inputs": [],
      "name": "decimals",
      "outputs": [
        {
          "internalType": "uint8",
          "name": "",
          "type": "uint8"
        }
      ],
      "stateMutability": "view",
      "type": "function"
    },
    {
      "inputs": [
        {
          "internalType": "address",
          "name": "spender",
          "type": "address"
        },
        {
          "internalType": "uint256",
          "name": "subtractedValue",
          "type": "uint256"
        }
      ],
      "name": "decreaseAllowance",
      "outputs": [
        {
          "internalType": "bool",
          "name": "",
          "type": "bool"
        }
      ],
      "stateMutability": "nonpayable",
      "type": "function"
    },
    {
      "inputs": [
        {
          "internalType": "address",
          "name": "delegatee",
          "type": "address"
        }
      ],
      "name": "delegate",
      "outputs": [],
      "stateMutability": "nonpayable",
      "type": "function"
    },
    {
      "inputs": [
        {
          "internalType": "address",
          "name": "delegatee",
          "type": "address"
        },
        {
          "internalType": "uint256",
          "name": "nonce",
          "type": "uint256"
        },
        {
          "internalType": "uint256",
          "name": "expiry",
          "type": "uint256"
        },
        {
          "internalType": "uint8",
          "name": "v",
          "type": "uint8"
        },
        {
          "internalType": "bytes32",
          "name": "r",
          "type": "bytes32"
        },
        {
          "internalType": "bytes32",
          "name": "s",
          "type": "bytes32"
        }
      ],
      "name": "delegateBySig",
      "outputs": [],
      "stateMutability": "nonpayable",
      "type": "function"
    },
    {
      "inputs": [
        {
          "internalType": "address",
          "name": "account",
          "type": "address"
        }
      ],
      "name": "delegates",
      "outputs": [
        {
          "internalType": "address",
          "name": "",
          "type": "address"
        }
      ],
      "stateMutability": "view",
      "type": "function"
    },
    {
      "inputs": [
        {
          "internalType": "uint256",
          "name": "blockNumber",
          "type": "uint256"
        }
      ],
      "name": "getPastTotalSupply",
      "outputs": [
        {
          "internalType": "uint256",
          "name": "",
          "type": "uint256"
        }
      ],
      "stateMutability": "view",
      "type": "function"
    },
    {
      "inputs": [
        {
          "internalType": "address",
          "name": "account",
          "type": "address"
        },
        {
          "internalType": "uint256",
          "name": "blockNumber",
          "type": "uint256"
        }
      ],
      "name": "getPastVotes",
      "outputs": [
        {
          "internalType": "uint256",
          "name": "",
          "type": "uint256"
        }
      ],
      "stateMutability": "view",
      "type": "function"
    },
    {
      "inputs": [
        {
          "internalType": "bytes32",
          "name": "role",
          "type": "bytes32"
        }
      ],
      "name": "getRoleAdmin",
      "outputs": [
        {
          "internalType": "bytes32",
          "name": "",
          "type": "bytes32"
        }
      ],
      "stateMutability": "view",
      "type": "function"
    },
    {
      "inputs": [
        {
          "internalType": "bytes32",
          "name": "role",
          "type": "bytes32"
        },
        {
          "internalType": "uint256",
          "name": "index",
          "type": "uint256"
        }
      ],
      "name": "getRoleMember",
      "outputs": [
        {
          "internalType": "address",
          "name": "",
          "type": "address"
        }
      ],
      "stateMutability": "view",
      "type": "function"
    },
    {
      "inputs": [
        {
          "internalType": "bytes32",
          "name": "role",
          "type": "bytes32"
        }
      ],
      "name": "getRoleMemberCount",
      "outputs": [
        {
          "internalType": "uint256",
          "name": "",
          "type": "uint256"
        }
      ],
      "stateMutability": "view",
      "type": "function"
    },
    {
      "inputs": [
        {
          "internalType": "address",
          "name": "account",
          "type": "address"
        }
      ],
      "name": "getVotes",
      "outputs": [
        {
          "internalType": "uint256",
          "name": "",
          "type": "uint256"
        }
      ],
      "stateMutability": "view",
      "type": "function"
    },
    {
      "inputs": [
        {
          "internalType": "bytes32",
          "name": "role",
          "type": "bytes32"
        },
        {
          "internalType": "address",
          "name": "account",
          "type": "address"
        }
      ],
      "name": "grantRole",
      "outputs": [],
      "stateMutability": "nonpayable",
      "type": "function"
    },
    {
      "inputs": [
        {
          "internalType": "bytes32",
          "name": "role",
          "type": "bytes32"
        },
        {
          "internalType": "address",
          "name": "account",
          "type": "address"
        }
      ],
      "name": "hasRole",
      "outputs": [
        {
          "internalType": "bool",
          "name": "",
          "type": "bool"
        }
      ],
      "stateMutability": "view",
      "type": "function"
    },
    {
      "inputs": [
        {
          "internalType": "address",
          "name": "spender",
          "type": "address"
        },
        {
          "internalType": "uint256",
          "name": "addedValue",
          "type": "uint256"
        }
      ],
      "name": "increaseAllowance",
      "outputs": [
        {
          "internalType": "bool",
          "name": "",
          "type": "bool"
        }
      ],
      "stateMutability": "nonpayable",
      "type": "function"
    },
    {
      "inputs": [
        {
          "internalType": "string",
          "name": "name",
          "type": "string"
        },
        {
          "internalType": "string",
          "name": "symbol",
          "type": "string"
        },
        {
          "internalType": "address",
          "name": "owner_",
          "type": "address"
        }
      ],
      "name": "initialize",
      "outputs": [],
      "stateMutability": "nonpayable",
      "type": "function"
    },
    {
      "inputs": [
        {
          "internalType": "address",
          "name": "to",
          "type": "address"
        },
        {
          "internalType": "uint256",
          "name": "amount",
          "type": "uint256"
        }
      ],
      "name": "mint",
      "outputs": [],
      "stateMutability": "nonpayable",
      "type": "function"
    },
    {
      "inputs": [],
      "name": "name",
      "outputs": [
        {
          "internalType": "string",
          "name": "",
          "type": "string"
        }
      ],
      "stateMutability": "view",
      "type": "function"
    },
    {
      "inputs": [
        {
          "internalType": "address",
          "name": "owner",
          "type": "address"
        }
      ],
      "name": "nonces",
      "outputs": [
        {
          "internalType": "uint256",
          "name": "",
          "type": "uint256"
        }
      ],
      "stateMutability": "view",
      "type": "function"
    },
    {
      "inputs": [
        {
          "internalType": "address",
          "name": "account",
          "type": "address"
        }
      ],
      "name": "numCheckpoints",
      "outputs": [
        {
          "internalType": "uint32",
          "name": "",
          "type": "uint32"
        }
      ],
      "stateMutability": "view",
      "type": "function"
    },
    {
      "inputs": [
        {
          "internalType": "address",
          "name": "owner",
          "type": "address"
        },
        {
          "internalType": "address",
          "name": "spender",
          "type": "address"
        },
        {
          "internalType": "uint256",
          "name": "value",
          "type": "uint256"
        },
        {
          "internalType": "uint256",
          "name": "deadline",
          "type": "uint256"
        },
        {
          "internalType": "uint8",
          "name": "v",
          "type": "uint8"
        },
        {
          "internalType": "bytes32",
          "name": "r",
          "type": "bytes32"
        },
        {
          "internalType": "bytes32",
          "name": "s",
          "type": "bytes32"
        }
      ],
      "name": "permit",
      "outputs": [],
      "stateMutability": "nonpayable",
      "type": "function"
    },
    {
      "inputs": [],
      "name": "proxiableUUID",
      "outputs": [
        {
          "internalType": "bytes32",
          "name": "",
          "type": "bytes32"
        }
      ],
      "stateMutability": "view",
      "type": "function"
    },
    {
      "inputs": [
        {
          "internalType": "bytes32",
          "name": "role",
          "type": "bytes32"
        },
        {
          "internalType": "address",
          "name": "account",
          "type": "address"
        }
      ],
      "name": "renounceRole",
      "outputs": [],
      "stateMutability": "nonpayable",
      "type": "function"
    },
    {
      "inputs": [
        {
          "internalType": "bytes32",
          "name": "role",
          "type": "bytes32"
        },
        {
          "internalType": "address",
          "name": "account",
          "type": "address"
        }
      ],
      "name": "revokeRole",
      "outputs": [],
      "stateMutability": "nonpayable",
      "type": "function"
    },
    {
      "inputs": [],
      "name": "s_maxSupply",
      "outputs": [
        {
          "internalType": "uint256",
          "name": "",
          "type": "uint256"
        }
      ],
      "stateMutability": "view",
      "type": "function"
    },
    {
      "inputs": [
        {
          "internalType": "bytes4",
          "name": "interfaceId",
          "type": "bytes4"
        }
      ],
      "name": "supportsInterface",
      "outputs": [
        {
          "internalType": "bool",
          "name": "",
          "type": "bool"
        }
      ],
      "stateMutability": "view",
      "type": "function"
    },
    {
      "inputs": [],
      "name": "symbol",
      "outputs": [
        {
          "internalType": "string",
          "name": "",
          "type": "string"
        }
      ],
      "stateMutability": "view",
      "type": "function"
    },
    {
      "inputs": [],
      "name": "totalSupply",
      "outputs": [
        {
          "internalType": "uint256",
          "name": "",
          "type": "uint256"
        }
      ],
      "stateMutability": "view",
      "type": "function"
    },
    {
      "inputs": [
        {
          "internalType": "address",
          "name": "to",
          "type": "address"
        },
        {
          "internalType": "uint256",
          "name": "amount",
          "type": "uint256"
        }
      ],
      "name": "transfer",
      "outputs": [
        {
          "internalType": "bool",
          "name": "",
          "type": "bool"
        }
      ],
      "stateMutability": "nonpayable",
      "type": "function"
    },
    {
      "inputs": [
        {
          "internalType": "address",
          "name": "from",
          "type": "address"
        },
        {
          "internalType": "address",
          "name": "to",
          "type": "address"
        },
        {
          "internalType": "uint256",
          "name": "amount",
          "type": "uint256"
        }
      ],
      "name": "transferFrom",
      "outputs": [
        {
          "internalType": "bool",
          "name": "",
          "type": "bool"
        }
      ],
      "stateMutability": "nonpayable",
      "type": "function"
    },
    {
      "inputs": [],
      "name": "uniswapRouter",
      "outputs": [
        {
          "internalType": "contract IUniswapV2Router02",
          "name": "",
          "type": "address"
        }
      ],
      "stateMutability": "view",
      "type": "function"
    },
    {
      "inputs": [
        {
          "internalType": "address",
          "name": "newImplementation",
          "type": "address"
        }
      ],
      "name": "upgradeTo",
      "outputs": [],
      "stateMutability": "nonpayable",
      "type": "function"
    },
    {
      "inputs": [
        {
          "internalType": "address",
          "name": "newImplementation",
          "type": "address"
        },
        {
          "internalType": "bytes",
          "name": "data",
          "type": "bytes"
        }
      ],
      "name": "upgradeToAndCall",
      "outputs": [],
      "stateMutability": "payable",
      "type": "function"
    },
    {
      "stateMutability": "payable",
      "type": "receive"
    }
  ],
  "bytecode": {
    "object": "0x60a06040523060805260016101f9556101fa805460ff1916905560006101fb819055610204553480156200003257600080fd5b506040516200476538038062004765833981016040819052620000559162000ef9565b620000628383836200006b565b50505062001047565b600062000079600162000146565b9050801562000092576000805461ff0019166101001790555b61020280546001600160a01b031916737a250d5630b4cf539739df2c5dacb4c659f2488d179055620000c362000258565b620000cf8484620002b6565b620000da8462000322565b620000e462000258565b620000ef82620003ac565b620000f962000258565b801562000140576000805461ff0019169055604051600181527f7f26b83ff96e1f2b6a682f133852f6798a09c465da95921460cefb38474024989060200160405180910390a15b50505050565b60008054610100900460ff1615620001df578160ff1660011480156200017f57506200017d306200044360201b620013e71760201c565b155b620001d75760405162461bcd60e51b815260206004820152602e60248201526000805160206200470583398151915260448201526d191e481a5b9a5d1a585b1a5e995960921b60648201526084015b60405180910390fd5b506000919050565b60005460ff8084169116106200023e5760405162461bcd60e51b815260206004820152602e60248201526000805160206200470583398151915260448201526d191e481a5b9a5d1a585b1a5e995960921b6064820152608401620001ce565b506000805460ff191660ff92909216919091179055600190565b600054610100900460ff16620002b45760405162461bcd60e51b815260206004820152602b60248201526000805160206200472583398151915260448201526a6e697469616c697a696e6760a81b6064820152608401620001ce565b565b600054610100900460ff16620003125760405162461bcd60e51b815260206004820152602b60248201526000805160206200472583398151915260448201526a6e697469616c697a696e6760a81b6064820152608401620001ce565b6200031e828262000452565b5050565b600054610100900460ff166200037e5760405162461bcd60e51b815260206004820152602b60248201526000805160206200472583398151915260448201526a6e697469616c697a696e6760a81b6064820152608401620001ce565b620003a981604051806040016040528060018152602001603160f81b815250620004e060201b60201c565b50565b620003b78162000558565b62000410604051602001620003ed906020808252600d908201526c55504752414445525f524f4c4560981b604082015260600190565b6040516020818303038152906040528051906020012082620005d360201b60201c565b6a52b7d2dcc80cd2e4000000610205819055620004309060059062000f9c565b610206819055620003a9908290620005df565b6001600160a01b03163b151590565b600054610100900460ff16620004ae5760405162461bcd60e51b815260206004820152602b60248201526000805160206200472583398151915260448201526a6e697469616c697a696e6760a81b6064820152608401620001ce565b8151620004c49061013090602085019062000d90565b508051620004db9061013190602084019062000d90565b505050565b600054610100900460ff166200053c5760405162461bcd60e51b815260206004820152602b60248201526000805160206200472583398151915260448201526a6e697469616c697a696e6760a81b6064820152608401620001ce565b81516020928301208151919092012061015f9190915561016055565b6001600160a01b038116620005b05760405162461bcd60e51b815260206004820152601c60248201527f6f776e65722063616e6e6f742062652061646472657373207a65726f000000006044820152606401620001ce565b61020380546001600160a01b0319166001600160a01b0392909216919091179055565b6200031e8282620005f6565b6200031e82826200063460201b620013f61760201c565b6200060d8282620006e260201b620014821760201c565b600082815260fb60209081526040909120620004db9183906200150862000786821b17901c565b6200064b8282620007a660201b6200151d1760201c565b6001600160e01b036200065f620008978216565b1115620006c85760405162461bcd60e51b815260206004820152603060248201527f4552433230566f7465733a20746f74616c20737570706c79207269736b73206f60448201526f766572666c6f77696e6720766f74657360801b6064820152608401620001ce565b620001406101c8620016066200089e60201b1783620008ac565b600082815260c9602090815260408083206001600160a01b038516845290915290205460ff166200031e57600082815260c9602090815260408083206001600160a01b03851684529091529020805460ff19166001179055620007423390565b6001600160a01b0316816001600160a01b0316837f2f8788117e7eff1d82e926ec794901d17c78024a50270940304540a733656f0d60405160405180910390a45050565b60006200079d836001600160a01b03841662000a5e565b90505b92915050565b6001600160a01b038216620007fe5760405162461bcd60e51b815260206004820152601f60248201527f45524332303a206d696e7420746f20746865207a65726f2061646472657373006044820152606401620001ce565b8061012f600082825462000813919062000fbf565b90915550506001600160a01b038216600090815261012d6020526040812080548392906200084390849062000fbf565b90915550506040518181526001600160a01b038316906000907fddf252ad1be2c89b69c2b068fc378daa952ba7f163c4a11628f55a4df523b3ef9060200160405180910390a36200031e6000838362000ab0565b61012f5490565b60006200079d828462000fbf565b825460009081908015620008fe5785620008c860018362000fda565b81548110620008db57620008db62000ff4565b60009182526020909120015464010000000090046001600160e01b031662000901565b60005b6001600160e01b031692506200091883858760201c565b91506000811180156200095c575043866200093560018462000fda565b8154811062000948576200094862000ff4565b60009182526020909120015463ffffffff16145b15620009d057620009788262000b3a60201b620016121760201c565b866200098660018462000fda565b8154811062000999576200099962000ff4565b9060005260206000200160000160046101000a8154816001600160e01b0302191690836001600160e01b0316021790555062000a55565b856040518060400160405280620009f24362000ba960201b6200167f1760201c565b63ffffffff16815260200162000a138562000b3a60201b620016121760201c565b6001600160e01b0390811690915282546001810184556000938452602093849020835194909301519091166401000000000263ffffffff909316929092179101555b50935093915050565b600081815260018301602052604081205462000aa757508154600181810184556000848152602080822090930184905584548482528286019093526040902091909155620007a0565b506000620007a0565b6001811062000ade576001600160a01b038216600090815261020760205260409020805460ff191660011790555b816001600160a01b03167fec424a4215497770d9b19d9daef77e786684523569c438d84494da2e0e00848e4360405162000b1a91815260200190565b60405180910390a2620004db83838362000c1060201b620016e41760201c565b60006001600160e01b0382111562000ba55760405162461bcd60e51b815260206004820152602760248201527f53616665436173743a2076616c756520646f65736e27742066697420696e20326044820152663234206269747360c81b6064820152608401620001ce565b5090565b600063ffffffff82111562000ba55760405162461bcd60e51b815260206004820152602660248201527f53616665436173743a2076616c756520646f65736e27742066697420696e203360448201526532206269747360d01b6064820152608401620001ce565b62000c28838383620004db60201b62000a351760201c565b6001600160a01b0383811660009081526101c66020526040808220548584168352912054620004db9291821691168381831480159062000c685750600081115b15620004db576001600160a01b0383161562000cf6576001600160a01b03831660009081526101c7602090815260408220829162000cb3919062000d82901b620017171785620008ac565b91509150846001600160a01b031660008051602062004745833981519152838360405162000ceb929190918252602082015260400190565b60405180910390a250505b6001600160a01b03821615620004db576001600160a01b03821660009081526101c7602090815260408220829162000d3b91906200089e901b620016061785620008ac565b91509150836001600160a01b031660008051602062004745833981519152838360405162000d73929190918252602082015260400190565b60405180910390a25050505050565b60006200079d828462000fda565b82805462000d9e906200100a565b90600052602060002090601f01602090048101928262000dc2576000855562000e0d565b82601f1062000ddd57805160ff191683800117855562000e0d565b8280016001018555821562000e0d579182015b8281111562000e0d57825182559160200191906001019062000df0565b5062000ba59291505b8082111562000ba5576000815560010162000e16565b634e487b7160e01b600052604160045260246000fd5b600082601f83011262000e5457600080fd5b81516001600160401b038082111562000e715762000e7162000e2c565b604051601f8301601f19908116603f0116810190828211818310171562000e9c5762000e9c62000e2c565b8160405283815260209250868385880101111562000eb957600080fd5b600091505b8382101562000edd578582018301518183018401529082019062000ebe565b8382111562000eef5760008385830101525b9695505050505050565b60008060006060848603121562000f0f57600080fd5b83516001600160401b038082111562000f2757600080fd5b62000f358783880162000e42565b9450602086015191508082111562000f4c57600080fd5b5062000f5b8682870162000e42565b604086015190935090506001600160a01b038116811462000f7b57600080fd5b809150509250925092565b634e487b7160e01b600052601160045260246000fd5b60008262000fba57634e487b7160e01b600052601260045260246000fd5b500490565b6000821982111562000fd55762000fd562000f86565b500190565b60008282101562000fef5762000fef62000f86565b500390565b634e487b7160e01b600052603260045260246000fd5b600181811c908216806200101f57607f821691505b602082108114156200104157634e487b7160e01b600052602260045260246000fd5b50919050565b6080516136866200107f60003960008181610ad701528181610b1701528181610cd201528181610d120152610da101526136866000f3fe6080604052600436106102555760003560e01c80636fcfff4511610139578063a217fddf116100b6578063ca15c8731161007a578063ca15c8731461074e578063d505accf1461076e578063d547741f1461078e578063dd62ed3e146107ae578063eb1d8152146107ce578063f1127ed8146107ff57600080fd5b8063a217fddf146106c2578063a457c2d7146106d7578063a9059cbb146106f7578063c3b2d33714610717578063c3cda5201461072e57600080fd5b80638e539e8c116100fd5780638e539e8c1461062d5780639010d07c1461064d57806391d148541461066d57806395d89b411461068d5780639ab24eb0146106a257600080fd5b80636fcfff451461055857806370a082311461058d578063735de9f7146105c457806379b36943146105e55780637ecebe001461060d57600080fd5b806336568abe116101d2578063431dc4b611610196578063431dc4b6146104905780634f1ef286146104a757806352d1902d146104ba578063587cde1e146104cf5780635c19a95c146105215780635d6418471461054157600080fd5b806336568abe146103f05780633659cfe61461041057806339509351146104305780633a46b1a81461045057806340c10f191461047057600080fd5b806323b872dd1161021957806323b872dd1461034f578063248a9ca31461036f5780632f2ff15d1461039f578063313ce567146103bf5780633644e515146103db57600080fd5b806301ffc9a71461029657806306fdde03146102cb578063077f224a146102ed578063095ea7b31461030f57806318160ddd1461032f57600080fd5b366102915760405134815233907f2da466a7b24304f47e87fa2e1e5a81b9831ce54fec19055ce277ca2f39ba42c49060200160405180910390a2005b600080fd5b3480156102a257600080fd5b506102b66102b1366004612eac565b610849565b60405190151581526020015b60405180910390f35b3480156102d757600080fd5b506102e0610874565b6040516102c29190612f02565b3480156102f957600080fd5b5061030d610308366004612ff8565b610907565b005b34801561031b57600080fd5b506102b661032a36600461306c565b6109d2565b34801561033b57600080fd5b5061012f545b6040519081526020016102c2565b34801561035b57600080fd5b506102b661036a366004613096565b6109ea565b34801561037b57600080fd5b5061034161038a3660046130d2565b600090815260c9602052604090206001015490565b3480156103ab57600080fd5b5061030d6103ba3660046130eb565b610a10565b3480156103cb57600080fd5b50604051601281526020016102c2565b3480156103e757600080fd5b50610341610a3a565b3480156103fc57600080fd5b5061030d61040b3660046130eb565b610a49565b34801561041c57600080fd5b5061030d61042b366004613117565b610acc565b34801561043c57600080fd5b506102b661044b36600461306c565b610bac565b34801561045c57600080fd5b5061034161046b36600461306c565b610bce565b34801561047c57600080fd5b5061030d61048b36600461306c565b610c42565b34801561049c57600080fd5b506103416101f95481565b61030d6104b5366004613132565b610cc7565b3480156104c657600080fd5b50610341610d94565b3480156104db57600080fd5b506105096104ea366004613117565b6001600160a01b0390811660009081526101c660205260409020541690565b6040516001600160a01b0390911681526020016102c2565b34801561052d57600080fd5b5061030d61053c366004613117565b610e47565b34801561054d57600080fd5b506103416102055481565b34801561056457600080fd5b50610578610573366004613117565b610e51565b60405163ffffffff90911681526020016102c2565b34801561059957600080fd5b506103416105a8366004613117565b6001600160a01b0316600090815261012d602052604090205490565b3480156105d057600080fd5b5061020254610509906001600160a01b031681565b3480156105f157600080fd5b50610509737a250d5630b4cf539739df2c5dacb4c659f2488d81565b34801561061957600080fd5b50610341610628366004613117565b610e74565b34801561063957600080fd5b506103416106483660046130d2565b610e93565b34801561065957600080fd5b50610509610668366004613194565b610ef0565b34801561067957600080fd5b506102b66106883660046130eb565b610f08565b34801561069957600080fd5b506102e0610f33565b3480156106ae57600080fd5b506103416106bd366004613117565b610f43565b3480156106ce57600080fd5b50610341600081565b3480156106e357600080fd5b506102b66106f236600461306c565b610fcc565b34801561070357600080fd5b506102b661071236600461306c565b611052565b34801561072357600080fd5b506103416102065481565b34801561073a57600080fd5b5061030d6107493660046131c7565b611060565b34801561075a57600080fd5b506103416107693660046130d2565b611196565b34801561077a57600080fd5b5061030d61078936600461321f565b6111ad565b34801561079a57600080fd5b5061030d6107a93660046130eb565b611311565b3480156107ba57600080fd5b506103416107c9366004613289565b611336565b3480156107da57600080fd5b506102b66107e9366004613117565b6102076020526000908152604090205460ff1681565b34801561080b57600080fd5b5061081f61081a3660046132b3565b611362565b60408051825163ffffffff1681526020928301516001600160e01b031692810192909252016102c2565b60006001600160e01b03198216635a05180f60e01b148061086e575061086e82611723565b92915050565b60606101308054610884906132f3565b80601f01602080910402602001604051908101604052809291908181526020018280546108b0906132f3565b80156108fd5780601f106108d2576101008083540402835291602001916108fd565b820191906000526020600020905b8154815290600101906020018083116108e057829003601f168201915b5050505050905090565b60006109136001611758565b9050801561092b576000805461ff0019166101001790555b61020280546001600160a01b031916737a250d5630b4cf539739df2c5dacb4c659f2488d17905561095a6117e5565b610964848461180e565b61096d8461183f565b6109756117e5565b61097e82611889565b6109866117e5565b80156109cc576000805461ff0019169055604051600181527f7f26b83ff96e1f2b6a682f133852f6798a09c465da95921460cefb38474024989060200160405180910390a15b50505050565b6000336109e08185856118ef565b5060019392505050565b6000336109f8858285611a14565b610a03858585611a88565b60019150505b9392505050565b600082815260c96020526040902060010154610a2b81611c5e565b610a358383611c68565b505050565b6000610a44611c8a565b905090565b6001600160a01b0381163314610abe5760405162461bcd60e51b815260206004820152602f60248201527f416363657373436f6e74726f6c3a2063616e206f6e6c792072656e6f756e636560448201526e103937b632b9903337b91039b2b63360891b60648201526084015b60405180910390fd5b610ac88282611d07565b5050565b306001600160a01b037f0000000000000000000000000000000000000000000000000000000000000000161415610b155760405162461bcd60e51b8152600401610ab590613328565b7f00000000000000000000000000000000000000000000000000000000000000006001600160a01b0316610b5e60008051602061360a833981519152546001600160a01b031690565b6001600160a01b031614610b845760405162461bcd60e51b8152600401610ab590613374565b610b8d81611d29565b60408051600080825260208201909252610ba991839190611d88565b50565b6000336109e0818585610bbf8383611336565b610bc991906133d6565b6118ef565b6000438210610c1f5760405162461bcd60e51b815260206004820152601f60248201527f4552433230566f7465733a20626c6f636b206e6f7420796574206d696e6564006044820152606401610ab5565b6001600160a01b03831660009081526101c760205260409020610a099083611f02565b33610c71604051602001610c55906133ee565b6040516020818303038152906040528051906020012082610f08565b610cbd5760405162461bcd60e51b815260206004820152601b60248201527f6e6f7420617574686f72697a656420666f7220757067726164657300000000006044820152606401610ab5565b610a358383611fbf565b306001600160a01b037f0000000000000000000000000000000000000000000000000000000000000000161415610d105760405162461bcd60e51b8152600401610ab590613328565b7f00000000000000000000000000000000000000000000000000000000000000006001600160a01b0316610d5960008051602061360a833981519152546001600160a01b031690565b6001600160a01b031614610d7f5760405162461bcd60e51b8152600401610ab590613374565b610d8882611d29565b610ac882826001611d88565b6000306001600160a01b037f00000000000000000000000000000000000000000000000000000000000000001614610e345760405162461bcd60e51b815260206004820152603860248201527f555550535570677261646561626c653a206d757374206e6f742062652063616c60448201527f6c6564207468726f7567682064656c656761746563616c6c00000000000000006064820152608401610ab5565b5060008051602061360a83398151915290565b610ba93382611fc9565b6001600160a01b03811660009081526101c7602052604081205461086e9061167f565b6001600160a01b0381166000908152610193602052604081205461086e565b6000438210610ee45760405162461bcd60e51b815260206004820152601f60248201527f4552433230566f7465733a20626c6f636b206e6f7420796574206d696e6564006044820152606401610ab5565b61086e6101c883611f02565b600082815260fb60205260408120610a099083612045565b600091825260c9602090815260408084206001600160a01b0393909316845291905290205460ff1690565b60606101318054610884906132f3565b6001600160a01b03811660009081526101c760205260408120548015610fb9576001600160a01b03831660009081526101c760205260409020610f87600183613415565b81548110610f9757610f9761342c565b60009182526020909120015464010000000090046001600160e01b0316610fbc565b60005b6001600160e01b03169392505050565b60003381610fda8286611336565b90508381101561103a5760405162461bcd60e51b815260206004820152602560248201527f45524332303a2064656372656173656420616c6c6f77616e63652062656c6f77604482015264207a65726f60d81b6064820152608401610ab5565b61104782868684036118ef565b506001949350505050565b6000336109e0818585611a88565b834211156110b05760405162461bcd60e51b815260206004820152601d60248201527f4552433230566f7465733a207369676e617475726520657870697265640000006044820152606401610ab5565b604080517fe48329057bfd03d55e49b547132e39cffd9c1820ad7b9d4c5307691425d15adf60208201526001600160a01b03881691810191909152606081018690526080810185905260009061112a906111229060a00160405160208183030381529060405280519060200120612051565b85858561209f565b9050611135816120c7565b86146111835760405162461bcd60e51b815260206004820152601960248201527f4552433230566f7465733a20696e76616c6964206e6f6e6365000000000000006044820152606401610ab5565b61118d8188611fc9565b50505050505050565b600081815260fb6020526040812061086e906120f0565b834211156111fd5760405162461bcd60e51b815260206004820152601d60248201527f45524332305065726d69743a206578706972656420646561646c696e650000006044820152606401610ab5565b60007f6e71edae12b1b97f4d1f60370fef10105fa2faae0126114a169c64845d6126c988888861122c8c6120c7565b6040805160208101969096526001600160a01b0394851690860152929091166060840152608083015260a082015260c0810186905260e001604051602081830303815290604052805190602001209050600061128782612051565b905060006112978287878761209f565b9050896001600160a01b0316816001600160a01b0316146112fa5760405162461bcd60e51b815260206004820152601e60248201527f45524332305065726d69743a20696e76616c6964207369676e617475726500006044820152606401610ab5565b6113058a8a8a6118ef565b50505050505050505050565b600082815260c9602052604090206001015461132c81611c5e565b610a358383611d07565b6001600160a01b03918216600090815261012e6020908152604080832093909416825291909152205490565b60408051808201909152600080825260208201526001600160a01b03831660009081526101c760205260409020805463ffffffff84169081106113a7576113a761342c565b60009182526020918290206040805180820190915291015463ffffffff8116825264010000000090046001600160e01b0316918101919091529392505050565b6001600160a01b03163b151590565b611400828261151d565b61012f546001600160e01b0310156114735760405162461bcd60e51b815260206004820152603060248201527f4552433230566f7465733a20746f74616c20737570706c79207269736b73206f60448201526f766572666c6f77696e6720766f74657360801b6064820152608401610ab5565b6109cc6101c8611606836120fa565b61148c8282610f08565b610ac857600082815260c9602090815260408083206001600160a01b03851684529091529020805460ff191660011790556114c43390565b6001600160a01b0316816001600160a01b0316837f2f8788117e7eff1d82e926ec794901d17c78024a50270940304540a733656f0d60405160405180910390a45050565b6000610a09836001600160a01b038416612273565b6001600160a01b0382166115735760405162461bcd60e51b815260206004820152601f60248201527f45524332303a206d696e7420746f20746865207a65726f2061646472657373006044820152606401610ab5565b8061012f600082825461158691906133d6565b90915550506001600160a01b038216600090815261012d6020526040812080548392906115b49084906133d6565b90915550506040518181526001600160a01b038316906000907fddf252ad1be2c89b69c2b068fc378daa952ba7f163c4a11628f55a4df523b3ef9060200160405180910390a3610ac8600083836122c2565b6000610a0982846133d6565b60006001600160e01b0382111561167b5760405162461bcd60e51b815260206004820152602760248201527f53616665436173743a2076616c756520646f65736e27742066697420696e20326044820152663234206269747360c81b6064820152608401610ab5565b5090565b600063ffffffff82111561167b5760405162461bcd60e51b815260206004820152602660248201527f53616665436173743a2076616c756520646f65736e27742066697420696e203360448201526532206269747360d01b6064820152608401610ab5565b6001600160a01b0383811660009081526101c66020526040808220548584168352912054610a359291821691168361233d565b6000610a098284613415565b60006001600160e01b03198216637965db0b60e01b148061086e57506301ffc9a760e01b6001600160e01b031983161461086e565b60008054610100900460ff161561179f578160ff16600114801561177b5750303b155b6117975760405162461bcd60e51b8152600401610ab590613442565b506000919050565b60005460ff8084169116106117c65760405162461bcd60e51b8152600401610ab590613442565b506000805460ff191660ff92909216919091179055600190565b919050565b600054610100900460ff1661180c5760405162461bcd60e51b8152600401610ab590613490565b565b600054610100900460ff166118355760405162461bcd60e51b8152600401610ab590613490565b610ac8828261247c565b600054610100900460ff166118665760405162461bcd60e51b8152600401610ab590613490565b610ba981604051806040016040528060018152602001603160f81b8152506124cc565b6118928161250f565b6118c06040516020016118a4906133ee565b6040516020818303038152906040528051906020012082612588565b6a52b7d2dcc80cd2e40000006102058190556118de906005906134db565b610206819055610ba9908290611fbf565b6001600160a01b0383166119515760405162461bcd60e51b8152602060048201526024808201527f45524332303a20617070726f76652066726f6d20746865207a65726f206164646044820152637265737360e01b6064820152608401610ab5565b6001600160a01b0382166119b25760405162461bcd60e51b815260206004820152602260248201527f45524332303a20617070726f766520746f20746865207a65726f206164647265604482015261737360f01b6064820152608401610ab5565b6001600160a01b03838116600081815261012e602090815260408083209487168084529482529182902085905590518481527f8c5be1e5ebec7d5bd14f71427d1e84f3dd0314c0f7b2291e5b200ac8c7c3b925910160405180910390a3505050565b6000611a208484611336565b905060001981146109cc5781811015611a7b5760405162461bcd60e51b815260206004820152601d60248201527f45524332303a20696e73756666696369656e7420616c6c6f77616e63650000006044820152606401610ab5565b6109cc84848484036118ef565b6001600160a01b038316611aec5760405162461bcd60e51b815260206004820152602560248201527f45524332303a207472616e736665722066726f6d20746865207a65726f206164604482015264647265737360d81b6064820152608401610ab5565b6001600160a01b038216611b4e5760405162461bcd60e51b815260206004820152602360248201527f45524332303a207472616e7366657220746f20746865207a65726f206164647260448201526265737360e81b6064820152608401610ab5565b6001600160a01b038316600090815261012d602052604090205481811015611bc75760405162461bcd60e51b815260206004820152602660248201527f45524332303a207472616e7366657220616d6f756e7420657863656564732062604482015265616c616e636560d01b6064820152608401610ab5565b6001600160a01b03808516600090815261012d6020526040808220858503905591851681529081208054849290611bff9084906133d6565b92505081905550826001600160a01b0316846001600160a01b03167fddf252ad1be2c89b69c2b068fc378daa952ba7f163c4a11628f55a4df523b3ef84604051611c4b91815260200190565b60405180910390a36109cc8484846122c2565b610ba98133612592565b611c728282611482565b600082815260fb60205260409020610a359082611508565b6000610a447f8b73c3c69bb8fe3d512ecc4cf759cc79239f7b179b0ffacaa9a75d522b39400f611cba61015f5490565b610160546040805160208101859052908101839052606081018290524660808201523060a082015260009060c0016040516020818303038152906040528051906020012090509392505050565b611d1182826125f6565b600082815260fb60205260409020610a35908261265d565b33611d3c604051602001610c55906133ee565b610ac85760405162461bcd60e51b815260206004820152601b60248201527f6e6f7420617574686f72697a656420666f7220757067726164657300000000006044820152606401610ab5565b7f4910fdfa16fed3260ed0e7147f7cc6da11a60208b5b9406d12a635614ffd91435460ff1615611dbb57610a3583612672565b826001600160a01b03166352d1902d6040518163ffffffff1660e01b815260040160206040518083038186803b158015611df457600080fd5b505afa925050508015611e24575060408051601f3d908101601f19168201909252611e21918101906134fd565b60015b611e875760405162461bcd60e51b815260206004820152602e60248201527f45524331393637557067726164653a206e657720696d706c656d656e7461746960448201526d6f6e206973206e6f74205555505360901b6064820152608401610ab5565b60008051602061360a8339815191528114611ef65760405162461bcd60e51b815260206004820152602960248201527f45524331393637557067726164653a20756e737570706f727465642070726f786044820152681a58589b195555525160ba1b6064820152608401610ab5565b50610a3583838361270e565b8154600090815b81811015611f66576000611f1d8284612733565b905084868281548110611f3257611f3261342c565b60009182526020909120015463ffffffff161115611f5257809250611f60565b611f5d8160016133d6565b91505b50611f09565b8115611faa5784611f78600184613415565b81548110611f8857611f8861342c565b60009182526020909120015464010000000090046001600160e01b0316611fad565b60005b6001600160e01b031695945050505050565b610ac882826113f6565b6001600160a01b0382811660008181526101c660208181526040808420805461012d845282862054949093528787166001600160a01b03198416811790915590519190951694919391928592917f3134e8a2e6d97e929a7e54011ea5485d7d196dd5f0ba4d4ef95803e8e3fc257f9190a46109cc82848361233d565b6000610a09838361274e565b600061086e61205e611c8a565b8360405161190160f01b6020820152602281018390526042810182905260009060620160405160208183030381529060405280519060200120905092915050565b60008060006120b087878787612778565b915091506120bd81612865565b5095945050505050565b6001600160a01b0381166000908152610193602052604090208054600181018255905b50919050565b600061086e825490565b8254600090819080156121455785612113600183613415565b815481106121235761212361342c565b60009182526020909120015464010000000090046001600160e01b0316612148565b60005b6001600160e01b0316925061216183858763ffffffff16565b915060008111801561219f5750438661217b600184613415565b8154811061218b5761218b61342c565b60009182526020909120015463ffffffff16145b156121ff576121ad82611612565b866121b9600184613415565b815481106121c9576121c961342c565b9060005260206000200160000160046101000a8154816001600160e01b0302191690836001600160e01b0316021790555061226a565b8560405180604001604052806122144361167f565b63ffffffff16815260200161222885611612565b6001600160e01b0390811690915282546001810184556000938452602093849020835194909301519091166401000000000263ffffffff909316929092179101555b50935093915050565b60008181526001830160205260408120546122ba5750815460018181018455600084815260208082209093018490558454848252828601909352604090209190915561086e565b50600061086e565b600181106122ef576001600160a01b038216600090815261020760205260409020805460ff191660011790555b816001600160a01b03167fec424a4215497770d9b19d9daef77e786684523569c438d84494da2e0e00848e4360405161232a91815260200190565b60405180910390a2610a358383836116e4565b816001600160a01b0316836001600160a01b03161415801561235f5750600081115b15610a35576001600160a01b038316156123ee576001600160a01b03831660009081526101c760205260408120819061239b90611717856120fa565b91509150846001600160a01b03167fdec2bacdd2f05b59de34da9b523dff8be42e5e38e818c82fdb0bae774387a72483836040516123e3929190918252602082015260400190565b60405180910390a250505b6001600160a01b03821615610a35576001600160a01b03821660009081526101c760205260408120819061242590611606856120fa565b91509150836001600160a01b03167fdec2bacdd2f05b59de34da9b523dff8be42e5e38e818c82fdb0bae774387a724838360405161246d929190918252602082015260400190565b60405180910390a25050505050565b600054610100900460ff166124a35760405162461bcd60e51b8152600401610ab590613490565b81516124b790610130906020850190612e1c565b508051610a3590610131906020840190612e1c565b600054610100900460ff166124f35760405162461bcd60e51b8152600401610ab590613490565b81516020928301208151919092012061015f9190915561016055565b6001600160a01b0381166125655760405162461bcd60e51b815260206004820152601c60248201527f6f776e65722063616e6e6f742062652061646472657373207a65726f000000006044820152606401610ab5565b61020380546001600160a01b0319166001600160a01b0392909216919091179055565b610ac88282611c68565b61259c8282610f08565b610ac8576125b4816001600160a01b03166014612a20565b6125bf836020612a20565b6040516020016125d0929190613516565b60408051601f198184030181529082905262461bcd60e51b8252610ab591600401612f02565b6126008282610f08565b15610ac857600082815260c9602090815260408083206001600160a01b0385168085529252808320805460ff1916905551339285917ff6391f5c32d9c69d2a47ea670b442974b53935d1edc7fd64eb21e047a839171b9190a45050565b6000610a09836001600160a01b038416612bbc565b6001600160a01b0381163b6126df5760405162461bcd60e51b815260206004820152602d60248201527f455243313936373a206e657720696d706c656d656e746174696f6e206973206e60448201526c1bdd08184818dbdb9d1c9858dd609a1b6064820152608401610ab5565b60008051602061360a83398151915280546001600160a01b0319166001600160a01b0392909216919091179055565b61271783612caf565b6000825111806127245750805b15610a35576109cc8383612cef565b600061274260028484186134db565b610a09908484166133d6565b60008260000182815481106127655761276561342c565b9060005260206000200154905092915050565b6000807f7fffffffffffffffffffffffffffffff5d576e7357a4501ddfe92f46681b20a08311156127af575060009050600361285c565b8460ff16601b141580156127c757508460ff16601c14155b156127d8575060009050600461285c565b6040805160008082526020820180845289905260ff881692820192909252606081018690526080810185905260019060a0016020604051602081039080840390855afa15801561282c573d6000803e3d6000fd5b5050604051601f1901519150506001600160a01b0381166128555760006001925092505061285c565b9150600090505b94509492505050565b60008160048111156128795761287961358b565b14156128825750565b60018160048111156128965761289661358b565b14156128e45760405162461bcd60e51b815260206004820152601860248201527f45434453413a20696e76616c6964207369676e617475726500000000000000006044820152606401610ab5565b60028160048111156128f8576128f861358b565b14156129465760405162461bcd60e51b815260206004820152601f60248201527f45434453413a20696e76616c6964207369676e6174757265206c656e677468006044820152606401610ab5565b600381600481111561295a5761295a61358b565b14156129b35760405162461bcd60e51b815260206004820152602260248201527f45434453413a20696e76616c6964207369676e6174757265202773272076616c604482015261756560f01b6064820152608401610ab5565b60048160048111156129c7576129c761358b565b1415610ba95760405162461bcd60e51b815260206004820152602260248201527f45434453413a20696e76616c6964207369676e6174757265202776272076616c604482015261756560f01b6064820152608401610ab5565b60606000612a2f8360026135a1565b612a3a9060026133d6565b67ffffffffffffffff811115612a5257612a52612f35565b6040519080825280601f01601f191660200182016040528015612a7c576020820181803683370190505b509050600360fc1b81600081518110612a9757612a9761342c565b60200101906001600160f81b031916908160001a905350600f60fb1b81600181518110612ac657612ac661342c565b60200101906001600160f81b031916908160001a9053506000612aea8460026135a1565b612af59060016133d6565b90505b6001811115612b6d576f181899199a1a9b1b9c1cb0b131b232b360811b85600f1660108110612b2957612b2961342c565b1a60f81b828281518110612b3f57612b3f61342c565b60200101906001600160f81b031916908160001a90535060049490941c93612b66816135c0565b9050612af8565b508315610a095760405162461bcd60e51b815260206004820181905260248201527f537472696e67733a20686578206c656e67746820696e73756666696369656e746044820152606401610ab5565b60008181526001830160205260408120548015612ca5576000612be0600183613415565b8554909150600090612bf490600190613415565b9050818114612c59576000866000018281548110612c1457612c1461342c565b9060005260206000200154905080876000018481548110612c3757612c3761342c565b6000918252602080832090910192909255918252600188019052604090208390555b8554869080612c6a57612c6a6135d7565b60019003818190600052602060002001600090559055856001016000868152602001908152602001600020600090556001935050505061086e565b600091505061086e565b612cb881612672565b6040516001600160a01b038216907fbc7cd75a20ee27fd9adebab32041f755214dbc6bffa90cc0225b39da2e5c2d3b90600090a250565b60606001600160a01b0383163b612d575760405162461bcd60e51b815260206004820152602660248201527f416464726573733a2064656c65676174652063616c6c20746f206e6f6e2d636f6044820152651b9d1c9858dd60d21b6064820152608401610ab5565b600080846001600160a01b031684604051612d7291906135ed565b600060405180830381855af49150503d8060008114612dad576040519150601f19603f3d011682016040523d82523d6000602084013e612db2565b606091505b5091509150612dda828260405180606001604052806027815260200161362a60279139612de3565b95945050505050565b60608315612df2575081610a09565b825115612e025782518084602001fd5b8160405162461bcd60e51b8152600401610ab59190612f02565b828054612e28906132f3565b90600052602060002090601f016020900481019282612e4a5760008555612e90565b82601f10612e6357805160ff1916838001178555612e90565b82800160010185558215612e90579182015b82811115612e90578251825591602001919060010190612e75565b5061167b9291505b8082111561167b5760008155600101612e98565b600060208284031215612ebe57600080fd5b81356001600160e01b031981168114610a0957600080fd5b60005b83811015612ef1578181015183820152602001612ed9565b838111156109cc5750506000910152565b6020815260008251806020840152612f21816040850160208701612ed6565b601f01601f19169190910160400192915050565b634e487b7160e01b600052604160045260246000fd5b600067ffffffffffffffff80841115612f6657612f66612f35565b604051601f8501601f19908116603f01168101908282118183101715612f8e57612f8e612f35565b81604052809350858152868686011115612fa757600080fd5b858560208301376000602087830101525050509392505050565b600082601f830112612fd257600080fd5b610a0983833560208501612f4b565b80356001600160a01b03811681146117e057600080fd5b60008060006060848603121561300d57600080fd5b833567ffffffffffffffff8082111561302557600080fd5b61303187838801612fc1565b9450602086013591508082111561304757600080fd5b5061305486828701612fc1565b92505061306360408501612fe1565b90509250925092565b6000806040838503121561307f57600080fd5b61308883612fe1565b946020939093013593505050565b6000806000606084860312156130ab57600080fd5b6130b484612fe1565b92506130c260208501612fe1565b9150604084013590509250925092565b6000602082840312156130e457600080fd5b5035919050565b600080604083850312156130fe57600080fd5b8235915061310e60208401612fe1565b90509250929050565b60006020828403121561312957600080fd5b610a0982612fe1565b6000806040838503121561314557600080fd5b61314e83612fe1565b9150602083013567ffffffffffffffff81111561316a57600080fd5b8301601f8101851361317b57600080fd5b61318a85823560208401612f4b565b9150509250929050565b600080604083850312156131a757600080fd5b50508035926020909101359150565b803560ff811681146117e057600080fd5b60008060008060008060c087890312156131e057600080fd5b6131e987612fe1565b95506020870135945060408701359350613205606088016131b6565b92506080870135915060a087013590509295509295509295565b600080600080600080600060e0888a03121561323a57600080fd5b61324388612fe1565b965061325160208901612fe1565b9550604088013594506060880135935061326d608089016131b6565b925060a0880135915060c0880135905092959891949750929550565b6000806040838503121561329c57600080fd5b6132a583612fe1565b915061310e60208401612fe1565b600080604083850312156132c657600080fd5b6132cf83612fe1565b9150602083013563ffffffff811681146132e857600080fd5b809150509250929050565b600181811c9082168061330757607f821691505b602082108114156120ea57634e487b7160e01b600052602260045260246000fd5b6020808252602c908201527f46756e6374696f6e206d7573742062652063616c6c6564207468726f7567682060408201526b19195b1959d85d1958d85b1b60a21b606082015260800190565b6020808252602c908201527f46756e6374696f6e206d7573742062652063616c6c6564207468726f7567682060408201526b6163746976652070726f787960a01b606082015260800190565b634e487b7160e01b600052601160045260246000fd5b600082198211156133e9576133e96133c0565b500190565b6020808252600d908201526c55504752414445525f524f4c4560981b604082015260600190565b600082821015613427576134276133c0565b500390565b634e487b7160e01b600052603260045260246000fd5b6020808252602e908201527f496e697469616c697a61626c653a20636f6e747261637420697320616c72656160408201526d191e481a5b9a5d1a585b1a5e995960921b606082015260800190565b6020808252602b908201527f496e697469616c697a61626c653a20636f6e7472616374206973206e6f74206960408201526a6e697469616c697a696e6760a81b606082015260800190565b6000826134f857634e487b7160e01b600052601260045260246000fd5b500490565b60006020828403121561350f57600080fd5b5051919050565b7f416363657373436f6e74726f6c3a206163636f756e742000000000000000000081526000835161354e816017850160208801612ed6565b7001034b99036b4b9b9b4b733903937b6329607d1b601791840191820152835161357f816028840160208801612ed6565b01602801949350505050565b634e487b7160e01b600052602160045260246000fd5b60008160001904831182151516156135bb576135bb6133c0565b500290565b6000816135cf576135cf6133c0565b506000190190565b634e487b7160e01b600052603160045260246000fd5b600082516135ff818460208701612ed6565b919091019291505056fe360894a13ba1a3210667c828492db98dca3e2076cc3735a920a3ca505d382bbc416464726573733a206c6f772d6c6576656c2064656c65676174652063616c6c206661696c6564a26469706673582212205ca11b73af88857fbb656586185afc210bd9a0c3c00faac1d7b1334e2dbb32c164736f6c63430008090033496e697469616c697a61626c653a20636f6e747261637420697320616c726561496e697469616c697a61626c653a20636f6e7472616374206973206e6f742069dec2bacdd2f05b59de34da9b523dff8be42e5e38e818c82fdb0bae774387a724",
    "linkReferences": {}
  }
}