{
  "abi": [
    {
      "anonymous": false,
      "inputs": [
        {
          "indexed": true,
          "internalType": "address",
          "name": "_founderAddress",
          "type": "address"
        },
        {
          "indexed": false,
          "internalType": "uint256",
          "name": "_dedicatedAmount",
          "type": "uint256"
        },
        {
          "indexed": false,
          "internalType": "uint256",
          "name": "timestamp",
          "type": "uint256"
        }
      ],
      "name": "DirectorAdded",
      "type": "event"
    },
    {
      "anonymous": false,
      "inputs": [
        {
          "indexed": true,
          "internalType": "address",
          "name": "_directorRemoved",
          "type": "address"
        },
        {
          "indexed": false,
          "internalType": "string",
          "name": "reason",
          "type": "string"
        },
        {
          "indexed": false,
          "internalType": "uint256",
          "name": "timestamp",
          "type": "uint256"
        }
      ],
      "name": "DirectorRemoved",
      "type": "event"
    },
    {
      "anonymous": false,
      "inputs": [
        {
          "indexed": true,
          "internalType": "address",
          "name": "previousOwner",
          "type": "address"
        },
        {
          "indexed": true,
          "internalType": "address",
          "name": "newOwner",
          "type": "address"
        }
      ],
      "name": "OwnershipTransferred",
      "type": "event"
    },
    {
      "anonymous": false,
      "inputs": [
        {
          "indexed": false,
          "internalType": "uint256",
          "name": "_oldValue",
          "type": "uint256"
        },
        {
          "indexed": false,
          "internalType": "uint256",
          "name": "_newValue",
          "type": "uint256"
        }
      ],
      "name": "PercentFundsPerDirectorChanged",
      "type": "event"
    },
    {
      "anonymous": false,
      "inputs": [
        {
          "indexed": true,
          "internalType": "bytes32",
          "name": "role",
          "type": "bytes32"
        },
        {
          "indexed": true,
          "internalType": "bytes32",
          "name": "previousAdminRole",
          "type": "bytes32"
        },
        {
          "indexed": true,
          "internalType": "bytes32",
          "name": "newAdminRole",
          "type": "bytes32"
        }
      ],
      "name": "RoleAdminChanged",
      "type": "event"
    },
    {
      "anonymous": false,
      "inputs": [
        {
          "indexed": true,
          "internalType": "bytes32",
          "name": "role",
          "type": "bytes32"
        },
        {
          "indexed": true,
          "internalType": "address",
          "name": "account",
          "type": "address"
        },
        {
          "indexed": true,
          "internalType": "address",
          "name": "sender",
          "type": "address"
        }
      ],
      "name": "RoleGranted",
      "type": "event"
    },
    {
      "anonymous": false,
      "inputs": [
        {
          "indexed": true,
          "internalType": "bytes32",
          "name": "role",
          "type": "bytes32"
        },
        {
          "indexed": true,
          "internalType": "address",
          "name": "account",
          "type": "address"
        },
        {
          "indexed": true,
          "internalType": "address",
          "name": "sender",
          "type": "address"
        }
      ],
      "name": "RoleRevoked",
      "type": "event"
    },
    {
      "inputs": [],
      "name": "AclOwner",
      "outputs": [
        {
          "internalType": "address",
          "name": "",
          "type": "address"
        }
      ],
      "stateMutability": "view",
      "type": "function"
    },
    {
      "inputs": [
        {
          "internalType": "string",
          "name": "name",
          "type": "string"
        },
        {
          "internalType": "bytes32",
          "name": "roles",
          "type": "bytes32"
        },
        {
          "internalType": "address",
          "name": "wallet",
          "type": "address"
        }
      ],
      "name": "AddDirector",
      "outputs": [],
      "stateMutability": "nonpayable",
      "type": "function"
    },
    {
      "inputs": [
        {
          "internalType": "uint256",
          "name": "newValue",
          "type": "uint256"
        }
      ],
      "name": "ChangePercentFundsPerDirector",
      "outputs": [],
      "stateMutability": "nonpayable",
      "type": "function"
    },
    {
      "inputs": [],
      "name": "DEFAULT_ADMIN_ROLE",
      "outputs": [
        {
          "internalType": "bytes32",
          "name": "",
          "type": "bytes32"
        }
      ],
      "stateMutability": "view",
      "type": "function"
    },
    {
      "inputs": [],
      "name": "NOTSET_ROLE",
      "outputs": [
        {
          "internalType": "bytes32",
          "name": "",
          "type": "bytes32"
        }
      ],
      "stateMutability": "view",
      "type": "function"
    },
    {
      "inputs": [],
      "name": "PercentFundsPerDirector",
      "outputs": [
        {
          "internalType": "uint256",
          "name": "",
          "type": "uint256"
        }
      ],
      "stateMutability": "view",
      "type": "function"
    },
    {
      "inputs": [],
      "name": "ROLE_ADVISOR",
      "outputs": [
        {
          "internalType": "bytes32",
          "name": "",
          "type": "bytes32"
        }
      ],
      "stateMutability": "view",
      "type": "function"
    },
    {
      "inputs": [],
      "name": "ROLE_CEO",
      "outputs": [
        {
          "internalType": "bytes32",
          "name": "",
          "type": "bytes32"
        }
      ],
      "stateMutability": "view",
      "type": "function"
    },
    {
      "inputs": [],
      "name": "ROLE_CFO",
      "outputs": [
        {
          "internalType": "bytes32",
          "name": "",
          "type": "bytes32"
        }
      ],
      "stateMutability": "view",
      "type": "function"
    },
    {
      "inputs": [],
      "name": "ROLE_CMO",
      "outputs": [
        {
          "internalType": "bytes32",
          "name": "",
          "type": "bytes32"
        }
      ],
      "stateMutability": "view",
      "type": "function"
    },
    {
      "inputs": [],
      "name": "ROLE_COO",
      "outputs": [
        {
          "internalType": "bytes32",
          "name": "",
          "type": "bytes32"
        }
      ],
      "stateMutability": "view",
      "type": "function"
    },
    {
      "inputs": [],
      "name": "ROLE_CTO",
      "outputs": [
        {
          "internalType": "bytes32",
          "name": "",
          "type": "bytes32"
        }
      ],
      "stateMutability": "view",
      "type": "function"
    },
    {
      "inputs": [],
      "name": "ROLE_HOLDER",
      "outputs": [
        {
          "internalType": "bytes32",
          "name": "",
          "type": "bytes32"
        }
      ],
      "stateMutability": "view",
      "type": "function"
    },
    {
      "inputs": [],
      "name": "ROLE_PARTNER",
      "outputs": [
        {
          "internalType": "bytes32",
          "name": "",
          "type": "bytes32"
        }
      ],
      "stateMutability": "view",
      "type": "function"
    },
    {
      "inputs": [],
      "name": "_initACL",
      "outputs": [],
      "stateMutability": "nonpayable",
      "type": "function"
    },
    {
      "inputs": [
        {
          "internalType": "string",
          "name": "name",
          "type": "string"
        },
        {
          "internalType": "bytes32",
          "name": "roles",
          "type": "bytes32"
        },
        {
          "internalType": "address",
          "name": "wallet",
          "type": "address"
        }
      ],
      "name": "_initNewDirector",
      "outputs": [],
      "stateMutability": "nonpayable",
      "type": "function"
    },
    {
      "inputs": [
        {
          "internalType": "bytes32",
          "name": "role",
          "type": "bytes32"
        },
        {
          "internalType": "address",
          "name": "_to",
          "type": "address"
        }
      ],
      "name": "addRoleToAddress",
      "outputs": [],
      "stateMutability": "nonpayable",
      "type": "function"
    },
    {
      "inputs": [],
      "name": "getAllDirectorRoles",
      "outputs": [
        {
          "internalType": "bytes32[]",
          "name": "",
          "type": "bytes32[]"
        }
      ],
      "stateMutability": "view",
      "type": "function"
    },
    {
      "inputs": [],
      "name": "getAllDirectorRolesAsHumanReadable",
      "outputs": [
        {
          "internalType": "string[]",
          "name": "",
          "type": "string[]"
        }
      ],
      "stateMutability": "view",
      "type": "function"
    },
    {
      "inputs": [
        {
          "internalType": "bytes32",
          "name": "role",
          "type": "bytes32"
        }
      ],
      "name": "getRoleAdmin",
      "outputs": [
        {
          "internalType": "bytes32",
          "name": "",
          "type": "bytes32"
        }
      ],
      "stateMutability": "view",
      "type": "function"
    },
    {
      "inputs": [
        {
          "internalType": "bytes32",
          "name": "role",
          "type": "bytes32"
        },
        {
          "internalType": "uint256",
          "name": "index",
          "type": "uint256"
        }
      ],
      "name": "getRoleMember",
      "outputs": [
        {
          "internalType": "address",
          "name": "",
          "type": "address"
        }
      ],
      "stateMutability": "view",
      "type": "function"
    },
    {
      "inputs": [
        {
          "internalType": "bytes32",
          "name": "role",
          "type": "bytes32"
        }
      ],
      "name": "getRoleMemberCount",
      "outputs": [
        {
          "internalType": "uint256",
          "name": "",
          "type": "uint256"
        }
      ],
      "stateMutability": "view",
      "type": "function"
    },
    {
      "inputs": [
        {
          "internalType": "bytes32",
          "name": "role",
          "type": "bytes32"
        },
        {
          "internalType": "address",
          "name": "account",
          "type": "address"
        }
      ],
      "name": "grantRole",
      "outputs": [],
      "stateMutability": "nonpayable",
      "type": "function"
    },
    {
      "inputs": [
        {
          "internalType": "bytes32",
          "name": "role",
          "type": "bytes32"
        },
        {
          "internalType": "address",
          "name": "account",
          "type": "address"
        }
      ],
      "name": "hasRole",
      "outputs": [
        {
          "internalType": "bool",
          "name": "",
          "type": "bool"
        }
      ],
      "stateMutability": "view",
      "type": "function"
    },
    {
      "inputs": [],
      "name": "owner",
      "outputs": [
        {
          "internalType": "address",
          "name": "",
          "type": "address"
        }
      ],
      "stateMutability": "view",
      "type": "function"
    },
    {
      "inputs": [],
      "name": "renounceOwnership",
      "outputs": [],
      "stateMutability": "nonpayable",
      "type": "function"
    },
    {
      "inputs": [
        {
          "internalType": "bytes32",
          "name": "role",
          "type": "bytes32"
        },
        {
          "internalType": "address",
          "name": "account",
          "type": "address"
        }
      ],
      "name": "renounceRole",
      "outputs": [],
      "stateMutability": "nonpayable",
      "type": "function"
    },
    {
      "inputs": [
        {
          "internalType": "bytes32",
          "name": "role",
          "type": "bytes32"
        },
        {
          "internalType": "address",
          "name": "account",
          "type": "address"
        }
      ],
      "name": "revokeRole",
      "outputs": [],
      "stateMutability": "nonpayable",
      "type": "function"
    },
    {
      "inputs": [
        {
          "internalType": "bytes4",
          "name": "interfaceId",
          "type": "bytes4"
        }
      ],
      "name": "supportsInterface",
      "outputs": [
        {
          "internalType": "bool",
          "name": "",
          "type": "bool"
        }
      ],
      "stateMutability": "view",
      "type": "function"
    },
    {
      "inputs": [
        {
          "internalType": "address",
          "name": "newOwner",
          "type": "address"
        }
      ],
      "name": "transferOwnership",
      "outputs": [],
      "stateMutability": "nonpayable",
      "type": "function"
    }
  ],
  "bytecode": {
    "object": "0x6080604052600a805460ff19169055600160105534801561001f57600080fd5b506100293361002e565b61007e565b600080546001600160a01b038381166001600160a01b0319831681178455604051919092169283917f8be0079c531659141344cd1fd0a4f28419497f9722a3daafe3b4186f6b6457e09190a35050565b611a4a8061008d6000396000f3fe608060405234801561001057600080fd5b50600436106101da5760003560e01c806386790bc311610104578063bac9dbab116100a2578063d547741f11610071578063d547741f14610393578063e23f2a1d146103a6578063eee03afe146103ae578063f2fde38b146103c157600080fd5b8063bac9dbab14610368578063c003631214610370578063ca15c87314610378578063d1f8a4c11461038b57600080fd5b806391d14854116100de57806391d1485414610334578063a217fddf14610347578063a85892e01461034f578063b91c6c261461036057600080fd5b806386790bc3146102e75780638da5cb5b146102fc5780639010d07c1461032157600080fd5b806336568abe1161017c578063715018a61161014b578063715018a6146102c75780637708ea1d146102cf5780637832bb07146102d757806379cf1960146102df57600080fd5b806336568abe1461029157806351e337fb146102a45780635d12af7e146102b757806364155547146102bf57600080fd5b806327600f61116101b857806327600f611461024e5780632a051f00146102615780632d328381146102695780632f2ff15d1461027e57600080fd5b806301ffc9a7146101df57806312859fb514610207578063248a9ca31461021c575b600080fd5b6101f26101ed366004611473565b6103d4565b60405190151581526020015b60405180910390f35b61021a61021536600461154a565b6103ff565b005b61024061022a3660046115e8565b6000908152600160208190526040909120015490565b6040519081526020016101fe565b61021a61025c366004611601565b610437565b610240610490565b6102716104d0565b6040516101fe919061168d565b61021a61028c366004611601565b6105a9565b61021a61029f366004611601565b6105cf565b61021a6102b23660046115e8565b610649565b601054610240565b6102406106b8565b61021a6106e3565b610240610719565b61021a610740565b610240610b14565b6102ef610b3e565b6040516101fe91906116ef565b6000546001600160a01b03165b6040516001600160a01b0390911681526020016101fe565b61030961032f366004611733565b610b96565b6101f2610342366004611601565b610bb5565b610240600081565b6006546001600160a01b0316610309565b610240610be0565b610240610c07565b610240610c2e565b6102406103863660046115e8565b610c58565b610240610c6f565b61021a6103a1366004611601565b610c9a565b610240610cc0565b61021a6103bc36600461154a565b610ce7565b61021a6103cf366004611755565b610dee565b60006001600160e01b03198216635a05180f60e01b14806103f957506103f982610e89565b92915050565b6000546001600160a01b031633146104325760405162461bcd60e51b815260040161042990611772565b60405180910390fd5b505050565b6006546001600160a01b031633146104825760405162461bcd60e51b815260206004820152600e60248201526d37b7363c9030b1b61037bbb732b960911b6044820152606401610429565b61048c82826105a9565b5050565b6040516020016104b79060208082526003908201526243544f60e81b604082015260600190565b6040516020818303038152906040528051906020012081565b60606005805480602002602001604051908101604052809291908181526020016000905b828210156105a0578382906000526020600020018054610513906117a7565b80601f016020809104026020016040519081016040528092919081815260200182805461053f906117a7565b801561058c5780601f106105615761010080835404028352916020019161058c565b820191906000526020600020905b81548152906001019060200180831161056f57829003601f168201915b5050505050815260200190600101906104f4565b50505050905090565b600082815260016020819052604090912001546105c581610ebe565b6104328383610ec8565b6001600160a01b038116331461063f5760405162461bcd60e51b815260206004820152602f60248201527f416363657373436f6e74726f6c3a2063616e206f6e6c792072656e6f756e636560448201526e103937b632b9903337b91039b2b63360891b6064820152608401610429565b61048c8282610eea565b6000546001600160a01b031633146106735760405162461bcd60e51b815260040161042990611772565b601080549082905560408051828152602081018490527fce1e4c081a1e0643720357277d051cd0fb2c4240e6c2d7aab4e11d1087c1ab6f910160405180910390a15050565b6040516020016104b7906020808252600790820152662820a92a2722a960c91b604082015260600190565b6000546001600160a01b0316331461070d5760405162461bcd60e51b815260040161042990611772565b6107176000610f0c565b565b6040516020016104b79060208082526003908201526243454f60e81b604082015260600190565b6000546001600160a01b0316331461076a5760405162461bcd60e51b815260040161042990611772565b600a5460ff16156107b35760405162461bcd60e51b8152602060048201526013602482015272185b1c9958591e481a5b9a5d1a585b1a5e9959606a1b6044820152606401610429565b6040516020016107db906020808252600490820152634e4f4e4560e01b604082015260600190565b604051602081830303815290604052805190602001206007600081548110610805576108056117e2565b906000526020600020018190555060405160200161083a9060208082526003908201526243454f60e81b604082015260600190565b604051602081830303815290604052805190602001206007600181548110610864576108646117e2565b90600052602060002001819055506040516020016108999060208082526003908201526243464f60e81b604082015260600190565b6040516020818303038152906040528051906020012060076002815481106108c3576108c36117e2565b90600052602060002001819055506040516020016108f89060208082526003908201526243544f60e81b604082015260600190565b604051602081830303815290604052805190602001206007600381548110610922576109226117e2565b906000526020600020018190555060405160200161095790602080825260039082015262434f4f60e81b604082015260600190565b604051602081830303815290604052805190602001206007600481548110610981576109816117e2565b90600052602060002001819055506040516020016109b690602080825260039082015262434d4f60e81b604082015260600190565b6040516020818303038152906040528051906020012060076005815481106109e0576109e06117e2565b9060005260206000200181905550604051602001610a16906020808252600490820152634e4f4e4560e01b604082015260600190565b604051602081830303815290604052805190602001206008600081548110610a4057610a406117e2565b9060005260206000200181905550604051602001610a799060208082526007908201526620a22b24a9a7a960c91b604082015260600190565b604051602081830303815290604052805190602001206008600181548110610aa357610aa36117e2565b9060005260206000200181905550604051602001610adc906020808252600790820152662820a92a2722a960c91b604082015260600190565b604051602081830303815290604052805190602001206008600281548110610b0657610b066117e2565b600091825260209091200155565b6040516020016104b7906020808252600690820152652427a62222a960d11b604082015260600190565b60606007805480602002602001604051908101604052809291908181526020018280548015610b8c57602002820191906000526020600020905b815481526020019060010190808311610b78575b5050505050905090565b6000828152600260205260408120610bae9083610f5c565b9392505050565b60009182526001602090815260408084206001600160a01b0393909316845291905290205460ff1690565b6040516020016104b790602080825260039082015262434d4f60e81b604082015260600190565b6040516020016104b790602080825260039082015262434f4f60e81b604082015260600190565b6040516020016104b7906020808252600690820152651393d514d15560d21b604082015260600190565b60008181526002602052604081206103f990610f68565b6040516020016104b79060208082526007908201526620a22b24a9a7a960c91b604082015260600190565b60008281526001602081905260409091200154610cb681610ebe565b6104328383610eea565b6040516020016104b79060208082526003908201526243464f60e81b604082015260600190565b6000546001600160a01b03163314610d115760405162461bcd60e51b815260040161042990611772565b604051634289874560e01b815273__$35ef103229b3145598674ad50794a0f937$__90634289874590610d4c908690869086906004016117f8565b60006040518083038186803b158015610d6457600080fd5b505af4158015610d78573d6000803e3d6000fd5b505050506040513d6000823e601f3d908101601f19168201604052610da0919081019061183b565b80518051600c91610db6918391602001906113da565b5060208201516001820155604090910151600290910180546001600160a01b0319166001600160a01b03909216919091179055505050565b6000546001600160a01b03163314610e185760405162461bcd60e51b815260040161042990611772565b6001600160a01b038116610e7d5760405162461bcd60e51b815260206004820152602660248201527f4f776e61626c653a206e6577206f776e657220697320746865207a65726f206160448201526564647265737360d01b6064820152608401610429565b610e8681610f0c565b50565b60006001600160e01b03198216637965db0b60e01b14806103f957506301ffc9a760e01b6001600160e01b03198316146103f9565b610e868133610f72565b610ed28282610fd6565b60008281526002602052604090206104329082611041565b610ef48282611056565b600082815260026020526040902061043290826110bd565b600080546001600160a01b038381166001600160a01b0319831681178455604051919092169283917f8be0079c531659141344cd1fd0a4f28419497f9722a3daafe3b4186f6b6457e09190a35050565b6000610bae83836110d2565b60006103f9825490565b610f7c8282610bb5565b61048c57610f94816001600160a01b031660146110fc565b610f9f8360206110fc565b604051602001610fb09291906118fb565b60408051601f198184030181529082905262461bcd60e51b825261042991600401611970565b610fe08282610bb5565b61048c5760008281526001602081815260408084206001600160a01b0386168086529252808420805460ff19169093179092559051339285917f2f8788117e7eff1d82e926ec794901d17c78024a50270940304540a733656f0d9190a45050565b6000610bae836001600160a01b038416611298565b6110608282610bb5565b1561048c5760008281526001602090815260408083206001600160a01b0385168085529252808320805460ff1916905551339285917ff6391f5c32d9c69d2a47ea670b442974b53935d1edc7fd64eb21e047a839171b9190a45050565b6000610bae836001600160a01b0384166112e7565b60008260000182815481106110e9576110e96117e2565b9060005260206000200154905092915050565b6060600061110b836002611999565b6111169060026119b8565b67ffffffffffffffff81111561112e5761112e61149d565b6040519080825280601f01601f191660200182016040528015611158576020820181803683370190505b509050600360fc1b81600081518110611173576111736117e2565b60200101906001600160f81b031916908160001a905350600f60fb1b816001815181106111a2576111a26117e2565b60200101906001600160f81b031916908160001a90535060006111c6846002611999565b6111d19060016119b8565b90505b6001811115611249576f181899199a1a9b1b9c1cb0b131b232b360811b85600f1660108110611205576112056117e2565b1a60f81b82828151811061121b5761121b6117e2565b60200101906001600160f81b031916908160001a90535060049490941c93611242816119d0565b90506111d4565b508315610bae5760405162461bcd60e51b815260206004820181905260248201527f537472696e67733a20686578206c656e67746820696e73756666696369656e746044820152606401610429565b60008181526001830160205260408120546112df575081546001818101845560008481526020808220909301849055845484825282860190935260409020919091556103f9565b5060006103f9565b600081815260018301602052604081205480156113d057600061130b6001836119e7565b855490915060009061131f906001906119e7565b905081811461138457600086600001828154811061133f5761133f6117e2565b9060005260206000200154905080876000018481548110611362576113626117e2565b6000918252602080832090910192909255918252600188019052604090208390555b8554869080611395576113956119fe565b6001900381819060005260206000200160009055905585600101600086815260200190815260200160002060009055600193505050506103f9565b60009150506103f9565b8280546113e6906117a7565b90600052602060002090601f016020900481019282611408576000855561144e565b82601f1061142157805160ff191683800117855561144e565b8280016001018555821561144e579182015b8281111561144e578251825591602001919060010190611433565b5061145a92915061145e565b5090565b5b8082111561145a576000815560010161145f565b60006020828403121561148557600080fd5b81356001600160e01b031981168114610bae57600080fd5b634e487b7160e01b600052604160045260246000fd5b6040516060810167ffffffffffffffff811182821017156114d6576114d661149d565b60405290565b604051601f8201601f1916810167ffffffffffffffff811182821017156115055761150561149d565b604052919050565b600067ffffffffffffffff8211156115275761152761149d565b50601f01601f191660200190565b6001600160a01b0381168114610e8657600080fd5b60008060006060848603121561155f57600080fd5b833567ffffffffffffffff81111561157657600080fd5b8401601f8101861361158757600080fd5b803561159a6115958261150d565b6114dc565b8181528760208385010111156115af57600080fd5b816020840160208301376000602083830101528095505050506020840135915060408401356115dd81611535565b809150509250925092565b6000602082840312156115fa57600080fd5b5035919050565b6000806040838503121561161457600080fd5b82359150602083013561162681611535565b809150509250929050565b60005b8381101561164c578181015183820152602001611634565b8381111561165b576000848401525b50505050565b60008151808452611679816020860160208601611631565b601f01601f19169290920160200192915050565b6000602080830181845280855180835260408601915060408160051b870101925083870160005b828110156116e257603f198886030184526116d0858351611661565b945092850192908501906001016116b4565b5092979650505050505050565b6020808252825182820181905260009190848201906040850190845b818110156117275783518352928401929184019160010161170b565b50909695505050505050565b6000806040838503121561174657600080fd5b50508035926020909101359150565b60006020828403121561176757600080fd5b8135610bae81611535565b6020808252818101527f4f776e61626c653a2063616c6c6572206973206e6f7420746865206f776e6572604082015260600190565b600181811c908216806117bb57607f821691505b602082108114156117dc57634e487b7160e01b600052602260045260246000fd5b50919050565b634e487b7160e01b600052603260045260246000fd5b60608152600061180b6060830186611661565b6020830194909452506001600160a01b0391909116604090910152919050565b805161183681611535565b919050565b6000602080838503121561184e57600080fd5b825167ffffffffffffffff8082111561186657600080fd5b908401906060828703121561187a57600080fd5b6118826114b3565b82518281111561189157600080fd5b83019150601f820187136118a457600080fd5b81516118b26115958261150d565b81815288868386010111156118c657600080fd5b6118d582878301888701611631565b82525082840151848201526118ec6040840161182b565b60408201529695505050505050565b7f416363657373436f6e74726f6c3a206163636f756e7420000000000000000000815260008351611933816017850160208801611631565b7001034b99036b4b9b9b4b733903937b6329607d1b6017918401918201528351611964816028840160208801611631565b01602801949350505050565b602081526000610bae6020830184611661565b634e487b7160e01b600052601160045260246000fd5b60008160001904831182151516156119b3576119b3611983565b500290565b600082198211156119cb576119cb611983565b500190565b6000816119df576119df611983565b506000190190565b6000828210156119f9576119f9611983565b500390565b634e487b7160e01b600052603160045260246000fdfea26469706673582212206efc7795f3e3165a86578d4e916921f3d6c52ea3435699952c4e4d4bc6105c2064736f6c63430008090033",
    "linkReferences": {
      "/Users/nicolascloutier/Documents/GitHub/akapz-dao/chain/contracts/Libraries/Founders.sol": {
        "Founders": [
          {
            "start": 3501,
            "length": 20
          }
        ]
      }
    }
  }
}