{
  "address": "0x5FbDB2315678afecb367f032d93F642f64180aa3",
  "abi": [
    {
      "inputs": [
        {
          "internalType": "string",
          "name": "name",
          "type": "string"
        },
        {
          "internalType": "string",
          "name": "symbol",
          "type": "string"
        },
        {
          "internalType": "address",
          "name": "owner_",
          "type": "address"
        }
      ],
      "stateMutability": "nonpayable",
      "type": "constructor"
    },
    {
      "anonymous": false,
      "inputs": [
        {
          "indexed": false,
          "internalType": "address",
          "name": "previousAdmin",
          "type": "address"
        },
        {
          "indexed": false,
          "internalType": "address",
          "name": "newAdmin",
          "type": "address"
        }
      ],
      "name": "AdminChanged",
      "type": "event"
    },
    {
      "anonymous": false,
      "inputs": [
        {
          "indexed": true,
          "internalType": "address",
          "name": "owner",
          "type": "address"
        },
        {
          "indexed": true,
          "internalType": "address",
          "name": "spender",
          "type": "address"
        },
        {
          "indexed": false,
          "internalType": "uint256",
          "name": "value",
          "type": "uint256"
        }
      ],
      "name": "Approval",
      "type": "event"
    },
    {
      "anonymous": false,
      "inputs": [
        {
          "indexed": true,
          "internalType": "address",
          "name": "beacon",
          "type": "address"
        }
      ],
      "name": "BeaconUpgraded",
      "type": "event"
    },
    {
      "anonymous": false,
      "inputs": [
        {
          "indexed": true,
          "internalType": "address",
          "name": "delegator",
          "type": "address"
        },
        {
          "indexed": true,
          "internalType": "address",
          "name": "fromDelegate",
          "type": "address"
        },
        {
          "indexed": true,
          "internalType": "address",
          "name": "toDelegate",
          "type": "address"
        }
      ],
      "name": "DelegateChanged",
      "type": "event"
    },
    {
      "anonymous": false,
      "inputs": [
        {
          "indexed": true,
          "internalType": "address",
          "name": "delegate",
          "type": "address"
        },
        {
          "indexed": false,
          "internalType": "uint256",
          "name": "previousBalance",
          "type": "uint256"
        },
        {
          "indexed": false,
          "internalType": "uint256",
          "name": "newBalance",
          "type": "uint256"
        }
      ],
      "name": "DelegateVotesChanged",
      "type": "event"
    },
    {
      "anonymous": false,
      "inputs": [
        {
          "indexed": true,
          "internalType": "address",
          "name": "_from",
          "type": "address"
        },
        {
          "indexed": false,
          "internalType": "uint256",
          "name": "_amount",
          "type": "uint256"
        }
      ],
      "name": "Deposited",
      "type": "event"
    },
    {
      "anonymous": false,
      "inputs": [
        {
          "indexed": true,
          "internalType": "bytes32",
          "name": "role",
          "type": "bytes32"
        },
        {
          "indexed": true,
          "internalType": "bytes32",
          "name": "previousAdminRole",
          "type": "bytes32"
        },
        {
          "indexed": true,
          "internalType": "bytes32",
          "name": "newAdminRole",
          "type": "bytes32"
        }
      ],
      "name": "RoleAdminChanged",
      "type": "event"
    },
    {
      "anonymous": false,
      "inputs": [
        {
          "indexed": true,
          "internalType": "bytes32",
          "name": "role",
          "type": "bytes32"
        },
        {
          "indexed": true,
          "internalType": "address",
          "name": "account",
          "type": "address"
        },
        {
          "indexed": true,
          "internalType": "address",
          "name": "sender",
          "type": "address"
        }
      ],
      "name": "RoleGranted",
      "type": "event"
    },
    {
      "anonymous": false,
      "inputs": [
        {
          "indexed": true,
          "internalType": "bytes32",
          "name": "role",
          "type": "bytes32"
        },
        {
          "indexed": true,
          "internalType": "address",
          "name": "account",
          "type": "address"
        },
        {
          "indexed": true,
          "internalType": "address",
          "name": "sender",
          "type": "address"
        }
      ],
      "name": "RoleRevoked",
      "type": "event"
    },
    {
      "anonymous": false,
      "inputs": [
        {
          "indexed": true,
          "internalType": "address",
          "name": "from",
          "type": "address"
        },
        {
          "indexed": true,
          "internalType": "address",
          "name": "to",
          "type": "address"
        },
        {
          "indexed": false,
          "internalType": "uint256",
          "name": "value",
          "type": "uint256"
        }
      ],
      "name": "Transfer",
      "type": "event"
    },
    {
      "anonymous": false,
      "inputs": [
        {
          "indexed": true,
          "internalType": "address",
          "name": "implementation",
          "type": "address"
        }
      ],
      "name": "Upgraded",
      "type": "event"
    },
    {
      "inputs": [],
      "name": "DEFAULT_ADMIN_ROLE",
      "outputs": [
        {
          "internalType": "bytes32",
          "name": "",
          "type": "bytes32"
        }
      ],
      "stateMutability": "view",
      "type": "function"
    },
    {
      "inputs": [],
      "name": "DOMAIN_SEPARATOR",
      "outputs": [
        {
          "internalType": "bytes32",
          "name": "",
          "type": "bytes32"
        }
      ],
      "stateMutability": "view",
      "type": "function"
    },
    {
      "inputs": [
        {
          "internalType": "address",
          "name": "owner",
          "type": "address"
        },
        {
          "internalType": "address",
          "name": "spender",
          "type": "address"
        }
      ],
      "name": "allowance",
      "outputs": [
        {
          "internalType": "uint256",
          "name": "",
          "type": "uint256"
        }
      ],
      "stateMutability": "view",
      "type": "function"
    },
    {
      "inputs": [
        {
          "internalType": "address",
          "name": "spender",
          "type": "address"
        },
        {
          "internalType": "uint256",
          "name": "amount",
          "type": "uint256"
        }
      ],
      "name": "approve",
      "outputs": [
        {
          "internalType": "bool",
          "name": "",
          "type": "bool"
        }
      ],
      "stateMutability": "nonpayable",
      "type": "function"
    },
    {
      "inputs": [
        {
          "internalType": "address",
          "name": "account",
          "type": "address"
        }
      ],
      "name": "balanceOf",
      "outputs": [
        {
          "internalType": "uint256",
          "name": "",
          "type": "uint256"
        }
      ],
      "stateMutability": "view",
      "type": "function"
    },
    {
      "inputs": [
        {
          "internalType": "address",
          "name": "account",
          "type": "address"
        },
        {
          "internalType": "uint32",
          "name": "pos",
          "type": "uint32"
        }
      ],
      "name": "checkpoints",
      "outputs": [
        {
          "components": [
            {
              "internalType": "uint32",
              "name": "fromBlock",
              "type": "uint32"
            },
            {
              "internalType": "uint224",
              "name": "votes",
              "type": "uint224"
            }
          ],
          "internalType": "struct ERC20Votes.Checkpoint",
          "name": "",
          "type": "tuple"
        }
      ],
      "stateMutability": "view",
      "type": "function"
    },
    {
      "inputs": [],
      "name": "decimals",
      "outputs": [
        {
          "internalType": "uint8",
          "name": "",
          "type": "uint8"
        }
      ],
      "stateMutability": "view",
      "type": "function"
    },
    {
      "inputs": [
        {
          "internalType": "address",
          "name": "spender",
          "type": "address"
        },
        {
          "internalType": "uint256",
          "name": "subtractedValue",
          "type": "uint256"
        }
      ],
      "name": "decreaseAllowance",
      "outputs": [
        {
          "internalType": "bool",
          "name": "",
          "type": "bool"
        }
      ],
      "stateMutability": "nonpayable",
      "type": "function"
    },
    {
      "inputs": [
        {
          "internalType": "address",
          "name": "delegatee",
          "type": "address"
        }
      ],
      "name": "delegate",
      "outputs": [],
      "stateMutability": "nonpayable",
      "type": "function"
    },
    {
      "inputs": [
        {
          "internalType": "address",
          "name": "delegatee",
          "type": "address"
        },
        {
          "internalType": "uint256",
          "name": "nonce",
          "type": "uint256"
        },
        {
          "internalType": "uint256",
          "name": "expiry",
          "type": "uint256"
        },
        {
          "internalType": "uint8",
          "name": "v",
          "type": "uint8"
        },
        {
          "internalType": "bytes32",
          "name": "r",
          "type": "bytes32"
        },
        {
          "internalType": "bytes32",
          "name": "s",
          "type": "bytes32"
        }
      ],
      "name": "delegateBySig",
      "outputs": [],
      "stateMutability": "nonpayable",
      "type": "function"
    },
    {
      "inputs": [
        {
          "internalType": "address",
          "name": "account",
          "type": "address"
        }
      ],
      "name": "delegates",
      "outputs": [
        {
          "internalType": "address",
          "name": "",
          "type": "address"
        }
      ],
      "stateMutability": "view",
      "type": "function"
    },
    {
      "inputs": [
        {
          "internalType": "uint256",
          "name": "blockNumber",
          "type": "uint256"
        }
      ],
      "name": "getPastTotalSupply",
      "outputs": [
        {
          "internalType": "uint256",
          "name": "",
          "type": "uint256"
        }
      ],
      "stateMutability": "view",
      "type": "function"
    },
    {
      "inputs": [
        {
          "internalType": "address",
          "name": "account",
          "type": "address"
        },
        {
          "internalType": "uint256",
          "name": "blockNumber",
          "type": "uint256"
        }
      ],
      "name": "getPastVotes",
      "outputs": [
        {
          "internalType": "uint256",
          "name": "",
          "type": "uint256"
        }
      ],
      "stateMutability": "view",
      "type": "function"
    },
    {
      "inputs": [
        {
          "internalType": "bytes32",
          "name": "role",
          "type": "bytes32"
        }
      ],
      "name": "getRoleAdmin",
      "outputs": [
        {
          "internalType": "bytes32",
          "name": "",
          "type": "bytes32"
        }
      ],
      "stateMutability": "view",
      "type": "function"
    },
    {
      "inputs": [
        {
          "internalType": "bytes32",
          "name": "role",
          "type": "bytes32"
        },
        {
          "internalType": "uint256",
          "name": "index",
          "type": "uint256"
        }
      ],
      "name": "getRoleMember",
      "outputs": [
        {
          "internalType": "address",
          "name": "",
          "type": "address"
        }
      ],
      "stateMutability": "view",
      "type": "function"
    },
    {
      "inputs": [
        {
          "internalType": "bytes32",
          "name": "role",
          "type": "bytes32"
        }
      ],
      "name": "getRoleMemberCount",
      "outputs": [
        {
          "internalType": "uint256",
          "name": "",
          "type": "uint256"
        }
      ],
      "stateMutability": "view",
      "type": "function"
    },
    {
      "inputs": [
        {
          "internalType": "address",
          "name": "account",
          "type": "address"
        }
      ],
      "name": "getVotes",
      "outputs": [
        {
          "internalType": "uint256",
          "name": "",
          "type": "uint256"
        }
      ],
      "stateMutability": "view",
      "type": "function"
    },
    {
      "inputs": [
        {
          "internalType": "bytes32",
          "name": "role",
          "type": "bytes32"
        },
        {
          "internalType": "address",
          "name": "account",
          "type": "address"
        }
      ],
      "name": "grantRole",
      "outputs": [],
      "stateMutability": "nonpayable",
      "type": "function"
    },
    {
      "inputs": [
        {
          "internalType": "bytes32",
          "name": "role",
          "type": "bytes32"
        },
        {
          "internalType": "address",
          "name": "account",
          "type": "address"
        }
      ],
      "name": "hasRole",
      "outputs": [
        {
          "internalType": "bool",
          "name": "",
          "type": "bool"
        }
      ],
      "stateMutability": "view",
      "type": "function"
    },
    {
      "inputs": [
        {
          "internalType": "address",
          "name": "spender",
          "type": "address"
        },
        {
          "internalType": "uint256",
          "name": "addedValue",
          "type": "uint256"
        }
      ],
      "name": "increaseAllowance",
      "outputs": [
        {
          "internalType": "bool",
          "name": "",
          "type": "bool"
        }
      ],
      "stateMutability": "nonpayable",
      "type": "function"
    },
    {
      "inputs": [],
      "name": "name",
      "outputs": [
        {
          "internalType": "string",
          "name": "",
          "type": "string"
        }
      ],
      "stateMutability": "view",
      "type": "function"
    },
    {
      "inputs": [
        {
          "internalType": "address",
          "name": "owner",
          "type": "address"
        }
      ],
      "name": "nonces",
      "outputs": [
        {
          "internalType": "uint256",
          "name": "",
          "type": "uint256"
        }
      ],
      "stateMutability": "view",
      "type": "function"
    },
    {
      "inputs": [
        {
          "internalType": "address",
          "name": "account",
          "type": "address"
        }
      ],
      "name": "numCheckpoints",
      "outputs": [
        {
          "internalType": "uint32",
          "name": "",
          "type": "uint32"
        }
      ],
      "stateMutability": "view",
      "type": "function"
    },
    {
      "inputs": [
        {
          "internalType": "address",
          "name": "owner",
          "type": "address"
        },
        {
          "internalType": "address",
          "name": "spender",
          "type": "address"
        },
        {
          "internalType": "uint256",
          "name": "value",
          "type": "uint256"
        },
        {
          "internalType": "uint256",
          "name": "deadline",
          "type": "uint256"
        },
        {
          "internalType": "uint8",
          "name": "v",
          "type": "uint8"
        },
        {
          "internalType": "bytes32",
          "name": "r",
          "type": "bytes32"
        },
        {
          "internalType": "bytes32",
          "name": "s",
          "type": "bytes32"
        }
      ],
      "name": "permit",
      "outputs": [],
      "stateMutability": "nonpayable",
      "type": "function"
    },
    {
      "inputs": [],
      "name": "proxiableUUID",
      "outputs": [
        {
          "internalType": "bytes32",
          "name": "",
          "type": "bytes32"
        }
      ],
      "stateMutability": "view",
      "type": "function"
    },
    {
      "inputs": [
        {
          "internalType": "bytes32",
          "name": "role",
          "type": "bytes32"
        },
        {
          "internalType": "address",
          "name": "account",
          "type": "address"
        }
      ],
      "name": "renounceRole",
      "outputs": [],
      "stateMutability": "nonpayable",
      "type": "function"
    },
    {
      "inputs": [
        {
          "internalType": "bytes32",
          "name": "role",
          "type": "bytes32"
        },
        {
          "internalType": "address",
          "name": "account",
          "type": "address"
        }
      ],
      "name": "revokeRole",
      "outputs": [],
      "stateMutability": "nonpayable",
      "type": "function"
    },
    {
      "inputs": [],
      "name": "s_maxSupply",
      "outputs": [
        {
          "internalType": "uint256",
          "name": "",
          "type": "uint256"
        }
      ],
      "stateMutability": "view",
      "type": "function"
    },
    {
      "inputs": [
        {
          "internalType": "bytes4",
          "name": "interfaceId",
          "type": "bytes4"
        }
      ],
      "name": "supportsInterface",
      "outputs": [
        {
          "internalType": "bool",
          "name": "",
          "type": "bool"
        }
      ],
      "stateMutability": "view",
      "type": "function"
    },
    {
      "inputs": [],
      "name": "symbol",
      "outputs": [
        {
          "internalType": "string",
          "name": "",
          "type": "string"
        }
      ],
      "stateMutability": "view",
      "type": "function"
    },
    {
      "inputs": [],
      "name": "totalSupply",
      "outputs": [
        {
          "internalType": "uint256",
          "name": "",
          "type": "uint256"
        }
      ],
      "stateMutability": "view",
      "type": "function"
    },
    {
      "inputs": [
        {
          "internalType": "address",
          "name": "to",
          "type": "address"
        },
        {
          "internalType": "uint256",
          "name": "amount",
          "type": "uint256"
        }
      ],
      "name": "transfer",
      "outputs": [
        {
          "internalType": "bool",
          "name": "",
          "type": "bool"
        }
      ],
      "stateMutability": "nonpayable",
      "type": "function"
    },
    {
      "inputs": [
        {
          "internalType": "address",
          "name": "from",
          "type": "address"
        },
        {
          "internalType": "address",
          "name": "to",
          "type": "address"
        },
        {
          "internalType": "uint256",
          "name": "amount",
          "type": "uint256"
        }
      ],
      "name": "transferFrom",
      "outputs": [
        {
          "internalType": "bool",
          "name": "",
          "type": "bool"
        }
      ],
      "stateMutability": "nonpayable",
      "type": "function"
    },
    {
      "inputs": [
        {
          "internalType": "address",
          "name": "newImplementation",
          "type": "address"
        }
      ],
      "name": "upgradeTo",
      "outputs": [],
      "stateMutability": "nonpayable",
      "type": "function"
    },
    {
      "inputs": [
        {
          "internalType": "address",
          "name": "newImplementation",
          "type": "address"
        },
        {
          "internalType": "bytes",
          "name": "data",
          "type": "bytes"
        }
      ],
      "name": "upgradeToAndCall",
      "outputs": [],
      "stateMutability": "payable",
      "type": "function"
    },
    {
      "stateMutability": "payable",
      "type": "receive"
    }
  ],
  "transactionHash": "0x31c98908ea575322f55afd5f4666edea1da2e885247c12a71fdd153c2673dfd3",
  "args": [
    "Akapz DAO",
    "AKAP",
    "0xf39Fd6e51aad88F6F4ce6aB8827279cffFb92266"
  ],
  "numDeployments": 1,
  "solcInputHash": "02d08e8e978d1250a16edc6018b54473",
  "bytecode": "0x6101606040523073ffffffffffffffffffffffffffffffffffffffff1660809073ffffffffffffffffffffffffffffffffffffffff168152506000600d556a52b7d2dcc80cd2e4000000600e553480156200005957600080fd5b506040516200732e3803806200732e83398181016040528101906200007f9190620011fe565b6040518060400160405280600581526020017f416b61707a000000000000000000000000000000000000000000000000000000815250806040518060400160405280600181526020017f3100000000000000000000000000000000000000000000000000000000000000815250858581600590805190602001906200010692919062000f4c565b5080600690805190602001906200011f92919062000f4c565b50505060008280519060200120905060008280519060200120905060007f8b73c3c69bb8fe3d512ecc4cf759cc79239f7b179b0ffacaa9a75d522b39400f90508261010081815250508161012081815250504660c081815250506200018c8184846200029a60201b60201c565b60a081815250503073ffffffffffffffffffffffffffffffffffffffff1660e08173ffffffffffffffffffffffffffffffffffffffff16815250508061014081815250505050505050506000600d5414156200025457620001f381620002d660201b60201c565b6200022b6040516020016200020890620012f9565b60405160208183030381529060405280519060200120826200038d60201b60201c565b6200024e6200023f620003a360201b60201c565b600e54620003ab60201b60201c565b62000291565b6040517f08c379a000000000000000000000000000000000000000000000000000000000815260040162000288906200136b565b60405180910390fd5b50505062001882565b60008383834630604051602001620002b7959493929190620013d4565b6040516020818303038152906040528051906020012090509392505050565b600073ffffffffffffffffffffffffffffffffffffffff168173ffffffffffffffffffffffffffffffffffffffff16141562000349576040517f08c379a0000000000000000000000000000000000000000000000000000000008152600401620003409062001481565b60405180910390fd5b80600c60006101000a81548173ffffffffffffffffffffffffffffffffffffffff021916908373ffffffffffffffffffffffffffffffffffffffff16021790555050565b6200039f8282620003c660201b60201c565b5050565b600033905090565b620003c282826200040e60201b620018dd1760201c565b5050565b620003dd8282620004cc60201b6200196a1760201c565b620004098160016000858152602001908152602001600020620005bd60201b62001a4a1790919060201c565b505050565b620004258282620005f560201b62001a7a1760201c565b620004356200076f60201b60201c565b7bffffffffffffffffffffffffffffffffffffffffffffffffffffffff16620004636200079360201b60201c565b1115620004a7576040517f08c379a00000000000000000000000000000000000000000000000000000000081526004016200049e9062001519565b60405180910390fd5b620004c6600b6200079d60201b62001bdb1783620007b560201b60201c565b50505050565b620004de828262000a6660201b60201c565b620005b957600160008084815260200190815260200160002060000160008373ffffffffffffffffffffffffffffffffffffffff1673ffffffffffffffffffffffffffffffffffffffff16815260200190815260200160002060006101000a81548160ff0219169083151502179055506200055e620003a360201b60201c565b73ffffffffffffffffffffffffffffffffffffffff168173ffffffffffffffffffffffffffffffffffffffff16837f2f8788117e7eff1d82e926ec794901d17c78024a50270940304540a733656f0d60405160405180910390a45b5050565b6000620005ed836000018373ffffffffffffffffffffffffffffffffffffffff1660001b62000ad060201b60201c565b905092915050565b600073ffffffffffffffffffffffffffffffffffffffff168273ffffffffffffffffffffffffffffffffffffffff16141562000668576040517f08c379a00000000000000000000000000000000000000000000000000000000081526004016200065f906200158b565b60405180910390fd5b6200067c6000838362000b4a60201b60201c565b8060046000828254620006909190620015dc565b9250508190555080600260008473ffffffffffffffffffffffffffffffffffffffff1673ffffffffffffffffffffffffffffffffffffffff1681526020019081526020016000206000828254620006e89190620015dc565b925050819055508173ffffffffffffffffffffffffffffffffffffffff16600073ffffffffffffffffffffffffffffffffffffffff167fddf252ad1be2c89b69c2b068fc378daa952ba7f163c4a11628f55a4df523b3ef836040516200074f919062001639565b60405180910390a36200076b6000838362000b4f60201b60201c565b5050565b60007bffffffffffffffffffffffffffffffffffffffffffffffffffffffff905090565b6000600454905090565b60008183620007ad9190620015dc565b905092915050565b600080600085805490509050600081146200082a5785600182620007da919062001656565b81548110620007ee57620007ed62001691565b5b9060005260206000200160000160049054906101000a90047bffffffffffffffffffffffffffffffffffffffffffffffffffffffff166200082d565b60005b7bffffffffffffffffffffffffffffffffffffffffffffffffffffffff1692506200085983858760201c565b9150600081118015620008b25750438660018362000878919062001656565b815481106200088c576200088b62001691565b5b9060005260206000200160000160009054906101000a900463ffffffff1663ffffffff16145b156200095357620008ce8262000b6c60201b62001bf11760201c565b86600183620008de919062001656565b81548110620008f257620008f162001691565b5b9060005260206000200160000160046101000a8154817bffffffffffffffffffffffffffffffffffffffffffffffffffffffff02191690837bffffffffffffffffffffffffffffffffffffffffffffffffffffffff16021790555062000a5d565b856040518060400160405280620009754362000bda60201b62001c5c1760201c565b63ffffffff168152602001620009968562000b6c60201b62001bf11760201c565b7bffffffffffffffffffffffffffffffffffffffffffffffffffffffff168152509080600181540180825580915050600190039060005260206000200160009091909190915060008201518160000160006101000a81548163ffffffff021916908363ffffffff16021790555060208201518160000160046101000a8154817bffffffffffffffffffffffffffffffffffffffffffffffffffffffff02191690837bffffffffffffffffffffffffffffffffffffffffffffffffffffffff16021790555050505b50935093915050565b600080600084815260200190815260200160002060000160008373ffffffffffffffffffffffffffffffffffffffff1673ffffffffffffffffffffffffffffffffffffffff16815260200190815260200160002060009054906101000a900460ff16905092915050565b600062000ae4838362000c3060201b60201c565b62000b3f57826000018290806001815401808255809150506001900390600052602060002001600090919091909150558260000180549050836001016000848152602001908152602001600020819055506001905062000b44565b600090505b92915050565b505050565b62000b6783838362000c5360201b62001caf1760201c565b505050565b60007bffffffffffffffffffffffffffffffffffffffffffffffffffffffff801682111562000bd2576040517f08c379a000000000000000000000000000000000000000000000000000000000815260040162000bc99062001736565b60405180910390fd5b819050919050565b600063ffffffff801682111562000c28576040517f08c379a000000000000000000000000000000000000000000000000000000000815260040162000c1f90620017ce565b60405180910390fd5b819050919050565b600080836001016000848152602001908152602001600020541415905092915050565b62000c6b83838362000ca360201b62001cda1760201c565b62000c9e62000c808462000ca860201b60201c565b62000c918462000ca860201b60201c565b8362000d1160201b60201c565b505050565b505050565b6000600960008373ffffffffffffffffffffffffffffffffffffffff1673ffffffffffffffffffffffffffffffffffffffff16815260200190815260200160002060009054906101000a900473ffffffffffffffffffffffffffffffffffffffff169050919050565b8173ffffffffffffffffffffffffffffffffffffffff168373ffffffffffffffffffffffffffffffffffffffff161415801562000d4e5750600081115b1562000f2f57600073ffffffffffffffffffffffffffffffffffffffff168373ffffffffffffffffffffffffffffffffffffffff161462000e415760008062000de8600a60008773ffffffffffffffffffffffffffffffffffffffff1673ffffffffffffffffffffffffffffffffffffffff16815260200190815260200160002062000f3460201b62001cdf1785620007b560201b60201c565b915091508473ffffffffffffffffffffffffffffffffffffffff167fdec2bacdd2f05b59de34da9b523dff8be42e5e38e818c82fdb0bae774387a724838360405162000e36929190620017f0565b60405180910390a250505b600073ffffffffffffffffffffffffffffffffffffffff168273ffffffffffffffffffffffffffffffffffffffff161462000f2e5760008062000ed5600a60008673ffffffffffffffffffffffffffffffffffffffff1673ffffffffffffffffffffffffffffffffffffffff1681526020019081526020016000206200079d60201b62001bdb1785620007b560201b60201c565b915091508373ffffffffffffffffffffffffffffffffffffffff167fdec2bacdd2f05b59de34da9b523dff8be42e5e38e818c82fdb0bae774387a724838360405162000f23929190620017f0565b60405180910390a250505b5b505050565b6000818362000f44919062001656565b905092915050565b82805462000f5a906200184c565b90600052602060002090601f01602090048101928262000f7e576000855562000fca565b82601f1062000f9957805160ff191683800117855562000fca565b8280016001018555821562000fca579182015b8281111562000fc957825182559160200191906001019062000fac565b5b50905062000fd9919062000fdd565b5090565b5b8082111562000ff857600081600090555060010162000fde565b5090565b6000604051905090565b600080fd5b600080fd5b600080fd5b600080fd5b6000601f19601f8301169050919050565b7f4e487b7100000000000000000000000000000000000000000000000000000000600052604160045260246000fd5b62001065826200101a565b810181811067ffffffffffffffff821117156200108757620010866200102b565b5b80604052505050565b60006200109c62000ffc565b9050620010aa82826200105a565b919050565b600067ffffffffffffffff821115620010cd57620010cc6200102b565b5b620010d8826200101a565b9050602081019050919050565b60005b8381101562001105578082015181840152602081019050620010e8565b8381111562001115576000848401525b50505050565b6000620011326200112c84620010af565b62001090565b90508281526020810184848401111562001151576200115062001015565b5b6200115e848285620010e5565b509392505050565b600082601f8301126200117e576200117d62001010565b5b8151620011908482602086016200111b565b91505092915050565b600073ffffffffffffffffffffffffffffffffffffffff82169050919050565b6000620011c68262001199565b9050919050565b620011d881620011b9565b8114620011e457600080fd5b50565b600081519050620011f881620011cd565b92915050565b6000806000606084860312156200121a576200121962001006565b5b600084015167ffffffffffffffff8111156200123b576200123a6200100b565b5b620012498682870162001166565b935050602084015167ffffffffffffffff8111156200126d576200126c6200100b565b5b6200127b8682870162001166565b92505060406200128e86828701620011e7565b9150509250925092565b600082825260208201905092915050565b7f55504752414445525f524f4c4500000000000000000000000000000000000000600082015250565b6000620012e1600d8362001298565b9150620012ee82620012a9565b602082019050919050565b600060208201905081810360008301526200131481620012d2565b9050919050565b7f616c726561647920696e697469616c697a656400000000000000000000000000600082015250565b60006200135360138362001298565b915062001360826200131b565b602082019050919050565b60006020820190508181036000830152620013868162001344565b9050919050565b6000819050919050565b620013a2816200138d565b82525050565b6000819050919050565b620013bd81620013a8565b82525050565b620013ce81620011b9565b82525050565b600060a082019050620013eb600083018862001397565b620013fa602083018762001397565b62001409604083018662001397565b620014186060830185620013b2565b620014276080830184620013c3565b9695505050505050565b7f6f776e65722063616e6e6f742062652061646472657373207a65726f00000000600082015250565b600062001469601c8362001298565b9150620014768262001431565b602082019050919050565b600060208201905081810360008301526200149c816200145a565b9050919050565b7f4552433230566f7465733a20746f74616c20737570706c79207269736b73206f60008201527f766572666c6f77696e6720766f74657300000000000000000000000000000000602082015250565b60006200150160308362001298565b91506200150e82620014a3565b604082019050919050565b600060208201905081810360008301526200153481620014f2565b9050919050565b7f45524332303a206d696e7420746f20746865207a65726f206164647265737300600082015250565b600062001573601f8362001298565b915062001580826200153b565b602082019050919050565b60006020820190508181036000830152620015a68162001564565b9050919050565b7f4e487b7100000000000000000000000000000000000000000000000000000000600052601160045260246000fd5b6000620015e982620013a8565b9150620015f683620013a8565b9250827fffffffffffffffffffffffffffffffffffffffffffffffffffffffffffffffff038211156200162e576200162d620015ad565b5b828201905092915050565b6000602082019050620016506000830184620013b2565b92915050565b60006200166382620013a8565b91506200167083620013a8565b925082821015620016865762001685620015ad565b5b828203905092915050565b7f4e487b7100000000000000000000000000000000000000000000000000000000600052603260045260246000fd5b7f53616665436173743a2076616c756520646f65736e27742066697420696e203260008201527f3234206269747300000000000000000000000000000000000000000000000000602082015250565b60006200171e60278362001298565b91506200172b82620016c0565b604082019050919050565b6000602082019050818103600083015262001751816200170f565b9050919050565b7f53616665436173743a2076616c756520646f65736e27742066697420696e203360008201527f3220626974730000000000000000000000000000000000000000000000000000602082015250565b6000620017b660268362001298565b9150620017c38262001758565b604082019050919050565b60006020820190508181036000830152620017e981620017a7565b9050919050565b6000604082019050620018076000830185620013b2565b620018166020830184620013b2565b9392505050565b7f4e487b7100000000000000000000000000000000000000000000000000000000600052602260045260246000fd5b600060028204905060018216806200186557607f821691505b602082108114156200187c576200187b6200181d565b5b50919050565b60805160a05160c05160e051610100516101205161014051615a35620018f96000396000612340015260006123820152600061236101526000612296015260006122ec01526000612315015260008181610bd001528181610c5f01528181610e2401528181610eb30152610f630152615a356000f3fe6080604052600436106102085760003560e01c80635d64184711610118578063a217fddf116100a0578063ca15c8731161006f578063ca15c8731461087a578063d505accf146108b7578063d547741f146108e0578063dd62ed3e14610909578063f1127ed81461094657610264565b8063a217fddf146107ac578063a457c2d7146107d7578063a9059cbb14610814578063c3cda5201461085157610264565b80638e539e8c116100e75780638e539e8c1461068d5780639010d07c146106ca57806391d148541461070757806395d89b41146107445780639ab24eb01461076f57610264565b80635d641847146105ab5780636fcfff45146105d657806370a08231146106135780637ecebe001461065057610264565b80633644e5151161019b5780633a46b1a81161016a5780633a46b1a8146104c15780634f1ef286146104fe57806352d1902d1461051a578063587cde1e146105455780635c19a95c1461058257610264565b80633644e5151461040757806336568abe146104325780633659cfe61461045b578063395093511461048457610264565b806323b872dd116101d757806323b872dd14610339578063248a9ca3146103765780632f2ff15d146103b3578063313ce567146103dc57610264565b806301ffc9a71461026957806306fdde03146102a6578063095ea7b3146102d157806318160ddd1461030e57610264565b3661026457610215610983565b73ffffffffffffffffffffffffffffffffffffffff167f2da466a7b24304f47e87fa2e1e5a81b9831ce54fec19055ce277ca2f39ba42c43460405161025a9190613ac2565b60405180910390a2005b600080fd5b34801561027557600080fd5b50610290600480360381019061028b9190613b49565b61098b565b60405161029d9190613b91565b60405180910390f35b3480156102b257600080fd5b506102bb610a05565b6040516102c89190613c45565b60405180910390f35b3480156102dd57600080fd5b506102f860048036038101906102f39190613cf1565b610a97565b6040516103059190613b91565b60405180910390f35b34801561031a57600080fd5b50610323610aba565b6040516103309190613ac2565b60405180910390f35b34801561034557600080fd5b50610360600480360381019061035b9190613d31565b610ac4565b60405161036d9190613b91565b60405180910390f35b34801561038257600080fd5b5061039d60048036038101906103989190613dba565b610af3565b6040516103aa9190613df6565b60405180910390f35b3480156103bf57600080fd5b506103da60048036038101906103d59190613e11565b610b12565b005b3480156103e857600080fd5b506103f1610b33565b6040516103fe9190613e6d565b60405180910390f35b34801561041357600080fd5b5061041c610b3c565b6040516104299190613df6565b60405180910390f35b34801561043e57600080fd5b5061045960048036038101906104549190613e11565b610b4b565b005b34801561046757600080fd5b50610482600480360381019061047d9190613e88565b610bce565b005b34801561049057600080fd5b506104ab60048036038101906104a69190613cf1565b610d57565b6040516104b89190613b91565b60405180910390f35b3480156104cd57600080fd5b506104e860048036038101906104e39190613cf1565b610d8e565b6040516104f59190613ac2565b60405180910390f35b61051860048036038101906105139190613fea565b610e22565b005b34801561052657600080fd5b5061052f610f5f565b60405161053c9190613df6565b60405180910390f35b34801561055157600080fd5b5061056c60048036038101906105679190613e88565b611018565b6040516105799190614055565b60405180910390f35b34801561058e57600080fd5b506105a960048036038101906105a49190613e88565b611081565b005b3480156105b757600080fd5b506105c0611095565b6040516105cd9190613ac2565b60405180910390f35b3480156105e257600080fd5b506105fd60048036038101906105f89190613e88565b61109b565b60405161060a919061408f565b60405180910390f35b34801561061f57600080fd5b5061063a60048036038101906106359190613e88565b6110ef565b6040516106479190613ac2565b60405180910390f35b34801561065c57600080fd5b5061067760048036038101906106729190613e88565b611138565b6040516106849190613ac2565b60405180910390f35b34801561069957600080fd5b506106b460048036038101906106af91906140aa565b611188565b6040516106c19190613ac2565b60405180910390f35b3480156106d657600080fd5b506106f160048036038101906106ec91906140d7565b6111de565b6040516106fe9190614055565b60405180910390f35b34801561071357600080fd5b5061072e60048036038101906107299190613e11565b61120d565b60405161073b9190613b91565b60405180910390f35b34801561075057600080fd5b50610759611277565b6040516107669190613c45565b60405180910390f35b34801561077b57600080fd5b5061079660048036038101906107919190613e88565b611309565b6040516107a39190613ac2565b60405180910390f35b3480156107b857600080fd5b506107c161141a565b6040516107ce9190613df6565b60405180910390f35b3480156107e357600080fd5b506107fe60048036038101906107f99190613cf1565b611421565b60405161080b9190613b91565b60405180910390f35b34801561082057600080fd5b5061083b60048036038101906108369190613cf1565b611498565b6040516108489190613b91565b60405180910390f35b34801561085d57600080fd5b5061087860048036038101906108739190614143565b6114bb565b005b34801561088657600080fd5b506108a1600480360381019061089c9190613dba565b6115bf565b6040516108ae9190613ac2565b60405180910390f35b3480156108c357600080fd5b506108de60048036038101906108d991906141d0565b6115e3565b005b3480156108ec57600080fd5b5061090760048036038101906109029190613e11565b611725565b005b34801561091557600080fd5b50610930600480360381019061092b9190614272565b611746565b60405161093d9190613ac2565b60405180910390f35b34801561095257600080fd5b5061096d600480360381019061096891906142de565b6117cd565b60405161097a9190614393565b60405180910390f35b600033905090565b60007f5a05180f000000000000000000000000000000000000000000000000000000007bffffffffffffffffffffffffffffffffffffffffffffffffffffffff1916827bffffffffffffffffffffffffffffffffffffffffffffffffffffffff191614806109fe57506109fd82611cf5565b5b9050919050565b606060058054610a14906143dd565b80601f0160208091040260200160405190810160405280929190818152602001828054610a40906143dd565b8015610a8d5780601f10610a6257610100808354040283529160200191610a8d565b820191906000526020600020905b815481529060010190602001808311610a7057829003601f168201915b5050505050905090565b600080610aa2610983565b9050610aaf818585611d6f565b600191505092915050565b6000600454905090565b600080610acf610983565b9050610adc858285611f3a565b610ae7858585611fc6565b60019150509392505050565b6000806000838152602001908152602001600020600101549050919050565b610b1b82610af3565b610b248161224a565b610b2e838361225e565b505050565b60006012905090565b6000610b46612292565b905090565b610b53610983565b73ffffffffffffffffffffffffffffffffffffffff168173ffffffffffffffffffffffffffffffffffffffff1614610bc0576040517f08c379a0000000000000000000000000000000000000000000000000000000008152600401610bb790614481565b60405180910390fd5b610bca82826123ac565b5050565b7f000000000000000000000000000000000000000000000000000000000000000073ffffffffffffffffffffffffffffffffffffffff163073ffffffffffffffffffffffffffffffffffffffff161415610c5d576040517f08c379a0000000000000000000000000000000000000000000000000000000008152600401610c5490614513565b60405180910390fd5b7f000000000000000000000000000000000000000000000000000000000000000073ffffffffffffffffffffffffffffffffffffffff16610c9c6123e0565b73ffffffffffffffffffffffffffffffffffffffff1614610cf2576040517f08c379a0000000000000000000000000000000000000000000000000000000008152600401610ce9906145a5565b60405180910390fd5b610cfb81612437565b610d5481600067ffffffffffffffff811115610d1a57610d19613ebf565b5b6040519080825280601f01601f191660200182016040528015610d4c5781602001600182028036833780820191505090505b5060006124b0565b50565b600080610d62610983565b9050610d83818585610d748589611746565b610d7e91906145f4565b611d6f565b600191505092915050565b6000438210610dd2576040517f08c379a0000000000000000000000000000000000000000000000000000000008152600401610dc990614696565b60405180910390fd5b610e1a600a60008573ffffffffffffffffffffffffffffffffffffffff1673ffffffffffffffffffffffffffffffffffffffff1681526020019081526020016000208361262d565b905092915050565b7f000000000000000000000000000000000000000000000000000000000000000073ffffffffffffffffffffffffffffffffffffffff163073ffffffffffffffffffffffffffffffffffffffff161415610eb1576040517f08c379a0000000000000000000000000000000000000000000000000000000008152600401610ea890614513565b60405180910390fd5b7f000000000000000000000000000000000000000000000000000000000000000073ffffffffffffffffffffffffffffffffffffffff16610ef06123e0565b73ffffffffffffffffffffffffffffffffffffffff1614610f46576040517f08c379a0000000000000000000000000000000000000000000000000000000008152600401610f3d906145a5565b60405180910390fd5b610f4f82612437565b610f5b828260016124b0565b5050565b60007f000000000000000000000000000000000000000000000000000000000000000073ffffffffffffffffffffffffffffffffffffffff163073ffffffffffffffffffffffffffffffffffffffff1614610fef576040517f08c379a0000000000000000000000000000000000000000000000000000000008152600401610fe690614728565b60405180910390fd5b7f360894a13ba1a3210667c828492db98dca3e2076cc3735a920a3ca505d382bbc60001b905090565b6000600960008373ffffffffffffffffffffffffffffffffffffffff1673ffffffffffffffffffffffffffffffffffffffff16815260200190815260200160002060009054906101000a900473ffffffffffffffffffffffffffffffffffffffff169050919050565b61109261108c610983565b82612739565b50565b600e5481565b60006110e8600a60008473ffffffffffffffffffffffffffffffffffffffff1673ffffffffffffffffffffffffffffffffffffffff16815260200190815260200160002080549050611c5c565b9050919050565b6000600260008373ffffffffffffffffffffffffffffffffffffffff1673ffffffffffffffffffffffffffffffffffffffff168152602001908152602001600020549050919050565b6000611181600760008473ffffffffffffffffffffffffffffffffffffffff1673ffffffffffffffffffffffffffffffffffffffff168152602001908152602001600020612853565b9050919050565b60004382106111cc576040517f08c379a00000000000000000000000000000000000000000000000000000000081526004016111c390614696565b60405180910390fd5b6111d7600b8361262d565b9050919050565b6000611205826001600086815260200190815260200160002061286190919063ffffffff16565b905092915050565b600080600084815260200190815260200160002060000160008373ffffffffffffffffffffffffffffffffffffffff1673ffffffffffffffffffffffffffffffffffffffff16815260200190815260200160002060009054906101000a900460ff16905092915050565b606060068054611286906143dd565b80601f01602080910402602001604051908101604052809291908181526020018280546112b2906143dd565b80156112ff5780601f106112d4576101008083540402835291602001916112ff565b820191906000526020600020905b8154815290600101906020018083116112e257829003601f168201915b5050505050905090565b600080600a60008473ffffffffffffffffffffffffffffffffffffffff1673ffffffffffffffffffffffffffffffffffffffff168152602001908152602001600020805490509050600081146113f157600a60008473ffffffffffffffffffffffffffffffffffffffff1673ffffffffffffffffffffffffffffffffffffffff1681526020019081526020016000206001826113a59190614748565b815481106113b6576113b561477c565b5b9060005260206000200160000160049054906101000a90047bffffffffffffffffffffffffffffffffffffffffffffffffffffffff166113f4565b60005b7bffffffffffffffffffffffffffffffffffffffffffffffffffffffff16915050919050565b6000801b81565b60008061142c610983565b9050600061143a8286611746565b90508381101561147f576040517f08c379a00000000000000000000000000000000000000000000000000000000081526004016114769061481d565b60405180910390fd5b61148c8286868403611d6f565b60019250505092915050565b6000806114a3610983565b90506114b0818585611fc6565b600191505092915050565b834211156114fe576040517f08c379a00000000000000000000000000000000000000000000000000000000081526004016114f590614889565b60405180910390fd5b60006115606115587fe48329057bfd03d55e49b547132e39cffd9c1820ad7b9d4c5307691425d15adf89898960405160200161153d94939291906148a9565b6040516020818303038152906040528051906020012061287b565b858585612895565b905061156b816128c0565b86146115ac576040517f08c379a00000000000000000000000000000000000000000000000000000000081526004016115a39061493a565b60405180910390fd5b6115b68188612739565b50505050505050565b60006115dc6001600084815260200190815260200160002061291e565b9050919050565b83421115611626576040517f08c379a000000000000000000000000000000000000000000000000000000000815260040161161d906149a6565b60405180910390fd5b60007f6e71edae12b1b97f4d1f60370fef10105fa2faae0126114a169c64845d6126c98888886116558c6128c0565b8960405160200161166b969594939291906149c6565b604051602081830303815290604052805190602001209050600061168e8261287b565b9050600061169e82878787612895565b90508973ffffffffffffffffffffffffffffffffffffffff168173ffffffffffffffffffffffffffffffffffffffff161461170e576040517f08c379a000000000000000000000000000000000000000000000000000000000815260040161170590614a73565b60405180910390fd5b6117198a8a8a611d6f565b50505050505050505050565b61172e82610af3565b6117378161224a565b61174183836123ac565b505050565b6000600360008473ffffffffffffffffffffffffffffffffffffffff1673ffffffffffffffffffffffffffffffffffffffff16815260200190815260200160002060008373ffffffffffffffffffffffffffffffffffffffff1673ffffffffffffffffffffffffffffffffffffffff16815260200190815260200160002054905092915050565b6117d5613a6b565b600a60008473ffffffffffffffffffffffffffffffffffffffff1673ffffffffffffffffffffffffffffffffffffffff1681526020019081526020016000208263ffffffff168154811061182c5761182b61477c565b5b906000526020600020016040518060400160405290816000820160009054906101000a900463ffffffff1663ffffffff1663ffffffff1681526020016000820160049054906101000a90047bffffffffffffffffffffffffffffffffffffffffffffffffffffffff167bffffffffffffffffffffffffffffffffffffffffffffffffffffffff167bffffffffffffffffffffffffffffffffffffffffffffffffffffffff1681525050905092915050565b6118e78282611a7a565b6118ef612933565b7bffffffffffffffffffffffffffffffffffffffffffffffffffffffff16611915610aba565b1115611956576040517f08c379a000000000000000000000000000000000000000000000000000000000815260040161194d90614b05565b60405180910390fd5b611964600b611bdb83612957565b50505050565b611974828261120d565b611a4657600160008084815260200190815260200160002060000160008373ffffffffffffffffffffffffffffffffffffffff1673ffffffffffffffffffffffffffffffffffffffff16815260200190815260200160002060006101000a81548160ff0219169083151502179055506119eb610983565b73ffffffffffffffffffffffffffffffffffffffff168173ffffffffffffffffffffffffffffffffffffffff16837f2f8788117e7eff1d82e926ec794901d17c78024a50270940304540a733656f0d60405160405180910390a45b5050565b6000611a72836000018373ffffffffffffffffffffffffffffffffffffffff1660001b612bcf565b905092915050565b600073ffffffffffffffffffffffffffffffffffffffff168273ffffffffffffffffffffffffffffffffffffffff161415611aea576040517f08c379a0000000000000000000000000000000000000000000000000000000008152600401611ae190614b71565b60405180910390fd5b611af660008383612c3f565b8060046000828254611b0891906145f4565b9250508190555080600260008473ffffffffffffffffffffffffffffffffffffffff1673ffffffffffffffffffffffffffffffffffffffff1681526020019081526020016000206000828254611b5e91906145f4565b925050819055508173ffffffffffffffffffffffffffffffffffffffff16600073ffffffffffffffffffffffffffffffffffffffff167fddf252ad1be2c89b69c2b068fc378daa952ba7f163c4a11628f55a4df523b3ef83604051611bc39190613ac2565b60405180910390a3611bd760008383612c44565b5050565b60008183611be991906145f4565b905092915050565b60007bffffffffffffffffffffffffffffffffffffffffffffffffffffffff8016821115611c54576040517f08c379a0000000000000000000000000000000000000000000000000000000008152600401611c4b90614c03565b60405180910390fd5b819050919050565b600063ffffffff8016821115611ca7576040517f08c379a0000000000000000000000000000000000000000000000000000000008152600401611c9e90614c95565b60405180910390fd5b819050919050565b611cba838383611cda565b611cd5611cc684611018565b611ccf84611018565b83612c54565b505050565b505050565b60008183611ced9190614748565b905092915050565b60007f7965db0b000000000000000000000000000000000000000000000000000000007bffffffffffffffffffffffffffffffffffffffffffffffffffffffff1916827bffffffffffffffffffffffffffffffffffffffffffffffffffffffff19161480611d685750611d6782612e4d565b5b9050919050565b600073ffffffffffffffffffffffffffffffffffffffff168373ffffffffffffffffffffffffffffffffffffffff161415611ddf576040517f08c379a0000000000000000000000000000000000000000000000000000000008152600401611dd690614d27565b60405180910390fd5b600073ffffffffffffffffffffffffffffffffffffffff168273ffffffffffffffffffffffffffffffffffffffff161415611e4f576040517f08c379a0000000000000000000000000000000000000000000000000000000008152600401611e4690614db9565b60405180910390fd5b80600360008573ffffffffffffffffffffffffffffffffffffffff1673ffffffffffffffffffffffffffffffffffffffff16815260200190815260200160002060008473ffffffffffffffffffffffffffffffffffffffff1673ffffffffffffffffffffffffffffffffffffffff168152602001908152602001600020819055508173ffffffffffffffffffffffffffffffffffffffff168373ffffffffffffffffffffffffffffffffffffffff167f8c5be1e5ebec7d5bd14f71427d1e84f3dd0314c0f7b2291e5b200ac8c7c3b92583604051611f2d9190613ac2565b60405180910390a3505050565b6000611f468484611746565b90507fffffffffffffffffffffffffffffffffffffffffffffffffffffffffffffffff8114611fc05781811015611fb2576040517f08c379a0000000000000000000000000000000000000000000000000000000008152600401611fa990614e25565b60405180910390fd5b611fbf8484848403611d6f565b5b50505050565b600073ffffffffffffffffffffffffffffffffffffffff168373ffffffffffffffffffffffffffffffffffffffff161415612036576040517f08c379a000000000000000000000000000000000000000000000000000000000815260040161202d90614eb7565b60405180910390fd5b600073ffffffffffffffffffffffffffffffffffffffff168273ffffffffffffffffffffffffffffffffffffffff1614156120a6576040517f08c379a000000000000000000000000000000000000000000000000000000000815260040161209d90614f49565b60405180910390fd5b6120b1838383612c3f565b6000600260008573ffffffffffffffffffffffffffffffffffffffff1673ffffffffffffffffffffffffffffffffffffffff16815260200190815260200160002054905081811015612138576040517f08c379a000000000000000000000000000000000000000000000000000000000815260040161212f90614fdb565b60405180910390fd5b818103600260008673ffffffffffffffffffffffffffffffffffffffff1673ffffffffffffffffffffffffffffffffffffffff1681526020019081526020016000208190555081600260008573ffffffffffffffffffffffffffffffffffffffff1673ffffffffffffffffffffffffffffffffffffffff16815260200190815260200160002060008282546121cd91906145f4565b925050819055508273ffffffffffffffffffffffffffffffffffffffff168473ffffffffffffffffffffffffffffffffffffffff167fddf252ad1be2c89b69c2b068fc378daa952ba7f163c4a11628f55a4df523b3ef846040516122319190613ac2565b60405180910390a3612244848484612c44565b50505050565b61225b81612256610983565b612eb7565b50565b612268828261196a565b61228d8160016000858152602001908152602001600020611a4a90919063ffffffff16565b505050565b60007f000000000000000000000000000000000000000000000000000000000000000073ffffffffffffffffffffffffffffffffffffffff163073ffffffffffffffffffffffffffffffffffffffff1614801561230e57507f000000000000000000000000000000000000000000000000000000000000000046145b1561233b577f000000000000000000000000000000000000000000000000000000000000000090506123a9565b6123a67f00000000000000000000000000000000000000000000000000000000000000007f00000000000000000000000000000000000000000000000000000000000000007f0000000000000000000000000000000000000000000000000000000000000000612f54565b90505b90565b6123b68282612f8e565b6123db816001600085815260200190815260200160002061306f90919063ffffffff16565b505050565b600061240e7f360894a13ba1a3210667c828492db98dca3e2076cc3735a920a3ca505d382bbc60001b61309f565b60000160009054906101000a900473ffffffffffffffffffffffffffffffffffffffff16905090565b61243f610983565b61246d60405160200161245190615047565b604051602081830303815290604052805190602001208261120d565b6124ac576040517f08c379a00000000000000000000000000000000000000000000000000000000081526004016124a3906150b3565b60405180910390fd5b5050565b6124dc7f4910fdfa16fed3260ed0e7147f7cc6da11a60208b5b9406d12a635614ffd914360001b6130a9565b60000160009054906101000a900460ff1615612500576124fb836130b3565b612628565b8273ffffffffffffffffffffffffffffffffffffffff166352d1902d6040518163ffffffff1660e01b815260040160206040518083038186803b15801561254657600080fd5b505afa92505050801561257757506040513d601f19601f8201168201806040525081019061257491906150e8565b60015b6125b6576040517f08c379a00000000000000000000000000000000000000000000000000000000081526004016125ad90615187565b60405180910390fd5b7f360894a13ba1a3210667c828492db98dca3e2076cc3735a920a3ca505d382bbc60001b811461261b576040517f08c379a000000000000000000000000000000000000000000000000000000000815260040161261290615219565b60405180910390fd5b5061262783838361316c565b5b505050565b6000808380549050905060005b818110156126ac57600061264e8284613198565b9050848682815481106126645761266361477c565b5b9060005260206000200160000160009054906101000a900463ffffffff1663ffffffff161115612696578092506126a6565b6001816126a391906145f4565b91505b5061263a565b6000821461270e57846001836126c29190614748565b815481106126d3576126d261477c565b5b9060005260206000200160000160049054906101000a90047bffffffffffffffffffffffffffffffffffffffffffffffffffffffff16612711565b60005b7bffffffffffffffffffffffffffffffffffffffffffffffffffffffff169250505092915050565b600061274483611018565b90506000612751846110ef565b905082600960008673ffffffffffffffffffffffffffffffffffffffff1673ffffffffffffffffffffffffffffffffffffffff16815260200190815260200160002060006101000a81548173ffffffffffffffffffffffffffffffffffffffff021916908373ffffffffffffffffffffffffffffffffffffffff1602179055508273ffffffffffffffffffffffffffffffffffffffff168273ffffffffffffffffffffffffffffffffffffffff168573ffffffffffffffffffffffffffffffffffffffff167f3134e8a2e6d97e929a7e54011ea5485d7d196dd5f0ba4d4ef95803e8e3fc257f60405160405180910390a461284d828483612c54565b50505050565b600081600001549050919050565b600061287083600001836131be565b60001c905092915050565b600061288e612888612292565b836131e9565b9050919050565b60008060006128a68787878761321c565b915091506128b381613329565b8192505050949350505050565b600080600760008473ffffffffffffffffffffffffffffffffffffffff1673ffffffffffffffffffffffffffffffffffffffff168152602001908152602001600020905061290d81612853565b9150612918816134fe565b50919050565b600061292c82600001613514565b9050919050565b60007bffffffffffffffffffffffffffffffffffffffffffffffffffffffff905090565b600080600085805490509050600081146129c557856001826129799190614748565b8154811061298a5761298961477c565b5b9060005260206000200160000160049054906101000a90047bffffffffffffffffffffffffffffffffffffffffffffffffffffffff166129c8565b60005b7bffffffffffffffffffffffffffffffffffffffffffffffffffffffff1692506129f683858763ffffffff16565b9150600081118015612a4957504386600183612a129190614748565b81548110612a2357612a2261477c565b5b9060005260206000200160000160009054906101000a900463ffffffff1663ffffffff16145b15612ad657612a5782611bf1565b86600183612a659190614748565b81548110612a7657612a7561477c565b5b9060005260206000200160000160046101000a8154817bffffffffffffffffffffffffffffffffffffffffffffffffffffffff02191690837bffffffffffffffffffffffffffffffffffffffffffffffffffffffff160217905550612bc6565b856040518060400160405280612aeb43611c5c565b63ffffffff168152602001612aff85611bf1565b7bffffffffffffffffffffffffffffffffffffffffffffffffffffffff168152509080600181540180825580915050600190039060005260206000200160009091909190915060008201518160000160006101000a81548163ffffffff021916908363ffffffff16021790555060208201518160000160046101000a8154817bffffffffffffffffffffffffffffffffffffffffffffffffffffffff02191690837bffffffffffffffffffffffffffffffffffffffffffffffffffffffff16021790555050505b50935093915050565b6000612bdb8383613525565b612c34578260000182908060018154018082558091505060019003906000526020600020016000909190919091505582600001805490508360010160008481526020019081526020016000208190555060019050612c39565b600090505b92915050565b505050565b612c4f838383611caf565b505050565b8173ffffffffffffffffffffffffffffffffffffffff168373ffffffffffffffffffffffffffffffffffffffff1614158015612c905750600081115b15612e4857600073ffffffffffffffffffffffffffffffffffffffff168373ffffffffffffffffffffffffffffffffffffffff1614612d6e57600080612d17600a60008773ffffffffffffffffffffffffffffffffffffffff1673ffffffffffffffffffffffffffffffffffffffff168152602001908152602001600020611cdf85612957565b915091508473ffffffffffffffffffffffffffffffffffffffff167fdec2bacdd2f05b59de34da9b523dff8be42e5e38e818c82fdb0bae774387a7248383604051612d63929190615239565b60405180910390a250505b600073ffffffffffffffffffffffffffffffffffffffff168273ffffffffffffffffffffffffffffffffffffffff1614612e4757600080612df0600a60008673ffffffffffffffffffffffffffffffffffffffff1673ffffffffffffffffffffffffffffffffffffffff168152602001908152602001600020611bdb85612957565b915091508373ffffffffffffffffffffffffffffffffffffffff167fdec2bacdd2f05b59de34da9b523dff8be42e5e38e818c82fdb0bae774387a7248383604051612e3c929190615239565b60405180910390a250505b5b505050565b60007f01ffc9a7000000000000000000000000000000000000000000000000000000007bffffffffffffffffffffffffffffffffffffffffffffffffffffffff1916827bffffffffffffffffffffffffffffffffffffffffffffffffffffffff1916149050919050565b612ec1828261120d565b612f5057612ee68173ffffffffffffffffffffffffffffffffffffffff166014613548565b612ef48360001c6020613548565b604051602001612f05929190615336565b6040516020818303038152906040526040517f08c379a0000000000000000000000000000000000000000000000000000000008152600401612f479190613c45565b60405180910390fd5b5050565b60008383834630604051602001612f6f959493929190615370565b6040516020818303038152906040528051906020012090509392505050565b612f98828261120d565b1561306b57600080600084815260200190815260200160002060000160008373ffffffffffffffffffffffffffffffffffffffff1673ffffffffffffffffffffffffffffffffffffffff16815260200190815260200160002060006101000a81548160ff021916908315150217905550613010610983565b73ffffffffffffffffffffffffffffffffffffffff168173ffffffffffffffffffffffffffffffffffffffff16837ff6391f5c32d9c69d2a47ea670b442974b53935d1edc7fd64eb21e047a839171b60405160405180910390a45b5050565b6000613097836000018373ffffffffffffffffffffffffffffffffffffffff1660001b613784565b905092915050565b6000819050919050565b6000819050919050565b6130bc81613898565b6130fb576040517f08c379a00000000000000000000000000000000000000000000000000000000081526004016130f290615435565b60405180910390fd5b806131287f360894a13ba1a3210667c828492db98dca3e2076cc3735a920a3ca505d382bbc60001b61309f565b60000160006101000a81548173ffffffffffffffffffffffffffffffffffffffff021916908373ffffffffffffffffffffffffffffffffffffffff16021790555050565b613175836138bb565b6000825111806131825750805b1561319357613191838361390a565b505b505050565b600060028284186131a99190615484565b8284166131b691906145f4565b905092915050565b60008260000182815481106131d6576131d561477c565b5b9060005260206000200154905092915050565b600082826040516020016131fe929190615522565b60405160208183030381529060405280519060200120905092915050565b6000807f7fffffffffffffffffffffffffffffff5d576e7357a4501ddfe92f46681b20a08360001c1115613257576000600391509150613320565b601b8560ff161415801561326f5750601c8560ff1614155b15613281576000600491509150613320565b6000600187878787604051600081526020016040526040516132a69493929190615559565b6020604051602081039080840390855afa1580156132c8573d6000803e3d6000fd5b505050602060405103519050600073ffffffffffffffffffffffffffffffffffffffff168173ffffffffffffffffffffffffffffffffffffffff16141561331757600060019250925050613320565b80600092509250505b94509492505050565b6000600481111561333d5761333c61559e565b5b8160048111156133505761334f61559e565b5b141561335b576134fb565b6001600481111561336f5761336e61559e565b5b8160048111156133825761338161559e565b5b14156133c3576040517f08c379a00000000000000000000000000000000000000000000000000000000081526004016133ba90615619565b60405180910390fd5b600260048111156133d7576133d661559e565b5b8160048111156133ea576133e961559e565b5b141561342b576040517f08c379a000000000000000000000000000000000000000000000000000000000815260040161342290615685565b60405180910390fd5b6003600481111561343f5761343e61559e565b5b8160048111156134525761345161559e565b5b1415613493576040517f08c379a000000000000000000000000000000000000000000000000000000000815260040161348a90615717565b60405180910390fd5b6004808111156134a6576134a561559e565b5b8160048111156134b9576134b861559e565b5b14156134fa576040517f08c379a00000000000000000000000000000000000000000000000000000000081526004016134f1906157a9565b60405180910390fd5b5b50565b6001816000016000828254019250508190555050565b600081600001805490509050919050565b600080836001016000848152602001908152602001600020541415905092915050565b60606000600283600261355b91906157c9565b61356591906145f4565b67ffffffffffffffff81111561357e5761357d613ebf565b5b6040519080825280601f01601f1916602001820160405280156135b05781602001600182028036833780820191505090505b5090507f3000000000000000000000000000000000000000000000000000000000000000816000815181106135e8576135e761477c565b5b60200101907effffffffffffffffffffffffffffffffffffffffffffffffffffffffffffff1916908160001a9053507f78000000000000000000000000000000000000000000000000000000000000008160018151811061364c5761364b61477c565b5b60200101907effffffffffffffffffffffffffffffffffffffffffffffffffffffffffffff1916908160001a9053506000600184600261368c91906157c9565b61369691906145f4565b90505b6001811115613736577f3031323334353637383961626364656600000000000000000000000000000000600f8616601081106136d8576136d761477c565b5b1a60f81b8282815181106136ef576136ee61477c565b5b60200101907effffffffffffffffffffffffffffffffffffffffffffffffffffffffffffff1916908160001a905350600485901c94508061372f90615823565b9050613699565b506000841461377a576040517f08c379a000000000000000000000000000000000000000000000000000000000815260040161377190615899565b60405180910390fd5b8091505092915050565b6000808360010160008481526020019081526020016000205490506000811461388c5760006001826137b69190614748565b90506000600186600001805490506137ce9190614748565b905081811461383d5760008660000182815481106137ef576137ee61477c565b5b90600052602060002001549050808760000184815481106138135761381261477c565b5b90600052602060002001819055508387600101600083815260200190815260200160002081905550505b85600001805480613851576138506158b9565b5b600190038181906000526020600020016000905590558560010160008681526020019081526020016000206000905560019350505050613892565b60009150505b92915050565b6000808273ffffffffffffffffffffffffffffffffffffffff163b119050919050565b6138c4816130b3565b8073ffffffffffffffffffffffffffffffffffffffff167fbc7cd75a20ee27fd9adebab32041f755214dbc6bffa90cc0225b39da2e5c2d3b60405160405180910390a250565b606061392f83836040518060600160405280602781526020016159d960279139613937565b905092915050565b606061394284613898565b613981576040517f08c379a00000000000000000000000000000000000000000000000000000000081526004016139789061595a565b60405180910390fd5b6000808573ffffffffffffffffffffffffffffffffffffffff16856040516139a991906159c1565b600060405180830381855af49150503d80600081146139e4576040519150601f19603f3d011682016040523d82523d6000602084013e6139e9565b606091505b50915091506139f9828286613a04565b925050509392505050565b60608315613a1457829050613a64565b600083511115613a275782518084602001fd5b816040517f08c379a0000000000000000000000000000000000000000000000000000000008152600401613a5b9190613c45565b60405180910390fd5b9392505050565b6040518060400160405280600063ffffffff16815260200160007bffffffffffffffffffffffffffffffffffffffffffffffffffffffff1681525090565b6000819050919050565b613abc81613aa9565b82525050565b6000602082019050613ad76000830184613ab3565b92915050565b6000604051905090565b600080fd5b600080fd5b60007fffffffff0000000000000000000000000000000000000000000000000000000082169050919050565b613b2681613af1565b8114613b3157600080fd5b50565b600081359050613b4381613b1d565b92915050565b600060208284031215613b5f57613b5e613ae7565b5b6000613b6d84828501613b34565b91505092915050565b60008115159050919050565b613b8b81613b76565b82525050565b6000602082019050613ba66000830184613b82565b92915050565b600081519050919050565b600082825260208201905092915050565b60005b83811015613be6578082015181840152602081019050613bcb565b83811115613bf5576000848401525b50505050565b6000601f19601f8301169050919050565b6000613c1782613bac565b613c218185613bb7565b9350613c31818560208601613bc8565b613c3a81613bfb565b840191505092915050565b60006020820190508181036000830152613c5f8184613c0c565b905092915050565b600073ffffffffffffffffffffffffffffffffffffffff82169050919050565b6000613c9282613c67565b9050919050565b613ca281613c87565b8114613cad57600080fd5b50565b600081359050613cbf81613c99565b92915050565b613cce81613aa9565b8114613cd957600080fd5b50565b600081359050613ceb81613cc5565b92915050565b60008060408385031215613d0857613d07613ae7565b5b6000613d1685828601613cb0565b9250506020613d2785828601613cdc565b9150509250929050565b600080600060608486031215613d4a57613d49613ae7565b5b6000613d5886828701613cb0565b9350506020613d6986828701613cb0565b9250506040613d7a86828701613cdc565b9150509250925092565b6000819050919050565b613d9781613d84565b8114613da257600080fd5b50565b600081359050613db481613d8e565b92915050565b600060208284031215613dd057613dcf613ae7565b5b6000613dde84828501613da5565b91505092915050565b613df081613d84565b82525050565b6000602082019050613e0b6000830184613de7565b92915050565b60008060408385031215613e2857613e27613ae7565b5b6000613e3685828601613da5565b9250506020613e4785828601613cb0565b9150509250929050565b600060ff82169050919050565b613e6781613e51565b82525050565b6000602082019050613e826000830184613e5e565b92915050565b600060208284031215613e9e57613e9d613ae7565b5b6000613eac84828501613cb0565b91505092915050565b600080fd5b600080fd5b7f4e487b7100000000000000000000000000000000000000000000000000000000600052604160045260246000fd5b613ef782613bfb565b810181811067ffffffffffffffff82111715613f1657613f15613ebf565b5b80604052505050565b6000613f29613add565b9050613f358282613eee565b919050565b600067ffffffffffffffff821115613f5557613f54613ebf565b5b613f5e82613bfb565b9050602081019050919050565b82818337600083830152505050565b6000613f8d613f8884613f3a565b613f1f565b905082815260208101848484011115613fa957613fa8613eba565b5b613fb4848285613f6b565b509392505050565b600082601f830112613fd157613fd0613eb5565b5b8135613fe1848260208601613f7a565b91505092915050565b6000806040838503121561400157614000613ae7565b5b600061400f85828601613cb0565b925050602083013567ffffffffffffffff8111156140305761402f613aec565b5b61403c85828601613fbc565b9150509250929050565b61404f81613c87565b82525050565b600060208201905061406a6000830184614046565b92915050565b600063ffffffff82169050919050565b61408981614070565b82525050565b60006020820190506140a46000830184614080565b92915050565b6000602082840312156140c0576140bf613ae7565b5b60006140ce84828501613cdc565b91505092915050565b600080604083850312156140ee576140ed613ae7565b5b60006140fc85828601613da5565b925050602061410d85828601613cdc565b9150509250929050565b61412081613e51565b811461412b57600080fd5b50565b60008135905061413d81614117565b92915050565b60008060008060008060c087890312156141605761415f613ae7565b5b600061416e89828a01613cb0565b965050602061417f89828a01613cdc565b955050604061419089828a01613cdc565b94505060606141a189828a0161412e565b93505060806141b289828a01613da5565b92505060a06141c389828a01613da5565b9150509295509295509295565b600080600080600080600060e0888a0312156141ef576141ee613ae7565b5b60006141fd8a828b01613cb0565b975050602061420e8a828b01613cb0565b965050604061421f8a828b01613cdc565b95505060606142308a828b01613cdc565b94505060806142418a828b0161412e565b93505060a06142528a828b01613da5565b92505060c06142638a828b01613da5565b91505092959891949750929550565b6000806040838503121561428957614288613ae7565b5b600061429785828601613cb0565b92505060206142a885828601613cb0565b9150509250929050565b6142bb81614070565b81146142c657600080fd5b50565b6000813590506142d8816142b2565b92915050565b600080604083850312156142f5576142f4613ae7565b5b600061430385828601613cb0565b9250506020614314858286016142c9565b9150509250929050565b61432781614070565b82525050565b60007bffffffffffffffffffffffffffffffffffffffffffffffffffffffff82169050919050565b61435e8161432d565b82525050565b60408201600082015161437a600085018261431e565b50602082015161438d6020850182614355565b50505050565b60006040820190506143a86000830184614364565b92915050565b7f4e487b7100000000000000000000000000000000000000000000000000000000600052602260045260246000fd5b600060028204905060018216806143f557607f821691505b60208210811415614409576144086143ae565b5b50919050565b7f416363657373436f6e74726f6c3a2063616e206f6e6c792072656e6f756e636560008201527f20726f6c657320666f722073656c660000000000000000000000000000000000602082015250565b600061446b602f83613bb7565b91506144768261440f565b604082019050919050565b6000602082019050818103600083015261449a8161445e565b9050919050565b7f46756e6374696f6e206d7573742062652063616c6c6564207468726f7567682060008201527f64656c656761746563616c6c0000000000000000000000000000000000000000602082015250565b60006144fd602c83613bb7565b9150614508826144a1565b604082019050919050565b6000602082019050818103600083015261452c816144f0565b9050919050565b7f46756e6374696f6e206d7573742062652063616c6c6564207468726f7567682060008201527f6163746976652070726f78790000000000000000000000000000000000000000602082015250565b600061458f602c83613bb7565b915061459a82614533565b604082019050919050565b600060208201905081810360008301526145be81614582565b9050919050565b7f4e487b7100000000000000000000000000000000000000000000000000000000600052601160045260246000fd5b60006145ff82613aa9565b915061460a83613aa9565b9250827fffffffffffffffffffffffffffffffffffffffffffffffffffffffffffffffff0382111561463f5761463e6145c5565b5b828201905092915050565b7f4552433230566f7465733a20626c6f636b206e6f7420796574206d696e656400600082015250565b6000614680601f83613bb7565b915061468b8261464a565b602082019050919050565b600060208201905081810360008301526146af81614673565b9050919050565b7f555550535570677261646561626c653a206d757374206e6f742062652063616c60008201527f6c6564207468726f7567682064656c656761746563616c6c0000000000000000602082015250565b6000614712603883613bb7565b915061471d826146b6565b604082019050919050565b6000602082019050818103600083015261474181614705565b9050919050565b600061475382613aa9565b915061475e83613aa9565b925082821015614771576147706145c5565b5b828203905092915050565b7f4e487b7100000000000000000000000000000000000000000000000000000000600052603260045260246000fd5b7f45524332303a2064656372656173656420616c6c6f77616e63652062656c6f7760008201527f207a65726f000000000000000000000000000000000000000000000000000000602082015250565b6000614807602583613bb7565b9150614812826147ab565b604082019050919050565b60006020820190508181036000830152614836816147fa565b9050919050565b7f4552433230566f7465733a207369676e61747572652065787069726564000000600082015250565b6000614873601d83613bb7565b915061487e8261483d565b602082019050919050565b600060208201905081810360008301526148a281614866565b9050919050565b60006080820190506148be6000830187613de7565b6148cb6020830186614046565b6148d86040830185613ab3565b6148e56060830184613ab3565b95945050505050565b7f4552433230566f7465733a20696e76616c6964206e6f6e636500000000000000600082015250565b6000614924601983613bb7565b915061492f826148ee565b602082019050919050565b6000602082019050818103600083015261495381614917565b9050919050565b7f45524332305065726d69743a206578706972656420646561646c696e65000000600082015250565b6000614990601d83613bb7565b915061499b8261495a565b602082019050919050565b600060208201905081810360008301526149bf81614983565b9050919050565b600060c0820190506149db6000830189613de7565b6149e86020830188614046565b6149f56040830187614046565b614a026060830186613ab3565b614a0f6080830185613ab3565b614a1c60a0830184613ab3565b979650505050505050565b7f45524332305065726d69743a20696e76616c6964207369676e61747572650000600082015250565b6000614a5d601e83613bb7565b9150614a6882614a27565b602082019050919050565b60006020820190508181036000830152614a8c81614a50565b9050919050565b7f4552433230566f7465733a20746f74616c20737570706c79207269736b73206f60008201527f766572666c6f77696e6720766f74657300000000000000000000000000000000602082015250565b6000614aef603083613bb7565b9150614afa82614a93565b604082019050919050565b60006020820190508181036000830152614b1e81614ae2565b9050919050565b7f45524332303a206d696e7420746f20746865207a65726f206164647265737300600082015250565b6000614b5b601f83613bb7565b9150614b6682614b25565b602082019050919050565b60006020820190508181036000830152614b8a81614b4e565b9050919050565b7f53616665436173743a2076616c756520646f65736e27742066697420696e203260008201527f3234206269747300000000000000000000000000000000000000000000000000602082015250565b6000614bed602783613bb7565b9150614bf882614b91565b604082019050919050565b60006020820190508181036000830152614c1c81614be0565b9050919050565b7f53616665436173743a2076616c756520646f65736e27742066697420696e203360008201527f3220626974730000000000000000000000000000000000000000000000000000602082015250565b6000614c7f602683613bb7565b9150614c8a82614c23565b604082019050919050565b60006020820190508181036000830152614cae81614c72565b9050919050565b7f45524332303a20617070726f76652066726f6d20746865207a65726f2061646460008201527f7265737300000000000000000000000000000000000000000000000000000000602082015250565b6000614d11602483613bb7565b9150614d1c82614cb5565b604082019050919050565b60006020820190508181036000830152614d4081614d04565b9050919050565b7f45524332303a20617070726f766520746f20746865207a65726f20616464726560008201527f7373000000000000000000000000000000000000000000000000000000000000602082015250565b6000614da3602283613bb7565b9150614dae82614d47565b604082019050919050565b60006020820190508181036000830152614dd281614d96565b9050919050565b7f45524332303a20696e73756666696369656e7420616c6c6f77616e6365000000600082015250565b6000614e0f601d83613bb7565b9150614e1a82614dd9565b602082019050919050565b60006020820190508181036000830152614e3e81614e02565b9050919050565b7f45524332303a207472616e736665722066726f6d20746865207a65726f20616460008201527f6472657373000000000000000000000000000000000000000000000000000000602082015250565b6000614ea1602583613bb7565b9150614eac82614e45565b604082019050919050565b60006020820190508181036000830152614ed081614e94565b9050919050565b7f45524332303a207472616e7366657220746f20746865207a65726f206164647260008201527f6573730000000000000000000000000000000000000000000000000000000000602082015250565b6000614f33602383613bb7565b9150614f3e82614ed7565b604082019050919050565b60006020820190508181036000830152614f6281614f26565b9050919050565b7f45524332303a207472616e7366657220616d6f756e742065786365656473206260008201527f616c616e63650000000000000000000000000000000000000000000000000000602082015250565b6000614fc5602683613bb7565b9150614fd082614f69565b604082019050919050565b60006020820190508181036000830152614ff481614fb8565b9050919050565b7f55504752414445525f524f4c4500000000000000000000000000000000000000600082015250565b6000615031600d83613bb7565b915061503c82614ffb565b602082019050919050565b6000602082019050818103600083015261506081615024565b9050919050565b7f6e6f7420617574686f72697a656420666f722075706772616465730000000000600082015250565b600061509d601b83613bb7565b91506150a882615067565b602082019050919050565b600060208201905081810360008301526150cc81615090565b9050919050565b6000815190506150e281613d8e565b92915050565b6000602082840312156150fe576150fd613ae7565b5b600061510c848285016150d3565b91505092915050565b7f45524331393637557067726164653a206e657720696d706c656d656e7461746960008201527f6f6e206973206e6f742055555053000000000000000000000000000000000000602082015250565b6000615171602e83613bb7565b915061517c82615115565b604082019050919050565b600060208201905081810360008301526151a081615164565b9050919050565b7f45524331393637557067726164653a20756e737570706f727465642070726f7860008201527f6961626c65555549440000000000000000000000000000000000000000000000602082015250565b6000615203602983613bb7565b915061520e826151a7565b604082019050919050565b60006020820190508181036000830152615232816151f6565b9050919050565b600060408201905061524e6000830185613ab3565b61525b6020830184613ab3565b9392505050565b600081905092915050565b7f416363657373436f6e74726f6c3a206163636f756e7420000000000000000000600082015250565b60006152a3601783615262565b91506152ae8261526d565b601782019050919050565b60006152c482613bac565b6152ce8185615262565b93506152de818560208601613bc8565b80840191505092915050565b7f206973206d697373696e6720726f6c6520000000000000000000000000000000600082015250565b6000615320601183615262565b915061532b826152ea565b601182019050919050565b600061534182615296565b915061534d82856152b9565b915061535882615313565b915061536482846152b9565b91508190509392505050565b600060a0820190506153856000830188613de7565b6153926020830187613de7565b61539f6040830186613de7565b6153ac6060830185613ab3565b6153b96080830184614046565b9695505050505050565b7f455243313936373a206e657720696d706c656d656e746174696f6e206973206e60008201527f6f74206120636f6e747261637400000000000000000000000000000000000000602082015250565b600061541f602d83613bb7565b915061542a826153c3565b604082019050919050565b6000602082019050818103600083015261544e81615412565b9050919050565b7f4e487b7100000000000000000000000000000000000000000000000000000000600052601260045260246000fd5b600061548f82613aa9565b915061549a83613aa9565b9250826154aa576154a9615455565b5b828204905092915050565b7f1901000000000000000000000000000000000000000000000000000000000000600082015250565b60006154eb600283615262565b91506154f6826154b5565b600282019050919050565b6000819050919050565b61551c61551782613d84565b615501565b82525050565b600061552d826154de565b9150615539828561550b565b602082019150615549828461550b565b6020820191508190509392505050565b600060808201905061556e6000830187613de7565b61557b6020830186613e5e565b6155886040830185613de7565b6155956060830184613de7565b95945050505050565b7f4e487b7100000000000000000000000000000000000000000000000000000000600052602160045260246000fd5b7f45434453413a20696e76616c6964207369676e61747572650000000000000000600082015250565b6000615603601883613bb7565b915061560e826155cd565b602082019050919050565b60006020820190508181036000830152615632816155f6565b9050919050565b7f45434453413a20696e76616c6964207369676e6174757265206c656e67746800600082015250565b600061566f601f83613bb7565b915061567a82615639565b602082019050919050565b6000602082019050818103600083015261569e81615662565b9050919050565b7f45434453413a20696e76616c6964207369676e6174757265202773272076616c60008201527f7565000000000000000000000000000000000000000000000000000000000000602082015250565b6000615701602283613bb7565b915061570c826156a5565b604082019050919050565b60006020820190508181036000830152615730816156f4565b9050919050565b7f45434453413a20696e76616c6964207369676e6174757265202776272076616c60008201527f7565000000000000000000000000000000000000000000000000000000000000602082015250565b6000615793602283613bb7565b915061579e82615737565b604082019050919050565b600060208201905081810360008301526157c281615786565b9050919050565b60006157d482613aa9565b91506157df83613aa9565b9250817fffffffffffffffffffffffffffffffffffffffffffffffffffffffffffffffff0483118215151615615818576158176145c5565b5b828202905092915050565b600061582e82613aa9565b91506000821415615842576158416145c5565b5b600182039050919050565b7f537472696e67733a20686578206c656e67746820696e73756666696369656e74600082015250565b6000615883602083613bb7565b915061588e8261584d565b602082019050919050565b600060208201905081810360008301526158b281615876565b9050919050565b7f4e487b7100000000000000000000000000000000000000000000000000000000600052603160045260246000fd5b7f416464726573733a2064656c65676174652063616c6c20746f206e6f6e2d636f60008201527f6e74726163740000000000000000000000000000000000000000000000000000602082015250565b6000615944602683613bb7565b915061594f826158e8565b604082019050919050565b6000602082019050818103600083015261597381615937565b9050919050565b600081519050919050565b600081905092915050565b600061599b8261597a565b6159a58185615985565b93506159b5818560208601613bc8565b80840191505092915050565b60006159cd8284615990565b91508190509291505056fe416464726573733a206c6f772d6c6576656c2064656c65676174652063616c6c206661696c6564a26469706673582212200afefcef1d834822b4bf714b138be1e423c0ec34e9779b6305eea25d365ea31364736f6c63430008090033",
  "devdoc": {
    "kind": "dev",
    "methods": {
      "DOMAIN_SEPARATOR()": {
        "details": "See {IERC20Permit-DOMAIN_SEPARATOR}."
      },
      "allowance(address,address)": {
        "details": "See {IERC20-allowance}."
      },
      "approve(address,uint256)": {
        "details": "See {IERC20-approve}. NOTE: If `amount` is the maximum `uint256`, the allowance is not updated on `transferFrom`. This is semantically equivalent to an infinite approval. Requirements: - `spender` cannot be the zero address."
      },
      "balanceOf(address)": {
        "details": "See {IERC20-balanceOf}."
      },
      "checkpoints(address,uint32)": {
        "details": "Get the `pos`-th checkpoint for `account`."
      },
      "decimals()": {
        "details": "Returns the number of decimals used to get its user representation. For example, if `decimals` equals `2`, a balance of `505` tokens should be displayed to a user as `5.05` (`505 / 10 ** 2`). Tokens usually opt for a value of 18, imitating the relationship between Ether and Wei. This is the value {ERC20} uses, unless this function is overridden; NOTE: This information is only used for _display_ purposes: it in no way affects any of the arithmetic of the contract, including {IERC20-balanceOf} and {IERC20-transfer}."
      },
      "decreaseAllowance(address,uint256)": {
        "details": "Atomically decreases the allowance granted to `spender` by the caller. This is an alternative to {approve} that can be used as a mitigation for problems described in {IERC20-approve}. Emits an {Approval} event indicating the updated allowance. Requirements: - `spender` cannot be the zero address. - `spender` must have allowance for the caller of at least `subtractedValue`."
      },
      "delegate(address)": {
        "details": "Delegate votes from the sender to `delegatee`."
      },
      "delegateBySig(address,uint256,uint256,uint8,bytes32,bytes32)": {
        "details": "Delegates votes from signer to `delegatee`"
      },
      "delegates(address)": {
        "details": "Get the address `account` is currently delegating to."
      },
      "getPastTotalSupply(uint256)": {
        "details": "Retrieve the `totalSupply` at the end of `blockNumber`. Note, this value is the sum of all balances. It is but NOT the sum of all the delegated votes! Requirements: - `blockNumber` must have been already mined"
      },
      "getPastVotes(address,uint256)": {
        "details": "Retrieve the number of votes for `account` at the end of `blockNumber`. Requirements: - `blockNumber` must have been already mined"
      },
      "getRoleAdmin(bytes32)": {
        "details": "Returns the admin role that controls `role`. See {grantRole} and {revokeRole}. To change a role's admin, use {_setRoleAdmin}."
      },
      "getRoleMember(bytes32,uint256)": {
        "details": "Returns one of the accounts that have `role`. `index` must be a value between 0 and {getRoleMemberCount}, non-inclusive. Role bearers are not sorted in any particular way, and their ordering may change at any point. WARNING: When using {getRoleMember} and {getRoleMemberCount}, make sure you perform all queries on the same block. See the following https://forum.openzeppelin.com/t/iterating-over-elements-on-enumerableset-in-openzeppelin-contracts/2296[forum post] for more information."
      },
      "getRoleMemberCount(bytes32)": {
        "details": "Returns the number of accounts that have `role`. Can be used together with {getRoleMember} to enumerate all bearers of a role."
      },
      "getVotes(address)": {
        "details": "Gets the current votes balance for `account`"
      },
      "grantRole(bytes32,address)": {
        "details": "Grants `role` to `account`. If `account` had not been already granted `role`, emits a {RoleGranted} event. Requirements: - the caller must have ``role``'s admin role."
      },
      "hasRole(bytes32,address)": {
        "details": "Returns `true` if `account` has been granted `role`."
      },
      "increaseAllowance(address,uint256)": {
        "details": "Atomically increases the allowance granted to `spender` by the caller. This is an alternative to {approve} that can be used as a mitigation for problems described in {IERC20-approve}. Emits an {Approval} event indicating the updated allowance. Requirements: - `spender` cannot be the zero address."
      },
      "name()": {
        "details": "Returns the name of the token."
      },
      "nonces(address)": {
        "details": "See {IERC20Permit-nonces}."
      },
      "numCheckpoints(address)": {
        "details": "Get number of checkpoints for `account`."
      },
      "permit(address,address,uint256,uint256,uint8,bytes32,bytes32)": {
        "details": "See {IERC20Permit-permit}."
      },
      "proxiableUUID()": {
        "details": "Implementation of the ERC1822 {proxiableUUID} function. This returns the storage slot used by the implementation. It is used to validate that the this implementation remains valid after an upgrade. IMPORTANT: A proxy pointing at a proxiable contract should not be considered proxiable itself, because this risks bricking a proxy that upgrades to it, by delegating to itself until out of gas. Thus it is critical that this function revert if invoked through a proxy. This is guaranteed by the `notDelegated` modifier."
      },
      "renounceRole(bytes32,address)": {
        "details": "Revokes `role` from the calling account. Roles are often managed via {grantRole} and {revokeRole}: this function's purpose is to provide a mechanism for accounts to lose their privileges if they are compromised (such as when a trusted device is misplaced). If the calling account had been revoked `role`, emits a {RoleRevoked} event. Requirements: - the caller must be `account`."
      },
      "revokeRole(bytes32,address)": {
        "details": "Revokes `role` from `account`. If `account` had been granted `role`, emits a {RoleRevoked} event. Requirements: - the caller must have ``role``'s admin role."
      },
      "supportsInterface(bytes4)": {
        "details": "See {IERC165-supportsInterface}."
      },
      "symbol()": {
        "details": "Returns the symbol of the token, usually a shorter version of the name."
      },
      "totalSupply()": {
        "details": "See {IERC20-totalSupply}."
      },
      "transfer(address,uint256)": {
        "details": "See {IERC20-transfer}. Requirements: - `to` cannot be the zero address. - the caller must have a balance of at least `amount`."
      },
      "transferFrom(address,address,uint256)": {
        "details": "See {IERC20-transferFrom}. Emits an {Approval} event indicating the updated allowance. This is not required by the EIP. See the note at the beginning of {ERC20}. NOTE: Does not update the allowance if the current allowance is the maximum `uint256`. Requirements: - `from` and `to` cannot be the zero address. - `from` must have a balance of at least `amount`. - the caller must have allowance for ``from``'s tokens of at least `amount`."
      },
      "upgradeTo(address)": {
        "details": "Upgrade the implementation of the proxy to `newImplementation`. Calls {_authorizeUpgrade}. Emits an {Upgraded} event."
      },
      "upgradeToAndCall(address,bytes)": {
        "details": "Upgrade the implementation of the proxy to `newImplementation`, and subsequently execute the function call encoded in `data`. Calls {_authorizeUpgrade}. Emits an {Upgraded} event."
      }
    },
    "version": 1
  },
  "userdoc": {
    "kind": "user",
    "methods": {},
    "version": 1
  },
  "storageLayout": {
    "storage": [
      {
        "astId": 23260,
        "contract": "contracts/Governance/Akapz.sol:Akapz",
        "label": "_roles",
        "offset": 0,
        "slot": "0",
        "type": "t_mapping(t_bytes32,t_struct(RoleData)23255_storage)"
      },
      {
        "astId": 19282,
        "contract": "contracts/Governance/Akapz.sol:Akapz",
        "label": "_roleMembers",
        "offset": 0,
        "slot": "1",
        "type": "t_mapping(t_bytes32,t_struct(AddressSet)23892_storage)"
      },
      {
        "astId": 19662,
        "contract": "contracts/Governance/Akapz.sol:Akapz",
        "label": "_balances",
        "offset": 0,
        "slot": "2",
        "type": "t_mapping(t_address,t_uint256)"
      },
      {
        "astId": 19668,
        "contract": "contracts/Governance/Akapz.sol:Akapz",
        "label": "_allowances",
        "offset": 0,
        "slot": "3",
        "type": "t_mapping(t_address,t_mapping(t_address,t_uint256))"
      },
      {
        "astId": 19670,
        "contract": "contracts/Governance/Akapz.sol:Akapz",
        "label": "_totalSupply",
        "offset": 0,
        "slot": "4",
        "type": "t_uint256"
      },
      {
        "astId": 19672,
        "contract": "contracts/Governance/Akapz.sol:Akapz",
        "label": "_name",
        "offset": 0,
        "slot": "5",
        "type": "t_string_storage"
      },
      {
        "astId": 19674,
        "contract": "contracts/Governance/Akapz.sol:Akapz",
        "label": "_symbol",
        "offset": 0,
        "slot": "6",
        "type": "t_string_storage"
      },
      {
        "astId": 24711,
        "contract": "contracts/Governance/Akapz.sol:Akapz",
        "label": "_nonces",
        "offset": 0,
        "slot": "7",
        "type": "t_mapping(t_address,t_struct(Counter)28158_storage)"
      },
      {
        "astId": 24719,
        "contract": "contracts/Governance/Akapz.sol:Akapz",
        "label": "_PERMIT_TYPEHASH_DEPRECATED_SLOT",
        "offset": 0,
        "slot": "8",
        "type": "t_bytes32"
      },
      {
        "astId": 20258,
        "contract": "contracts/Governance/Akapz.sol:Akapz",
        "label": "_delegates",
        "offset": 0,
        "slot": "9",
        "type": "t_mapping(t_address,t_address)"
      },
      {
        "astId": 20264,
        "contract": "contracts/Governance/Akapz.sol:Akapz",
        "label": "_checkpoints",
        "offset": 0,
        "slot": "10",
        "type": "t_mapping(t_address,t_array(t_struct(Checkpoint)20249_storage)dyn_storage)"
      },
      {
        "astId": 20268,
        "contract": "contracts/Governance/Akapz.sol:Akapz",
        "label": "_totalSupplyCheckpoints",
        "offset": 0,
        "slot": "11",
        "type": "t_array(t_struct(Checkpoint)20249_storage)dyn_storage"
      },
      {
        "astId": 10518,
        "contract": "contracts/Governance/Akapz.sol:Akapz",
        "label": "_owner",
        "offset": 0,
        "slot": "12",
        "type": "t_address"
      },
      {
        "astId": 10521,
        "contract": "contracts/Governance/Akapz.sol:Akapz",
        "label": "_initialized",
        "offset": 0,
        "slot": "13",
        "type": "t_uint256"
      },
      {
        "astId": 10528,
        "contract": "contracts/Governance/Akapz.sol:Akapz",
        "label": "s_maxSupply",
        "offset": 0,
        "slot": "14",
        "type": "t_uint256"
      }
    ],
    "types": {
      "t_address": {
        "encoding": "inplace",
        "label": "address",
        "numberOfBytes": "20"
      },
      "t_array(t_bytes32)dyn_storage": {
        "base": "t_bytes32",
        "encoding": "dynamic_array",
        "label": "bytes32[]",
        "numberOfBytes": "32"
      },
      "t_array(t_struct(Checkpoint)20249_storage)dyn_storage": {
        "base": "t_struct(Checkpoint)20249_storage",
        "encoding": "dynamic_array",
        "label": "struct ERC20Votes.Checkpoint[]",
        "numberOfBytes": "32"
      },
      "t_bool": {
        "encoding": "inplace",
        "label": "bool",
        "numberOfBytes": "1"
      },
      "t_bytes32": {
        "encoding": "inplace",
        "label": "bytes32",
        "numberOfBytes": "32"
      },
      "t_mapping(t_address,t_address)": {
        "encoding": "mapping",
        "key": "t_address",
        "label": "mapping(address => address)",
        "numberOfBytes": "32",
        "value": "t_address"
      },
      "t_mapping(t_address,t_array(t_struct(Checkpoint)20249_storage)dyn_storage)": {
        "encoding": "mapping",
        "key": "t_address",
        "label": "mapping(address => struct ERC20Votes.Checkpoint[])",
        "numberOfBytes": "32",
        "value": "t_array(t_struct(Checkpoint)20249_storage)dyn_storage"
      },
      "t_mapping(t_address,t_bool)": {
        "encoding": "mapping",
        "key": "t_address",
        "label": "mapping(address => bool)",
        "numberOfBytes": "32",
        "value": "t_bool"
      },
      "t_mapping(t_address,t_mapping(t_address,t_uint256))": {
        "encoding": "mapping",
        "key": "t_address",
        "label": "mapping(address => mapping(address => uint256))",
        "numberOfBytes": "32",
        "value": "t_mapping(t_address,t_uint256)"
      },
      "t_mapping(t_address,t_struct(Counter)28158_storage)": {
        "encoding": "mapping",
        "key": "t_address",
        "label": "mapping(address => struct Counters.Counter)",
        "numberOfBytes": "32",
        "value": "t_struct(Counter)28158_storage"
      },
      "t_mapping(t_address,t_uint256)": {
        "encoding": "mapping",
        "key": "t_address",
        "label": "mapping(address => uint256)",
        "numberOfBytes": "32",
        "value": "t_uint256"
      },
      "t_mapping(t_bytes32,t_struct(AddressSet)23892_storage)": {
        "encoding": "mapping",
        "key": "t_bytes32",
        "label": "mapping(bytes32 => struct EnumerableSet.AddressSet)",
        "numberOfBytes": "32",
        "value": "t_struct(AddressSet)23892_storage"
      },
      "t_mapping(t_bytes32,t_struct(RoleData)23255_storage)": {
        "encoding": "mapping",
        "key": "t_bytes32",
        "label": "mapping(bytes32 => struct AccessControl.RoleData)",
        "numberOfBytes": "32",
        "value": "t_struct(RoleData)23255_storage"
      },
      "t_mapping(t_bytes32,t_uint256)": {
        "encoding": "mapping",
        "key": "t_bytes32",
        "label": "mapping(bytes32 => uint256)",
        "numberOfBytes": "32",
        "value": "t_uint256"
      },
      "t_string_storage": {
        "encoding": "bytes",
        "label": "string",
        "numberOfBytes": "32"
      },
      "t_struct(AddressSet)23892_storage": {
        "encoding": "inplace",
        "label": "struct EnumerableSet.AddressSet",
        "members": [
          {
            "astId": 23891,
            "contract": "contracts/Governance/Akapz.sol:Akapz",
            "label": "_inner",
            "offset": 0,
            "slot": "0",
            "type": "t_struct(Set)23591_storage"
          }
        ],
        "numberOfBytes": "64"
      },
      "t_struct(Checkpoint)20249_storage": {
        "encoding": "inplace",
        "label": "struct ERC20Votes.Checkpoint",
        "members": [
          {
            "astId": 20246,
            "contract": "contracts/Governance/Akapz.sol:Akapz",
            "label": "fromBlock",
            "offset": 0,
            "slot": "0",
            "type": "t_uint32"
          },
          {
            "astId": 20248,
            "contract": "contracts/Governance/Akapz.sol:Akapz",
            "label": "votes",
            "offset": 4,
            "slot": "0",
            "type": "t_uint224"
          }
        ],
        "numberOfBytes": "32"
      },
      "t_struct(Counter)28158_storage": {
        "encoding": "inplace",
        "label": "struct Counters.Counter",
        "members": [
          {
            "astId": 28157,
            "contract": "contracts/Governance/Akapz.sol:Akapz",
            "label": "_value",
            "offset": 0,
            "slot": "0",
            "type": "t_uint256"
          }
        ],
        "numberOfBytes": "32"
      },
      "t_struct(RoleData)23255_storage": {
        "encoding": "inplace",
        "label": "struct AccessControl.RoleData",
        "members": [
          {
            "astId": 23252,
            "contract": "contracts/Governance/Akapz.sol:Akapz",
            "label": "members",
            "offset": 0,
            "slot": "0",
            "type": "t_mapping(t_address,t_bool)"
          },
          {
            "astId": 23254,
            "contract": "contracts/Governance/Akapz.sol:Akapz",
            "label": "adminRole",
            "offset": 0,
            "slot": "1",
            "type": "t_bytes32"
          }
        ],
        "numberOfBytes": "64"
      },
      "t_struct(Set)23591_storage": {
        "encoding": "inplace",
        "label": "struct EnumerableSet.Set",
        "members": [
          {
            "astId": 23586,
            "contract": "contracts/Governance/Akapz.sol:Akapz",
            "label": "_values",
            "offset": 0,
            "slot": "0",
            "type": "t_array(t_bytes32)dyn_storage"
          },
          {
            "astId": 23590,
            "contract": "contracts/Governance/Akapz.sol:Akapz",
            "label": "_indexes",
            "offset": 0,
            "slot": "1",
            "type": "t_mapping(t_bytes32,t_uint256)"
          }
        ],
        "numberOfBytes": "64"
      },
      "t_uint224": {
        "encoding": "inplace",
        "label": "uint224",
        "numberOfBytes": "28"
      },
      "t_uint256": {
        "encoding": "inplace",
        "label": "uint256",
        "numberOfBytes": "32"
      },
      "t_uint32": {
        "encoding": "inplace",
        "label": "uint32",
        "numberOfBytes": "4"
      }
    }
  }
}