{
  "abi": [
    {
      "inputs": [
        {
          "internalType": "string",
          "name": "_name_",
          "type": "string"
        },
        {
          "internalType": "string",
          "name": "_symbol_",
          "type": "string"
        }
      ],
      "stateMutability": "nonpayable",
      "type": "constructor"
    },
    {
      "anonymous": false,
      "inputs": [
        {
          "indexed": true,
          "internalType": "address",
          "name": "owner",
          "type": "address"
        },
        {
          "indexed": true,
          "internalType": "address",
          "name": "spender",
          "type": "address"
        },
        {
          "indexed": false,
          "internalType": "uint256",
          "name": "value",
          "type": "uint256"
        }
      ],
      "name": "Approval",
      "type": "event"
    },
    {
      "anonymous": false,
      "inputs": [
        {
          "indexed": false,
          "internalType": "address",
          "name": "account",
          "type": "address"
        }
      ],
      "name": "Paused",
      "type": "event"
    },
    {
      "anonymous": false,
      "inputs": [
        {
          "indexed": true,
          "internalType": "bytes32",
          "name": "role",
          "type": "bytes32"
        },
        {
          "indexed": true,
          "internalType": "bytes32",
          "name": "previousAdminRole",
          "type": "bytes32"
        },
        {
          "indexed": true,
          "internalType": "bytes32",
          "name": "newAdminRole",
          "type": "bytes32"
        }
      ],
      "name": "RoleAdminChanged",
      "type": "event"
    },
    {
      "anonymous": false,
      "inputs": [
        {
          "indexed": true,
          "internalType": "bytes32",
          "name": "role",
          "type": "bytes32"
        },
        {
          "indexed": true,
          "internalType": "address",
          "name": "account",
          "type": "address"
        },
        {
          "indexed": true,
          "internalType": "address",
          "name": "sender",
          "type": "address"
        }
      ],
      "name": "RoleGranted",
      "type": "event"
    },
    {
      "anonymous": false,
      "inputs": [
        {
          "indexed": true,
          "internalType": "bytes32",
          "name": "role",
          "type": "bytes32"
        },
        {
          "indexed": true,
          "internalType": "address",
          "name": "account",
          "type": "address"
        },
        {
          "indexed": true,
          "internalType": "address",
          "name": "sender",
          "type": "address"
        }
      ],
      "name": "RoleRevoked",
      "type": "event"
    },
    {
      "anonymous": false,
      "inputs": [
        {
          "indexed": true,
          "internalType": "address",
          "name": "from",
          "type": "address"
        },
        {
          "indexed": true,
          "internalType": "address",
          "name": "to",
          "type": "address"
        },
        {
          "indexed": false,
          "internalType": "uint256",
          "name": "value",
          "type": "uint256"
        }
      ],
      "name": "Transfer",
      "type": "event"
    },
    {
      "anonymous": false,
      "inputs": [
        {
          "indexed": false,
          "internalType": "address",
          "name": "account",
          "type": "address"
        }
      ],
      "name": "Unpaused",
      "type": "event"
    },
    {
      "inputs": [],
      "name": "DEFAULT_ADMIN_ROLE",
      "outputs": [
        {
          "internalType": "bytes32",
          "name": "",
          "type": "bytes32"
        }
      ],
      "stateMutability": "view",
      "type": "function"
    },
    {
      "inputs": [],
      "name": "DOMAIN_SEPARATOR",
      "outputs": [
        {
          "internalType": "bytes32",
          "name": "",
          "type": "bytes32"
        }
      ],
      "stateMutability": "view",
      "type": "function"
    },
    {
      "inputs": [],
      "name": "MINTER_ROLE",
      "outputs": [
        {
          "internalType": "bytes32",
          "name": "",
          "type": "bytes32"
        }
      ],
      "stateMutability": "view",
      "type": "function"
    },
    {
      "inputs": [],
      "name": "PAUSER_ROLE",
      "outputs": [
        {
          "internalType": "bytes32",
          "name": "",
          "type": "bytes32"
        }
      ],
      "stateMutability": "view",
      "type": "function"
    },
    {
      "inputs": [
        {
          "internalType": "address",
          "name": "owner",
          "type": "address"
        },
        {
          "internalType": "address",
          "name": "spender",
          "type": "address"
        }
      ],
      "name": "allowance",
      "outputs": [
        {
          "internalType": "uint256",
          "name": "",
          "type": "uint256"
        }
      ],
      "stateMutability": "view",
      "type": "function"
    },
    {
      "inputs": [
        {
          "internalType": "address",
          "name": "spender",
          "type": "address"
        },
        {
          "internalType": "uint256",
          "name": "amount",
          "type": "uint256"
        }
      ],
      "name": "approve",
      "outputs": [
        {
          "internalType": "bool",
          "name": "",
          "type": "bool"
        }
      ],
      "stateMutability": "nonpayable",
      "type": "function"
    },
    {
      "inputs": [
        {
          "internalType": "address",
          "name": "account",
          "type": "address"
        }
      ],
      "name": "balanceOf",
      "outputs": [
        {
          "internalType": "uint256",
          "name": "",
          "type": "uint256"
        }
      ],
      "stateMutability": "view",
      "type": "function"
    },
    {
      "inputs": [
        {
          "internalType": "uint256",
          "name": "amount",
          "type": "uint256"
        }
      ],
      "name": "burn",
      "outputs": [],
      "stateMutability": "nonpayable",
      "type": "function"
    },
    {
      "inputs": [
        {
          "internalType": "address",
          "name": "account",
          "type": "address"
        },
        {
          "internalType": "uint256",
          "name": "amount",
          "type": "uint256"
        }
      ],
      "name": "burnFrom",
      "outputs": [],
      "stateMutability": "nonpayable",
      "type": "function"
    },
    {
      "inputs": [],
      "name": "decimals",
      "outputs": [
        {
          "internalType": "uint8",
          "name": "",
          "type": "uint8"
        }
      ],
      "stateMutability": "view",
      "type": "function"
    },
    {
      "inputs": [
        {
          "internalType": "address",
          "name": "spender",
          "type": "address"
        },
        {
          "internalType": "uint256",
          "name": "subtractedValue",
          "type": "uint256"
        }
      ],
      "name": "decreaseAllowance",
      "outputs": [
        {
          "internalType": "bool",
          "name": "",
          "type": "bool"
        }
      ],
      "stateMutability": "nonpayable",
      "type": "function"
    },
    {
      "inputs": [
        {
          "internalType": "bytes32",
          "name": "role",
          "type": "bytes32"
        }
      ],
      "name": "getRoleAdmin",
      "outputs": [
        {
          "internalType": "bytes32",
          "name": "",
          "type": "bytes32"
        }
      ],
      "stateMutability": "view",
      "type": "function"
    },
    {
      "inputs": [
        {
          "internalType": "bytes32",
          "name": "role",
          "type": "bytes32"
        },
        {
          "internalType": "uint256",
          "name": "index",
          "type": "uint256"
        }
      ],
      "name": "getRoleMember",
      "outputs": [
        {
          "internalType": "address",
          "name": "",
          "type": "address"
        }
      ],
      "stateMutability": "view",
      "type": "function"
    },
    {
      "inputs": [
        {
          "internalType": "bytes32",
          "name": "role",
          "type": "bytes32"
        }
      ],
      "name": "getRoleMemberCount",
      "outputs": [
        {
          "internalType": "uint256",
          "name": "",
          "type": "uint256"
        }
      ],
      "stateMutability": "view",
      "type": "function"
    },
    {
      "inputs": [
        {
          "internalType": "bytes32",
          "name": "role",
          "type": "bytes32"
        },
        {
          "internalType": "address",
          "name": "account",
          "type": "address"
        }
      ],
      "name": "grantRole",
      "outputs": [],
      "stateMutability": "nonpayable",
      "type": "function"
    },
    {
      "inputs": [
        {
          "internalType": "bytes32",
          "name": "role",
          "type": "bytes32"
        },
        {
          "internalType": "address",
          "name": "account",
          "type": "address"
        }
      ],
      "name": "hasRole",
      "outputs": [
        {
          "internalType": "bool",
          "name": "",
          "type": "bool"
        }
      ],
      "stateMutability": "view",
      "type": "function"
    },
    {
      "inputs": [
        {
          "internalType": "address",
          "name": "spender",
          "type": "address"
        },
        {
          "internalType": "uint256",
          "name": "addedValue",
          "type": "uint256"
        }
      ],
      "name": "increaseAllowance",
      "outputs": [
        {
          "internalType": "bool",
          "name": "",
          "type": "bool"
        }
      ],
      "stateMutability": "nonpayable",
      "type": "function"
    },
    {
      "inputs": [
        {
          "internalType": "address",
          "name": "to",
          "type": "address"
        },
        {
          "internalType": "uint256",
          "name": "amount",
          "type": "uint256"
        }
      ],
      "name": "mint",
      "outputs": [],
      "stateMutability": "nonpayable",
      "type": "function"
    },
    {
      "inputs": [],
      "name": "name",
      "outputs": [
        {
          "internalType": "string",
          "name": "",
          "type": "string"
        }
      ],
      "stateMutability": "view",
      "type": "function"
    },
    {
      "inputs": [
        {
          "internalType": "address",
          "name": "owner",
          "type": "address"
        }
      ],
      "name": "nonces",
      "outputs": [
        {
          "internalType": "uint256",
          "name": "",
          "type": "uint256"
        }
      ],
      "stateMutability": "view",
      "type": "function"
    },
    {
      "inputs": [],
      "name": "pause",
      "outputs": [],
      "stateMutability": "nonpayable",
      "type": "function"
    },
    {
      "inputs": [],
      "name": "paused",
      "outputs": [
        {
          "internalType": "bool",
          "name": "",
          "type": "bool"
        }
      ],
      "stateMutability": "view",
      "type": "function"
    },
    {
      "inputs": [
        {
          "internalType": "address",
          "name": "owner",
          "type": "address"
        },
        {
          "internalType": "address",
          "name": "spender",
          "type": "address"
        },
        {
          "internalType": "uint256",
          "name": "value",
          "type": "uint256"
        },
        {
          "internalType": "uint256",
          "name": "deadline",
          "type": "uint256"
        },
        {
          "internalType": "uint8",
          "name": "v",
          "type": "uint8"
        },
        {
          "internalType": "bytes32",
          "name": "r",
          "type": "bytes32"
        },
        {
          "internalType": "bytes32",
          "name": "s",
          "type": "bytes32"
        }
      ],
      "name": "permit",
      "outputs": [],
      "stateMutability": "nonpayable",
      "type": "function"
    },
    {
      "inputs": [
        {
          "internalType": "bytes32",
          "name": "role",
          "type": "bytes32"
        },
        {
          "internalType": "address",
          "name": "account",
          "type": "address"
        }
      ],
      "name": "renounceRole",
      "outputs": [],
      "stateMutability": "nonpayable",
      "type": "function"
    },
    {
      "inputs": [
        {
          "internalType": "bytes32",
          "name": "role",
          "type": "bytes32"
        },
        {
          "internalType": "address",
          "name": "account",
          "type": "address"
        }
      ],
      "name": "revokeRole",
      "outputs": [],
      "stateMutability": "nonpayable",
      "type": "function"
    },
    {
      "inputs": [
        {
          "internalType": "bytes4",
          "name": "interfaceId",
          "type": "bytes4"
        }
      ],
      "name": "supportsInterface",
      "outputs": [
        {
          "internalType": "bool",
          "name": "",
          "type": "bool"
        }
      ],
      "stateMutability": "view",
      "type": "function"
    },
    {
      "inputs": [],
      "name": "symbol",
      "outputs": [
        {
          "internalType": "string",
          "name": "",
          "type": "string"
        }
      ],
      "stateMutability": "view",
      "type": "function"
    },
    {
      "inputs": [],
      "name": "totalSupply",
      "outputs": [
        {
          "internalType": "uint256",
          "name": "",
          "type": "uint256"
        }
      ],
      "stateMutability": "view",
      "type": "function"
    },
    {
      "inputs": [
        {
          "internalType": "address",
          "name": "to",
          "type": "address"
        },
        {
          "internalType": "uint256",
          "name": "amount",
          "type": "uint256"
        }
      ],
      "name": "transfer",
      "outputs": [
        {
          "internalType": "bool",
          "name": "",
          "type": "bool"
        }
      ],
      "stateMutability": "nonpayable",
      "type": "function"
    },
    {
      "inputs": [
        {
          "internalType": "address",
          "name": "from",
          "type": "address"
        },
        {
          "internalType": "address",
          "name": "to",
          "type": "address"
        },
        {
          "internalType": "uint256",
          "name": "amount",
          "type": "uint256"
        }
      ],
      "name": "transferFrom",
      "outputs": [
        {
          "internalType": "bool",
          "name": "",
          "type": "bool"
        }
      ],
      "stateMutability": "nonpayable",
      "type": "function"
    },
    {
      "inputs": [],
      "name": "unpause",
      "outputs": [],
      "stateMutability": "nonpayable",
      "type": "function"
    },
    {
      "inputs": [],
      "name": "version",
      "outputs": [
        {
          "internalType": "string",
          "name": "",
          "type": "string"
        }
      ],
      "stateMutability": "view",
      "type": "function"
    }
  ],
  "bytecode": {
    "object": "0x6101406040523480156200001257600080fd5b506040516200253f3803806200253f833981016040819052620000359162000463565b8180604051806040016040528060018152602001603160f81b815250848481600590805190602001906200006b929190620002f0565b50805162000081906006906020840190620002f0565b50506007805460ff1916905550815160209283012081519183019190912060e08290526101008190524660a0818152604080517f8b73c3c69bb8fe3d512ecc4cf759cc79239f7b179b0ffacaa9a75d522b39400f818801819052818301969096526060810194909452608080850193909352308483018190528151808603909301835260c09485019091528151919095012090529190915261012052506200012b6000336200018b565b620001577f9f2df0fed2c77648de5860a4cc508cd0818c85b8b8a1ab4ceeef8d981c8956a6336200018b565b620001837f65d7a28e3265b37a6474929f336521b332c1681b933f6cb9f3376673440d862a336200018b565b50506200050a565b6200019782826200019b565b5050565b620001b28282620001de60201b62000b481760201c565b6000828152600160209081526040909120620001d991839062000bcc6200027e821b17901c565b505050565b6000828152602081815260408083206001600160a01b038516845290915290205460ff1662000197576000828152602081815260408083206001600160a01b03851684529091529020805460ff191660011790556200023a3390565b6001600160a01b0316816001600160a01b0316837f2f8788117e7eff1d82e926ec794901d17c78024a50270940304540a733656f0d60405160405180910390a45050565b600062000295836001600160a01b0384166200029e565b90505b92915050565b6000818152600183016020526040812054620002e75750815460018181018455600084815260208082209093018490558454848252828601909352604090209190915562000298565b50600062000298565b828054620002fe90620004cd565b90600052602060002090601f0160209004810192826200032257600085556200036d565b82601f106200033d57805160ff19168380011785556200036d565b828001600101855582156200036d579182015b828111156200036d57825182559160200191906001019062000350565b506200037b9291506200037f565b5090565b5b808211156200037b576000815560010162000380565b634e487b7160e01b600052604160045260246000fd5b600082601f830112620003be57600080fd5b81516001600160401b0380821115620003db57620003db62000396565b604051601f8301601f19908116603f0116810190828211818310171562000406576200040662000396565b816040528381526020925086838588010111156200042357600080fd5b600091505b8382101562000447578582018301518183018401529082019062000428565b83821115620004595760008385830101525b9695505050505050565b600080604083850312156200047757600080fd5b82516001600160401b03808211156200048f57600080fd5b6200049d86838701620003ac565b93506020850151915080821115620004b457600080fd5b50620004c385828601620003ac565b9150509250929050565b600181811c90821680620004e257607f821691505b602082108114156200050457634e487b7160e01b600052602260045260246000fd5b50919050565b60805160a05160c05160e0516101005161012051611fe56200055a6000396000611043015260006110920152600061106d01526000610fc601526000610ff00152600061101a0152611fe56000f3fe608060405234801561001057600080fd5b50600436106101f05760003560e01c806370a082311161010f578063a457c2d7116100a2578063d539139311610071578063d539139314610429578063d547741f14610450578063dd62ed3e14610463578063e63ab1e91461047657600080fd5b8063a457c2d7146103dd578063a9059cbb146103f0578063ca15c87314610403578063d505accf1461041657600080fd5b80639010d07c116100de5780639010d07c1461038f57806391d14854146103ba57806395d89b41146103cd578063a217fddf146103d557600080fd5b806370a082311461033857806379cc6790146103615780637ecebe00146103745780638456cb591461038757600080fd5b80633644e5151161018757806340c10f191161015657806340c10f19146102e757806342966c68146102fa57806354fd4d501461030d5780635c975abb1461032d57600080fd5b80633644e515146102b157806336568abe146102b957806339509351146102cc5780633f4ba83a146102df57600080fd5b806323b872dd116101c357806323b872dd14610257578063248a9ca31461026a5780632f2ff15d1461028d578063313ce567146102a257600080fd5b806301ffc9a7146101f557806306fdde031461021d578063095ea7b31461023257806318160ddd14610245575b600080fd5b610208610203366004611c08565b61049d565b60405190151581526020015b60405180910390f35b6102256104c8565b6040516102149190611c5e565b610208610240366004611cad565b61055a565b6004545b604051908152602001610214565b610208610265366004611cd7565b610572565b610249610278366004611d13565b60009081526020819052604090206001015490565b6102a061029b366004611d2c565b610596565b005b60405160128152602001610214565b6102496105c0565b6102a06102c7366004611d2c565b6105cf565b6102086102da366004611cad565b610652565b6102a0610674565b6102a06102f5366004611cad565b61071a565b6102a0610308366004611d13565b6107b9565b610225604051806040016040528060018152602001603160f81b81525081565b60075460ff16610208565b610249610346366004611d58565b6001600160a01b031660009081526002602052604090205490565b6102a061036f366004611cad565b6107c6565b610249610382366004611d58565b6107db565b6102a06107f9565b6103a261039d366004611d73565b61089d565b6040516001600160a01b039091168152602001610214565b6102086103c8366004611d2c565b6108bc565b6102256108e5565b610249600081565b6102086103eb366004611cad565b6108f4565b6102086103fe366004611cad565b61096f565b610249610411366004611d13565b61097d565b6102a0610424366004611d95565b610994565b6102497f9f2df0fed2c77648de5860a4cc508cd0818c85b8b8a1ab4ceeef8d981c8956a681565b6102a061045e366004611d2c565b610af8565b610249610471366004611e08565b610b1d565b6102497f65d7a28e3265b37a6474929f336521b332c1681b933f6cb9f3376673440d862a81565b60006001600160e01b03198216635a05180f60e01b14806104c257506104c282610be1565b92915050565b6060600580546104d790611e32565b80601f016020809104026020016040519081016040528092919081815260200182805461050390611e32565b80156105505780601f1061052557610100808354040283529160200191610550565b820191906000526020600020905b81548152906001019060200180831161053357829003601f168201915b5050505050905090565b600033610568818585610c16565b5060019392505050565b600033610580858285610d3a565b61058b858585610db4565b506001949350505050565b6000828152602081905260409020600101546105b181610f8d565b6105bb8383610f97565b505050565b60006105ca610fb9565b905090565b6001600160a01b03811633146106445760405162461bcd60e51b815260206004820152602f60248201527f416363657373436f6e74726f6c3a2063616e206f6e6c792072656e6f756e636560448201526e103937b632b9903337b91039b2b63360891b60648201526084015b60405180910390fd5b61064e82826110e0565b5050565b6000336105688185856106658383610b1d565b61066f9190611e7d565b610c16565b61069e7f65d7a28e3265b37a6474929f336521b332c1681b933f6cb9f3376673440d862a336108bc565b6107105760405162461bcd60e51b815260206004820152603960248201527f45524332305072657365744d696e7465725061757365723a206d75737420686160448201527f76652070617573657220726f6c6520746f20756e706175736500000000000000606482015260840161063b565b610718611102565b565b6107447f9f2df0fed2c77648de5860a4cc508cd0818c85b8b8a1ab4ceeef8d981c8956a6336108bc565b6107af5760405162461bcd60e51b815260206004820152603660248201527f45524332305072657365744d696e7465725061757365723a206d7573742068616044820152751d99481b5a5b9d195c881c9bdb19481d1bc81b5a5b9d60521b606482015260840161063b565b61064e8282611195565b6107c33382611280565b50565b6107d1823383610d3a565b61064e8282611280565b6001600160a01b0381166000908152600860205260408120546104c2565b6108237f65d7a28e3265b37a6474929f336521b332c1681b933f6cb9f3376673440d862a336108bc565b6108955760405162461bcd60e51b815260206004820152603760248201527f45524332305072657365744d696e7465725061757365723a206d75737420686160448201527f76652070617573657220726f6c6520746f207061757365000000000000000000606482015260840161063b565b6107186113da565b60008281526001602052604081206108b59083611455565b9392505050565b6000918252602082815260408084206001600160a01b0393909316845291905290205460ff1690565b6060600680546104d790611e32565b600033816109028286610b1d565b9050838110156109625760405162461bcd60e51b815260206004820152602560248201527f45524332303a2064656372656173656420616c6c6f77616e63652062656c6f77604482015264207a65726f60d81b606482015260840161063b565b61058b8286868403610c16565b600033610568818585610db4565b60008181526001602052604081206104c290611461565b834211156109e45760405162461bcd60e51b815260206004820152601d60248201527f45524332305065726d69743a206578706972656420646561646c696e65000000604482015260640161063b565b60007f6e71edae12b1b97f4d1f60370fef10105fa2faae0126114a169c64845d6126c9888888610a138c61146b565b6040805160208101969096526001600160a01b0394851690860152929091166060840152608083015260a082015260c0810186905260e0016040516020818303038152906040528051906020012090506000610a6e82611493565b90506000610a7e828787876114e1565b9050896001600160a01b0316816001600160a01b031614610ae15760405162461bcd60e51b815260206004820152601e60248201527f45524332305065726d69743a20696e76616c6964207369676e61747572650000604482015260640161063b565b610aec8a8a8a610c16565b50505050505050505050565b600082815260208190526040902060010154610b1381610f8d565b6105bb83836110e0565b6001600160a01b03918216600090815260036020908152604080832093909416825291909152205490565b610b5282826108bc565b61064e576000828152602081815260408083206001600160a01b03851684529091529020805460ff19166001179055610b883390565b6001600160a01b0316816001600160a01b0316837f2f8788117e7eff1d82e926ec794901d17c78024a50270940304540a733656f0d60405160405180910390a45050565b60006108b5836001600160a01b038416611509565b60006001600160e01b03198216637965db0b60e01b14806104c257506301ffc9a760e01b6001600160e01b03198316146104c2565b6001600160a01b038316610c785760405162461bcd60e51b8152602060048201526024808201527f45524332303a20617070726f76652066726f6d20746865207a65726f206164646044820152637265737360e01b606482015260840161063b565b6001600160a01b038216610cd95760405162461bcd60e51b815260206004820152602260248201527f45524332303a20617070726f766520746f20746865207a65726f206164647265604482015261737360f01b606482015260840161063b565b6001600160a01b0383811660008181526003602090815260408083209487168084529482529182902085905590518481527f8c5be1e5ebec7d5bd14f71427d1e84f3dd0314c0f7b2291e5b200ac8c7c3b925910160405180910390a3505050565b6000610d468484610b1d565b90506000198114610dae5781811015610da15760405162461bcd60e51b815260206004820152601d60248201527f45524332303a20696e73756666696369656e7420616c6c6f77616e6365000000604482015260640161063b565b610dae8484848403610c16565b50505050565b6001600160a01b038316610e185760405162461bcd60e51b815260206004820152602560248201527f45524332303a207472616e736665722066726f6d20746865207a65726f206164604482015264647265737360d81b606482015260840161063b565b6001600160a01b038216610e7a5760405162461bcd60e51b815260206004820152602360248201527f45524332303a207472616e7366657220746f20746865207a65726f206164647260448201526265737360e81b606482015260840161063b565b610e85838383611558565b6001600160a01b03831660009081526002602052604090205481811015610efd5760405162461bcd60e51b815260206004820152602660248201527f45524332303a207472616e7366657220616d6f756e7420657863656564732062604482015265616c616e636560d01b606482015260840161063b565b6001600160a01b03808516600090815260026020526040808220858503905591851681529081208054849290610f34908490611e7d565b92505081905550826001600160a01b0316846001600160a01b03167fddf252ad1be2c89b69c2b068fc378daa952ba7f163c4a11628f55a4df523b3ef84604051610f8091815260200190565b60405180910390a3610dae565b6107c38133611563565b610fa18282610b48565b60008281526001602052604090206105bb9082610bcc565b6000306001600160a01b037f00000000000000000000000000000000000000000000000000000000000000001614801561101257507f000000000000000000000000000000000000000000000000000000000000000046145b1561103c57507f000000000000000000000000000000000000000000000000000000000000000090565b50604080517f00000000000000000000000000000000000000000000000000000000000000006020808301919091527f0000000000000000000000000000000000000000000000000000000000000000828401527f000000000000000000000000000000000000000000000000000000000000000060608301524660808301523060a0808401919091528351808403909101815260c0909201909252805191012090565b6110ea82826115c7565b60008281526001602052604090206105bb908261162c565b60075460ff1661114b5760405162461bcd60e51b815260206004820152601460248201527314185d5cd8589b194e881b9bdd081c185d5cd95960621b604482015260640161063b565b6007805460ff191690557f5db9ee0a495bf2e6ff9c91a7834c1ba4fdd244a5e8aa4e537bd38aeae4b073aa335b6040516001600160a01b03909116815260200160405180910390a1565b6001600160a01b0382166111eb5760405162461bcd60e51b815260206004820152601f60248201527f45524332303a206d696e7420746f20746865207a65726f206164647265737300604482015260640161063b565b6111f760008383611558565b80600460008282546112099190611e7d565b90915550506001600160a01b03821660009081526002602052604081208054839290611236908490611e7d565b90915550506040518181526001600160a01b038316906000907fddf252ad1be2c89b69c2b068fc378daa952ba7f163c4a11628f55a4df523b3ef9060200160405180910390a35050565b6001600160a01b0382166112e05760405162461bcd60e51b815260206004820152602160248201527f45524332303a206275726e2066726f6d20746865207a65726f206164647265736044820152607360f81b606482015260840161063b565b6112ec82600083611558565b6001600160a01b038216600090815260026020526040902054818110156113605760405162461bcd60e51b815260206004820152602260248201527f45524332303a206275726e20616d6f756e7420657863656564732062616c616e604482015261636560f01b606482015260840161063b565b6001600160a01b038316600090815260026020526040812083830390556004805484929061138f908490611e95565b90915550506040518281526000906001600160a01b038516907fddf252ad1be2c89b69c2b068fc378daa952ba7f163c4a11628f55a4df523b3ef9060200160405180910390a3505050565b60075460ff16156114205760405162461bcd60e51b815260206004820152601060248201526f14185d5cd8589b194e881c185d5cd95960821b604482015260640161063b565b6007805460ff191660011790557f62e78cea01bee320cd4e420270b5ea74000d11b0c9f74754ebdbfc544b05a2586111783390565b60006108b58383611641565b60006104c2825490565b6001600160a01b03811660009081526008602052604090208054600181018255905b50919050565b60006104c26114a0610fb9565b8360405161190160f01b6020820152602281018390526042810182905260009060620160405160208183030381529060405280519060200120905092915050565b60008060006114f28787878761166b565b915091506114ff81611758565b5095945050505050565b6000818152600183016020526040812054611550575081546001818101845560008481526020808220909301849055845484825282860190935260409020919091556104c2565b5060006104c2565b6105bb838383611913565b61156d82826108bc565b61064e57611585816001600160a01b03166014611979565b611590836020611979565b6040516020016115a1929190611eac565b60408051601f198184030181529082905262461bcd60e51b825261063b91600401611c5e565b6115d182826108bc565b1561064e576000828152602081815260408083206001600160a01b0385168085529252808320805460ff1916905551339285917ff6391f5c32d9c69d2a47ea670b442974b53935d1edc7fd64eb21e047a839171b9190a45050565b60006108b5836001600160a01b038416611b15565b600082600001828154811061165857611658611f21565b9060005260206000200154905092915050565b6000807f7fffffffffffffffffffffffffffffff5d576e7357a4501ddfe92f46681b20a08311156116a2575060009050600361174f565b8460ff16601b141580156116ba57508460ff16601c14155b156116cb575060009050600461174f565b6040805160008082526020820180845289905260ff881692820192909252606081018690526080810185905260019060a0016020604051602081039080840390855afa15801561171f573d6000803e3d6000fd5b5050604051601f1901519150506001600160a01b0381166117485760006001925092505061174f565b9150600090505b94509492505050565b600081600481111561176c5761176c611f37565b14156117755750565b600181600481111561178957611789611f37565b14156117d75760405162461bcd60e51b815260206004820152601860248201527f45434453413a20696e76616c6964207369676e61747572650000000000000000604482015260640161063b565b60028160048111156117eb576117eb611f37565b14156118395760405162461bcd60e51b815260206004820152601f60248201527f45434453413a20696e76616c6964207369676e6174757265206c656e67746800604482015260640161063b565b600381600481111561184d5761184d611f37565b14156118a65760405162461bcd60e51b815260206004820152602260248201527f45434453413a20696e76616c6964207369676e6174757265202773272076616c604482015261756560f01b606482015260840161063b565b60048160048111156118ba576118ba611f37565b14156107c35760405162461bcd60e51b815260206004820152602260248201527f45434453413a20696e76616c6964207369676e6174757265202776272076616c604482015261756560f01b606482015260840161063b565b60075460ff16156105bb5760405162461bcd60e51b815260206004820152602a60248201527f45524332305061757361626c653a20746f6b656e207472616e736665722077686044820152691a5b19481c185d5cd95960b21b606482015260840161063b565b60606000611988836002611f4d565b611993906002611e7d565b67ffffffffffffffff8111156119ab576119ab611f6c565b6040519080825280601f01601f1916602001820160405280156119d5576020820181803683370190505b509050600360fc1b816000815181106119f0576119f0611f21565b60200101906001600160f81b031916908160001a905350600f60fb1b81600181518110611a1f57611a1f611f21565b60200101906001600160f81b031916908160001a9053506000611a43846002611f4d565b611a4e906001611e7d565b90505b6001811115611ac6576f181899199a1a9b1b9c1cb0b131b232b360811b85600f1660108110611a8257611a82611f21565b1a60f81b828281518110611a9857611a98611f21565b60200101906001600160f81b031916908160001a90535060049490941c93611abf81611f82565b9050611a51565b5083156108b55760405162461bcd60e51b815260206004820181905260248201527f537472696e67733a20686578206c656e67746820696e73756666696369656e74604482015260640161063b565b60008181526001830160205260408120548015611bfe576000611b39600183611e95565b8554909150600090611b4d90600190611e95565b9050818114611bb2576000866000018281548110611b6d57611b6d611f21565b9060005260206000200154905080876000018481548110611b9057611b90611f21565b6000918252602080832090910192909255918252600188019052604090208390555b8554869080611bc357611bc3611f99565b6001900381819060005260206000200160009055905585600101600086815260200190815260200160002060009055600193505050506104c2565b60009150506104c2565b600060208284031215611c1a57600080fd5b81356001600160e01b0319811681146108b557600080fd5b60005b83811015611c4d578181015183820152602001611c35565b83811115610dae5750506000910152565b6020815260008251806020840152611c7d816040850160208701611c32565b601f01601f19169190910160400192915050565b80356001600160a01b0381168114611ca857600080fd5b919050565b60008060408385031215611cc057600080fd5b611cc983611c91565b946020939093013593505050565b600080600060608486031215611cec57600080fd5b611cf584611c91565b9250611d0360208501611c91565b9150604084013590509250925092565b600060208284031215611d2557600080fd5b5035919050565b60008060408385031215611d3f57600080fd5b82359150611d4f60208401611c91565b90509250929050565b600060208284031215611d6a57600080fd5b6108b582611c91565b60008060408385031215611d8657600080fd5b50508035926020909101359150565b600080600080600080600060e0888a031215611db057600080fd5b611db988611c91565b9650611dc760208901611c91565b95506040880135945060608801359350608088013560ff81168114611deb57600080fd5b9699959850939692959460a0840135945060c09093013592915050565b60008060408385031215611e1b57600080fd5b611e2483611c91565b9150611d4f60208401611c91565b600181811c90821680611e4657607f821691505b6020821081141561148d57634e487b7160e01b600052602260045260246000fd5b634e487b7160e01b600052601160045260246000fd5b60008219821115611e9057611e90611e67565b500190565b600082821015611ea757611ea7611e67565b500390565b7f416363657373436f6e74726f6c3a206163636f756e7420000000000000000000815260008351611ee4816017850160208801611c32565b7001034b99036b4b9b9b4b733903937b6329607d1b6017918401918201528351611f15816028840160208801611c32565b01602801949350505050565b634e487b7160e01b600052603260045260246000fd5b634e487b7160e01b600052602160045260246000fd5b6000816000190483118215151615611f6757611f67611e67565b500290565b634e487b7160e01b600052604160045260246000fd5b600081611f9157611f91611e67565b506000190190565b634e487b7160e01b600052603160045260246000fdfea26469706673582212201014553e5bdff3e3d03dbdf520bb025db7d2b94283577ab98c13da9efcd8333964736f6c63430008090033",
    "linkReferences": {}
  }
}