{
  "abi": [
    {
      "inputs": [
        {
          "internalType": "contract ERC20Votes",
          "name": "_token",
          "type": "address"
        },
        {
          "internalType": "contract TimelockController",
          "name": "_timelock",
          "type": "address"
        },
        {
          "internalType": "uint256",
          "name": "_quorumPercentage",
          "type": "uint256"
        },
        {
          "internalType": "uint256",
          "name": "_votingPeriod",
          "type": "uint256"
        },
        {
          "internalType": "uint256",
          "name": "_votingDelay",
          "type": "uint256"
        }
      ],
      "stateMutability": "nonpayable",
      "type": "constructor"
    },
    {
      "inputs": [],
      "name": "Empty",
      "type": "error"
    },
    {
      "anonymous": false,
      "inputs": [
        {
          "indexed": false,
          "internalType": "uint256",
          "name": "proposalId",
          "type": "uint256"
        }
      ],
      "name": "ProposalCanceled",
      "type": "event"
    },
    {
      "anonymous": false,
      "inputs": [
        {
          "indexed": false,
          "internalType": "uint256",
          "name": "proposalId",
          "type": "uint256"
        },
        {
          "indexed": false,
          "internalType": "address",
          "name": "proposer",
          "type": "address"
        },
        {
          "indexed": false,
          "internalType": "address[]",
          "name": "targets",
          "type": "address[]"
        },
        {
          "indexed": false,
          "internalType": "uint256[]",
          "name": "values",
          "type": "uint256[]"
        },
        {
          "indexed": false,
          "internalType": "string[]",
          "name": "signatures",
          "type": "string[]"
        },
        {
          "indexed": false,
          "internalType": "bytes[]",
          "name": "calldatas",
          "type": "bytes[]"
        },
        {
          "indexed": false,
          "internalType": "uint256",
          "name": "startBlock",
          "type": "uint256"
        },
        {
          "indexed": false,
          "internalType": "uint256",
          "name": "endBlock",
          "type": "uint256"
        },
        {
          "indexed": false,
          "internalType": "string",
          "name": "description",
          "type": "string"
        }
      ],
      "name": "ProposalCreated",
      "type": "event"
    },
    {
      "anonymous": false,
      "inputs": [
        {
          "indexed": false,
          "internalType": "uint256",
          "name": "proposalId",
          "type": "uint256"
        }
      ],
      "name": "ProposalExecuted",
      "type": "event"
    },
    {
      "anonymous": false,
      "inputs": [
        {
          "indexed": false,
          "internalType": "uint256",
          "name": "proposalId",
          "type": "uint256"
        },
        {
          "indexed": false,
          "internalType": "uint256",
          "name": "eta",
          "type": "uint256"
        }
      ],
      "name": "ProposalQueued",
      "type": "event"
    },
    {
      "anonymous": false,
      "inputs": [
        {
          "indexed": false,
          "internalType": "uint256",
          "name": "oldQuorumNumerator",
          "type": "uint256"
        },
        {
          "indexed": false,
          "internalType": "uint256",
          "name": "newQuorumNumerator",
          "type": "uint256"
        }
      ],
      "name": "QuorumNumeratorUpdated",
      "type": "event"
    },
    {
      "anonymous": false,
      "inputs": [
        {
          "indexed": false,
          "internalType": "address",
          "name": "oldTimelock",
          "type": "address"
        },
        {
          "indexed": false,
          "internalType": "address",
          "name": "newTimelock",
          "type": "address"
        }
      ],
      "name": "TimelockChange",
      "type": "event"
    },
    {
      "anonymous": false,
      "inputs": [
        {
          "indexed": true,
          "internalType": "address",
          "name": "voter",
          "type": "address"
        },
        {
          "indexed": false,
          "internalType": "uint256",
          "name": "proposalId",
          "type": "uint256"
        },
        {
          "indexed": false,
          "internalType": "uint8",
          "name": "support",
          "type": "uint8"
        },
        {
          "indexed": false,
          "internalType": "uint256",
          "name": "weight",
          "type": "uint256"
        },
        {
          "indexed": false,
          "internalType": "string",
          "name": "reason",
          "type": "string"
        }
      ],
      "name": "VoteCast",
      "type": "event"
    },
    {
      "anonymous": false,
      "inputs": [
        {
          "indexed": true,
          "internalType": "address",
          "name": "voter",
          "type": "address"
        },
        {
          "indexed": false,
          "internalType": "uint256",
          "name": "proposalId",
          "type": "uint256"
        },
        {
          "indexed": false,
          "internalType": "uint8",
          "name": "support",
          "type": "uint8"
        },
        {
          "indexed": false,
          "internalType": "uint256",
          "name": "weight",
          "type": "uint256"
        },
        {
          "indexed": false,
          "internalType": "string",
          "name": "reason",
          "type": "string"
        },
        {
          "indexed": false,
          "internalType": "bytes",
          "name": "params",
          "type": "bytes"
        }
      ],
      "name": "VoteCastWithParams",
      "type": "event"
    },
    {
      "inputs": [],
      "name": "BALLOT_TYPEHASH",
      "outputs": [
        {
          "internalType": "bytes32",
          "name": "",
          "type": "bytes32"
        }
      ],
      "stateMutability": "view",
      "type": "function"
    },
    {
      "inputs": [],
      "name": "COUNTING_MODE",
      "outputs": [
        {
          "internalType": "string",
          "name": "",
          "type": "string"
        }
      ],
      "stateMutability": "pure",
      "type": "function"
    },
    {
      "inputs": [],
      "name": "EXTENDED_BALLOT_TYPEHASH",
      "outputs": [
        {
          "internalType": "bytes32",
          "name": "",
          "type": "bytes32"
        }
      ],
      "stateMutability": "view",
      "type": "function"
    },
    {
      "inputs": [
        {
          "internalType": "uint256",
          "name": "proposalId",
          "type": "uint256"
        },
        {
          "internalType": "uint8",
          "name": "support",
          "type": "uint8"
        }
      ],
      "name": "castVote",
      "outputs": [
        {
          "internalType": "uint256",
          "name": "",
          "type": "uint256"
        }
      ],
      "stateMutability": "nonpayable",
      "type": "function"
    },
    {
      "inputs": [
        {
          "internalType": "uint256",
          "name": "proposalId",
          "type": "uint256"
        },
        {
          "internalType": "uint8",
          "name": "support",
          "type": "uint8"
        },
        {
          "internalType": "uint8",
          "name": "v",
          "type": "uint8"
        },
        {
          "internalType": "bytes32",
          "name": "r",
          "type": "bytes32"
        },
        {
          "internalType": "bytes32",
          "name": "s",
          "type": "bytes32"
        }
      ],
      "name": "castVoteBySig",
      "outputs": [
        {
          "internalType": "uint256",
          "name": "",
          "type": "uint256"
        }
      ],
      "stateMutability": "nonpayable",
      "type": "function"
    },
    {
      "inputs": [
        {
          "internalType": "uint256",
          "name": "proposalId",
          "type": "uint256"
        },
        {
          "internalType": "uint8",
          "name": "support",
          "type": "uint8"
        },
        {
          "internalType": "string",
          "name": "reason",
          "type": "string"
        }
      ],
      "name": "castVoteWithReason",
      "outputs": [
        {
          "internalType": "uint256",
          "name": "",
          "type": "uint256"
        }
      ],
      "stateMutability": "nonpayable",
      "type": "function"
    },
    {
      "inputs": [
        {
          "internalType": "uint256",
          "name": "proposalId",
          "type": "uint256"
        },
        {
          "internalType": "uint8",
          "name": "support",
          "type": "uint8"
        },
        {
          "internalType": "string",
          "name": "reason",
          "type": "string"
        },
        {
          "internalType": "bytes",
          "name": "params",
          "type": "bytes"
        }
      ],
      "name": "castVoteWithReasonAndParams",
      "outputs": [
        {
          "internalType": "uint256",
          "name": "",
          "type": "uint256"
        }
      ],
      "stateMutability": "nonpayable",
      "type": "function"
    },
    {
      "inputs": [
        {
          "internalType": "uint256",
          "name": "proposalId",
          "type": "uint256"
        },
        {
          "internalType": "uint8",
          "name": "support",
          "type": "uint8"
        },
        {
          "internalType": "string",
          "name": "reason",
          "type": "string"
        },
        {
          "internalType": "bytes",
          "name": "params",
          "type": "bytes"
        },
        {
          "internalType": "uint8",
          "name": "v",
          "type": "uint8"
        },
        {
          "internalType": "bytes32",
          "name": "r",
          "type": "bytes32"
        },
        {
          "internalType": "bytes32",
          "name": "s",
          "type": "bytes32"
        }
      ],
      "name": "castVoteWithReasonAndParamsBySig",
      "outputs": [
        {
          "internalType": "uint256",
          "name": "",
          "type": "uint256"
        }
      ],
      "stateMutability": "nonpayable",
      "type": "function"
    },
    {
      "inputs": [
        {
          "internalType": "address[]",
          "name": "targets",
          "type": "address[]"
        },
        {
          "internalType": "uint256[]",
          "name": "values",
          "type": "uint256[]"
        },
        {
          "internalType": "bytes[]",
          "name": "calldatas",
          "type": "bytes[]"
        },
        {
          "internalType": "bytes32",
          "name": "descriptionHash",
          "type": "bytes32"
        }
      ],
      "name": "execute",
      "outputs": [
        {
          "internalType": "uint256",
          "name": "",
          "type": "uint256"
        }
      ],
      "stateMutability": "payable",
      "type": "function"
    },
    {
      "inputs": [
        {
          "internalType": "address",
          "name": "account",
          "type": "address"
        },
        {
          "internalType": "uint256",
          "name": "blockNumber",
          "type": "uint256"
        }
      ],
      "name": "getVotes",
      "outputs": [
        {
          "internalType": "uint256",
          "name": "",
          "type": "uint256"
        }
      ],
      "stateMutability": "view",
      "type": "function"
    },
    {
      "inputs": [
        {
          "internalType": "address",
          "name": "account",
          "type": "address"
        },
        {
          "internalType": "uint256",
          "name": "blockNumber",
          "type": "uint256"
        },
        {
          "internalType": "bytes",
          "name": "params",
          "type": "bytes"
        }
      ],
      "name": "getVotesWithParams",
      "outputs": [
        {
          "internalType": "uint256",
          "name": "",
          "type": "uint256"
        }
      ],
      "stateMutability": "view",
      "type": "function"
    },
    {
      "inputs": [
        {
          "internalType": "uint256",
          "name": "proposalId",
          "type": "uint256"
        },
        {
          "internalType": "address",
          "name": "account",
          "type": "address"
        }
      ],
      "name": "hasVoted",
      "outputs": [
        {
          "internalType": "bool",
          "name": "",
          "type": "bool"
        }
      ],
      "stateMutability": "view",
      "type": "function"
    },
    {
      "inputs": [
        {
          "internalType": "address[]",
          "name": "targets",
          "type": "address[]"
        },
        {
          "internalType": "uint256[]",
          "name": "values",
          "type": "uint256[]"
        },
        {
          "internalType": "bytes[]",
          "name": "calldatas",
          "type": "bytes[]"
        },
        {
          "internalType": "bytes32",
          "name": "descriptionHash",
          "type": "bytes32"
        }
      ],
      "name": "hashProposal",
      "outputs": [
        {
          "internalType": "uint256",
          "name": "",
          "type": "uint256"
        }
      ],
      "stateMutability": "pure",
      "type": "function"
    },
    {
      "inputs": [],
      "name": "name",
      "outputs": [
        {
          "internalType": "string",
          "name": "",
          "type": "string"
        }
      ],
      "stateMutability": "view",
      "type": "function"
    },
    {
      "inputs": [
        {
          "internalType": "address",
          "name": "",
          "type": "address"
        },
        {
          "internalType": "address",
          "name": "",
          "type": "address"
        },
        {
          "internalType": "uint256[]",
          "name": "",
          "type": "uint256[]"
        },
        {
          "internalType": "uint256[]",
          "name": "",
          "type": "uint256[]"
        },
        {
          "internalType": "bytes",
          "name": "",
          "type": "bytes"
        }
      ],
      "name": "onERC1155BatchReceived",
      "outputs": [
        {
          "internalType": "bytes4",
          "name": "",
          "type": "bytes4"
        }
      ],
      "stateMutability": "nonpayable",
      "type": "function"
    },
    {
      "inputs": [
        {
          "internalType": "address",
          "name": "",
          "type": "address"
        },
        {
          "internalType": "address",
          "name": "",
          "type": "address"
        },
        {
          "internalType": "uint256",
          "name": "",
          "type": "uint256"
        },
        {
          "internalType": "uint256",
          "name": "",
          "type": "uint256"
        },
        {
          "internalType": "bytes",
          "name": "",
          "type": "bytes"
        }
      ],
      "name": "onERC1155Received",
      "outputs": [
        {
          "internalType": "bytes4",
          "name": "",
          "type": "bytes4"
        }
      ],
      "stateMutability": "nonpayable",
      "type": "function"
    },
    {
      "inputs": [
        {
          "internalType": "address",
          "name": "",
          "type": "address"
        },
        {
          "internalType": "address",
          "name": "",
          "type": "address"
        },
        {
          "internalType": "uint256",
          "name": "",
          "type": "uint256"
        },
        {
          "internalType": "bytes",
          "name": "",
          "type": "bytes"
        }
      ],
      "name": "onERC721Received",
      "outputs": [
        {
          "internalType": "bytes4",
          "name": "",
          "type": "bytes4"
        }
      ],
      "stateMutability": "nonpayable",
      "type": "function"
    },
    {
      "inputs": [
        {
          "internalType": "uint256",
          "name": "proposalId",
          "type": "uint256"
        }
      ],
      "name": "proposalDeadline",
      "outputs": [
        {
          "internalType": "uint256",
          "name": "",
          "type": "uint256"
        }
      ],
      "stateMutability": "view",
      "type": "function"
    },
    {
      "inputs": [
        {
          "internalType": "uint256",
          "name": "proposalId",
          "type": "uint256"
        }
      ],
      "name": "proposalEta",
      "outputs": [
        {
          "internalType": "uint256",
          "name": "",
          "type": "uint256"
        }
      ],
      "stateMutability": "view",
      "type": "function"
    },
    {
      "inputs": [
        {
          "internalType": "uint256",
          "name": "proposalId",
          "type": "uint256"
        }
      ],
      "name": "proposalSnapshot",
      "outputs": [
        {
          "internalType": "uint256",
          "name": "",
          "type": "uint256"
        }
      ],
      "stateMutability": "view",
      "type": "function"
    },
    {
      "inputs": [],
      "name": "proposalThreshold",
      "outputs": [
        {
          "internalType": "uint256",
          "name": "",
          "type": "uint256"
        }
      ],
      "stateMutability": "view",
      "type": "function"
    },
    {
      "inputs": [
        {
          "internalType": "uint256",
          "name": "proposalId",
          "type": "uint256"
        }
      ],
      "name": "proposalVotes",
      "outputs": [
        {
          "internalType": "uint256",
          "name": "againstVotes",
          "type": "uint256"
        },
        {
          "internalType": "uint256",
          "name": "forVotes",
          "type": "uint256"
        },
        {
          "internalType": "uint256",
          "name": "abstainVotes",
          "type": "uint256"
        }
      ],
      "stateMutability": "view",
      "type": "function"
    },
    {
      "inputs": [
        {
          "internalType": "address[]",
          "name": "targets",
          "type": "address[]"
        },
        {
          "internalType": "uint256[]",
          "name": "values",
          "type": "uint256[]"
        },
        {
          "internalType": "bytes[]",
          "name": "calldatas",
          "type": "bytes[]"
        },
        {
          "internalType": "string",
          "name": "description",
          "type": "string"
        }
      ],
      "name": "propose",
      "outputs": [
        {
          "internalType": "uint256",
          "name": "",
          "type": "uint256"
        }
      ],
      "stateMutability": "nonpayable",
      "type": "function"
    },
    {
      "inputs": [
        {
          "internalType": "address[]",
          "name": "targets",
          "type": "address[]"
        },
        {
          "internalType": "uint256[]",
          "name": "values",
          "type": "uint256[]"
        },
        {
          "internalType": "bytes[]",
          "name": "calldatas",
          "type": "bytes[]"
        },
        {
          "internalType": "bytes32",
          "name": "descriptionHash",
          "type": "bytes32"
        }
      ],
      "name": "queue",
      "outputs": [
        {
          "internalType": "uint256",
          "name": "",
          "type": "uint256"
        }
      ],
      "stateMutability": "nonpayable",
      "type": "function"
    },
    {
      "inputs": [
        {
          "internalType": "uint256",
          "name": "blockNumber",
          "type": "uint256"
        }
      ],
      "name": "quorum",
      "outputs": [
        {
          "internalType": "uint256",
          "name": "",
          "type": "uint256"
        }
      ],
      "stateMutability": "view",
      "type": "function"
    },
    {
      "inputs": [],
      "name": "quorumDenominator",
      "outputs": [
        {
          "internalType": "uint256",
          "name": "",
          "type": "uint256"
        }
      ],
      "stateMutability": "view",
      "type": "function"
    },
    {
      "inputs": [],
      "name": "quorumNumerator",
      "outputs": [
        {
          "internalType": "uint256",
          "name": "",
          "type": "uint256"
        }
      ],
      "stateMutability": "view",
      "type": "function"
    },
    {
      "inputs": [
        {
          "internalType": "address",
          "name": "target",
          "type": "address"
        },
        {
          "internalType": "uint256",
          "name": "value",
          "type": "uint256"
        },
        {
          "internalType": "bytes",
          "name": "data",
          "type": "bytes"
        }
      ],
      "name": "relay",
      "outputs": [],
      "stateMutability": "nonpayable",
      "type": "function"
    },
    {
      "inputs": [],
      "name": "s_votingDelay",
      "outputs": [
        {
          "internalType": "uint256",
          "name": "",
          "type": "uint256"
        }
      ],
      "stateMutability": "view",
      "type": "function"
    },
    {
      "inputs": [],
      "name": "s_votingPeriod",
      "outputs": [
        {
          "internalType": "uint256",
          "name": "",
          "type": "uint256"
        }
      ],
      "stateMutability": "view",
      "type": "function"
    },
    {
      "inputs": [
        {
          "internalType": "uint256",
          "name": "proposalId",
          "type": "uint256"
        }
      ],
      "name": "state",
      "outputs": [
        {
          "internalType": "enum IGovernor.ProposalState",
          "name": "",
          "type": "uint8"
        }
      ],
      "stateMutability": "view",
      "type": "function"
    },
    {
      "inputs": [
        {
          "internalType": "bytes4",
          "name": "interfaceId",
          "type": "bytes4"
        }
      ],
      "name": "supportsInterface",
      "outputs": [
        {
          "internalType": "bool",
          "name": "",
          "type": "bool"
        }
      ],
      "stateMutability": "view",
      "type": "function"
    },
    {
      "inputs": [],
      "name": "timelock",
      "outputs": [
        {
          "internalType": "address",
          "name": "",
          "type": "address"
        }
      ],
      "stateMutability": "view",
      "type": "function"
    },
    {
      "inputs": [],
      "name": "token",
      "outputs": [
        {
          "internalType": "contract IVotes",
          "name": "",
          "type": "address"
        }
      ],
      "stateMutability": "view",
      "type": "function"
    },
    {
      "inputs": [
        {
          "internalType": "uint256",
          "name": "newQuorumNumerator",
          "type": "uint256"
        }
      ],
      "name": "updateQuorumNumerator",
      "outputs": [],
      "stateMutability": "nonpayable",
      "type": "function"
    },
    {
      "inputs": [
        {
          "internalType": "contract TimelockController",
          "name": "newTimelock",
          "type": "address"
        }
      ],
      "name": "updateTimelock",
      "outputs": [],
      "stateMutability": "nonpayable",
      "type": "function"
    },
    {
      "inputs": [],
      "name": "version",
      "outputs": [
        {
          "internalType": "string",
          "name": "",
          "type": "string"
        }
      ],
      "stateMutability": "view",
      "type": "function"
    },
    {
      "inputs": [],
      "name": "votingDelay",
      "outputs": [
        {
          "internalType": "uint256",
          "name": "",
          "type": "uint256"
        }
      ],
      "stateMutability": "view",
      "type": "function"
    },
    {
      "inputs": [],
      "name": "votingPeriod",
      "outputs": [
        {
          "internalType": "uint256",
          "name": "",
          "type": "uint256"
        }
      ],
      "stateMutability": "view",
      "type": "function"
    },
    {
      "stateMutability": "payable",
      "type": "receive"
    }
  ],
  "bytecode": {
    "object": "0x6101606040523480156200001257600080fd5b50604051620038f0380380620038f083398101604081905262000035916200035f565b8383866040518060400160405280601081526020016f11dbdd995c9b9bdc90dbdb9d1c9858dd60821b81525080620000726200014f60201b60201c565b815160208084019190912082518383012060e08290526101008190524660a0818152604080517f8b73c3c69bb8fe3d512ecc4cf759cc79239f7b179b0ffacaa9a75d522b39400f81880181905281830187905260608201869052608082019490945230818401528151808203909301835260c00190528051940193909320919290916080523060c0526101205250508251620001189250600091506020840190620002a0565b50506001600160a01b03166101405262000132816200016a565b506200013e8162000237565b5060085560095550620003f4915050565b6040805180820190915260018152603160f81b602082015290565b6064811115620001f25760405162461bcd60e51b815260206004820152604360248201527f476f7665726e6f72566f74657351756f72756d4672616374696f6e3a2071756f60448201527f72756d4e756d657261746f72206f7665722071756f72756d44656e6f6d696e616064820152623a37b960e91b608482015260a40160405180910390fd5b600580549082905560408051828152602081018490527f0553476bf02ef2726e8ce5ced78d63e26e602e4a2257b1f559418e24b4633997910160405180910390a15050565b600654604080516001600160a01b03928316815291831660208301527f08f74ea46ef7894f65eabfb5e6e695de773a000b47c529ab559178069b226401910160405180910390a1600680546001600160a01b0319166001600160a01b0392909216919091179055565b828054620002ae90620003b7565b90600052602060002090601f016020900481019282620002d257600085556200031d565b82601f10620002ed57805160ff19168380011785556200031d565b828001600101855582156200031d579182015b828111156200031d57825182559160200191906001019062000300565b506200032b9291506200032f565b5090565b5b808211156200032b576000815560010162000330565b6001600160a01b03811681146200035c57600080fd5b50565b600080600080600060a086880312156200037857600080fd5b8551620003858162000346565b6020870151909550620003988162000346565b6040870151606088015160809098015196999198509695945092505050565b600181811c90821680620003cc57607f821691505b60208210811415620003ee57634e487b7160e01b600052602260045260246000fd5b50919050565b60805160a05160c05160e0516101005161012051610140516134936200045d6000396000818161080701528181611a400152611b8901526000611d1401526000611d6301526000611d3e01526000611c9701526000611cc101526000611ceb01526134936000f3fe6080604052600436106102345760003560e01c8063725ae3dc1161012e578063c01f9e37116100ab578063deaaa7cc1161006f578063deaaa7cc14610755578063eb9019d414610789578063f23a6e61146107a9578063f8ce560a146107d5578063fc0c546a146107f557600080fd5b8063c01f9e371461067d578063c28bc2fa1461069d578063c59057e4146106bd578063d33219b4146106dd578063dd4e2ba51461070f57600080fd5b8063a7713a70116100f2578063a7713a70146105e8578063a890c910146105fd578063ab58fb8e1461061d578063b58131b01461063d578063bc197c811461065157600080fd5b8063725ae3dc1461055e5780637b3c71d3146105745780637d5e81e21461059457806397c3d334146105b45780639a802a6d146105c857600080fd5b80632d63f693116101bc57806343859632116101805780634385963214610455578063544ffc9c1461049f57806354fd4d50146104f4578063567813881461051e5780635f398a141461053e57600080fd5b80632d63f6931461039f5780632fe3e261146103bf5780633932abb1146103f35780633bccf4fd146104085780633e4f49e61461042857600080fd5b806306fdde031161020357806306fdde03146102f0578063102d7f2c14610312578063150b7a0214610328578063160cbed71461036c5780632656227d1461038c57600080fd5b806301ffc9a71461025c57806302a251a31461029157806303420181146102b057806306f3f9e6146102d057600080fd5b366102575730610242610829565b6001600160a01b03161461025557600080fd5b005b600080fd5b34801561026857600080fd5b5061027c610277366004612596565b610842565b60405190151581526020015b60405180910390f35b34801561029d57600080fd5b506009545b604051908152602001610288565b3480156102bc57600080fd5b506102a26102cb3660046126db565b610853565b3480156102dc57600080fd5b506102556102eb366004612781565b61094b565b3480156102fc57600080fd5b506103056109e3565b60405161028891906127f6565b34801561031e57600080fd5b506102a260085481565b34801561033457600080fd5b5061035361034336600461281e565b630a85bd0160e11b949350505050565b6040516001600160e01b03199091168152602001610288565b34801561037857600080fd5b506102a26103873660046129fa565b610a75565b6102a261039a3660046129fa565b610c93565b3480156103ab57600080fd5b506102a26103ba366004612781565b610d80565b3480156103cb57600080fd5b506102a27fb3b3f3b703cd84ce352197dcff232b1b5d3cfb2025ce47cf04742d0651f1af8881565b3480156103ff57600080fd5b506008546102a2565b34801561041457600080fd5b506102a2610423366004612a89565b610db7565b34801561043457600080fd5b50610448610443366004612781565b610e2d565b6040516102889190612aed565b34801561046157600080fd5b5061027c610470366004612b15565b60008281526004602090815260408083206001600160a01b038516845260030190915290205460ff1692915050565b3480156104ab57600080fd5b506104d96104ba366004612781565b6000908152600460205260409020805460018201546002909201549092565b60408051938452602084019290925290820152606001610288565b34801561050057600080fd5b506040805180820190915260018152603160f81b6020820152610305565b34801561052a57600080fd5b506102a2610539366004612b45565b610e38565b34801561054a57600080fd5b506102a2610559366004612b71565b610e61565b34801561056a57600080fd5b506102a260095481565b34801561058057600080fd5b506102a261058f366004612bf4565b610eab565b3480156105a057600080fd5b506102a26105af366004612c4d565b610efd565b3480156105c057600080fd5b5060646102a2565b3480156105d457600080fd5b506102a26105e3366004612d01565b610f14565b3480156105f457600080fd5b506005546102a2565b34801561060957600080fd5b50610255610618366004612d59565b610f2b565b34801561062957600080fd5b506102a2610638366004612781565b610fb7565b34801561064957600080fd5b5060006102a2565b34801561065d57600080fd5b5061035361066c366004612d76565b63bc197c8160e01b95945050505050565b34801561068957600080fd5b506102a2610698366004612781565b611060565b3480156106a957600080fd5b506102556106b8366004612e09565b61108f565b3480156106c957600080fd5b506102a26106d83660046129fa565b61115b565b3480156106e957600080fd5b506006546001600160a01b03165b6040516001600160a01b039091168152602001610288565b34801561071b57600080fd5b506040805180820190915260208082527f737570706f72743d627261766f2671756f72756d3d666f722c6162737461696e90820152610305565b34801561076157600080fd5b506102a27f150214d74d59b7d1e90c73fc22ef3d991dd0a76b046543d4d80ab92d2a50328f81565b34801561079557600080fd5b506102a26107a4366004612e4c565b611195565b3480156107b557600080fd5b506103536107c4366004612e78565b63f23a6e6160e01b95945050505050565b3480156107e157600080fd5b506102a26107f0366004612781565b6111a1565b34801561080157600080fd5b506106f77f000000000000000000000000000000000000000000000000000000000000000081565b600061083d6006546001600160a01b031690565b905090565b600061084d826111ac565b92915050565b6000806108f76108ef7fb3b3f3b703cd84ce352197dcff232b1b5d3cfb2025ce47cf04742d0651f1af888c8c8c8c60405161088f929190612ee0565b60405180910390208b805190602001206040516020016108d4959493929190948552602085019390935260ff9190911660408401526060830152608082015260a00190565b604051602081830303815290604052805190602001206111d1565b86868661121f565b905061093d8a828b8b8b8080601f0160208091040260200160405190810160405280939291908181526020018383808284376000920191909152508d925061123d915050565b9a9950505050505050505050565b610953610829565b6001600160a01b0316336001600160a01b03161461098c5760405162461bcd60e51b815260040161098390612ef0565b60405180910390fd5b30610995610829565b6001600160a01b0316146109d757600080366040516109b5929190612ee0565b604051809103902090505b806109cb600261139f565b146109d5576109c0565b505b6109e08161141e565b50565b6060600080546109f290612f27565b80601f0160208091040260200160405190810160405280929190818152602001828054610a1e90612f27565b8015610a6b5780601f10610a4057610100808354040283529160200191610a6b565b820191906000526020600020905b815481529060010190602001808311610a4e57829003601f168201915b5050505050905090565b600080610a848686868661115b565b90506004610a9182610e2d565b6007811115610aa257610aa2612ad7565b14610abf5760405162461bcd60e51b815260040161098390612f62565b6006546040805163793d064960e11b815290516000926001600160a01b03169163f27a0c92916004808301926020929190829003018186803b158015610b0457600080fd5b505afa158015610b18573d6000803e3d6000fd5b505050506040513d601f19601f82011682018060405250810190610b3c9190612fa3565b60065460405163b1c5f42760e01b81529192506001600160a01b03169063b1c5f42790610b76908a908a908a906000908b90600401613085565b60206040518083038186803b158015610b8e57600080fd5b505afa158015610ba2573d6000803e3d6000fd5b505050506040513d601f19601f82011682018060405250810190610bc69190612fa3565b6000838152600760205260408082209290925560065491516308f2a0bb60e41b81526001600160a01b0390921691638f2a0bb091610c11918b918b918b91908b9089906004016130d3565b600060405180830381600087803b158015610c2b57600080fd5b505af1158015610c3f573d6000803e3d6000fd5b505050507f9a2e42fd6722813d69113e7d0079d3d940171428df7373df9c7f7617cfda2892828242610c719190613141565b6040805192835260208301919091520160405180910390a15095945050505050565b600080610ca28686868661115b565b90506000610caf82610e2d565b90506004816007811115610cc557610cc5612ad7565b1480610ce257506005816007811115610ce057610ce0612ad7565b145b610cfe5760405162461bcd60e51b815260040161098390612f62565b600082815260016020818152604092839020600201805460ff191690921790915590518381527f712ae1383f79ac853f8d882153778e0260ef8f03b504e2866e0593e04d2b291f910160405180910390a1610d5c82888888886114e6565b610d698288888888611588565b610d768288888888611595565b5095945050505050565b60008181526001602090815260408083208151928301909152546001600160401b0316908190525b6001600160401b031692915050565b604080517f150214d74d59b7d1e90c73fc22ef3d991dd0a76b046543d4d80ab92d2a50328f602082015290810186905260ff851660608201526000908190610e05906108ef906080016108d4565b9050610e22878288604051806020016040528060008152506115ce565b979650505050505050565b600061084d826115f1565b600080339050610e59848285604051806020016040528060008152506115ce565b949350505050565b600080339050610e2287828888888080601f0160208091040260200160405190810160405280939291908181526020018383808284376000920191909152508a925061123d915050565b600080339050610ef386828787878080601f0160208091040260200160405190810160405280939291908181526020018383808284376000920191909152506115ce92505050565b9695505050505050565b6000610f0b85858585611759565b95945050505050565b6000610f21848484611a17565b90505b9392505050565b610f33610829565b6001600160a01b0316336001600160a01b031614610f635760405162461bcd60e51b815260040161098390612ef0565b30610f6c610829565b6001600160a01b031614610fae5760008036604051610f8c929190612ee0565b604051809103902090505b80610fa2600261139f565b14610fac57610f97565b505b6109e081611abc565b60065460008281526007602052604080822054905163d45c443560e01b81526004810191909152909182916001600160a01b039091169063d45c44359060240160206040518083038186803b15801561100f57600080fd5b505afa158015611023573d6000803e3d6000fd5b505050506040513d601f19601f820116820180604052508101906110479190612fa3565b9050806001146110575780610f24565b60009392505050565b60008181526001602081815260408084208151928301909152909101546001600160401b031690819052610da8565b611097610829565b6001600160a01b0316336001600160a01b0316146110c75760405162461bcd60e51b815260040161098390612ef0565b306110d0610829565b6001600160a01b03161461111257600080366040516110f0929190612ee0565b604051809103902090505b80611106600261139f565b14611110576110fb565b505b6111548483838080601f016020809104026020016040519081016040528093929190818152602001838380828437600092019190915250889250611b25915050565b5050505050565b6000848484846040516020016111749493929190613159565b60408051601f19818403018152919052805160209091012095945050505050565b6000610f248383611b4b565b600061084d82611b6c565b60006001600160e01b03198216636e665ced60e01b148061084d575061084d82611c1f565b600061084d6111de611c8a565b8360405161190160f01b6020820152602281018390526042810182905260009060620160405160208183030381529060405280519060200120905092915050565b600080600061123087878787611db1565b91509150610d7681611e9e565b600085815260016020819052604082209061125788610e2d565b600781111561126857611268612ad7565b146112c15760405162461bcd60e51b815260206004820152602360248201527f476f7665726e6f723a20766f7465206e6f742063757272656e746c792061637460448201526269766560e81b6064820152608401610983565b604080516020810190915281546001600160401b0316908190526000906112ea90889086611a17565b90506112f98888888488612059565b835161134b57866001600160a01b03167fb8e138887d0aa13bab447e82de9d5c1777041ecd21ca36ba824ff1e6c07ddda48988848960405161133e94939291906131a4565b60405180910390a2610e22565b866001600160a01b03167fe2babfbac5889a709b63bb7f598b324e08bc5a4fb9ec647fb3cbc9ec07eb8712898884898960405161138c9594939291906131cc565b60405180910390a2979650505050505050565b60006113ba8254600f81810b600160801b909204900b131590565b156113d857604051631ed9509560e11b815260040160405180910390fd5b508054600f0b6000818152600180840160205260408220805492905583546fffffffffffffffffffffffffffffffff191692016001600160801b03169190911790915590565b60648111156114a15760405162461bcd60e51b815260206004820152604360248201527f476f7665726e6f72566f74657351756f72756d4672616374696f6e3a2071756f60448201527f72756d4e756d657261746f72206f7665722071756f72756d44656e6f6d696e616064820152623a37b960e91b608482015260a401610983565b600580549082905560408051828152602081018490527f0553476bf02ef2726e8ce5ced78d63e26e602e4a2257b1f559418e24b4633997910160405180910390a15050565b306114ef610829565b6001600160a01b0316146111545760005b845181101561158057306001600160a01b031685828151811061152557611525613212565b60200260200101516001600160a01b031614156115705761157083828151811061155157611551613212565b60200260200101518051906020012060026121d890919063ffffffff16565b61157981613228565b9050611500565b505050505050565b6111548585858585612214565b3061159e610829565b6001600160a01b03161461115457600254600f81810b600160801b909204900b1315611154576000600255611154565b6000610f0b858585856115ec60408051602081019091526000815290565b61123d565b6000806115fd83612288565b9050600481600781111561161357611613612ad7565b1461161e5792915050565b60008381526007602052604090205480611639575092915050565b600654604051632ab0f52960e01b8152600481018390526001600160a01b0390911690632ab0f5299060240160206040518083038186803b15801561167d57600080fd5b505afa158015611691573d6000803e3d6000fd5b505050506040513d601f19601f820116820180604052508101906116b59190613243565b156116c4575060079392505050565b600654604051632c258a9f60e11b8152600481018390526001600160a01b039091169063584b153e9060240160206040518083038186803b15801561170857600080fd5b505afa15801561171c573d6000803e3d6000fd5b505050506040513d601f19601f820116820180604052508101906117409190613243565b1561174f575060059392505050565b5060029392505050565b60008061176b336107a4600143613265565b10156117d35760405162461bcd60e51b815260206004820152603160248201527f476f7665726e6f723a2070726f706f73657220766f7465732062656c6f7720706044820152701c9bdc1bdcd85b081d1a1c995cda1bdb19607a1b6064820152608401610983565b60006117e8868686868051906020012061115b565b9050845186511461180b5760405162461bcd60e51b81526004016109839061327c565b835186511461182c5760405162461bcd60e51b81526004016109839061327c565b600086511161187d5760405162461bcd60e51b815260206004820152601860248201527f476f7665726e6f723a20656d7074792070726f706f73616c00000000000000006044820152606401610983565b600081815260016020908152604091829020825191820190925281546001600160401b031690819052156118fd5760405162461bcd60e51b815260206004820152602160248201527f476f7665726e6f723a2070726f706f73616c20616c72656164792065786973746044820152607360f81b6064820152608401610983565b600061191061190b60085490565b612394565b61191943612394565b61192391906132bd565b9050600061193361190b60095490565b61193d90836132bd565b835467ffffffffffffffff19166001600160401b038416178455905060018301805467ffffffffffffffff19166001600160401b0383161790557f7d84a6263ae0d98d3329bd7b46bb4e8d6f98cd35a7adb45c274c8b7fd5ebd5e084338b8b8d516001600160401b038111156119b5576119b561261e565b6040519080825280602002602001820160405280156119e857816020015b60608152602001906001900390816119d35790505b508c88888e604051611a02999897969594939291906132e8565b60405180910390a15091979650505050505050565b604051630748d63560e31b81526001600160a01b038481166004830152602482018490526000917f000000000000000000000000000000000000000000000000000000000000000090911690633a46b1a89060440160206040518083038186803b158015611a8457600080fd5b505afa158015611a98573d6000803e3d6000fd5b505050506040513d601f19601f82011682018060405250810190610f219190612fa3565b600654604080516001600160a01b03928316815291831660208301527f08f74ea46ef7894f65eabfb5e6e695de773a000b47c529ab559178069b226401910160405180910390a1600680546001600160a01b0319166001600160a01b0392909216919091179055565b6060610f2184848460405180606001604052806029815260200161343560299139612400565b6000610f248383611b6760408051602081019091526000815290565b611a17565b60006064600554604051632394e7a360e21b8152600481018590527f00000000000000000000000000000000000000000000000000000000000000006001600160a01b031690638e539e8c9060240160206040518083038186803b158015611bd357600080fd5b505afa158015611be7573d6000803e3d6000fd5b505050506040513d601f19601f82011682018060405250810190611c0b9190612fa3565b611c1591906133d7565b61084d91906133f6565b60006001600160e01b0319821663bf26d89760e01b1480611c5057506001600160e01b031982166379dd796f60e01b145b80611c6b57506001600160e01b03198216630271189760e51b145b8061084d57506301ffc9a760e01b6001600160e01b031983161461084d565b6000306001600160a01b037f000000000000000000000000000000000000000000000000000000000000000016148015611ce357507f000000000000000000000000000000000000000000000000000000000000000046145b15611d0d57507f000000000000000000000000000000000000000000000000000000000000000090565b50604080517f00000000000000000000000000000000000000000000000000000000000000006020808301919091527f0000000000000000000000000000000000000000000000000000000000000000828401527f000000000000000000000000000000000000000000000000000000000000000060608301524660808301523060a0808401919091528351808403909101815260c0909201909252805191012090565b6000807f7fffffffffffffffffffffffffffffff5d576e7357a4501ddfe92f46681b20a0831115611de85750600090506003611e95565b8460ff16601b14158015611e0057508460ff16601c14155b15611e115750600090506004611e95565b6040805160008082526020820180845289905260ff881692820192909252606081018690526080810185905260019060a0016020604051602081039080840390855afa158015611e65573d6000803e3d6000fd5b5050604051601f1901519150506001600160a01b038116611e8e57600060019250925050611e95565b9150600090505b94509492505050565b6000816004811115611eb257611eb2612ad7565b1415611ebb5750565b6001816004811115611ecf57611ecf612ad7565b1415611f1d5760405162461bcd60e51b815260206004820152601860248201527f45434453413a20696e76616c6964207369676e617475726500000000000000006044820152606401610983565b6002816004811115611f3157611f31612ad7565b1415611f7f5760405162461bcd60e51b815260206004820152601f60248201527f45434453413a20696e76616c6964207369676e6174757265206c656e677468006044820152606401610983565b6003816004811115611f9357611f93612ad7565b1415611fec5760405162461bcd60e51b815260206004820152602260248201527f45434453413a20696e76616c6964207369676e6174757265202773272076616c604482015261756560f01b6064820152608401610983565b600481600481111561200057612000612ad7565b14156109e05760405162461bcd60e51b815260206004820152602260248201527f45434453413a20696e76616c6964207369676e6174757265202776272076616c604482015261756560f01b6064820152608401610983565b60008581526004602090815260408083206001600160a01b0388168452600381019092529091205460ff16156120e15760405162461bcd60e51b815260206004820152602760248201527f476f7665726e6f72566f74696e6753696d706c653a20766f746520616c726561604482015266191e4818d85cdd60ca1b6064820152608401610983565b6001600160a01b03851660009081526003820160205260408120805460ff1916600117905560ff168460ff16141561213257828160000160008282546121279190613141565b909155506115809050565b60ff84166001141561215257828160010160008282546121279190613141565b60ff84166002141561217257828160020160008282546121279190613141565b60405162461bcd60e51b815260206004820152603560248201527f476f7665726e6f72566f74696e6753696d706c653a20696e76616c69642076616044820152746c756520666f7220656e756d20566f74655479706560581b6064820152608401610983565b8154600160801b90819004600f0b6000818152600180860160205260409091209390935583546001600160801b03908116939091011602179055565b60065460405163e38335e560e01b81526001600160a01b039091169063e38335e590349061224f908890889088906000908990600401613085565b6000604051808303818588803b15801561226857600080fd5b505af115801561227c573d6000803e3d6000fd5b50505050505050505050565b6000818152600160205260408120600281015460ff16156122ac5750600792915050565b6002810154610100900460ff16156122c75750600292915050565b60006122d284610d80565b9050806123215760405162461bcd60e51b815260206004820152601d60248201527f476f7665726e6f723a20756e6b6e6f776e2070726f706f73616c2069640000006044820152606401610983565b438110612332575060009392505050565b600061233d85611060565b905043811061235157506001949350505050565b61235a85612526565b8015612379575060008581526004602052604090208054600190910154115b1561238957506004949350505050565b506003949350505050565b60006001600160401b038211156123fc5760405162461bcd60e51b815260206004820152602660248201527f53616665436173743a2076616c756520646f65736e27742066697420696e203660448201526534206269747360d01b6064820152608401610983565b5090565b6060824710156124615760405162461bcd60e51b815260206004820152602660248201527f416464726573733a20696e73756666696369656e742062616c616e636520666f6044820152651c8818d85b1b60d21b6064820152608401610983565b6001600160a01b0385163b6124b85760405162461bcd60e51b815260206004820152601d60248201527f416464726573733a2063616c6c20746f206e6f6e2d636f6e74726163740000006044820152606401610983565b600080866001600160a01b031685876040516124d49190613418565b60006040518083038185875af1925050503d8060008114612511576040519150601f19603f3d011682016040523d82523d6000602084013e612516565b606091505b5091509150610e2282828661255d565b6000818152600460205260408120600281015460018201546125489190613141565b6125546107f085610d80565b11159392505050565b6060831561256c575081610f24565b82511561257c5782518084602001fd5b8160405162461bcd60e51b815260040161098391906127f6565b6000602082840312156125a857600080fd5b81356001600160e01b031981168114610f2457600080fd5b803560ff811681146125d157600080fd5b919050565b60008083601f8401126125e857600080fd5b5081356001600160401b038111156125ff57600080fd5b60208301915083602082850101111561261757600080fd5b9250929050565b634e487b7160e01b600052604160045260246000fd5b604051601f8201601f191681016001600160401b038111828210171561265c5761265c61261e565b604052919050565b60006001600160401b0383111561267d5761267d61261e565b612690601f8401601f1916602001612634565b90508281528383830111156126a457600080fd5b828260208301376000602084830101529392505050565b600082601f8301126126cc57600080fd5b610f2483833560208501612664565b60008060008060008060008060e0898b0312156126f757600080fd5b8835975061270760208a016125c0565b965060408901356001600160401b038082111561272357600080fd5b61272f8c838d016125d6565b909850965060608b013591508082111561274857600080fd5b506127558b828c016126bb565b94505061276460808a016125c0565b925060a0890135915060c089013590509295985092959890939650565b60006020828403121561279357600080fd5b5035919050565b60005b838110156127b557818101518382015260200161279d565b838111156127c4576000848401525b50505050565b600081518084526127e281602086016020860161279a565b601f01601f19169290920160200192915050565b602081526000610f2460208301846127ca565b6001600160a01b03811681146109e057600080fd5b6000806000806080858703121561283457600080fd5b843561283f81612809565b9350602085013561284f81612809565b92506040850135915060608501356001600160401b0381111561287157600080fd5b61287d878288016126bb565b91505092959194509250565b60006001600160401b038211156128a2576128a261261e565b5060051b60200190565b600082601f8301126128bd57600080fd5b813560206128d26128cd83612889565b612634565b82815260059290921b840181019181810190868411156128f157600080fd5b8286015b8481101561291557803561290881612809565b83529183019183016128f5565b509695505050505050565b600082601f83011261293157600080fd5b813560206129416128cd83612889565b82815260059290921b8401810191818101908684111561296057600080fd5b8286015b848110156129155780358352918301918301612964565b600082601f83011261298c57600080fd5b8135602061299c6128cd83612889565b82815260059290921b840181019181810190868411156129bb57600080fd5b8286015b848110156129155780356001600160401b038111156129de5760008081fd5b6129ec8986838b01016126bb565b8452509183019183016129bf565b60008060008060808587031215612a1057600080fd5b84356001600160401b0380821115612a2757600080fd5b612a33888389016128ac565b95506020870135915080821115612a4957600080fd5b612a5588838901612920565b94506040870135915080821115612a6b57600080fd5b50612a788782880161297b565b949793965093946060013593505050565b600080600080600060a08688031215612aa157600080fd5b85359450612ab1602087016125c0565b9350612abf604087016125c0565b94979396509394606081013594506080013592915050565b634e487b7160e01b600052602160045260246000fd5b6020810160088310612b0f57634e487b7160e01b600052602160045260246000fd5b91905290565b60008060408385031215612b2857600080fd5b823591506020830135612b3a81612809565b809150509250929050565b60008060408385031215612b5857600080fd5b82359150612b68602084016125c0565b90509250929050565b600080600080600060808688031215612b8957600080fd5b85359450612b99602087016125c0565b935060408601356001600160401b0380821115612bb557600080fd5b612bc189838a016125d6565b90955093506060880135915080821115612bda57600080fd5b50612be7888289016126bb565b9150509295509295909350565b60008060008060608587031215612c0a57600080fd5b84359350612c1a602086016125c0565b925060408501356001600160401b03811115612c3557600080fd5b612c41878288016125d6565b95989497509550505050565b60008060008060808587031215612c6357600080fd5b84356001600160401b0380821115612c7a57600080fd5b612c86888389016128ac565b95506020870135915080821115612c9c57600080fd5b612ca888838901612920565b94506040870135915080821115612cbe57600080fd5b612cca8883890161297b565b93506060870135915080821115612ce057600080fd5b508501601f81018713612cf257600080fd5b61287d87823560208401612664565b600080600060608486031215612d1657600080fd5b8335612d2181612809565b92506020840135915060408401356001600160401b03811115612d4357600080fd5b612d4f868287016126bb565b9150509250925092565b600060208284031215612d6b57600080fd5b8135610f2481612809565b600080600080600060a08688031215612d8e57600080fd5b8535612d9981612809565b94506020860135612da981612809565b935060408601356001600160401b0380821115612dc557600080fd5b612dd189838a01612920565b94506060880135915080821115612de757600080fd5b612df389838a01612920565b93506080880135915080821115612bda57600080fd5b60008060008060608587031215612e1f57600080fd5b8435612e2a81612809565b93506020850135925060408501356001600160401b03811115612c3557600080fd5b60008060408385031215612e5f57600080fd5b8235612e6a81612809565b946020939093013593505050565b600080600080600060a08688031215612e9057600080fd5b8535612e9b81612809565b94506020860135612eab81612809565b9350604086013592506060860135915060808601356001600160401b03811115612ed457600080fd5b612be7888289016126bb565b8183823760009101908152919050565b60208082526018908201527f476f7665726e6f723a206f6e6c79476f7665726e616e63650000000000000000604082015260600190565b600181811c90821680612f3b57607f821691505b60208210811415612f5c57634e487b7160e01b600052602260045260246000fd5b50919050565b60208082526021908201527f476f7665726e6f723a2070726f706f73616c206e6f74207375636365737366756040820152601b60fa1b606082015260800190565b600060208284031215612fb557600080fd5b5051919050565b600081518084526020808501945080840160005b83811015612ff55781516001600160a01b031687529582019590820190600101612fd0565b509495945050505050565b600081518084526020808501945080840160005b83811015612ff557815187529582019590820190600101613014565b600081518084526020808501808196508360051b8101915082860160005b858110156130785782840389526130668483516127ca565b9885019893509084019060010161304e565b5091979650505050505050565b60a08152600061309860a0830188612fbc565b82810360208401526130aa8188613000565b905082810360408401526130be8187613030565b60608401959095525050608001529392505050565b60c0815260006130e660c0830189612fbc565b82810360208401526130f88189613000565b9050828103604084015261310c8188613030565b60608401969096525050608081019290925260a0909101529392505050565b634e487b7160e01b600052601160045260246000fd5b600082198211156131545761315461312b565b500190565b60808152600061316c6080830187612fbc565b828103602084015261317e8187613000565b905082810360408401526131928186613030565b91505082606083015295945050505050565b84815260ff84166020820152826040820152608060608201526000610ef360808301846127ca565b85815260ff8516602082015283604082015260a0606082015260006131f460a08301856127ca565b828103608084015261320681856127ca565b98975050505050505050565b634e487b7160e01b600052603260045260246000fd5b600060001982141561323c5761323c61312b565b5060010190565b60006020828403121561325557600080fd5b81518015158114610f2457600080fd5b6000828210156132775761327761312b565b500390565b60208082526021908201527f476f7665726e6f723a20696e76616c69642070726f706f73616c206c656e67746040820152600d60fb1b606082015260800190565b60006001600160401b038083168185168083038211156132df576132df61312b565b01949350505050565b60006101208b8352602060018060a01b038c16818501528160408501526133118285018c612fbc565b91508382036060850152613325828b613000565b915083820360808501528189518084528284019150828160051b850101838c0160005b8381101561337657601f198784030185526133648383516127ca565b94860194925090850190600101613348565b505086810360a088015261338a818c613030565b9450505050506133a560c08401876001600160401b03169052565b6001600160401b03851660e08401528281036101008401526133c781856127ca565b9c9b505050505050505050505050565b60008160001904831182151516156133f1576133f161312b565b500290565b60008261341357634e487b7160e01b600052601260045260246000fd5b500490565b6000825161342a81846020870161279a565b919091019291505056fe416464726573733a206c6f772d6c6576656c2063616c6c20776974682076616c7565206661696c6564a26469706673582212208f85eec38cc63e15ff4afbe3ab8e66023d8d867a9b078f93444916b05500f0e164736f6c63430008090033",
    "linkReferences": {}
  }
}