{
  "abi": [
    {
      "inputs": [],
      "name": "ROLE_ADVISOR",
      "outputs": [
        {
          "internalType": "bytes32",
          "name": "",
          "type": "bytes32"
        }
      ],
      "stateMutability": "view",
      "type": "function"
    },
    {
      "inputs": [],
      "name": "ROLE_CEO",
      "outputs": [
        {
          "internalType": "bytes32",
          "name": "",
          "type": "bytes32"
        }
      ],
      "stateMutability": "view",
      "type": "function"
    },
    {
      "inputs": [],
      "name": "ROLE_CFO",
      "outputs": [
        {
          "internalType": "bytes32",
          "name": "",
          "type": "bytes32"
        }
      ],
      "stateMutability": "view",
      "type": "function"
    },
    {
      "inputs": [],
      "name": "ROLE_CMO",
      "outputs": [
        {
          "internalType": "bytes32",
          "name": "",
          "type": "bytes32"
        }
      ],
      "stateMutability": "view",
      "type": "function"
    },
    {
      "inputs": [],
      "name": "ROLE_COO",
      "outputs": [
        {
          "internalType": "bytes32",
          "name": "",
          "type": "bytes32"
        }
      ],
      "stateMutability": "view",
      "type": "function"
    },
    {
      "inputs": [],
      "name": "ROLE_CTO",
      "outputs": [
        {
          "internalType": "bytes32",
          "name": "",
          "type": "bytes32"
        }
      ],
      "stateMutability": "view",
      "type": "function"
    },
    {
      "inputs": [],
      "name": "ROLE_PARTNER",
      "outputs": [
        {
          "internalType": "bytes32",
          "name": "",
          "type": "bytes32"
        }
      ],
      "stateMutability": "view",
      "type": "function"
    },
    {
      "inputs": [
        {
          "internalType": "string",
          "name": "name",
          "type": "string"
        },
        {
          "internalType": "bytes32",
          "name": "roles",
          "type": "bytes32"
        },
        {
          "internalType": "address",
          "name": "wallet",
          "type": "address"
        }
      ],
      "name": "_createFounder",
      "outputs": [
        {
          "components": [
            {
              "internalType": "string",
              "name": "name",
              "type": "string"
            },
            {
              "internalType": "bytes32",
              "name": "roles",
              "type": "bytes32"
            },
            {
              "internalType": "address",
              "name": "wallet",
              "type": "address"
            }
          ],
          "internalType": "struct Founders.founderData",
          "name": "",
          "type": "tuple"
        }
      ],
      "stateMutability": "pure",
      "type": "function"
    },
    {
      "inputs": [
        {
          "internalType": "bytes32",
          "name": "role",
          "type": "bytes32"
        }
      ],
      "name": "_roleToString",
      "outputs": [
        {
          "internalType": "string",
          "name": "",
          "type": "string"
        }
      ],
      "stateMutability": "pure",
      "type": "function"
    }
  ],
  "bytecode": {
    "object": "0x61076b61003a600b82828239805160001a60731461002d57634e487b7160e01b600052600060045260246000fd5b30600052607381538281f3fe730000000000000000000000000000000000000000301460806040526004361061009d5760003560e01c8063b91c6c2611610070578063b91c6c2614610124578063bac9dbab1461012c578063d1f8a4c114610134578063e23f2a1d1461013c578063fb76a5a71461014457600080fd5b80632a051f00146100a257806342898745146100bd57806364155547146101145780637708ea1d1461011c575b600080fd5b6100aa610164565b6040519081526020015b60405180910390f35b6101076100cb3660046105a3565b60408051606080820183528082526000602080840182905292840152825190810183529485528401929092526001600160a01b03169082015290565b6040516100b491906106bb565b6100aa6101a4565b6100aa6101cf565b6100aa6101f6565b6100aa61021d565b6100aa610244565b6100aa61026f565b610157610152366004610702565b610296565b6040516100b4919061071b565b60405160200161018b9060208082526003908201526243544f60e81b604082015260600190565b6040516020818303038152906040528051906020012081565b60405160200161018b906020808252600790820152662820a92a2722a960c91b604082015260600190565b60405160200161018b9060208082526003908201526243454f60e81b604082015260600190565b60405160200161018b90602080825260039082015262434d4f60e81b604082015260600190565b60405160200161018b90602080825260039082015262434f4f60e81b604082015260600190565b60405160200161018b9060208082526007908201526620a22b24a9a7a960c91b604082015260600190565b60405160200161018b9060208082526003908201526243464f60e81b604082015260600190565b60606040516020016102bf9060208082526003908201526243454f60e81b604082015260600190565b604051602081830303815290604052805190602001208214156102fb57505060408051808201909152600381526243454f60e81b602082015290565b6040516020016103229060208082526003908201526243464f60e81b604082015260600190565b6040516020818303038152906040528051906020012082141561035e57505060408051808201909152600381526243464f60e81b602082015290565b6040516020016103859060208082526003908201526243544f60e81b604082015260600190565b604051602081830303815290604052805190602001208214156103c157505060408051808201909152600381526243544f60e81b602082015290565b6040516020016103e890602080825260039082015262434f4f60e81b604082015260600190565b60405160208183030381529060405280519060200120821415610424575050604080518082019091526003815262434f4f60e81b602082015290565b60405160200161044b90602080825260039082015262434d4f60e81b604082015260600190565b60405160208183030381529060405280519060200120821415610487575050604080518082019091526003815262434d4f60e81b602082015290565b6040516020016104b29060208082526007908201526620a22b24a9a7a960c91b604082015260600190565b604051602081830303815290604052805190602001208214156104f257505060408051808201909152600781526620a22b24a9a7a960c91b602082015290565b60405160200161051d906020808252600790820152662820a92a2722a960c91b604082015260600190565b6040516020818303038152906040528051906020012082141561055d5750506040805180820190915260078152662820a92a2722a960c91b602082015290565b505060408051602081019091526000815290565b634e487b7160e01b600052604160045260246000fd5b80356001600160a01b038116811461059e57600080fd5b919050565b6000806000606084860312156105b857600080fd5b833567ffffffffffffffff808211156105d057600080fd5b818601915086601f8301126105e457600080fd5b8135818111156105f6576105f6610571565b604051601f8201601f19908116603f0116810190838211818310171561061e5761061e610571565b8160405282815289602084870101111561063757600080fd5b8260208601602083013760006020848301015280975050505050506020840135915061066560408501610587565b90509250925092565b6000815180845260005b8181101561069457602081850181015186830182015201610678565b818111156106a6576000602083870101525b50601f01601f19169290920160200192915050565b6020815260008251606060208401526106d7608084018261066e565b6020850151604085810191909152909401516001600160a01b03166060909301929092525090919050565b60006020828403121561071457600080fd5b5035919050565b60208152600061072e602083018461066e565b939250505056fea2646970667358221220929e05a2c1f6c38e61b96302c10424028c37955456d7e86f2b05c2d1ec21ce4b64736f6c63430008090033",
    "linkReferences": {}
  }
}